{
  "_format": "hh-sol-artifact-1",
  "contractName": "PDAOToken",
  "sourceName": "contracts/PDAOToken.sol",
  "abi": [
    {
      "inputs": [],
      "stateMutability": "nonpayable",
      "type": "constructor"
    },
    {
      "anonymous": false,
      "inputs": [
        {
          "indexed": true,
          "internalType": "address",
          "name": "owner",
          "type": "address"
        },
        {
          "indexed": true,
          "internalType": "address",
          "name": "spender",
          "type": "address"
        },
        {
          "indexed": false,
          "internalType": "uint256",
          "name": "value",
          "type": "uint256"
        }
      ],
      "name": "Approval",
      "type": "event"
    },
    {
      "anonymous": false,
      "inputs": [
        {
          "indexed": true,
          "internalType": "address",
          "name": "delegator",
          "type": "address"
        },
        {
          "indexed": true,
          "internalType": "address",
          "name": "fromDelegate",
          "type": "address"
        },
        {
          "indexed": true,
          "internalType": "address",
          "name": "toDelegate",
          "type": "address"
        }
      ],
      "name": "DelegateChanged",
      "type": "event"
    },
    {
      "anonymous": false,
      "inputs": [
        {
          "indexed": true,
          "internalType": "address",
          "name": "delegate",
          "type": "address"
        },
        {
          "indexed": false,
          "internalType": "uint256",
          "name": "previousBalance",
          "type": "uint256"
        },
        {
          "indexed": false,
          "internalType": "uint256",
          "name": "newBalance",
          "type": "uint256"
        }
      ],
      "name": "DelegateVotesChanged",
      "type": "event"
    },
    {
      "anonymous": false,
      "inputs": [
        {
          "indexed": false,
          "internalType": "address",
          "name": "account",
          "type": "address"
        }
      ],
      "name": "Paused",
      "type": "event"
    },
    {
      "anonymous": false,
      "inputs": [
        {
          "indexed": true,
          "internalType": "bytes32",
          "name": "role",
          "type": "bytes32"
        },
        {
          "indexed": true,
          "internalType": "bytes32",
          "name": "previousAdminRole",
          "type": "bytes32"
        },
        {
          "indexed": true,
          "internalType": "bytes32",
          "name": "newAdminRole",
          "type": "bytes32"
        }
      ],
      "name": "RoleAdminChanged",
      "type": "event"
    },
    {
      "anonymous": false,
      "inputs": [
        {
          "indexed": true,
          "internalType": "bytes32",
          "name": "role",
          "type": "bytes32"
        },
        {
          "indexed": true,
          "internalType": "address",
          "name": "account",
          "type": "address"
        },
        {
          "indexed": true,
          "internalType": "address",
          "name": "sender",
          "type": "address"
        }
      ],
      "name": "RoleGranted",
      "type": "event"
    },
    {
      "anonymous": false,
      "inputs": [
        {
          "indexed": true,
          "internalType": "bytes32",
          "name": "role",
          "type": "bytes32"
        },
        {
          "indexed": true,
          "internalType": "address",
          "name": "account",
          "type": "address"
        },
        {
          "indexed": true,
          "internalType": "address",
          "name": "sender",
          "type": "address"
        }
      ],
      "name": "RoleRevoked",
      "type": "event"
    },
    {
      "anonymous": false,
      "inputs": [
        {
          "indexed": true,
          "internalType": "address",
          "name": "from",
          "type": "address"
        },
        {
          "indexed": true,
          "internalType": "address",
          "name": "to",
          "type": "address"
        },
        {
          "indexed": false,
          "internalType": "uint256",
          "name": "value",
          "type": "uint256"
        }
      ],
      "name": "Transfer",
      "type": "event"
    },
    {
      "anonymous": false,
      "inputs": [
        {
          "indexed": false,
          "internalType": "address",
          "name": "account",
          "type": "address"
        }
      ],
      "name": "Unpaused",
      "type": "event"
    },
    {
      "inputs": [],
      "name": "DEFAULT_ADMIN_ROLE",
      "outputs": [
        {
          "internalType": "bytes32",
          "name": "",
          "type": "bytes32"
        }
      ],
      "stateMutability": "view",
      "type": "function"
    },
    {
      "inputs": [],
      "name": "DOMAIN_SEPARATOR",
      "outputs": [
        {
          "internalType": "bytes32",
          "name": "",
          "type": "bytes32"
        }
      ],
      "stateMutability": "view",
      "type": "function"
    },
    {
      "inputs": [],
      "name": "MINTER_ROLE",
      "outputs": [
        {
          "internalType": "bytes32",
          "name": "",
          "type": "bytes32"
        }
      ],
      "stateMutability": "view",
      "type": "function"
    },
    {
      "inputs": [],
      "name": "PAUSER_ROLE",
      "outputs": [
        {
          "internalType": "bytes32",
          "name": "",
          "type": "bytes32"
        }
      ],
      "stateMutability": "view",
      "type": "function"
    },
    {
      "inputs": [
        {
          "internalType": "address",
          "name": "owner",
          "type": "address"
        },
        {
          "internalType": "address",
          "name": "spender",
          "type": "address"
        }
      ],
      "name": "allowance",
      "outputs": [
        {
          "internalType": "uint256",
          "name": "",
          "type": "uint256"
        }
      ],
      "stateMutability": "view",
      "type": "function"
    },
    {
      "inputs": [
        {
          "internalType": "address",
          "name": "spender",
          "type": "address"
        },
        {
          "internalType": "uint256",
          "name": "amount",
          "type": "uint256"
        }
      ],
      "name": "approve",
      "outputs": [
        {
          "internalType": "bool",
          "name": "",
          "type": "bool"
        }
      ],
      "stateMutability": "nonpayable",
      "type": "function"
    },
    {
      "inputs": [
        {
          "internalType": "address",
          "name": "account",
          "type": "address"
        }
      ],
      "name": "balanceOf",
      "outputs": [
        {
          "internalType": "uint256",
          "name": "",
          "type": "uint256"
        }
      ],
      "stateMutability": "view",
      "type": "function"
    },
    {
      "inputs": [
        {
          "internalType": "uint256",
          "name": "amount",
          "type": "uint256"
        }
      ],
      "name": "burn",
      "outputs": [],
      "stateMutability": "nonpayable",
      "type": "function"
    },
    {
      "inputs": [
        {
          "internalType": "address",
          "name": "account",
          "type": "address"
        },
        {
          "internalType": "uint256",
          "name": "amount",
          "type": "uint256"
        }
      ],
      "name": "burnFrom",
      "outputs": [],
      "stateMutability": "nonpayable",
      "type": "function"
    },
    {
      "inputs": [
        {
          "internalType": "address",
          "name": "account",
          "type": "address"
        }
      ],
      "name": "checkMinterRole",
      "outputs": [
        {
          "internalType": "bool",
          "name": "",
          "type": "bool"
        }
      ],
      "stateMutability": "view",
      "type": "function"
    },
    {
      "inputs": [
        {
          "internalType": "address",
          "name": "account",
          "type": "address"
        }
      ],
      "name": "checkPauserRole",
      "outputs": [
        {
          "internalType": "bool",
          "name": "",
          "type": "bool"
        }
      ],
      "stateMutability": "view",
      "type": "function"
    },
    {
      "inputs": [
        {
          "internalType": "address",
          "name": "account",
          "type": "address"
        },
        {
          "internalType": "uint32",
          "name": "pos",
          "type": "uint32"
        }
      ],
      "name": "checkpoints",
      "outputs": [
        {
          "components": [
            {
              "internalType": "uint32",
              "name": "fromBlock",
              "type": "uint32"
            },
            {
              "internalType": "uint224",
              "name": "votes",
              "type": "uint224"
            }
          ],
          "internalType": "struct ERC20Votes.Checkpoint",
          "name": "",
          "type": "tuple"
        }
      ],
      "stateMutability": "view",
      "type": "function"
    },
    {
      "inputs": [],
      "name": "decimals",
      "outputs": [
        {
          "internalType": "uint8",
          "name": "",
          "type": "uint8"
        }
      ],
      "stateMutability": "view",
      "type": "function"
    },
    {
      "inputs": [
        {
          "internalType": "address",
          "name": "spender",
          "type": "address"
        },
        {
          "internalType": "uint256",
          "name": "subtractedValue",
          "type": "uint256"
        }
      ],
      "name": "decreaseAllowance",
      "outputs": [
        {
          "internalType": "bool",
          "name": "",
          "type": "bool"
        }
      ],
      "stateMutability": "nonpayable",
      "type": "function"
    },
    {
      "inputs": [
        {
          "internalType": "address",
          "name": "delegatee",
          "type": "address"
        }
      ],
      "name": "delegate",
      "outputs": [],
      "stateMutability": "nonpayable",
      "type": "function"
    },
    {
      "inputs": [
        {
          "internalType": "address",
          "name": "delegatee",
          "type": "address"
        },
        {
          "internalType": "uint256",
          "name": "nonce",
          "type": "uint256"
        },
        {
          "internalType": "uint256",
          "name": "expiry",
          "type": "uint256"
        },
        {
          "internalType": "uint8",
          "name": "v",
          "type": "uint8"
        },
        {
          "internalType": "bytes32",
          "name": "r",
          "type": "bytes32"
        },
        {
          "internalType": "bytes32",
          "name": "s",
          "type": "bytes32"
        }
      ],
      "name": "delegateBySig",
      "outputs": [],
      "stateMutability": "nonpayable",
      "type": "function"
    },
    {
      "inputs": [
        {
          "internalType": "address",
          "name": "account",
          "type": "address"
        }
      ],
      "name": "delegates",
      "outputs": [
        {
          "internalType": "address",
          "name": "",
          "type": "address"
        }
      ],
      "stateMutability": "view",
      "type": "function"
    },
    {
      "inputs": [
        {
          "internalType": "uint256",
          "name": "blockNumber",
          "type": "uint256"
        }
      ],
      "name": "getPastTotalSupply",
      "outputs": [
        {
          "internalType": "uint256",
          "name": "",
          "type": "uint256"
        }
      ],
      "stateMutability": "view",
      "type": "function"
    },
    {
      "inputs": [
        {
          "internalType": "address",
          "name": "account",
          "type": "address"
        },
        {
          "internalType": "uint256",
          "name": "blockNumber",
          "type": "uint256"
        }
      ],
      "name": "getPastVotes",
      "outputs": [
        {
          "internalType": "uint256",
          "name": "",
          "type": "uint256"
        }
      ],
      "stateMutability": "view",
      "type": "function"
    },
    {
      "inputs": [
        {
          "internalType": "bytes32",
          "name": "role",
          "type": "bytes32"
        }
      ],
      "name": "getRoleAdmin",
      "outputs": [
        {
          "internalType": "bytes32",
          "name": "",
          "type": "bytes32"
        }
      ],
      "stateMutability": "view",
      "type": "function"
    },
    {
      "inputs": [
        {
          "internalType": "address",
          "name": "account",
          "type": "address"
        }
      ],
      "name": "getVotes",
      "outputs": [
        {
          "internalType": "uint256",
          "name": "",
          "type": "uint256"
        }
      ],
      "stateMutability": "view",
      "type": "function"
    },
    {
      "inputs": [
        {
          "internalType": "bytes32",
          "name": "role",
          "type": "bytes32"
        },
        {
          "internalType": "address",
          "name": "account",
          "type": "address"
        }
      ],
      "name": "grantRole",
      "outputs": [],
      "stateMutability": "nonpayable",
      "type": "function"
    },
    {
      "inputs": [
        {
          "internalType": "bytes32",
          "name": "role",
          "type": "bytes32"
        },
        {
          "internalType": "address",
          "name": "account",
          "type": "address"
        }
      ],
      "name": "hasRole",
      "outputs": [
        {
          "internalType": "bool",
          "name": "",
          "type": "bool"
        }
      ],
      "stateMutability": "view",
      "type": "function"
    },
    {
      "inputs": [
        {
          "internalType": "address",
          "name": "spender",
          "type": "address"
        },
        {
          "internalType": "uint256",
          "name": "addedValue",
          "type": "uint256"
        }
      ],
      "name": "increaseAllowance",
      "outputs": [
        {
          "internalType": "bool",
          "name": "",
          "type": "bool"
        }
      ],
      "stateMutability": "nonpayable",
      "type": "function"
    },
    {
      "inputs": [
        {
          "internalType": "address",
          "name": "to",
          "type": "address"
        },
        {
          "internalType": "uint256",
          "name": "amount",
          "type": "uint256"
        }
      ],
      "name": "mint",
      "outputs": [],
      "stateMutability": "nonpayable",
      "type": "function"
    },
    {
      "inputs": [],
      "name": "name",
      "outputs": [
        {
          "internalType": "string",
          "name": "",
          "type": "string"
        }
      ],
      "stateMutability": "view",
      "type": "function"
    },
    {
      "inputs": [
        {
          "internalType": "address",
          "name": "owner",
          "type": "address"
        }
      ],
      "name": "nonces",
      "outputs": [
        {
          "internalType": "uint256",
          "name": "",
          "type": "uint256"
        }
      ],
      "stateMutability": "view",
      "type": "function"
    },
    {
      "inputs": [
        {
          "internalType": "address",
          "name": "account",
          "type": "address"
        }
      ],
      "name": "numCheckpoints",
      "outputs": [
        {
          "internalType": "uint32",
          "name": "",
          "type": "uint32"
        }
      ],
      "stateMutability": "view",
      "type": "function"
    },
    {
      "inputs": [],
      "name": "pause",
      "outputs": [],
      "stateMutability": "nonpayable",
      "type": "function"
    },
    {
      "inputs": [],
      "name": "paused",
      "outputs": [
        {
          "internalType": "bool",
          "name": "",
          "type": "bool"
        }
      ],
      "stateMutability": "view",
      "type": "function"
    },
    {
      "inputs": [
        {
          "internalType": "address",
          "name": "owner",
          "type": "address"
        },
        {
          "internalType": "address",
          "name": "spender",
          "type": "address"
        },
        {
          "internalType": "uint256",
          "name": "value",
          "type": "uint256"
        },
        {
          "internalType": "uint256",
          "name": "deadline",
          "type": "uint256"
        },
        {
          "internalType": "uint8",
          "name": "v",
          "type": "uint8"
        },
        {
          "internalType": "bytes32",
          "name": "r",
          "type": "bytes32"
        },
        {
          "internalType": "bytes32",
          "name": "s",
          "type": "bytes32"
        }
      ],
      "name": "permit",
      "outputs": [],
      "stateMutability": "nonpayable",
      "type": "function"
    },
    {
      "inputs": [
        {
          "internalType": "bytes32",
          "name": "role",
          "type": "bytes32"
        },
        {
          "internalType": "address",
          "name": "account",
          "type": "address"
        }
      ],
      "name": "renounceRole",
      "outputs": [],
      "stateMutability": "nonpayable",
      "type": "function"
    },
    {
      "inputs": [
        {
          "internalType": "bytes32",
          "name": "role",
          "type": "bytes32"
        },
        {
          "internalType": "address",
          "name": "account",
          "type": "address"
        }
      ],
      "name": "revokeRole",
      "outputs": [],
      "stateMutability": "nonpayable",
      "type": "function"
    },
    {
      "inputs": [
        {
          "internalType": "address",
          "name": "account",
          "type": "address"
        }
      ],
      "name": "setMinterRole",
      "outputs": [],
      "stateMutability": "nonpayable",
      "type": "function"
    },
    {
      "inputs": [
        {
          "internalType": "address",
          "name": "account",
          "type": "address"
        }
      ],
      "name": "setPauserRole",
      "outputs": [],
      "stateMutability": "nonpayable",
      "type": "function"
    },
    {
      "inputs": [
        {
          "internalType": "bytes4",
          "name": "interfaceId",
          "type": "bytes4"
        }
      ],
      "name": "supportsInterface",
      "outputs": [
        {
          "internalType": "bool",
          "name": "",
          "type": "bool"
        }
      ],
      "stateMutability": "view",
      "type": "function"
    },
    {
      "inputs": [],
      "name": "symbol",
      "outputs": [
        {
          "internalType": "string",
          "name": "",
          "type": "string"
        }
      ],
      "stateMutability": "view",
      "type": "function"
    },
    {
      "inputs": [],
      "name": "totalSupply",
      "outputs": [
        {
          "internalType": "uint256",
          "name": "",
          "type": "uint256"
        }
      ],
      "stateMutability": "view",
      "type": "function"
    },
    {
      "inputs": [
        {
          "internalType": "address",
          "name": "to",
          "type": "address"
        },
        {
          "internalType": "uint256",
          "name": "amount",
          "type": "uint256"
        }
      ],
      "name": "transfer",
      "outputs": [
        {
          "internalType": "bool",
          "name": "",
          "type": "bool"
        }
      ],
      "stateMutability": "nonpayable",
      "type": "function"
    },
    {
      "inputs": [
        {
          "internalType": "address",
          "name": "from",
          "type": "address"
        },
        {
          "internalType": "address",
          "name": "to",
          "type": "address"
        },
        {
          "internalType": "uint256",
          "name": "amount",
          "type": "uint256"
        }
      ],
      "name": "transferFrom",
      "outputs": [
        {
          "internalType": "bool",
          "name": "",
          "type": "bool"
        }
      ],
      "stateMutability": "nonpayable",
      "type": "function"
    },
    {
      "inputs": [],
      "name": "unpause",
      "outputs": [],
      "stateMutability": "nonpayable",
      "type": "function"
    }
  ],
  "bytecode": "0x6101606040527f6e71edae12b1b97f4d1f60370fef10105fa2faae0126114a169c64845d6126c9610140523480156200003757600080fd5b50604051806040016040528060128152602001712130ba3a36329020b932b730902a37b5b2b760711b81525080604051806040016040528060018152602001603160f81b815250604051806040016040528060128152602001712130ba3a36329020b932b730902a37b5b2b760711b81525060405180604001604052806005815260200164534154544160d81b8152508160039080519060200190620000df9291906200097e565b508051620000f59060049060208401906200097e565b50506005805460ff1916905550815160208084019190912082519183019190912060e08290526101008190524660a0527f8b73c3c69bb8fe3d512ecc4cf759cc79239f7b179b0ffacaa9a75d522b39400f62000153818484620001fc565b6080523060601b60c0526101205250620001769350600092503391505062000246565b620001a27f65d7a28e3265b37a6474929f336521b332c1681b933f6cb9f3376673440d862a3362000246565b620001ca33620001b56012600a62000a82565b620001c490620f424062000b6d565b620002eb565b620001f67f9f2df0fed2c77648de5860a4cc508cd0818c85b8b8a1ab4ceeef8d981c8956a63362000246565b62000bfc565b6040805160208101859052908101839052606081018290524660808201523060a082015260009060c0016040516020818303038152906040528051906020012090505b9392505050565b60008281526006602090815260408083206001600160a01b038516845290915290205460ff16620002e75760008281526006602090815260408083206001600160a01b03851684529091529020805460ff19166001179055620002a63390565b6001600160a01b0316816001600160a01b0316837f2f8788117e7eff1d82e926ec794901d17c78024a50270940304540a733656f0d60405160405180910390a45b5050565b620002e782826200030260201b62000f321760201c565b620003198282620003b960201b62000fc21760201c565b6001600160e01b036200032d620004b68216565b11156200039a5760405162461bcd60e51b815260206004820152603060248201527f4552433230566f7465733a20746f74616c20737570706c79207269736b73206f60448201526f766572666c6f77696e6720766f74657360801b60648201526084015b60405180910390fd5b620003b3600a620010b5620004bc60201b1783620004ca565b50505050565b6001600160a01b038216620004115760405162461bcd60e51b815260206004820152601f60248201527f45524332303a206d696e7420746f20746865207a65726f206164647265737300604482015260640162000391565b6200041f60008383620006ae565b806002600082825462000433919062000a1a565b90915550506001600160a01b038216600090815260208190526040812080548392906200046290849062000a1a565b90915550506040518181526001600160a01b038316906000907fddf252ad1be2c89b69c2b068fc378daa952ba7f163c4a11628f55a4df523b3ef9060200160405180910390a3620002e76000838362000713565b60025490565b60006200023f828462000a1a565b825460009081908015620005285785620004e660018362000b8f565b815481106200050557634e487b7160e01b600052603260045260246000fd5b60009182526020909120015464010000000090046001600160e01b03166200052b565b60005b6001600160e01b031692506200054283858760201c565b915060008111801562000592575043866200055f60018462000b8f565b815481106200057e57634e487b7160e01b600052603260045260246000fd5b60009182526020909120015463ffffffff16145b156200061257620005ae826200072b60201b620010c11760201c565b86620005bc60018462000b8f565b81548110620005db57634e487b7160e01b600052603260045260246000fd5b9060005260206000200160000160046101000a8154816001600160e01b0302191690836001600160e01b03160217905550620006a5565b85604051806040016040528062000634436200079a60201b6200112e1760201c565b63ffffffff16815260200162000655856200072b60201b620010c11760201c565b6001600160e01b039081169091528254600181018455600093845260209384902083519101805493909401519091166401000000000263ffffffff91821663ffffffff1990931692909217161790555b50935093915050565b60055460ff1615620006f65760405162461bcd60e51b815260206004820152601060248201526f14185d5cd8589b194e881c185d5cd95960821b604482015260640162000391565b6200070e8383836200070e60201b6200074f1760201c565b505050565b6200070e8383836200080160201b620011931760201c565b60006001600160e01b03821115620007965760405162461bcd60e51b815260206004820152602760248201527f53616665436173743a2076616c756520646f65736e27742066697420696e20326044820152663234206269747360c81b606482015260840162000391565b5090565b600063ffffffff821115620007965760405162461bcd60e51b815260206004820152602660248201527f53616665436173743a2076616c756520646f65736e27742066697420696e203360448201526532206269747360d01b606482015260840162000391565b620008198383836200070e60201b6200074f1760201c565b6001600160a01b038381166000908152600860205260408082205485841683529120546200070e92918216911683818314801590620008585750600081115b156200070e576001600160a01b03831615620008e5576001600160a01b038316600090815260096020908152604082208291620008a2919062000970901b620011c51785620004ca565b91509150846001600160a01b0316600080516020620036008339815191528383604051620008da929190918252602082015260400190565b60405180910390a250505b6001600160a01b038216156200070e576001600160a01b038216600090815260096020908152604082208291620009299190620004bc901b620010b51785620004ca565b91509150836001600160a01b031660008051602062003600833981519152838360405162000961929190918252602082015260400190565b60405180910390a25050505050565b60006200023f828462000b8f565b8280546200098c9062000ba9565b90600052602060002090601f016020900481019282620009b05760008555620009fb565b82601f10620009cb57805160ff1916838001178555620009fb565b82800160010185558215620009fb579182015b82811115620009fb578251825591602001919060010190620009de565b50620007969291505b8082111562000796576000815560010162000a04565b6000821982111562000a305762000a3062000be6565b500190565b80825b600180861162000a49575062000a79565b81870482111562000a5e5762000a5e62000be6565b8086161562000a6c57918102915b9490941c93800262000a38565b94509492505050565b60006200023f60001960ff85168460008262000aa1575060016200023f565b8162000ab0575060006200023f565b816001811462000ac9576002811462000ad45762000b08565b60019150506200023f565b60ff84111562000ae85762000ae862000be6565b6001841b91508482111562000b015762000b0162000be6565b506200023f565b5060208310610133831016604e8410600b841016171562000b40575081810a8381111562000b3a5762000b3a62000be6565b6200023f565b62000b4f848484600162000a35565b80860482111562000b645762000b6462000be6565b02949350505050565b600081600019048311821515161562000b8a5762000b8a62000be6565b500290565b60008282101562000ba45762000ba462000be6565b500390565b60028104600182168062000bbe57607f821691505b6020821081141562000be057634e487b7160e01b600052602260045260246000fd5b50919050565b634e487b7160e01b600052601160045260246000fd5b60805160a05160c05160601c60e0516101005161012051610140516129a662000c5a6000396000610d6a015260006116d601526000611725015260006117000152600061165701526000611681015260006116ab01526129a66000f3fe608060405234801561001057600080fd5b50600436106102535760003560e01c806370a0823111610146578063a217fddf116100c3578063d505accf11610087578063d505accf14610532578063d539139314610545578063d547741f1461055a578063dd62ed3e1461056d578063e63ab1e9146105a6578063f1127ed8146105bb57610253565b8063a217fddf146104de578063a457c2d7146104e6578063a526be72146104f9578063a9059cbb1461050c578063c3cda5201461051f57610253565b806391d148541161010a57806391d148541461048a578063945d12291461049d57806394911356146104b057806395d89b41146104c35780639ab24eb0146104cb57610253565b806370a082311461042057806379cc6790146104495780637ecebe001461045c5780638456cb591461046f5780638e539e8c1461047757610253565b806336568abe116101d457806342966c681161019857806342966c6814610383578063587cde1e146103965780635c19a95c146103da5780635c975abb146103ed5780636fcfff45146103f857610253565b806336568abe1461032f57806339509351146103425780633a46b1a8146103555780633f4ba83a1461036857806340c10f191461037057610253565b806323b872dd1161021b57806323b872dd146102cf578063248a9ca3146102e25780632f2ff15d14610305578063313ce567146103185780633644e5151461032757610253565b806301ffc9a71461025857806306fdde0314610280578063095ea7b31461029557806318160ddd146102a85780631bc28a69146102ba575b600080fd5b61026b610266366004612712565b6105f8565b60405190151581526020015b60405180910390f35b610288610631565b60405161027791906127db565b61026b6102a336600461261a565b6106c4565b6002545b604051908152602001610277565b6102cd6102c836600461252a565b6106dc565b005b61026b6102dd366004612576565b610705565b6102ac6102f03660046126d8565b60009081526006602052604090206001015490565b6102cd6103133660046126f0565b610729565b60405160128152602001610277565b6102ac610754565b6102cd61033d3660046126f0565b610763565b61026b61035036600461261a565b6107e2565b6102ac61036336600461261a565b610821565b6102cd61089b565b6102cd61037e36600461261a565b6108bf565b6102cd6103913660046126d8565b610933565b6103c26103a436600461252a565b6001600160a01b039081166000908152600860205260409020541690565b6040516001600160a01b039091168152602001610277565b6102cd6103e836600461252a565b61093d565b60055460ff1661026b565b61040b61040636600461252a565b610947565b60405163ffffffff9091168152602001610277565b6102ac61042e36600461252a565b6001600160a01b031660009081526020819052604090205490565b6102cd61045736600461261a565b610969565b6102ac61046a36600461252a565b61097e565b6102cd61099c565b6102ac6104853660046126d8565b6109bd565b61026b6104983660046126f0565b610a19565b6102cd6104ab36600461252a565b610a44565b61026b6104be36600461252a565b610a68565b610288610a82565b6102ac6104d936600461252a565b610a91565b6102ac600081565b61026b6104f436600461261a565b610b26565b61026b61050736600461252a565b610bb8565b61026b61051a36600461261a565b610bd2565b6102cd61052d366004612643565b610be0565b6102cd6105403660046125b1565b610d16565b6102ac60008051602061295183398151915281565b6102cd6105683660046126f0565b610e7a565b6102ac61057b366004612544565b6001600160a01b03918216600090815260016020908152604080832093909416825291909152205490565b6102ac60008051602061293183398151915281565b6105ce6105c936600461269a565b610ea0565b60408051825163ffffffff1681526020928301516001600160e01b03169281019290925201610277565b60006001600160e01b03198216637965db0b60e01b148061062957506301ffc9a760e01b6001600160e01b03198316145b90505b919050565b606060038054610640906128e5565b80601f016020809104026020016040519081016040528092919081815260200182805461066c906128e5565b80156106b95780601f1061068e576101008083540402835291602001916106b9565b820191906000526020600020905b81548152906001019060200180831161069c57829003601f168201915b505050505090505b90565b6000336106d28185856111d1565b5060019392505050565b60006106e981335b6112f5565b61070160008051602061293183398151915283611359565b5050565b6000336107138582856113df565b61071e85858561146b565b506001949350505050565b60008281526006602052604090206001015461074581336106e4565b61074f8383611359565b505050565b600061075e61164a565b905090565b6001600160a01b03811633146107d85760405162461bcd60e51b815260206004820152602f60248201527f416363657373436f6e74726f6c3a2063616e206f6e6c792072656e6f756e636560448201526e103937b632b9903337b91039b2b63360891b60648201526084015b60405180910390fd5b6107018282611775565b3360008181526001602090815260408083206001600160a01b03871684529091528120549091906106d2908290869061081c908790612834565b6111d1565b60004382106108725760405162461bcd60e51b815260206004820152601f60248201527f4552433230566f7465733a20626c6f636b206e6f7420796574206d696e65640060448201526064016107cf565b6001600160a01b038316600090815260096020526040902061089490836117dc565b9392505050565b6000805160206129318339815191526108b481336106e4565b6108bc6118b5565b50565b6000805160206129518339815191526108d881336106e4565b6109296040518060400160405280600c81526020016b036b4b73a34b733903a379d160a51b815250846040518060400160405280600981526020016801030b6b7bab73a1d160bd1b81525085611948565b61074f8383611991565b6108bc338261199b565b6108bc33826119a5565b6001600160a01b0381166000908152600960205260408120546106299061112e565b6109748233836113df565b610701828261199b565b6001600160a01b038116600090815260076020526040812054610629565b6000805160206129318339815191526109b581336106e4565b6108bc611a1e565b6000438210610a0e5760405162461bcd60e51b815260206004820152601f60248201527f4552433230566f7465733a20626c6f636b206e6f7420796574206d696e65640060448201526064016107cf565b610629600a836117dc565b60009182526006602090815260408084206001600160a01b0393909316845291905290205460ff1690565b6000610a5081336106e4565b61070160008051602061295183398151915283611359565b600061062960008051602061293183398151915283610a19565b606060048054610640906128e5565b6001600160a01b0381166000908152600960205260408120548015610b13576001600160a01b0383166000908152600960205260409020610ad360018361288b565b81548110610af157634e487b7160e01b600052603260045260246000fd5b60009182526020909120015464010000000090046001600160e01b0316610b16565b60005b6001600160e01b03169392505050565b3360008181526001602090815260408083206001600160a01b038716845290915281205490919083811015610bab5760405162461bcd60e51b815260206004820152602560248201527f45524332303a2064656372656173656420616c6c6f77616e63652062656c6f77604482015264207a65726f60d81b60648201526084016107cf565b61071e82868684036111d1565b600061062960008051602061295183398151915283610a19565b6000336106d281858561146b565b83421115610c305760405162461bcd60e51b815260206004820152601d60248201527f4552433230566f7465733a207369676e6174757265206578706972656400000060448201526064016107cf565b604080517fe48329057bfd03d55e49b547132e39cffd9c1820ad7b9d4c5307691425d15adf60208201526001600160a01b038816918101919091526060810186905260808101859052600090610caa90610ca29060a00160405160208183030381529060405280519060200120611a99565b858585611ae7565b9050610cb581611b0f565b8614610d035760405162461bcd60e51b815260206004820152601960248201527f4552433230566f7465733a20696e76616c6964206e6f6e63650000000000000060448201526064016107cf565b610d0d81886119a5565b50505050505050565b83421115610d665760405162461bcd60e51b815260206004820152601d60248201527f45524332305065726d69743a206578706972656420646561646c696e6500000060448201526064016107cf565b60007f0000000000000000000000000000000000000000000000000000000000000000888888610d958c611b0f565b6040805160208101969096526001600160a01b0394851690860152929091166060840152608083015260a082015260c0810186905260e0016040516020818303038152906040528051906020012090506000610df082611a99565b90506000610e0082878787611ae7565b9050896001600160a01b0316816001600160a01b031614610e635760405162461bcd60e51b815260206004820152601e60248201527f45524332305065726d69743a20696e76616c6964207369676e6174757265000060448201526064016107cf565b610e6e8a8a8a6111d1565b50505050505050505050565b600082815260066020526040902060010154610e9681336106e4565b61074f8383611775565b60408051808201909152600080825260208201526001600160a01b0383166000908152600960205260409020805463ffffffff8416908110610ef257634e487b7160e01b600052603260045260246000fd5b60009182526020918290206040805180820190915291015463ffffffff8116825264010000000090046001600160e01b0316918101919091529392505050565b610f3c8282610fc2565b6002546001600160e01b031015610fae5760405162461bcd60e51b815260206004820152603060248201527f4552433230566f7465733a20746f74616c20737570706c79207269736b73206f60448201526f766572666c6f77696e6720766f74657360801b60648201526084016107cf565b610fbc600a6110b583611b37565b50505050565b6001600160a01b0382166110185760405162461bcd60e51b815260206004820152601f60248201527f45524332303a206d696e7420746f20746865207a65726f20616464726573730060448201526064016107cf565b61102460008383611ce8565b80600260008282546110369190612834565b90915550506001600160a01b03821660009081526020819052604081208054839290611063908490612834565b90915550506040518181526001600160a01b038316906000907fddf252ad1be2c89b69c2b068fc378daa952ba7f163c4a11628f55a4df523b3ef9060200160405180910390a361070160008383611d33565b60006108948284612834565b60006001600160e01b0382111561112a5760405162461bcd60e51b815260206004820152602760248201527f53616665436173743a2076616c756520646f65736e27742066697420696e20326044820152663234206269747360c81b60648201526084016107cf565b5090565b600063ffffffff82111561112a5760405162461bcd60e51b815260206004820152602660248201527f53616665436173743a2076616c756520646f65736e27742066697420696e203360448201526532206269747360d01b60648201526084016107cf565b6001600160a01b0383811660009081526008602052604080822054858416835291205461074f92918216911683611d3e565b6000610894828461288b565b6001600160a01b0383166112335760405162461bcd60e51b8152602060048201526024808201527f45524332303a20617070726f76652066726f6d20746865207a65726f206164646044820152637265737360e01b60648201526084016107cf565b6001600160a01b0382166112945760405162461bcd60e51b815260206004820152602260248201527f45524332303a20617070726f766520746f20746865207a65726f206164647265604482015261737360f01b60648201526084016107cf565b6001600160a01b0383811660008181526001602090815260408083209487168084529482529182902085905590518481527f8c5be1e5ebec7d5bd14f71427d1e84f3dd0314c0f7b2291e5b200ac8c7c3b925910160405180910390a3505050565b6112ff8282610a19565b61070157611317816001600160a01b03166014611e7b565b611322836020611e7b565b604051602001611333929190612766565b60408051601f198184030181529082905262461bcd60e51b82526107cf916004016127db565b6113638282610a19565b6107015760008281526006602090815260408083206001600160a01b03851684529091529020805460ff1916600117905561139b3390565b6001600160a01b0316816001600160a01b0316837f2f8788117e7eff1d82e926ec794901d17c78024a50270940304540a733656f0d60405160405180910390a45050565b6001600160a01b038381166000908152600160209081526040808320938616835292905220546000198114610fbc578181101561145e5760405162461bcd60e51b815260206004820152601d60248201527f45524332303a20696e73756666696369656e7420616c6c6f77616e636500000060448201526064016107cf565b610fbc84848484036111d1565b6001600160a01b0383166114cf5760405162461bcd60e51b815260206004820152602560248201527f45524332303a207472616e736665722066726f6d20746865207a65726f206164604482015264647265737360d81b60648201526084016107cf565b6001600160a01b0382166115315760405162461bcd60e51b815260206004820152602360248201527f45524332303a207472616e7366657220746f20746865207a65726f206164647260448201526265737360e81b60648201526084016107cf565b61153c838383611ce8565b6001600160a01b038316600090815260208190526040902054818110156115b45760405162461bcd60e51b815260206004820152602660248201527f45524332303a207472616e7366657220616d6f756e7420657863656564732062604482015265616c616e636560d01b60648201526084016107cf565b6001600160a01b038085166000908152602081905260408082208585039055918516815290812080548492906115eb908490612834565b92505081905550826001600160a01b0316846001600160a01b03167fddf252ad1be2c89b69c2b068fc378daa952ba7f163c4a11628f55a4df523b3ef8460405161163791815260200190565b60405180910390a3610fbc848484611d33565b6000306001600160a01b037f0000000000000000000000000000000000000000000000000000000000000000161480156116a357507f000000000000000000000000000000000000000000000000000000000000000046145b156116cf57507f00000000000000000000000000000000000000000000000000000000000000006106c1565b50604080517f00000000000000000000000000000000000000000000000000000000000000006020808301919091527f0000000000000000000000000000000000000000000000000000000000000000828401527f000000000000000000000000000000000000000000000000000000000000000060608301524660808301523060a0808401919091528351808403909101815260c090920190925280519101206106c1565b61177f8282610a19565b156107015760008281526006602090815260408083206001600160a01b0385168085529252808320805460ff1916905551339285917ff6391f5c32d9c69d2a47ea670b442974b53935d1edc7fd64eb21e047a839171b9190a45050565b8154600090815b8181101561184e5760006117f7828461205d565b90508486828154811061181a57634e487b7160e01b600052603260045260246000fd5b60009182526020909120015463ffffffff16111561183a57809250611848565b611845816001612834565b91505b506117e3565b81156118a0578461186060018461288b565b8154811061187e57634e487b7160e01b600052603260045260246000fd5b60009182526020909120015464010000000090046001600160e01b03166118a3565b60005b6001600160e01b031695945050505050565b60055460ff166118fe5760405162461bcd60e51b815260206004820152601460248201527314185d5cd8589b194e881b9bdd081c185d5cd95960621b60448201526064016107cf565b6005805460ff191690557f5db9ee0a495bf2e6ff9c91a7834c1ba4fdd244a5e8aa4e537bd38aeae4b073aa335b6040516001600160a01b03909116815260200160405180910390a1565b610fbc8484848460405160240161196294939291906127ee565b60408051601f198184030181529190526020810180516001600160e01b0316638f624be960e01b179052612078565b6107018282610f32565b6107018282612099565b6001600160a01b038281166000818152600860208181526040808420805485845282862054949093528787166001600160a01b03198416811790915590519190951694919391928592917f3134e8a2e6d97e929a7e54011ea5485d7d196dd5f0ba4d4ef95803e8e3fc257f9190a4610fbc828483611d3e565b60055460ff1615611a645760405162461bcd60e51b815260206004820152601060248201526f14185d5cd8589b194e881c185d5cd95960821b60448201526064016107cf565b6005805460ff191660011790557f62e78cea01bee320cd4e420270b5ea74000d11b0c9f74754ebdbfc544b05a25861192b3390565b6000610629611aa661164a565b8360405161190160f01b6020820152602281018390526042810182905260009060620160405160208183030381529060405280519060200120905092915050565b6000806000611af8878787876120b1565b91509150611b058161219e565b5095945050505050565b6001600160a01b03811660009081526007602052604090208054600181018255905b50919050565b825460009081908015611b905785611b5060018361288b565b81548110611b6e57634e487b7160e01b600052603260045260246000fd5b60009182526020909120015464010000000090046001600160e01b0316611b93565b60005b6001600160e01b03169250611bac83858763ffffffff16565b9150600081118015611bf857504386611bc660018461288b565b81548110611be457634e487b7160e01b600052603260045260246000fd5b60009182526020909120015463ffffffff16145b15611c6657611c06826110c1565b86611c1260018461288b565b81548110611c3057634e487b7160e01b600052603260045260246000fd5b9060005260206000200160000160046101000a8154816001600160e01b0302191690836001600160e01b03160217905550611cdf565b856040518060400160405280611c7b4361112e565b63ffffffff168152602001611c8f856110c1565b6001600160e01b039081169091528254600181018455600093845260209384902083519101805493909401519091166401000000000263ffffffff91821663ffffffff1990931692909217161790555b50935093915050565b60055460ff1615611d2e5760405162461bcd60e51b815260206004820152601060248201526f14185d5cd8589b194e881c185d5cd95960821b60448201526064016107cf565b61074f565b61074f838383611193565b816001600160a01b0316836001600160a01b031614158015611d605750600081115b1561074f576001600160a01b03831615611dee576001600160a01b03831660009081526009602052604081208190611d9b906111c585611b37565b91509150846001600160a01b03167fdec2bacdd2f05b59de34da9b523dff8be42e5e38e818c82fdb0bae774387a7248383604051611de3929190918252602082015260400190565b60405180910390a250505b6001600160a01b0382161561074f576001600160a01b03821660009081526009602052604081208190611e24906110b585611b37565b91509150836001600160a01b03167fdec2bacdd2f05b59de34da9b523dff8be42e5e38e818c82fdb0bae774387a7248383604051611e6c929190918252602082015260400190565b60405180910390a25050505050565b60606000611e8a83600261286c565b611e95906002612834565b67ffffffffffffffff811115611ebb57634e487b7160e01b600052604160045260246000fd5b6040519080825280601f01601f191660200182016040528015611ee5576020820181803683370190505b509050600360fc1b81600081518110611f0e57634e487b7160e01b600052603260045260246000fd5b60200101906001600160f81b031916908160001a905350600f60fb1b81600181518110611f4b57634e487b7160e01b600052603260045260246000fd5b60200101906001600160f81b031916908160001a9053506000611f6f84600261286c565b611f7a906001612834565b90505b600181111561200e576f181899199a1a9b1b9c1cb0b131b232b360811b85600f1660108110611fbc57634e487b7160e01b600052603260045260246000fd5b1a60f81b828281518110611fe057634e487b7160e01b600052603260045260246000fd5b60200101906001600160f81b031916908160001a90535060049490941c93612007816128ce565b9050611f7d565b5083156108945760405162461bcd60e51b815260206004820181905260248201527f537472696e67733a20686578206c656e67746820696e73756666696369656e7460448201526064016107cf565b600061206c600284841861284c565b61089490848416612834565b80516a636f6e736f6c652e6c6f67602083016000808483855afa5050505050565b6120a382826123a1565b610fbc600a6111c583611b37565b6000807f7fffffffffffffffffffffffffffffff5d576e7357a4501ddfe92f46681b20a08311156120e85750600090506003612195565b8460ff16601b1415801561210057508460ff16601c14155b156121115750600090506004612195565b6040805160008082526020820180845289905260ff881692820192909252606081018690526080810185905260019060a0016020604051602081039080840390855afa158015612165573d6000803e3d6000fd5b5050604051601f1901519150506001600160a01b03811661218e57600060019250925050612195565b9150600090505b94509492505050565b60008160048111156121c057634e487b7160e01b600052602160045260246000fd5b14156121cb576108bc565b60018160048111156121ed57634e487b7160e01b600052602160045260246000fd5b141561223b5760405162461bcd60e51b815260206004820152601860248201527f45434453413a20696e76616c6964207369676e6174757265000000000000000060448201526064016107cf565b600281600481111561225d57634e487b7160e01b600052602160045260246000fd5b14156122ab5760405162461bcd60e51b815260206004820152601f60248201527f45434453413a20696e76616c6964207369676e6174757265206c656e6774680060448201526064016107cf565b60038160048111156122cd57634e487b7160e01b600052602160045260246000fd5b14156123265760405162461bcd60e51b815260206004820152602260248201527f45434453413a20696e76616c6964207369676e6174757265202773272076616c604482015261756560f01b60648201526084016107cf565b600481600481111561234857634e487b7160e01b600052602160045260246000fd5b14156108bc5760405162461bcd60e51b815260206004820152602260248201527f45434453413a20696e76616c6964207369676e6174757265202776272076616c604482015261756560f01b60648201526084016107cf565b6001600160a01b0382166124015760405162461bcd60e51b815260206004820152602160248201527f45524332303a206275726e2066726f6d20746865207a65726f206164647265736044820152607360f81b60648201526084016107cf565b61240d82600083611ce8565b6001600160a01b038216600090815260208190526040902054818110156124815760405162461bcd60e51b815260206004820152602260248201527f45524332303a206275726e20616d6f756e7420657863656564732062616c616e604482015261636560f01b60648201526084016107cf565b6001600160a01b03831660009081526020819052604081208383039055600280548492906124b090849061288b565b90915550506040518281526000906001600160a01b038516907fddf252ad1be2c89b69c2b068fc378daa952ba7f163c4a11628f55a4df523b3ef9060200160405180910390a361074f83600084611d33565b80356001600160a01b038116811461062c57600080fd5b803560ff8116811461062c57600080fd5b60006020828403121561253b578081fd5b61089482612502565b60008060408385031215612556578081fd5b61255f83612502565b915061256d60208401612502565b90509250929050565b60008060006060848603121561258a578081fd5b61259384612502565b92506125a160208501612502565b9150604084013590509250925092565b600080600080600080600060e0888a0312156125cb578283fd5b6125d488612502565b96506125e260208901612502565b955060408801359450606088013593506125fe60808901612519565b925060a0880135915060c0880135905092959891949750929550565b6000806040838503121561262c578182fd5b61263583612502565b946020939093013593505050565b60008060008060008060c0878903121561265b578182fd5b61266487612502565b9550602087013594506040870135935061268060608801612519565b92506080870135915060a087013590509295509295509295565b600080604083850312156126ac578182fd5b6126b583612502565b9150602083013563ffffffff811681146126cd578182fd5b809150509250929050565b6000602082840312156126e9578081fd5b5035919050565b60008060408385031215612702578182fd5b8235915061256d60208401612502565b600060208284031215612723578081fd5b81356001600160e01b031981168114610894578182fd5b600081518084526127528160208601602086016128a2565b601f01601f19169290920160200192915050565b60007f416363657373436f6e74726f6c3a206163636f756e74200000000000000000008252835161279e8160178501602088016128a2565b7001034b99036b4b9b9b4b733903937b6329607d1b60179184019182015283516127cf8160288401602088016128a2565b01602801949350505050565b600060208252610894602083018461273a565b600060808252612801608083018761273a565b6001600160a01b03861660208401528281036040840152612822818661273a565b91505082606083015295945050505050565b600082198211156128475761284761291a565b500190565b60008261286757634e487b7160e01b81526012600452602481fd5b500490565b60008160001904831182151516156128865761288661291a565b500290565b60008282101561289d5761289d61291a565b500390565b60005b838110156128bd5781810151838201526020016128a5565b83811115610fbc5750506000910152565b6000816128dd576128dd61291a565b506000190190565b6002810460018216806128f957607f821691505b60208210811415611b3157634e487b7160e01b600052602260045260246000fd5b634e487b7160e01b600052601160045260246000fdfe65d7a28e3265b37a6474929f336521b332c1681b933f6cb9f3376673440d862a9f2df0fed2c77648de5860a4cc508cd0818c85b8b8a1ab4ceeef8d981c8956a6a2646970667358221220dfe1feb85d92e3f34fdfaaac0cb41d695a25f408ea154bc65675d67f53382d8f64736f6c63430008020033dec2bacdd2f05b59de34da9b523dff8be42e5e38e818c82fdb0bae774387a724",
  "linkReferences": {},
  "deployedLinkReferences": {}
}