{
  "_format": "hh-sol-artifact-1",
  "contractName": "PrizeDAOGovernor",
  "sourceName": "contracts/PrizeDAOGovernor.sol",
  "abi": [
    {
      "inputs": [
        {
          "internalType": "contract ERC20Votes",
          "name": "_token",
          "type": "address"
        },
        {
          "internalType": "string",
          "name": "_name",
          "type": "string"
        },
        {
          "internalType": "address",
          "name": "_tokenToAccept",
          "type": "address"
        }
      ],
      "stateMutability": "nonpayable",
      "type": "constructor"
    },
    {
      "anonymous": false,
      "inputs": [
        {
          "indexed": false,
          "internalType": "uint256",
          "name": "currentProposalID",
          "type": "uint256"
        }
      ],
      "name": "CurrentProposalID",
      "type": "event"
    },
    {
      "anonymous": false,
      "inputs": [
        {
          "indexed": false,
          "internalType": "uint256",
          "name": "HackathonId",
          "type": "uint256"
        }
      ],
      "name": "HackathonCreated",
      "type": "event"
    },
    {
      "anonymous": false,
      "inputs": [
        {
          "components": [
            {
              "internalType": "uint256",
              "name": "hackathonId",
              "type": "uint256"
            },
            {
              "internalType": "string",
              "name": "name",
              "type": "string"
            },
            {
              "internalType": "uint256",
              "name": "prizeMoney",
              "type": "uint256"
            },
            {
              "components": [
                {
                  "internalType": "uint256",
                  "name": "hackerId",
                  "type": "uint256"
                },
                {
                  "internalType": "address",
                  "name": "hackerAdd",
                  "type": "address"
                },
                {
                  "internalType": "string",
                  "name": "name",
                  "type": "string"
                },
                {
                  "internalType": "string",
                  "name": "ipfsHash",
                  "type": "string"
                },
                {
                  "internalType": "uint256",
                  "name": "votesGot",
                  "type": "uint256"
                }
              ],
              "internalType": "struct GovernorCountingSimpleSelf.Hacker[]",
              "name": "hackers",
              "type": "tuple[]"
            },
            {
              "internalType": "string",
              "name": "startDate",
              "type": "string"
            },
            {
              "internalType": "string",
              "name": "endDate",
              "type": "string"
            },
            {
              "internalType": "uint256",
              "name": "proposalId",
              "type": "uint256"
            },
            {
              "internalType": "address",
              "name": "sponsorAddress",
              "type": "address"
            }
          ],
          "indexed": false,
          "internalType": "struct GovernorCountingSimpleSelf.Hackathon",
          "name": "hackathon",
          "type": "tuple"
        }
      ],
      "name": "HackathonEvent",
      "type": "event"
    },
    {
      "anonymous": false,
      "inputs": [
        {
          "indexed": false,
          "internalType": "string",
          "name": "hackerIpfsSubmission",
          "type": "string"
        }
      ],
      "name": "HackerIpfsSubmission",
      "type": "event"
    },
    {
      "anonymous": false,
      "inputs": [
        {
          "indexed": false,
          "internalType": "uint256",
          "name": "HackerId",
          "type": "uint256"
        }
      ],
      "name": "HackerRegisted",
      "type": "event"
    },
    {
      "anonymous": false,
      "inputs": [
        {
          "indexed": false,
          "internalType": "uint256",
          "name": "TotalVotesLastOptionGot",
          "type": "uint256"
        }
      ],
      "name": "NoHackerWon",
      "type": "event"
    },
    {
      "anonymous": false,
      "inputs": [
        {
          "indexed": false,
          "internalType": "uint256",
          "name": "numOfHackers",
          "type": "uint256"
        }
      ],
      "name": "NumOfHackers",
      "type": "event"
    },
    {
      "anonymous": false,
      "inputs": [
        {
          "indexed": false,
          "internalType": "uint256",
          "name": "proposalId",
          "type": "uint256"
        }
      ],
      "name": "ProposalCanceled",
      "type": "event"
    },
    {
      "anonymous": false,
      "inputs": [
        {
          "indexed": false,
          "internalType": "uint256",
          "name": "proposalId",
          "type": "uint256"
        },
        {
          "indexed": false,
          "internalType": "address",
          "name": "proposer",
          "type": "address"
        },
        {
          "indexed": false,
          "internalType": "address[]",
          "name": "targets",
          "type": "address[]"
        },
        {
          "indexed": false,
          "internalType": "uint256[]",
          "name": "values",
          "type": "uint256[]"
        },
        {
          "indexed": false,
          "internalType": "string[]",
          "name": "signatures",
          "type": "string[]"
        },
        {
          "indexed": false,
          "internalType": "bytes[]",
          "name": "calldatas",
          "type": "bytes[]"
        },
        {
          "indexed": false,
          "internalType": "uint256",
          "name": "startBlock",
          "type": "uint256"
        },
        {
          "indexed": false,
          "internalType": "uint256",
          "name": "endBlock",
          "type": "uint256"
        },
        {
          "indexed": false,
          "internalType": "string",
          "name": "description",
          "type": "string"
        }
      ],
      "name": "ProposalCreated",
      "type": "event"
    },
    {
      "anonymous": false,
      "inputs": [
        {
          "indexed": false,
          "internalType": "uint256",
          "name": "proposalId",
          "type": "uint256"
        }
      ],
      "name": "ProposalExecuted",
      "type": "event"
    },
    {
      "anonymous": false,
      "inputs": [
        {
          "indexed": false,
          "internalType": "uint256",
          "name": "oldProposalThreshold",
          "type": "uint256"
        },
        {
          "indexed": false,
          "internalType": "uint256",
          "name": "newProposalThreshold",
          "type": "uint256"
        }
      ],
      "name": "ProposalThresholdSet",
      "type": "event"
    },
    {
      "anonymous": false,
      "inputs": [
        {
          "indexed": false,
          "internalType": "uint256",
          "name": "oldQuorumNumerator",
          "type": "uint256"
        },
        {
          "indexed": false,
          "internalType": "uint256",
          "name": "newQuorumNumerator",
          "type": "uint256"
        }
      ],
      "name": "QuorumNumeratorUpdated",
      "type": "event"
    },
    {
      "anonymous": false,
      "inputs": [
        {
          "indexed": false,
          "internalType": "uint256",
          "name": "HackerId",
          "type": "uint256"
        }
      ],
      "name": "SubmissionDone",
      "type": "event"
    },
    {
      "anonymous": false,
      "inputs": [
        {
          "indexed": false,
          "internalType": "uint256",
          "name": "totalVotes",
          "type": "uint256"
        }
      ],
      "name": "TotalVotes",
      "type": "event"
    },
    {
      "anonymous": false,
      "inputs": [
        {
          "indexed": true,
          "internalType": "address",
          "name": "voter",
          "type": "address"
        },
        {
          "indexed": false,
          "internalType": "uint256",
          "name": "proposalId",
          "type": "uint256"
        },
        {
          "indexed": false,
          "internalType": "uint8",
          "name": "support",
          "type": "uint8"
        },
        {
          "indexed": false,
          "internalType": "uint256",
          "name": "weight",
          "type": "uint256"
        },
        {
          "indexed": false,
          "internalType": "string",
          "name": "reason",
          "type": "string"
        }
      ],
      "name": "VoteCast",
      "type": "event"
    },
    {
      "anonymous": false,
      "inputs": [
        {
          "indexed": false,
          "internalType": "uint256",
          "name": "votesPresent",
          "type": "uint256"
        }
      ],
      "name": "VotesPresent",
      "type": "event"
    },
    {
      "anonymous": false,
      "inputs": [
        {
          "indexed": false,
          "internalType": "uint256",
          "name": "oldVotingDelay",
          "type": "uint256"
        },
        {
          "indexed": false,
          "internalType": "uint256",
          "name": "newVotingDelay",
          "type": "uint256"
        }
      ],
      "name": "VotingDelaySet",
      "type": "event"
    },
    {
      "anonymous": false,
      "inputs": [
        {
          "indexed": false,
          "internalType": "uint256",
          "name": "oldVotingPeriod",
          "type": "uint256"
        },
        {
          "indexed": false,
          "internalType": "uint256",
          "name": "newVotingPeriod",
          "type": "uint256"
        }
      ],
      "name": "VotingPeriodSet",
      "type": "event"
    },
    {
      "anonymous": false,
      "inputs": [
        {
          "indexed": false,
          "internalType": "address",
          "name": "winnerAddress",
          "type": "address"
        }
      ],
      "name": "WinnerIs",
      "type": "event"
    },
    {
      "inputs": [],
      "name": "BALLOT_TYPEHASH",
      "outputs": [
        {
          "internalType": "bytes32",
          "name": "",
          "type": "bytes32"
        }
      ],
      "stateMutability": "view",
      "type": "function"
    },
    {
      "inputs": [],
      "name": "COUNTING_MODE",
      "outputs": [
        {
          "internalType": "string",
          "name": "",
          "type": "string"
        }
      ],
      "stateMutability": "pure",
      "type": "function"
    },
    {
      "inputs": [
        {
          "internalType": "uint256",
          "name": "",
          "type": "uint256"
        }
      ],
      "name": "ProposalIdToHackathonId",
      "outputs": [
        {
          "internalType": "uint256",
          "name": "",
          "type": "uint256"
        }
      ],
      "stateMutability": "view",
      "type": "function"
    },
    {
      "inputs": [
        {
          "internalType": "string",
          "name": "",
          "type": "string"
        }
      ],
      "name": "acceptedProposal",
      "outputs": [
        {
          "internalType": "address",
          "name": "",
          "type": "address"
        }
      ],
      "stateMutability": "view",
      "type": "function"
    },
    {
      "inputs": [
        {
          "internalType": "uint256",
          "name": "_amount",
          "type": "uint256"
        }
      ],
      "name": "addMember",
      "outputs": [],
      "stateMutability": "nonpayable",
      "type": "function"
    },
    {
      "inputs": [
        {
          "internalType": "string",
          "name": "_name",
          "type": "string"
        },
        {
          "internalType": "string",
          "name": "_startDate",
          "type": "string"
        },
        {
          "internalType": "string",
          "name": "_endDate",
          "type": "string"
        },
        {
          "internalType": "uint256",
          "name": "_prizeMoney",
          "type": "uint256"
        },
        {
          "internalType": "address payable",
          "name": "_sponsorAddress",
          "type": "address"
        }
      ],
      "name": "add_hackathon",
      "outputs": [
        {
          "internalType": "uint256",
          "name": "",
          "type": "uint256"
        }
      ],
      "stateMutability": "nonpayable",
      "type": "function"
    },
    {
      "inputs": [
        {
          "internalType": "uint256",
          "name": "_hackerId",
          "type": "uint256"
        },
        {
          "internalType": "string",
          "name": "_ipfsHash",
          "type": "string"
        },
        {
          "internalType": "uint256",
          "name": "_hackathonId",
          "type": "uint256"
        }
      ],
      "name": "add_submission",
      "outputs": [],
      "stateMutability": "nonpayable",
      "type": "function"
    },
    {
      "inputs": [
        {
          "internalType": "uint256",
          "name": "proposalId",
          "type": "uint256"
        },
        {
          "internalType": "uint8",
          "name": "support",
          "type": "uint8"
        }
      ],
      "name": "castVote",
      "outputs": [
        {
          "internalType": "uint256",
          "name": "",
          "type": "uint256"
        }
      ],
      "stateMutability": "nonpayable",
      "type": "function"
    },
    {
      "inputs": [
        {
          "internalType": "uint256",
          "name": "proposalId",
          "type": "uint256"
        },
        {
          "internalType": "uint8",
          "name": "support",
          "type": "uint8"
        },
        {
          "internalType": "uint8",
          "name": "v",
          "type": "uint8"
        },
        {
          "internalType": "bytes32",
          "name": "r",
          "type": "bytes32"
        },
        {
          "internalType": "bytes32",
          "name": "s",
          "type": "bytes32"
        }
      ],
      "name": "castVoteBySig",
      "outputs": [
        {
          "internalType": "uint256",
          "name": "",
          "type": "uint256"
        }
      ],
      "stateMutability": "nonpayable",
      "type": "function"
    },
    {
      "inputs": [
        {
          "internalType": "uint256",
          "name": "proposalId",
          "type": "uint256"
        },
        {
          "internalType": "uint8",
          "name": "support",
          "type": "uint8"
        },
        {
          "internalType": "string",
          "name": "reason",
          "type": "string"
        }
      ],
      "name": "castVoteWithReason",
      "outputs": [
        {
          "internalType": "uint256",
          "name": "",
          "type": "uint256"
        }
      ],
      "stateMutability": "nonpayable",
      "type": "function"
    },
    {
      "inputs": [
        {
          "internalType": "address[]",
          "name": "targets",
          "type": "address[]"
        },
        {
          "internalType": "uint256[]",
          "name": "values",
          "type": "uint256[]"
        },
        {
          "internalType": "bytes[]",
          "name": "calldatas",
          "type": "bytes[]"
        },
        {
          "internalType": "string",
          "name": "description",
          "type": "string"
        },
        {
          "internalType": "uint256",
          "name": "hackathonId",
          "type": "uint256"
        }
      ],
      "name": "createProposal",
      "outputs": [
        {
          "internalType": "uint256",
          "name": "",
          "type": "uint256"
        }
      ],
      "stateMutability": "nonpayable",
      "type": "function"
    },
    {
      "inputs": [
        {
          "internalType": "uint256",
          "name": "_amount",
          "type": "uint256"
        },
        {
          "internalType": "address",
          "name": "_user",
          "type": "address"
        }
      ],
      "name": "disburseIncentive",
      "outputs": [],
      "stateMutability": "nonpayable",
      "type": "function"
    },
    {
      "inputs": [
        {
          "internalType": "address[]",
          "name": "targets",
          "type": "address[]"
        },
        {
          "internalType": "uint256[]",
          "name": "values",
          "type": "uint256[]"
        },
        {
          "internalType": "bytes[]",
          "name": "calldatas",
          "type": "bytes[]"
        },
        {
          "internalType": "bytes32",
          "name": "descriptionHash",
          "type": "bytes32"
        }
      ],
      "name": "execute",
      "outputs": [
        {
          "internalType": "uint256",
          "name": "",
          "type": "uint256"
        }
      ],
      "stateMutability": "payable",
      "type": "function"
    },
    {
      "inputs": [
        {
          "internalType": "uint256",
          "name": "_proposalId",
          "type": "uint256"
        },
        {
          "internalType": "uint256",
          "name": "_hackerId",
          "type": "uint256"
        }
      ],
      "name": "getHackerSubmission",
      "outputs": [
        {
          "internalType": "string",
          "name": "",
          "type": "string"
        }
      ],
      "stateMutability": "nonpayable",
      "type": "function"
    },
    {
      "inputs": [
        {
          "internalType": "uint256",
          "name": "_hackathonId",
          "type": "uint256"
        }
      ],
      "name": "getProposalId",
      "outputs": [
        {
          "internalType": "uint256",
          "name": "",
          "type": "uint256"
        }
      ],
      "stateMutability": "nonpayable",
      "type": "function"
    },
    {
      "inputs": [
        {
          "internalType": "address",
          "name": "account",
          "type": "address"
        },
        {
          "internalType": "uint256",
          "name": "blockNumber",
          "type": "uint256"
        }
      ],
      "name": "getVotes",
      "outputs": [
        {
          "internalType": "uint256",
          "name": "",
          "type": "uint256"
        }
      ],
      "stateMutability": "view",
      "type": "function"
    },
    {
      "inputs": [
        {
          "internalType": "uint256",
          "name": "_amount",
          "type": "uint256"
        },
        {
          "internalType": "address payable",
          "name": "_spender",
          "type": "address"
        }
      ],
      "name": "giveApproval",
      "outputs": [],
      "stateMutability": "nonpayable",
      "type": "function"
    },
    {
      "inputs": [],
      "name": "hackathonId",
      "outputs": [
        {
          "internalType": "uint256",
          "name": "_value",
          "type": "uint256"
        }
      ],
      "stateMutability": "view",
      "type": "function"
    },
    {
      "inputs": [
        {
          "internalType": "uint256",
          "name": "",
          "type": "uint256"
        }
      ],
      "name": "hackathonIdToHackathon",
      "outputs": [
        {
          "internalType": "uint256",
          "name": "hackathonId",
          "type": "uint256"
        },
        {
          "internalType": "string",
          "name": "name",
          "type": "string"
        },
        {
          "internalType": "uint256",
          "name": "prizeMoney",
          "type": "uint256"
        },
        {
          "internalType": "string",
          "name": "startDate",
          "type": "string"
        },
        {
          "internalType": "string",
          "name": "endDate",
          "type": "string"
        },
        {
          "internalType": "uint256",
          "name": "proposalId",
          "type": "uint256"
        },
        {
          "internalType": "address",
          "name": "sponsorAddress",
          "type": "address"
        }
      ],
      "stateMutability": "view",
      "type": "function"
    },
    {
      "inputs": [],
      "name": "hackerId",
      "outputs": [
        {
          "internalType": "uint256",
          "name": "_value",
          "type": "uint256"
        }
      ],
      "stateMutability": "view",
      "type": "function"
    },
    {
      "inputs": [
        {
          "internalType": "uint256",
          "name": "",
          "type": "uint256"
        }
      ],
      "name": "hackerIdToHackathon",
      "outputs": [
        {
          "internalType": "uint256",
          "name": "hackathonId",
          "type": "uint256"
        },
        {
          "internalType": "string",
          "name": "name",
          "type": "string"
        },
        {
          "internalType": "uint256",
          "name": "prizeMoney",
          "type": "uint256"
        },
        {
          "internalType": "string",
          "name": "startDate",
          "type": "string"
        },
        {
          "internalType": "string",
          "name": "endDate",
          "type": "string"
        },
        {
          "internalType": "uint256",
          "name": "proposalId",
          "type": "uint256"
        },
        {
          "internalType": "address",
          "name": "sponsorAddress",
          "type": "address"
        }
      ],
      "stateMutability": "view",
      "type": "function"
    },
    {
      "inputs": [
        {
          "internalType": "uint256",
          "name": "_hackathonId",
          "type": "uint256"
        }
      ],
      "name": "hasHackerRegistedForHackathon",
      "outputs": [
        {
          "internalType": "bool",
          "name": "",
          "type": "bool"
        }
      ],
      "stateMutability": "view",
      "type": "function"
    },
    {
      "inputs": [
        {
          "internalType": "uint256",
          "name": "proposalId",
          "type": "uint256"
        },
        {
          "internalType": "address",
          "name": "account",
          "type": "address"
        }
      ],
      "name": "hasVoted",
      "outputs": [
        {
          "internalType": "bool",
          "name": "",
          "type": "bool"
        }
      ],
      "stateMutability": "view",
      "type": "function"
    },
    {
      "inputs": [
        {
          "internalType": "address[]",
          "name": "targets",
          "type": "address[]"
        },
        {
          "internalType": "uint256[]",
          "name": "values",
          "type": "uint256[]"
        },
        {
          "internalType": "bytes[]",
          "name": "calldatas",
          "type": "bytes[]"
        },
        {
          "internalType": "bytes32",
          "name": "descriptionHash",
          "type": "bytes32"
        }
      ],
      "name": "hashProposal",
      "outputs": [
        {
          "internalType": "uint256",
          "name": "",
          "type": "uint256"
        }
      ],
      "stateMutability": "pure",
      "type": "function"
    },
    {
      "inputs": [],
      "name": "name",
      "outputs": [
        {
          "internalType": "string",
          "name": "",
          "type": "string"
        }
      ],
      "stateMutability": "view",
      "type": "function"
    },
    {
      "inputs": [
        {
          "internalType": "uint256",
          "name": "proposalId",
          "type": "uint256"
        }
      ],
      "name": "proposalDeadline",
      "outputs": [
        {
          "internalType": "uint256",
          "name": "",
          "type": "uint256"
        }
      ],
      "stateMutability": "view",
      "type": "function"
    },
    {
      "inputs": [
        {
          "internalType": "uint256",
          "name": "proposalId",
          "type": "uint256"
        }
      ],
      "name": "proposalSnapshot",
      "outputs": [
        {
          "internalType": "uint256",
          "name": "",
          "type": "uint256"
        }
      ],
      "stateMutability": "view",
      "type": "function"
    },
    {
      "inputs": [],
      "name": "proposalThreshold",
      "outputs": [
        {
          "internalType": "uint256",
          "name": "",
          "type": "uint256"
        }
      ],
      "stateMutability": "view",
      "type": "function"
    },
    {
      "inputs": [
        {
          "internalType": "address[]",
          "name": "targets",
          "type": "address[]"
        },
        {
          "internalType": "uint256[]",
          "name": "values",
          "type": "uint256[]"
        },
        {
          "internalType": "bytes[]",
          "name": "calldatas",
          "type": "bytes[]"
        },
        {
          "internalType": "string",
          "name": "description",
          "type": "string"
        }
      ],
      "name": "propose",
      "outputs": [
        {
          "internalType": "uint256",
          "name": "",
          "type": "uint256"
        }
      ],
      "stateMutability": "nonpayable",
      "type": "function"
    },
    {
      "inputs": [
        {
          "internalType": "uint256",
          "name": "blockNumber",
          "type": "uint256"
        }
      ],
      "name": "quorum",
      "outputs": [
        {
          "internalType": "uint256",
          "name": "",
          "type": "uint256"
        }
      ],
      "stateMutability": "view",
      "type": "function"
    },
    {
      "inputs": [],
      "name": "quorumDenominator",
      "outputs": [
        {
          "internalType": "uint256",
          "name": "",
          "type": "uint256"
        }
      ],
      "stateMutability": "view",
      "type": "function"
    },
    {
      "inputs": [],
      "name": "quorumNumerator",
      "outputs": [
        {
          "internalType": "uint256",
          "name": "",
          "type": "uint256"
        }
      ],
      "stateMutability": "view",
      "type": "function"
    },
    {
      "inputs": [],
      "name": "receiveEthForTransactions",
      "outputs": [],
      "stateMutability": "payable",
      "type": "function"
    },
    {
      "inputs": [
        {
          "internalType": "string",
          "name": "_name",
          "type": "string"
        },
        {
          "internalType": "uint256",
          "name": "_hackathonId",
          "type": "uint256"
        }
      ],
      "name": "register_hacker",
      "outputs": [
        {
          "internalType": "uint256",
          "name": "",
          "type": "uint256"
        }
      ],
      "stateMutability": "nonpayable",
      "type": "function"
    },
    {
      "inputs": [
        {
          "internalType": "address",
          "name": "target",
          "type": "address"
        },
        {
          "internalType": "uint256",
          "name": "value",
          "type": "uint256"
        },
        {
          "internalType": "bytes",
          "name": "data",
          "type": "bytes"
        }
      ],
      "name": "relay",
      "outputs": [],
      "stateMutability": "nonpayable",
      "type": "function"
    },
    {
      "inputs": [
        {
          "internalType": "uint256",
          "name": "newProposalThreshold",
          "type": "uint256"
        }
      ],
      "name": "setProposalThreshold",
      "outputs": [],
      "stateMutability": "nonpayable",
      "type": "function"
    },
    {
      "inputs": [
        {
          "internalType": "uint256",
          "name": "newVotingDelay",
          "type": "uint256"
        }
      ],
      "name": "setVotingDelay",
      "outputs": [],
      "stateMutability": "nonpayable",
      "type": "function"
    },
    {
      "inputs": [
        {
          "internalType": "uint256",
          "name": "newVotingPeriod",
          "type": "uint256"
        }
      ],
      "name": "setVotingPeriod",
      "outputs": [],
      "stateMutability": "nonpayable",
      "type": "function"
    },
    {
      "inputs": [
        {
          "internalType": "uint256",
          "name": "_hackathonId",
          "type": "uint256"
        }
      ],
      "name": "setWinnerAddress",
      "outputs": [],
      "stateMutability": "nonpayable",
      "type": "function"
    },
    {
      "inputs": [
        {
          "internalType": "uint256",
          "name": "proposalId",
          "type": "uint256"
        }
      ],
      "name": "state",
      "outputs": [
        {
          "internalType": "enum IGovernor.ProposalState",
          "name": "",
          "type": "uint8"
        }
      ],
      "stateMutability": "view",
      "type": "function"
    },
    {
      "inputs": [
        {
          "internalType": "bytes4",
          "name": "interfaceId",
          "type": "bytes4"
        }
      ],
      "name": "supportsInterface",
      "outputs": [
        {
          "internalType": "bool",
          "name": "",
          "type": "bool"
        }
      ],
      "stateMutability": "view",
      "type": "function"
    },
    {
      "inputs": [],
      "name": "token",
      "outputs": [
        {
          "internalType": "contract IVotes",
          "name": "",
          "type": "address"
        }
      ],
      "stateMutability": "view",
      "type": "function"
    },
    {
      "inputs": [
        {
          "internalType": "uint256",
          "name": "newQuorumNumerator",
          "type": "uint256"
        }
      ],
      "name": "updateQuorumNumerator",
      "outputs": [],
      "stateMutability": "nonpayable",
      "type": "function"
    },
    {
      "inputs": [],
      "name": "version",
      "outputs": [
        {
          "internalType": "string",
          "name": "",
          "type": "string"
        }
      ],
      "stateMutability": "view",
      "type": "function"
    },
    {
      "inputs": [],
      "name": "votingDelay",
      "outputs": [
        {
          "internalType": "uint256",
          "name": "",
          "type": "uint256"
        }
      ],
      "stateMutability": "view",
      "type": "function"
    },
    {
      "inputs": [],
      "name": "votingPeriod",
      "outputs": [
        {
          "internalType": "uint256",
          "name": "",
          "type": "uint256"
        }
      ],
      "stateMutability": "view",
      "type": "function"
    },
    {
      "stateMutability": "payable",
      "type": "receive"
    }
  ],
  "bytecode": "0x610160604052601080546001600160a01b03191690553480156200002257600080fd5b50604051620045d8380380620045d883398101604081905262000045916200043d565b6004836000600a8186806200006e6040805180820190915260018152603160f81b602082015290565b815160208084019190912082518383012060e08290526101008190524660a0818152604080517f8b73c3c69bb8fe3d512ecc4cf759cc79239f7b179b0ffacaa9a75d522b39400f81880181905281830187905260608201869052608082019490945230818401528151808203909301835260c00190528051940193909320919290916080523060601b60c052610120525050825162000117925060009150602084019062000385565b506200012590508362000192565b6200013082620001d3565b6200013b816200027a565b50505060601b6001600160601b031916610140526200015a81620002bb565b50600d80546001600160a01b039283166001600160a01b031991821617909155600e80549490921693169290921790915550620005aa565b60025460408051918252602082018390527fc565b045403dc03c2eea82b81a0465edad9e2e7fc4d97e11421c209da93d7a93910160405180910390a1600255565b60008111620002395760405162461bcd60e51b815260206004820152602760248201527f476f7665726e6f7253657474696e67733a20766f74696e6720706572696f6420604482015266746f6f206c6f7760c81b60648201526084015b60405180910390fd5b60035460408051918252602082018390527f7e3f7f0708a84de9203036abaa450dccc85ad5ff52f78c170f3edb55cf5e8828910160405180910390a1600355565b60045460408051918252602082018390527fccb45da8d5717e6c4544694297c4ba5cf151d455c9bb0ed4fc7a38411bc05461910160405180910390a1600455565b6064811115620003405760405162461bcd60e51b815260206004820152604360248201527f476f7665726e6f72566f74657351756f72756d4672616374696f6e3a2071756f60448201527f72756d4e756d657261746f72206f7665722071756f72756d44656e6f6d696e616064820152623a37b960e91b608482015260a40162000230565b600c80549082905560408051828152602081018490527f0553476bf02ef2726e8ce5ced78d63e26e602e4a2257b1f559418e24b4633997910160405180910390a15050565b82805462000393906200053e565b90600052602060002090601f016020900481019282620003b7576000855562000402565b82601f10620003d257805160ff191683800117855562000402565b8280016001018555821562000402579182015b8281111562000402578251825591602001919060010190620003e5565b506200041092915062000414565b5090565b5b8082111562000410576000815560010162000415565b8051620004388162000591565b919050565b60008060006060848603121562000452578283fd5b83516200045f8162000591565b602085810151919450906001600160401b03808211156200047e578485fd5b818701915087601f83011262000492578485fd5b815181811115620004a757620004a76200057b565b604051601f8201601f19908116603f01168101908382118183101715620004d257620004d26200057b565b816040528281528a86848701011115620004ea578788fd5b8793505b828410156200050d5784840186015181850187015292850192620004ee565b828411156200051e57878684830101525b80975050505050505062000535604085016200042b565b90509250925092565b6002810460018216806200055357607f821691505b602082108114156200057557634e487b7160e01b600052602260045260246000fd5b50919050565b634e487b7160e01b600052604160045260246000fd5b6001600160a01b0381168114620005a757600080fd5b50565b60805160a05160c05160601c60e05161010051610120516101405160601c613fbf62000619600039600081816108e80152818161267d0152612757015260006128b201526000612901015260006128dc015260006128330152600061285d015260006128870152613fbf6000f3fe6080604052600436106102805760003560e01c80637ba6aa641161014f578063c28bc2fa116100c1578063e6c0f7fe1161007a578063e6c0f7fe1461084e578063ea0217cf14610856578063eb9019d414610876578063ece40cc114610896578063f8ce560a146108b6578063fc0c546a146108d6576102a3565b8063c28bc2fa1461075d578063c59057e41461077d578063cd2c2bd21461079d578063dd4e2ba5146107b4578063deaaa7cc146107fa578063e0b4887c1461082e576102a3565b80639605270a116101135780639605270a146106bf57806397c3d334146106df578063a7713a70146106f3578063a90bd40914610708578063b58131b014610728578063c01f9e371461073d576102a3565b80637ba6aa641461061f5780637c95ac271461063f5780637d5e81e21461065f578063909da8f11461067f57806391dda66e1461069f576102a3565b80633bccf4fd116101f357806356781388116101ac57806356781388146105525780636cd4dad9146105725780636cef51ce1461059257806370b0f660146105b257806378270cad146105d25780637b3c71d3146105ff576102a3565b80633bccf4fd1461045a5780633d36d6481461047a5780633e4f49e61461049a5780634200a80b146104c757806343859632146104de57806354fd4d5014610528576102a3565b80630c47bd45116102455780630c47bd45146103795780631089f5ed1461039957806324de2ef6146103b95780632656227d146104125780632d63f693146104255780633932abb114610445576102a3565b8062d647e1146102a857806301ffc9a7146102e457806302a251a31461031457806306f3f9e61461033757806306fdde0314610357576102a3565b366102a3573061028e61090a565b6001600160a01b0316146102a157600080fd5b005b600080fd5b3480156102b457600080fd5b506102c86102c336600461366f565b61090f565b6040516102db9796959493929190613cf4565b60405180910390f35b3480156102f057600080fd5b506103046102ff366004613531565b610aec565b60405190151581526020016102db565b34801561032057600080fd5b50610329610b25565b6040519081526020016102db565b34801561034357600080fd5b506102a161035236600461366f565b610b35565b34801561036357600080fd5b5061036c610b82565b6040516102db9190613b48565b34801561038557600080fd5b506102c861039436600461366f565b610c14565b3480156103a557600080fd5b506102a16103b436600461366f565b610c36565b3480156103c557600080fd5b506103fa6103d4366004613559565b8051602081830181018051600f825292820191909301209152546001600160a01b031681565b6040516001600160a01b0390911681526020016102db565b610329610420366004613330565b610d8b565b34801561043157600080fd5b5061032961044036600461366f565b610eb4565b34801561045157600080fd5b50610329610eeb565b34801561046657600080fd5b506103296104753660046137a6565b610ef6565b34801561048657600080fd5b506102a161049536600461366f565b610f8a565b3480156104a657600080fd5b506104ba6104b536600461366f565b610fc2565b6040516102db9190613b20565b3480156104d357600080fd5b506006546103299081565b3480156104ea57600080fd5b506103046104f936600461369f565b6000828152600b602090815260408083206001600160a01b038516845260010190915290205460ff1692915050565b34801561053457600080fd5b506040805180820190915260018152603160f81b602082015261036c565b34801561055e57600080fd5b5061032961056d36600461373c565b61109b565b34801561057e57600080fd5b5061032961058d366004613462565b6110c4565b34801561059e57600080fd5b5061036c6105ad36600461371b565b61110e565b3480156105be57600080fd5b506102a16105cd36600461366f565b611121565b3480156105de57600080fd5b506103296105ed36600461366f565b60096020526000908152604090205481565b34801561060b57600080fd5b5061032961061a366004613767565b611162565b34801561062b57600080fd5b506102a161063a36600461369f565b6111aa565b34801561064b57600080fd5b5061032961065a36600461366f565b611235565b34801561066b57600080fd5b5061032961067a3660046133bb565b611240565b34801561068b57600080fd5b5061032961069a36600461358b565b611529565b3480156106ab57600080fd5b506103296106ba36600461362d565b61160f565b3480156106cb57600080fd5b506102a16106da3660046136ce565b611786565b3480156106eb57600080fd5b506064610329565b3480156106ff57600080fd5b50600c54610329565b34801561071457600080fd5b506102a161072336600461369f565b6118e5565b34801561073457600080fd5b506103296119b4565b34801561074957600080fd5b5061032961075836600461366f565b6119bf565b34801561076957600080fd5b506102a16107783660046132d7565b6119ee565b34801561078957600080fd5b50610329610798366004613330565b611a6f565b3480156107a957600080fd5b506005546103299081565b3480156107c057600080fd5b506040805180820190915260208082527f737570706f72743d627261766f2671756f72756d3d666f722c6162737461696e9082015261036c565b34801561080657600080fd5b506103297f150214d74d59b7d1e90c73fc22ef3d991dd0a76b046543d4d80ab92d2a50328f81565b34801561083a57600080fd5b5061030461084936600461366f565b611aa9565b6102a1611b3b565b34801561086257600080fd5b506102a161087136600461366f565b611bc4565b34801561088257600080fd5b506103296108913660046132ac565b611c05565b3480156108a257600080fd5b506102a16108b136600461366f565b611c11565b3480156108c257600080fd5b506103296108d136600461366f565b611c52565b3480156108e257600080fd5b506103fa7f000000000000000000000000000000000000000000000000000000000000000081565b305b90565b6007602052600090815260409020805460018201805491929161093190613ea2565b80601f016020809104026020016040519081016040528092919081815260200182805461095d90613ea2565b80156109aa5780601f1061097f576101008083540402835291602001916109aa565b820191906000526020600020905b81548152906001019060200180831161098d57829003601f168201915b5050505050908060020154908060040180546109c590613ea2565b80601f01602080910402602001604051908101604052809291908181526020018280546109f190613ea2565b8015610a3e5780601f10610a1357610100808354040283529160200191610a3e565b820191906000526020600020905b815481529060010190602001808311610a2157829003601f168201915b505050505090806005018054610a5390613ea2565b80601f0160208091040260200160405190810160405280929190818152602001828054610a7f90613ea2565b8015610acc5780601f10610aa157610100808354040283529160200191610acc565b820191906000526020600020905b815481529060010190602001808311610aaf57829003601f168201915b5050505060068301546007909301549192916001600160a01b0316905087565b60006001600160e01b0319821663bf26d89760e01b1480610b1d57506301ffc9a760e01b6001600160e01b03198316145b90505b919050565b6000610b3060035490565b905090565b610b3d61090a565b6001600160a01b0316336001600160a01b031614610b765760405162461bcd60e51b8152600401610b6d90613b7d565b60405180910390fd5b610b7f81611c5d565b50565b606060008054610b9190613ea2565b80601f0160208091040260200160405190810160405280929190818152602001828054610bbd90613ea2565b8015610c0a5780601f10610bdf57610100808354040283529160200191610c0a565b820191906000526020600020905b815481529060010190602001808311610bed57829003601f168201915b5050505050905090565b6008602052600090815260409020805460018201805491929161093190613ea2565b600d54604051636eb1769f60e11b815233600482015230602482015282916001600160a01b03169063dd62ed3e9060440160206040518083038186803b158015610c7f57600080fd5b505afa158015610c93573d6000803e3d6000fd5b505050506040513d601f19601f82011682018060405250810190610cb79190613687565b1015610cfd5760405162461bcd60e51b815260206004820152601560248201527411105248185b1b1bddd85b98d9481b9bdd081cd95d605a1b6044820152606401610b6d565b600d546040516323b872dd60e01b8152336004820152306024820152604481018390526001600160a01b03909116906323b872dd90606401602060405180830381600087803b158015610d4f57600080fd5b505af1158015610d63573d6000803e3d6000fd5b505050506040513d601f19601f82011682018060405250810190610d879190613511565b5050565b600080610d9a86868686611a6f565b90506000610da782610fc2565b90506004816007811115610dcb57634e487b7160e01b600052602160045260246000fd5b1480610df657506005816007811115610df457634e487b7160e01b600052602160045260246000fd5b145b610e4c5760405162461bcd60e51b815260206004820152602160248201527f476f7665726e6f723a2070726f706f73616c206e6f74207375636365737366756044820152601b60fa1b6064820152608401610b6d565b600082815260016020818152604092839020600201805460ff191690921790915590518381527f712ae1383f79ac853f8d882153778e0260ef8f03b504e2866e0593e04d2b291f910160405180910390a1610eaa8288888888611d25565b5095945050505050565b60008181526001602090815260408083208151928301909152546001600160401b0316908190525b6001600160401b031692915050565b6000610b3060025490565b604080517f150214d74d59b7d1e90c73fc22ef3d991dd0a76b046543d4d80ab92d2a50328f602082015290810186905260ff851660608201526000908190610f6290610f5a9060800160405160208183030381529060405280519060200120611e4e565b868686611e9c565b9050610f7f87828860405180602001604052806000815250611eba565b979650505050505050565b6000610f9582611fd3565b601080546001600160a01b0319166001600160a01b039384161790819055909250610d87918391166118e5565b6000818152600160205260408120600281015460ff1615610fe7576007915050610b20565b6002810154610100900460ff1615611003576002915050610b20565b600061100e84610eb4565b90508061105d5760405162461bcd60e51b815260206004820152601d60248201527f476f7665726e6f723a20756e6b6e6f776e2070726f706f73616c2069640000006044820152606401610b6d565b43811061106f57600092505050610b20565b600061107a856119bf565b905043811061108f5760019350505050610b20565b60049350505050610b20565b6000803390506110bc84828560405180602001604052806000815250611eba565b949350505050565b60006110cf82612274565b60006110dd87878787611240565b60008181526009602090815260408083208790558683526007909152902060060181905590505b9695505050505050565b606061111a83836122cc565b9392505050565b61112961090a565b6001600160a01b0316336001600160a01b0316146111595760405162461bcd60e51b8152600401610b6d90613b7d565b610b7f81612449565b60008033905061110486828787878080601f016020809104026020016040519081016040528093929190818152602001838380828437600092019190915250611eba92505050565b600d5460405163095ea7b360e01b81526001600160a01b038381166004830152602482018590529091169063095ea7b390604401602060405180830381600087803b1580156111f857600080fd5b505af115801561120c573d6000803e3d6000fd5b505050506040513d601f19601f820116820180604052508101906112309190613511565b505050565b6000610b1d8261248a565b600061124a6119b4565b61125933610891600143613e5b565b10156112d95760405162461bcd60e51b815260206004820152604360248201527f476f7665726e6f72436f6d7061746962696c697479427261766f3a2070726f7060448201527f6f73657220766f7465732062656c6f772070726f706f73616c207468726573686064820152621bdb1960ea1b608482015260a401610b6d565b60006112ee8686868680519060200120611a6f565b905084518651146113115760405162461bcd60e51b8152600401610b6d90613bb4565b83518651146113325760405162461bcd60e51b8152600401610b6d90613bb4565b60008651116113835760405162461bcd60e51b815260206004820152601860248201527f476f7665726e6f723a20656d7074792070726f706f73616c00000000000000006044820152606401610b6d565b600081815260016020908152604091829020825191820190925281546001600160401b031690819052156114035760405162461bcd60e51b815260206004820152602160248201527f476f7665726e6f723a2070726f706f73616c20616c72656164792065786973746044820152607360f81b6064820152608401610b6d565b6000611415611410610eeb565b6124dc565b61141e436124dc565b6114289190613df1565b90506000611437611410610b25565b6114419083613df1565b835467ffffffffffffffff19166001600160401b038416178455905060018301805467ffffffffffffffff19166001600160401b0383161790557f7d84a6263ae0d98d3329bd7b46bb4e8d6f98cd35a7adb45c274c8b7fd5ebd5e084338b8b8d516001600160401b038111156114c757634e487b7160e01b600052604160045260246000fd5b6040519080825280602002602001820160405280156114fa57816020015b60608152602001906001900390816114e55790505b508c88888e60405161151499989796959493929190613c08565b60405180910390a15091979650505050505050565b6000611539600580546001019055565b60006007600061154860055490565b8152602001908152602001600020905061156160055490565b8155865161157890600183019060208a0190613016565b506002810184905585516115959060048301906020890190613016565b5084516115ab9060058301906020880190613016565b506007810180546001600160a01b0319166001600160a01b0385161790557fcba4bf7a6b01547e7d8a3c5050ca5009bb70870c39a8702c8b18c226b89545c16115f360055490565b60405190815260200160405180910390a1549695505050505050565b600061164c6040518060a001604052806000815260200160006001600160a01b031681526020016060815260200160608152602001600081525090565b61165a600680546001019055565b60065481523360208083019182526040808401878152600087815260078452918220600301805460018082018355918452928490208651600590940201928355935193820180546001600160a01b0319166001600160a01b0390951694909417909355915180518493926116d5926002850192910190613016565b50606082015180516116f1916003840191602090910190613016565b506080820151816004015550507f52f5f480849d7ad260ceec55e9f964d8954e583a8194a893b441abb3dfd70df861172860065490565b60405190815260200160405180910390a16000838152600760205260409081902090517f5d57175db3e8e485c967617c5cee2cd2e42ddbce43e3f467c1f89ccf64ef62019161177691613bf5565b60405180910390a1519392505050565b61178f81611aa9565b6117f35760405162461bcd60e51b815260206004820152602f60248201527f4861636b6572204e4f5420726567697374657265642120506c6561736520726560448201526e33b4b9ba32b9103cb7bab939b2b63360891b6064820152608401610b6d565b6000818152600760205260408120600301905b81548110156118ab578482828154811061183057634e487b7160e01b600052603260045260246000fd5b906000526020600020906005020160000154141561189957600082828154811061186a57634e487b7160e01b600052603260045260246000fd5b9060005260206000209060050201905084816003019080519060200190611892929190613016565b50506118ab565b806118a381613edd565b915050611806565b506040518481527f39a3b0282f68964e1565dbe1e8656f18e757f212f480fcbc564b36aa395373649060200160405180910390a150505050565b6010546001600160a01b03166119355760405162461bcd60e51b8152602060048201526015602482015274141c9bdc1bdcd85b081b9bdd081858d8d95c1d1959605a1b6044820152606401610b6d565b600e546001600160a01b03166340c10f198261195285600a613e3c565b6040516001600160e01b031960e085901b1681526001600160a01b0390921660048301526024820152604401600060405180830381600087803b15801561199857600080fd5b505af11580156119ac573d6000803e3d6000fd5b505050505050565b6000610b3060045490565b60008181526001602081815260408084208151928301909152909101546001600160401b031690819052610edc565b6119f661090a565b6001600160a01b0316336001600160a01b031614611a265760405162461bcd60e51b8152600401610b6d90613b7d565b611a688483838080601f016020809104026020016040519081016040528093929190818152602001838380828437600092019190915250889250612548915050565b5050505050565b600084848484604051602001611a889493929190613ad5565b60408051601f19818403018152919052805160209091012095945050505050565b60008181526007602052604081206003018054829190825b81811015611b3157336001600160a01b0316838281548110611af357634e487b7160e01b600052603260045260246000fd5b60009182526020909120600160059092020101546001600160a01b03161415611b1f5760019350611b31565b80611b2981613edd565b915050611ac1565b5091949350505050565b670de0b6b3a7640000341015611b935760405162461bcd60e51b815260206004820152601860248201527f4d696e696d756d203120657468657220726571756972656400000000000000006044820152606401610b6d565b611bc26040518060400160405280600d81526020016c02932b1b2b4bb32b2101e9e9f1609d1b8152503461256e565b565b611bcc61090a565b6001600160a01b0316336001600160a01b031614611bfc5760405162461bcd60e51b8152600401610b6d90613b7d565b610b7f816125b3565b600061111a8383612654565b611c1961090a565b6001600160a01b0316336001600160a01b031614611c495760405162461bcd60e51b8152600401610b6d90613b7d565b610b7f816126f9565b6000610b1d8261273a565b6064811115611ce05760405162461bcd60e51b815260206004820152604360248201527f476f7665726e6f72566f74657351756f72756d4672616374696f6e3a2071756f60448201527f72756d4e756d657261746f72206f7665722071756f72756d44656e6f6d696e616064820152623a37b960e91b608482015260a401610b6d565b600c80549082905560408051828152602081018490527f0553476bf02ef2726e8ce5ced78d63e26e602e4a2257b1f559418e24b4633997910160405180910390a15050565b6000604051806060016040528060278152602001613f3a60279139905060005b8551811015611e4557600080878381518110611d7157634e487b7160e01b600052603260045260246000fd5b60200260200101516001600160a01b0316878481518110611da257634e487b7160e01b600052603260045260246000fd5b6020026020010151878581518110611dca57634e487b7160e01b600052603260045260246000fd5b6020026020010151604051611ddf9190613ab9565b60006040518083038185875af1925050503d8060008114611e1c576040519150601f19603f3d011682016040523d82523d6000602084013e611e21565b606091505b5091509150611e318282866127ed565b50505080611e3e90613edd565b9050611d45565b50505050505050565b6000610b1d611e5b612826565b8360405161190160f01b6020820152602281018390526042810182905260009060620160405160208183030381529060405280519060200120905092915050565b6000806000611ead87878787612951565b91509150610eaa81612a3e565b6000848152600160208190526040822090611ed487610fc2565b6007811115611ef357634e487b7160e01b600052602160045260246000fd5b14611f4c5760405162461bcd60e51b815260206004820152602360248201527f476f7665726e6f723a20766f7465206e6f742063757272656e746c792061637460448201526269766560e81b6064820152608401610b6d565b604080516020810190915281546001600160401b031690819052600090611f74908790611c05565b9050611f8287878784612c41565b856001600160a01b03167fb8e138887d0aa13bab447e82de9d5c1777041ecd21ca36ba824ff1e6c07ddda488878488604051611fc19493929190613d5e565b60405180910390a29695505050505050565b600081815260076020526040812081906003810182808060015b8454611ffb90600190613e5b565b8110156121005784818154811061202257634e487b7160e01b600052603260045260246000fd5b9060005260206000209060050201600401548361203f9190613dd9565b92508385828154811061206257634e487b7160e01b600052603260045260246000fd5b90600052602060002090600502016004015411156120ee5784818154811061209a57634e487b7160e01b600052603260045260246000fd5b90600052602060002090600502016004015493508481815481106120ce57634e487b7160e01b600052603260045260246000fd5b60009182526020909120600160059092020101546001600160a01b031691505b806120f881613edd565b915050611fed565b506040518281527f342fa74b0cce9e9ddd46ed848387fda99edcdd1fc3fc3f3a857e019686cc5bac9060200160405180910390a161214a6003612144846005612eb7565b90612ec3565b8454859061215a90600190613e5b565b8154811061217857634e487b7160e01b600052603260045260246000fd5b906000526020600020906005020160040154106122185783547f9173824f3c339d8aa34cf4de5cfb628749c53017476edd9eea87ae2b915c34f69085906121c190600190613e5b565b815481106121df57634e487b7160e01b600052603260045260246000fd5b90600052602060002090600502016004015460405161220091815260200190565b60405180910390a15060078401546001600160a01b03165b6040516001600160a01b03821681527fd821567381ed9cd7f0191ec035fe54019b4bbeb0f03a499172692febdeacb1f49060200160405180910390a1808560020154600a6122669190613e3c565b965096505050505050915091565b60006122a66040518060400160405280600e81526020016d4e6f6e654f6654686541626f766560901b8152508361160f565b9050610d8781604051806040016040528060018152602001600f60fb1b81525084611786565b60008281526009602090815260408083205483526007909152812060609182919060038201905b81548111612407578582828154811061231c57634e487b7160e01b600052603260045260246000fd5b90600052602060002090600502016000015414156123f55781818154811061235457634e487b7160e01b600052603260045260246000fd5b9060005260206000209060050201600301805461237090613ea2565b80601f016020809104026020016040519081016040528092919081815260200182805461239c90613ea2565b80156123e95780601f106123be576101008083540402835291602001916123e9565b820191906000526020600020905b8154815290600101906020018083116123cc57829003601f168201915b50505050509350612407565b806123ff81613edd565b9150506122f3565b507f7829ebf771064c5d130c67617c2e72fadc405daaa8ed15cdf57dd4550d3e0e85836040516124379190613b48565b60405180910390a15090949350505050565b60025460408051918252602082018390527fc565b045403dc03c2eea82b81a0465edad9e2e7fc4d97e11421c209da93d7a93910160405180910390a1600255565b6000818152600760205260408082206006015490517ff50a47520cf8032d96a273f0c9ba4997dbb1c6532ead0e05061e7886ba7c0010906124ce9083815260200190565b60405180910390a192915050565b60006001600160401b038211156125445760405162461bcd60e51b815260206004820152602660248201527f53616665436173743a2076616c756520646f65736e27742066697420696e203660448201526534206269747360d01b6064820152608401610b6d565b5090565b60606110bc848484604051806060016040528060298152602001613f6160299139612ecf565b610d878282604051602401612584929190613b5b565b60408051601f198184030181529190526020810180516001600160e01b03166309710a9d60e41b179052612ff5565b600081116126135760405162461bcd60e51b815260206004820152602760248201527f476f7665726e6f7253657474696e67733a20766f74696e6720706572696f6420604482015266746f6f206c6f7760c81b6064820152608401610b6d565b60035460408051918252602082018390527f7e3f7f0708a84de9203036abaa450dccc85ad5ff52f78c170f3edb55cf5e8828910160405180910390a1600355565b604051630748d63560e31b81526001600160a01b038381166004830152602482018390526000917f000000000000000000000000000000000000000000000000000000000000000090911690633a46b1a89060440160206040518083038186803b1580156126c157600080fd5b505afa1580156126d5573d6000803e3d6000fd5b505050506040513d601f19601f8201168201806040525081019061111a9190613687565b60045460408051918252602082018390527fccb45da8d5717e6c4544694297c4ba5cf151d455c9bb0ed4fc7a38411bc05461910160405180910390a1600455565b60006064600c54604051632394e7a360e21b8152600481018590527f00000000000000000000000000000000000000000000000000000000000000006001600160a01b031690638e539e8c9060240160206040518083038186803b1580156127a157600080fd5b505afa1580156127b5573d6000803e3d6000fd5b505050506040513d601f19601f820116820180604052508101906127d99190613687565b6127e39190613e3c565b610b1d9190613e1c565b606083156127fc57508161111a565b82511561280c5782518084602001fd5b8160405162461bcd60e51b8152600401610b6d9190613b48565b6000306001600160a01b037f00000000000000000000000000000000000000000000000000000000000000001614801561287f57507f000000000000000000000000000000000000000000000000000000000000000046145b156128ab57507f000000000000000000000000000000000000000000000000000000000000000061090c565b50604080517f00000000000000000000000000000000000000000000000000000000000000006020808301919091527f0000000000000000000000000000000000000000000000000000000000000000828401527f000000000000000000000000000000000000000000000000000000000000000060608301524660808301523060a0808401919091528351808403909101815260c0909201909252805191012061090c565b6000807f7fffffffffffffffffffffffffffffff5d576e7357a4501ddfe92f46681b20a08311156129885750600090506003612a35565b8460ff16601b141580156129a057508460ff16601c14155b156129b15750600090506004612a35565b6040805160008082526020820180845289905260ff881692820192909252606081018690526080810185905260019060a0016020604051602081039080840390855afa158015612a05573d6000803e3d6000fd5b5050604051601f1901519150506001600160a01b038116612a2e57600060019250925050612a35565b9150600090505b94509492505050565b6000816004811115612a6057634e487b7160e01b600052602160045260246000fd5b1415612a6b57610b7f565b6001816004811115612a8d57634e487b7160e01b600052602160045260246000fd5b1415612adb5760405162461bcd60e51b815260206004820152601860248201527f45434453413a20696e76616c6964207369676e617475726500000000000000006044820152606401610b6d565b6002816004811115612afd57634e487b7160e01b600052602160045260246000fd5b1415612b4b5760405162461bcd60e51b815260206004820152601f60248201527f45434453413a20696e76616c6964207369676e6174757265206c656e677468006044820152606401610b6d565b6003816004811115612b6d57634e487b7160e01b600052602160045260246000fd5b1415612bc65760405162461bcd60e51b815260206004820152602260248201527f45434453413a20696e76616c6964207369676e6174757265202773272076616c604482015261756560f01b6064820152608401610b6d565b6004816004811115612be857634e487b7160e01b600052602160045260246000fd5b1415610b7f5760405162461bcd60e51b815260206004820152602260248201527f45434453413a20696e76616c6964207369676e6174757265202776272076616c604482015261756560f01b6064820152608401610b6d565b6000848152600b602090815260408083206001600160a01b0387168452600181019092529091205460ff1615612ccd5760405162461bcd60e51b815260206004820152602b60248201527f476f7665726e6f72566f74696e6753696d706c6553656c663a20766f7465206160448201526a1b1c9958591e4818d85cdd60aa1b6064820152608401610b6d565b6001600160a01b0384166000908152600182810160209081526040808420805460ff19169093179092558783526009815281832054808452600790915291819020905160038201907f5d57175db3e8e485c967617c5cee2cd2e42ddbce43e3f467c1f89ccf64ef620190612d42908490613bf5565b60405180910390a180546040519081527fc8f9129b2b9e0b802fd31fddc1d0e8b371b60e57d44c193a2dd41b24b5ce69649060200160405180910390a1805460ff871611612e475784818760ff1681548110612dae57634e487b7160e01b600052603260045260246000fd5b90600052602060002090600502016004016000828254612dce9190613dd9565b925050819055507f5bf7592d0eaef385cd7fc928d276d6be82ad29c01b35a6efc5fbcab1c924d679818760ff1681548110612e1957634e487b7160e01b600052603260045260246000fd5b906000526020600020906005020160040154604051612e3a91815260200190565b60405180910390a1612ead565b60405162461bcd60e51b815260206004820152603560248201527f476f7665726e6f72566f74696e6753696d706c653a20696e76616c69642076616044820152746c756520666f7220656e756d20566f74655479706560581b6064820152608401610b6d565b5050505050505050565b600061111a8284613e1c565b600061111a8284613e3c565b606082471015612f305760405162461bcd60e51b815260206004820152602660248201527f416464726573733a20696e73756666696369656e742062616c616e636520666f6044820152651c8818d85b1b60d21b6064820152608401610b6d565b6001600160a01b0385163b612f875760405162461bcd60e51b815260206004820152601d60248201527f416464726573733a2063616c6c20746f206e6f6e2d636f6e74726163740000006044820152606401610b6d565b600080866001600160a01b03168587604051612fa39190613ab9565b60006040518083038185875af1925050503d8060008114612fe0576040519150601f19603f3d011682016040523d82523d6000602084013e612fe5565b606091505b5091509150610f7f8282866127ed565b80516a636f6e736f6c652e6c6f67602083016000808483855afa5050505050565b82805461302290613ea2565b90600052602060002090601f016020900481019282613044576000855561308a565b82601f1061305d57805160ff191683800117855561308a565b8280016001018555821561308a579182015b8281111561308a57825182559160200191906001019061306f565b506125449291505b808211156125445760008155600101613092565b60006001600160401b038311156130bf576130bf613f0e565b6130d2601f8401601f1916602001613d86565b90508281528383830111156130e657600080fd5b828260208301376000602084830101529392505050565b600082601f83011261310d578081fd5b8135602061312261311d83613db6565b613d86565b828152818101908583018385028701840188101561313e578586fd5b855b8581101561316557813561315381613f24565b84529284019290840190600101613140565b5090979650505050505050565b600082601f830112613182578081fd5b8135602061319261311d83613db6565b82815281810190858301855b85811015613165578135880189603f8201126131b8578788fd5b6131c98a87830135604084016130a6565b855250928401929084019060010161319e565b600082601f8301126131ec578081fd5b813560206131fc61311d83613db6565b8281528181019085830183850287018401881015613218578586fd5b855b858110156131655781358452928401929084019060010161321a565b60008083601f840112613247578182fd5b5081356001600160401b0381111561325d578182fd5b60208301915083602082850101111561327557600080fd5b9250929050565b600082601f83011261328c578081fd5b61111a838335602085016130a6565b803560ff81168114610b2057600080fd5b600080604083850312156132be578182fd5b82356132c981613f24565b946020939093013593505050565b600080600080606085870312156132ec578182fd5b84356132f781613f24565b93506020850135925060408501356001600160401b03811115613318578283fd5b61332487828801613236565b95989497509550505050565b60008060008060808587031215613345578384fd5b84356001600160401b038082111561335b578586fd5b613367888389016130fd565b9550602087013591508082111561337c578485fd5b613388888389016131dc565b9450604087013591508082111561339d578384fd5b506133aa87828801613172565b949793965093946060013593505050565b600080600080608085870312156133d0578182fd5b84356001600160401b03808211156133e6578384fd5b6133f2888389016130fd565b95506020870135915080821115613407578384fd5b613413888389016131dc565b94506040870135915080821115613428578384fd5b61343488838901613172565b93506060870135915080821115613449578283fd5b506134568782880161327c565b91505092959194509250565b600080600080600060a08688031215613479578283fd5b85356001600160401b038082111561348f578485fd5b61349b89838a016130fd565b965060208801359150808211156134b0578485fd5b6134bc89838a016131dc565b955060408801359150808211156134d1578485fd5b6134dd89838a01613172565b945060608801359150808211156134f2578283fd5b506134ff8882890161327c565b95989497509295608001359392505050565b600060208284031215613522578081fd5b8151801515811461111a578182fd5b600060208284031215613542578081fd5b81356001600160e01b03198116811461111a578182fd5b60006020828403121561356a578081fd5b81356001600160401b0381111561357f578182fd5b6110bc8482850161327c565b600080600080600060a086880312156135a2578283fd5b85356001600160401b03808211156135b8578485fd5b6135c489838a0161327c565b965060208801359150808211156135d9578485fd5b6135e589838a0161327c565b955060408801359150808211156135fa578485fd5b506136078882890161327c565b93505060608601359150608086013561361f81613f24565b809150509295509295909350565b6000806040838503121561363f578182fd5b82356001600160401b03811115613654578283fd5b6136608582860161327c565b95602094909401359450505050565b600060208284031215613680578081fd5b5035919050565b600060208284031215613698578081fd5b5051919050565b600080604083850312156136b1578182fd5b8235915060208301356136c381613f24565b809150509250929050565b6000806000606084860312156136e2578081fd5b8335925060208401356001600160401b038111156136fe578182fd5b61370a8682870161327c565b925050604084013590509250925092565b6000806040838503121561372d578182fd5b50508035926020909101359150565b6000806040838503121561374e578182fd5b8235915061375e6020840161329b565b90509250929050565b6000806000806060858703121561377c578182fd5b8435935061378c6020860161329b565b925060408501356001600160401b03811115613318578283fd5b600080600080600060a086880312156137bd578283fd5b853594506137cd6020870161329b565b93506137db6040870161329b565b94979396509394606081013594506080013592915050565b6000815180845260208085019450808401835b8381101561382b5781516001600160a01b031687529582019590820190600101613806565b509495945050505050565b6000815180845260208085018081965082840281019150828601855b8581101561387c57828403895261386a84835161394b565b98850198935090840190600101613852565b5091979650505050505050565b6000815480845260208085018081965082840281019150858552828520855b8581101561387c5782840389528154845260018201546001600160a01b03168585015260a0604085018190526138e381860160028501613977565b905084810360608601526138fa8160038501613977565b60048401546080969096019590955250978401976005909101906001016138a8565b6000815180845260208085019450808401835b8381101561382b5781518752958201959082019060010161392f565b60008151808452613963816020860160208601613e72565b601f01601f19169290920160200192915050565b80546000906002810460018083168061399157607f831692505b60208084108214156139b157634e487b7160e01b86526022600452602486fd5b838852602088018280156139cc57600181146139dd57613a08565b60ff19871682528282019750613a08565b60008981526020902060005b87811015613a02578154848201529086019084016139e9565b83019850505b5050505050505092915050565b600061010082548452806020850152613a3381850160018501613977565b9050600283015460408501528381036060850152613a548160038501613889565b90508381036080850152613a6b8160048501613977565b905083810360a0850152613a828160058501613977565b9050600683015460c0850152613aa260078401546001600160a01b031690565b6001600160a01b03811660e0860152509392505050565b60008251613acb818460208701613e72565b9190910192915050565b600060808252613ae860808301876137f3565b8281036020840152613afa818761391c565b90508281036040840152613b0e8186613836565b91505082606083015295945050505050565b6020810160088310613b4257634e487b7160e01b600052602160045260246000fd5b91905290565b60006020825261111a602083018461394b565b600060408252613b6e604083018561394b565b90508260208301529392505050565b60208082526018908201527f476f7665726e6f723a206f6e6c79476f7665726e616e63650000000000000000604082015260600190565b60208082526021908201527f476f7665726e6f723a20696e76616c69642070726f706f73616c206c656e67746040820152600d60fb1b606082015260800190565b60006020825261111a6020830184613a15565b60006101208b8352602060018060a01b038c1681850152816040850152613c318285018c6137f3565b91508382036060850152613c45828b61391c565b848103608086015289518082529092508183019082810284018301838c01865b83811015613c9357601f19878403018552613c8183835161394b565b94860194925090850190600101613c65565b505086810360a0880152613ca7818c613836565b945050505050613cc260c08401876001600160401b03169052565b6001600160401b03851660e0840152828103610100840152613ce4818561394b565b9c9b505050505050505050505050565b600088825260e06020830152613d0d60e083018961394b565b8760408401528281036060840152613d25818861394b565b90508281036080840152613d39818761394b565b60a084019590955250506001600160a01b039190911660c09091015295945050505050565b600085825260ff8516602083015283604083015260806060830152611104608083018461394b565b604051601f8201601f191681016001600160401b0381118282101715613dae57613dae613f0e565b604052919050565b60006001600160401b03821115613dcf57613dcf613f0e565b5060209081020190565b60008219821115613dec57613dec613ef8565b500190565b60006001600160401b03808316818516808303821115613e1357613e13613ef8565b01949350505050565b600082613e3757634e487b7160e01b81526012600452602481fd5b500490565b6000816000190483118215151615613e5657613e56613ef8565b500290565b600082821015613e6d57613e6d613ef8565b500390565b60005b83811015613e8d578181015183820152602001613e75565b83811115613e9c576000848401525b50505050565b600281046001821680613eb657607f821691505b60208210811415613ed757634e487b7160e01b600052602260045260246000fd5b50919050565b6000600019821415613ef157613ef1613ef8565b5060010190565b634e487b7160e01b600052601160045260246000fd5b634e487b7160e01b600052604160045260246000fd5b6001600160a01b0381168114610b7f57600080fdfe476f7665726e6f723a2063616c6c20726576657274656420776974686f7574206d657373616765416464726573733a206c6f772d6c6576656c2063616c6c20776974682076616c7565206661696c6564a26469706673582212203fe0d081f41ba5f8ecf6743f96cf94f92da521a213200b37554778b7b515dcc664736f6c63430008020033",
  "linkReferences": {},
  "deployedLinkReferences": {}
}