{
  "_format": "hh-sol-artifact-1",
  "contractName": "PrizeDAOGovernor",
  "sourceName": "contracts/PrizeDAOGovernor.sol",
  "abi": [
    {
      "inputs": [
        {
          "internalType": "contract ERC20Votes",
          "name": "_token",
          "type": "address"
        },
        {
          "internalType": "string",
          "name": "_name",
          "type": "string"
        }
      ],
      "stateMutability": "nonpayable",
      "type": "constructor"
    },
    {
      "anonymous": false,
      "inputs": [
        {
          "indexed": false,
          "internalType": "uint256",
          "name": "currentProposalID",
          "type": "uint256"
        }
      ],
      "name": "CurrentProposalID",
      "type": "event"
    },
    {
      "anonymous": false,
      "inputs": [
        {
          "indexed": false,
          "internalType": "uint256",
          "name": "HackathonId",
          "type": "uint256"
        }
      ],
      "name": "HackathonCreated",
      "type": "event"
    },
    {
      "anonymous": false,
      "inputs": [
        {
          "components": [
            {
              "internalType": "uint256",
              "name": "hackathonId",
              "type": "uint256"
            },
            {
              "internalType": "string",
              "name": "name",
              "type": "string"
            },
            {
              "internalType": "uint256",
              "name": "prizeMoney",
              "type": "uint256"
            },
            {
              "components": [
                {
                  "internalType": "uint256",
                  "name": "hackerId",
                  "type": "uint256"
                },
                {
                  "internalType": "address",
                  "name": "hackerAdd",
                  "type": "address"
                },
                {
                  "internalType": "string",
                  "name": "name",
                  "type": "string"
                },
                {
                  "internalType": "string",
                  "name": "ipfsHash",
                  "type": "string"
                },
                {
                  "internalType": "uint256",
                  "name": "votesGot",
                  "type": "uint256"
                }
              ],
              "internalType": "struct GovernorCountingSimpleSelf.Hacker[]",
              "name": "hackers",
              "type": "tuple[]"
            },
            {
              "internalType": "string",
              "name": "startDate",
              "type": "string"
            },
            {
              "internalType": "string",
              "name": "endDate",
              "type": "string"
            },
            {
              "internalType": "uint256",
              "name": "proposalId",
              "type": "uint256"
            },
            {
              "internalType": "address",
              "name": "sponsorAddress",
              "type": "address"
            },
            {
              "internalType": "uint256",
              "name": "blockNum",
              "type": "uint256"
            }
          ],
          "indexed": false,
          "internalType": "struct GovernorCountingSimpleSelf.Hackathon",
          "name": "hackathon",
          "type": "tuple"
        }
      ],
      "name": "HackathonEvent",
      "type": "event"
    },
    {
      "anonymous": false,
      "inputs": [
        {
          "indexed": false,
          "internalType": "string",
          "name": "hackerIpfsSubmission",
          "type": "string"
        }
      ],
      "name": "HackerIpfsSubmission",
      "type": "event"
    },
    {
      "anonymous": false,
      "inputs": [
        {
          "indexed": false,
          "internalType": "uint256",
          "name": "HackerId",
          "type": "uint256"
        }
      ],
      "name": "HackerRegisted",
      "type": "event"
    },
    {
      "anonymous": false,
      "inputs": [
        {
          "indexed": false,
          "internalType": "uint256",
          "name": "TotalVotesLastOptionGot",
          "type": "uint256"
        }
      ],
      "name": "NoHackerWon",
      "type": "event"
    },
    {
      "anonymous": false,
      "inputs": [
        {
          "indexed": false,
          "internalType": "uint256",
          "name": "numOfHackers",
          "type": "uint256"
        }
      ],
      "name": "NumOfHackers",
      "type": "event"
    },
    {
      "anonymous": false,
      "inputs": [
        {
          "indexed": false,
          "internalType": "uint256",
          "name": "proposalId",
          "type": "uint256"
        }
      ],
      "name": "ProposalCanceled",
      "type": "event"
    },
    {
      "anonymous": false,
      "inputs": [
        {
          "indexed": false,
          "internalType": "uint256",
          "name": "proposalId",
          "type": "uint256"
        },
        {
          "indexed": false,
          "internalType": "address",
          "name": "proposer",
          "type": "address"
        },
        {
          "indexed": false,
          "internalType": "address[]",
          "name": "targets",
          "type": "address[]"
        },
        {
          "indexed": false,
          "internalType": "uint256[]",
          "name": "values",
          "type": "uint256[]"
        },
        {
          "indexed": false,
          "internalType": "string[]",
          "name": "signatures",
          "type": "string[]"
        },
        {
          "indexed": false,
          "internalType": "bytes[]",
          "name": "calldatas",
          "type": "bytes[]"
        },
        {
          "indexed": false,
          "internalType": "uint256",
          "name": "startBlock",
          "type": "uint256"
        },
        {
          "indexed": false,
          "internalType": "uint256",
          "name": "endBlock",
          "type": "uint256"
        },
        {
          "indexed": false,
          "internalType": "string",
          "name": "description",
          "type": "string"
        }
      ],
      "name": "ProposalCreated",
      "type": "event"
    },
    {
      "anonymous": false,
      "inputs": [
        {
          "indexed": false,
          "internalType": "uint256",
          "name": "proposalId",
          "type": "uint256"
        }
      ],
      "name": "ProposalExecuted",
      "type": "event"
    },
    {
      "anonymous": false,
      "inputs": [
        {
          "indexed": false,
          "internalType": "uint256",
          "name": "oldProposalThreshold",
          "type": "uint256"
        },
        {
          "indexed": false,
          "internalType": "uint256",
          "name": "newProposalThreshold",
          "type": "uint256"
        }
      ],
      "name": "ProposalThresholdSet",
      "type": "event"
    },
    {
      "anonymous": false,
      "inputs": [
        {
          "indexed": false,
          "internalType": "uint256",
          "name": "oldQuorumNumerator",
          "type": "uint256"
        },
        {
          "indexed": false,
          "internalType": "uint256",
          "name": "newQuorumNumerator",
          "type": "uint256"
        }
      ],
      "name": "QuorumNumeratorUpdated",
      "type": "event"
    },
    {
      "anonymous": false,
      "inputs": [
        {
          "indexed": false,
          "internalType": "address",
          "name": "new_sponsor",
          "type": "address"
        }
      ],
      "name": "SponsorAdded",
      "type": "event"
    },
    {
      "anonymous": false,
      "inputs": [
        {
          "indexed": false,
          "internalType": "uint256",
          "name": "HackerId",
          "type": "uint256"
        }
      ],
      "name": "SubmissionDone",
      "type": "event"
    },
    {
      "anonymous": false,
      "inputs": [
        {
          "indexed": false,
          "internalType": "uint256",
          "name": "totalVotes",
          "type": "uint256"
        }
      ],
      "name": "TotalVotes",
      "type": "event"
    },
    {
      "anonymous": false,
      "inputs": [
        {
          "indexed": true,
          "internalType": "address",
          "name": "voter",
          "type": "address"
        },
        {
          "indexed": false,
          "internalType": "uint256",
          "name": "proposalId",
          "type": "uint256"
        },
        {
          "indexed": false,
          "internalType": "uint8",
          "name": "support",
          "type": "uint8"
        },
        {
          "indexed": false,
          "internalType": "uint256",
          "name": "weight",
          "type": "uint256"
        },
        {
          "indexed": false,
          "internalType": "string",
          "name": "reason",
          "type": "string"
        }
      ],
      "name": "VoteCast",
      "type": "event"
    },
    {
      "anonymous": false,
      "inputs": [
        {
          "indexed": false,
          "internalType": "uint256",
          "name": "votesPresent",
          "type": "uint256"
        }
      ],
      "name": "VotesPresent",
      "type": "event"
    },
    {
      "anonymous": false,
      "inputs": [
        {
          "indexed": false,
          "internalType": "uint256",
          "name": "oldVotingDelay",
          "type": "uint256"
        },
        {
          "indexed": false,
          "internalType": "uint256",
          "name": "newVotingDelay",
          "type": "uint256"
        }
      ],
      "name": "VotingDelaySet",
      "type": "event"
    },
    {
      "anonymous": false,
      "inputs": [
        {
          "indexed": false,
          "internalType": "uint256",
          "name": "oldVotingPeriod",
          "type": "uint256"
        },
        {
          "indexed": false,
          "internalType": "uint256",
          "name": "newVotingPeriod",
          "type": "uint256"
        }
      ],
      "name": "VotingPeriodSet",
      "type": "event"
    },
    {
      "anonymous": false,
      "inputs": [
        {
          "indexed": false,
          "internalType": "address",
          "name": "winnerAddress",
          "type": "address"
        }
      ],
      "name": "WinnerIs",
      "type": "event"
    },
    {
      "inputs": [],
      "name": "BALLOT_TYPEHASH",
      "outputs": [
        {
          "internalType": "bytes32",
          "name": "",
          "type": "bytes32"
        }
      ],
      "stateMutability": "view",
      "type": "function"
    },
    {
      "inputs": [],
      "name": "COUNTING_MODE",
      "outputs": [
        {
          "internalType": "string",
          "name": "",
          "type": "string"
        }
      ],
      "stateMutability": "pure",
      "type": "function"
    },
    {
      "inputs": [
        {
          "internalType": "uint256",
          "name": "",
          "type": "uint256"
        }
      ],
      "name": "ProposalIdToHackathonId",
      "outputs": [
        {
          "internalType": "uint256",
          "name": "",
          "type": "uint256"
        }
      ],
      "stateMutability": "view",
      "type": "function"
    },
    {
      "inputs": [
        {
          "internalType": "string",
          "name": "",
          "type": "string"
        }
      ],
      "name": "acceptedProposal",
      "outputs": [
        {
          "internalType": "address",
          "name": "",
          "type": "address"
        }
      ],
      "stateMutability": "view",
      "type": "function"
    },
    {
      "inputs": [],
      "name": "addSponsor",
      "outputs": [],
      "stateMutability": "payable",
      "type": "function"
    },
    {
      "inputs": [
        {
          "internalType": "string",
          "name": "_name",
          "type": "string"
        },
        {
          "internalType": "string",
          "name": "_startDate",
          "type": "string"
        },
        {
          "internalType": "string",
          "name": "_endDate",
          "type": "string"
        },
        {
          "internalType": "uint256",
          "name": "_prizeMoney",
          "type": "uint256"
        },
        {
          "internalType": "address payable",
          "name": "_sponsorAddress",
          "type": "address"
        },
        {
          "internalType": "address",
          "name": "_token",
          "type": "address"
        }
      ],
      "name": "add_hackathon",
      "outputs": [
        {
          "internalType": "uint256",
          "name": "",
          "type": "uint256"
        }
      ],
      "stateMutability": "payable",
      "type": "function"
    },
    {
      "inputs": [
        {
          "internalType": "uint256",
          "name": "_hackerId",
          "type": "uint256"
        },
        {
          "internalType": "string",
          "name": "_ipfsHash",
          "type": "string"
        },
        {
          "internalType": "uint256",
          "name": "_hackathonId",
          "type": "uint256"
        }
      ],
      "name": "add_submission",
      "outputs": [],
      "stateMutability": "nonpayable",
      "type": "function"
    },
    {
      "inputs": [
        {
          "internalType": "uint256",
          "name": "proposalId",
          "type": "uint256"
        },
        {
          "internalType": "uint8",
          "name": "support",
          "type": "uint8"
        }
      ],
      "name": "castVote",
      "outputs": [
        {
          "internalType": "uint256",
          "name": "",
          "type": "uint256"
        }
      ],
      "stateMutability": "nonpayable",
      "type": "function"
    },
    {
      "inputs": [
        {
          "internalType": "uint256",
          "name": "proposalId",
          "type": "uint256"
        },
        {
          "internalType": "uint8",
          "name": "support",
          "type": "uint8"
        },
        {
          "internalType": "uint8",
          "name": "v",
          "type": "uint8"
        },
        {
          "internalType": "bytes32",
          "name": "r",
          "type": "bytes32"
        },
        {
          "internalType": "bytes32",
          "name": "s",
          "type": "bytes32"
        }
      ],
      "name": "castVoteBySig",
      "outputs": [
        {
          "internalType": "uint256",
          "name": "",
          "type": "uint256"
        }
      ],
      "stateMutability": "nonpayable",
      "type": "function"
    },
    {
      "inputs": [
        {
          "internalType": "uint256",
          "name": "proposalId",
          "type": "uint256"
        },
        {
          "internalType": "uint8",
          "name": "support",
          "type": "uint8"
        },
        {
          "internalType": "string",
          "name": "reason",
          "type": "string"
        }
      ],
      "name": "castVoteWithReason",
      "outputs": [
        {
          "internalType": "uint256",
          "name": "",
          "type": "uint256"
        }
      ],
      "stateMutability": "nonpayable",
      "type": "function"
    },
    {
      "inputs": [
        {
          "internalType": "address[]",
          "name": "targets",
          "type": "address[]"
        },
        {
          "internalType": "uint256[]",
          "name": "values",
          "type": "uint256[]"
        },
        {
          "internalType": "bytes[]",
          "name": "calldatas",
          "type": "bytes[]"
        },
        {
          "internalType": "string",
          "name": "description",
          "type": "string"
        },
        {
          "internalType": "uint256",
          "name": "hackathonId",
          "type": "uint256"
        }
      ],
      "name": "createProposal",
      "outputs": [
        {
          "internalType": "uint256",
          "name": "",
          "type": "uint256"
        }
      ],
      "stateMutability": "nonpayable",
      "type": "function"
    },
    {
      "inputs": [
        {
          "internalType": "address",
          "name": "delegatee",
          "type": "address"
        }
      ],
      "name": "delegateVotes",
      "outputs": [],
      "stateMutability": "nonpayable",
      "type": "function"
    },
    {
      "inputs": [
        {
          "internalType": "uint256",
          "name": "amount",
          "type": "uint256"
        }
      ],
      "name": "disburseIncentive",
      "outputs": [],
      "stateMutability": "nonpayable",
      "type": "function"
    },
    {
      "inputs": [
        {
          "internalType": "address[]",
          "name": "targets",
          "type": "address[]"
        },
        {
          "internalType": "uint256[]",
          "name": "values",
          "type": "uint256[]"
        },
        {
          "internalType": "bytes[]",
          "name": "calldatas",
          "type": "bytes[]"
        },
        {
          "internalType": "bytes32",
          "name": "descriptionHash",
          "type": "bytes32"
        }
      ],
      "name": "execute",
      "outputs": [
        {
          "internalType": "uint256",
          "name": "",
          "type": "uint256"
        }
      ],
      "stateMutability": "payable",
      "type": "function"
    },
    {
      "inputs": [
        {
          "internalType": "uint256",
          "name": "_proposalId",
          "type": "uint256"
        }
      ],
      "name": "getBlockNumber",
      "outputs": [
        {
          "internalType": "uint256",
          "name": "",
          "type": "uint256"
        }
      ],
      "stateMutability": "view",
      "type": "function"
    },
    {
      "inputs": [
        {
          "internalType": "uint256",
          "name": "_hackerId",
          "type": "uint256"
        }
      ],
      "name": "getHackerList",
      "outputs": [
        {
          "internalType": "string",
          "name": "name",
          "type": "string"
        },
        {
          "internalType": "string",
          "name": "ipfsHash",
          "type": "string"
        }
      ],
      "stateMutability": "view",
      "type": "function"
    },
    {
      "inputs": [
        {
          "internalType": "uint256",
          "name": "_proposalId",
          "type": "uint256"
        },
        {
          "internalType": "uint256",
          "name": "_hackerId",
          "type": "uint256"
        }
      ],
      "name": "getHackerSubmission",
      "outputs": [
        {
          "internalType": "string",
          "name": "",
          "type": "string"
        }
      ],
      "stateMutability": "view",
      "type": "function"
    },
    {
      "inputs": [
        {
          "internalType": "uint256",
          "name": "_hackathonId",
          "type": "uint256"
        }
      ],
      "name": "getHackersIdsForHackathon",
      "outputs": [
        {
          "internalType": "uint256[]",
          "name": "hackerIds",
          "type": "uint256[]"
        }
      ],
      "stateMutability": "view",
      "type": "function"
    },
    {
      "inputs": [
        {
          "internalType": "uint256",
          "name": "blockNumber",
          "type": "uint256"
        }
      ],
      "name": "getPastTotalSupply",
      "outputs": [
        {
          "internalType": "uint256",
          "name": "",
          "type": "uint256"
        }
      ],
      "stateMutability": "view",
      "type": "function"
    },
    {
      "inputs": [
        {
          "internalType": "uint256",
          "name": "_hackathonId",
          "type": "uint256"
        }
      ],
      "name": "getProposalId",
      "outputs": [
        {
          "internalType": "uint256",
          "name": "",
          "type": "uint256"
        }
      ],
      "stateMutability": "view",
      "type": "function"
    },
    {
      "inputs": [
        {
          "internalType": "address",
          "name": "account",
          "type": "address"
        },
        {
          "internalType": "uint256",
          "name": "blockNumber",
          "type": "uint256"
        }
      ],
      "name": "getVotes",
      "outputs": [
        {
          "internalType": "uint256",
          "name": "",
          "type": "uint256"
        }
      ],
      "stateMutability": "view",
      "type": "function"
    },
    {
      "inputs": [],
      "name": "hackathonId",
      "outputs": [
        {
          "internalType": "uint256",
          "name": "_value",
          "type": "uint256"
        }
      ],
      "stateMutability": "view",
      "type": "function"
    },
    {
      "inputs": [
        {
          "internalType": "uint256",
          "name": "",
          "type": "uint256"
        }
      ],
      "name": "hackathonIdToHackathon",
      "outputs": [
        {
          "internalType": "uint256",
          "name": "hackathonId",
          "type": "uint256"
        },
        {
          "internalType": "string",
          "name": "name",
          "type": "string"
        },
        {
          "internalType": "uint256",
          "name": "prizeMoney",
          "type": "uint256"
        },
        {
          "internalType": "string",
          "name": "startDate",
          "type": "string"
        },
        {
          "internalType": "string",
          "name": "endDate",
          "type": "string"
        },
        {
          "internalType": "uint256",
          "name": "proposalId",
          "type": "uint256"
        },
        {
          "internalType": "address",
          "name": "sponsorAddress",
          "type": "address"
        },
        {
          "internalType": "uint256",
          "name": "blockNum",
          "type": "uint256"
        }
      ],
      "stateMutability": "view",
      "type": "function"
    },
    {
      "inputs": [
        {
          "internalType": "uint256",
          "name": "",
          "type": "uint256"
        },
        {
          "internalType": "uint256",
          "name": "",
          "type": "uint256"
        }
      ],
      "name": "hackathonIdToHackerIds",
      "outputs": [
        {
          "internalType": "uint256",
          "name": "",
          "type": "uint256"
        }
      ],
      "stateMutability": "view",
      "type": "function"
    },
    {
      "inputs": [
        {
          "internalType": "uint256",
          "name": "_hackathonId",
          "type": "uint256"
        }
      ],
      "name": "hackerHasRegisteredBefore",
      "outputs": [
        {
          "internalType": "bool",
          "name": "",
          "type": "bool"
        }
      ],
      "stateMutability": "nonpayable",
      "type": "function"
    },
    {
      "inputs": [],
      "name": "hackerId",
      "outputs": [
        {
          "internalType": "uint256",
          "name": "_value",
          "type": "uint256"
        }
      ],
      "stateMutability": "view",
      "type": "function"
    },
    {
      "inputs": [
        {
          "internalType": "uint256",
          "name": "",
          "type": "uint256"
        }
      ],
      "name": "hackerIdToHackathon",
      "outputs": [
        {
          "internalType": "uint256",
          "name": "hackathonId",
          "type": "uint256"
        },
        {
          "internalType": "string",
          "name": "name",
          "type": "string"
        },
        {
          "internalType": "uint256",
          "name": "prizeMoney",
          "type": "uint256"
        },
        {
          "internalType": "string",
          "name": "startDate",
          "type": "string"
        },
        {
          "internalType": "string",
          "name": "endDate",
          "type": "string"
        },
        {
          "internalType": "uint256",
          "name": "proposalId",
          "type": "uint256"
        },
        {
          "internalType": "address",
          "name": "sponsorAddress",
          "type": "address"
        },
        {
          "internalType": "uint256",
          "name": "blockNum",
          "type": "uint256"
        }
      ],
      "stateMutability": "view",
      "type": "function"
    },
    {
      "inputs": [
        {
          "internalType": "uint256",
          "name": "",
          "type": "uint256"
        }
      ],
      "name": "hackerIdToHacker",
      "outputs": [
        {
          "internalType": "uint256",
          "name": "hackerId",
          "type": "uint256"
        },
        {
          "internalType": "address",
          "name": "hackerAdd",
          "type": "address"
        },
        {
          "internalType": "string",
          "name": "name",
          "type": "string"
        },
        {
          "internalType": "string",
          "name": "ipfsHash",
          "type": "string"
        },
        {
          "internalType": "uint256",
          "name": "votesGot",
          "type": "uint256"
        }
      ],
      "stateMutability": "view",
      "type": "function"
    },
    {
      "inputs": [
        {
          "internalType": "uint256",
          "name": "_hackathonId",
          "type": "uint256"
        }
      ],
      "name": "hasHackerRegistedForHackathon",
      "outputs": [
        {
          "internalType": "bool",
          "name": "",
          "type": "bool"
        }
      ],
      "stateMutability": "view",
      "type": "function"
    },
    {
      "inputs": [
        {
          "internalType": "uint256",
          "name": "proposalId",
          "type": "uint256"
        },
        {
          "internalType": "address",
          "name": "account",
          "type": "address"
        }
      ],
      "name": "hasVoted",
      "outputs": [
        {
          "internalType": "bool",
          "name": "",
          "type": "bool"
        }
      ],
      "stateMutability": "view",
      "type": "function"
    },
    {
      "inputs": [
        {
          "internalType": "address[]",
          "name": "targets",
          "type": "address[]"
        },
        {
          "internalType": "uint256[]",
          "name": "values",
          "type": "uint256[]"
        },
        {
          "internalType": "bytes[]",
          "name": "calldatas",
          "type": "bytes[]"
        },
        {
          "internalType": "bytes32",
          "name": "descriptionHash",
          "type": "bytes32"
        }
      ],
      "name": "hashProposal",
      "outputs": [
        {
          "internalType": "uint256",
          "name": "",
          "type": "uint256"
        }
      ],
      "stateMutability": "pure",
      "type": "function"
    },
    {
      "inputs": [],
      "name": "name",
      "outputs": [
        {
          "internalType": "string",
          "name": "",
          "type": "string"
        }
      ],
      "stateMutability": "view",
      "type": "function"
    },
    {
      "inputs": [
        {
          "internalType": "uint256",
          "name": "proposalId",
          "type": "uint256"
        }
      ],
      "name": "proposalDeadline",
      "outputs": [
        {
          "internalType": "uint256",
          "name": "",
          "type": "uint256"
        }
      ],
      "stateMutability": "view",
      "type": "function"
    },
    {
      "inputs": [
        {
          "internalType": "uint256",
          "name": "proposalId",
          "type": "uint256"
        }
      ],
      "name": "proposalSnapshot",
      "outputs": [
        {
          "internalType": "uint256",
          "name": "",
          "type": "uint256"
        }
      ],
      "stateMutability": "view",
      "type": "function"
    },
    {
      "inputs": [],
      "name": "proposalThreshold",
      "outputs": [
        {
          "internalType": "uint256",
          "name": "",
          "type": "uint256"
        }
      ],
      "stateMutability": "view",
      "type": "function"
    },
    {
      "inputs": [
        {
          "internalType": "address[]",
          "name": "targets",
          "type": "address[]"
        },
        {
          "internalType": "uint256[]",
          "name": "values",
          "type": "uint256[]"
        },
        {
          "internalType": "bytes[]",
          "name": "calldatas",
          "type": "bytes[]"
        },
        {
          "internalType": "string",
          "name": "description",
          "type": "string"
        }
      ],
      "name": "propose",
      "outputs": [
        {
          "internalType": "uint256",
          "name": "",
          "type": "uint256"
        }
      ],
      "stateMutability": "nonpayable",
      "type": "function"
    },
    {
      "inputs": [
        {
          "internalType": "uint256",
          "name": "blockNumber",
          "type": "uint256"
        }
      ],
      "name": "quorum",
      "outputs": [
        {
          "internalType": "uint256",
          "name": "",
          "type": "uint256"
        }
      ],
      "stateMutability": "view",
      "type": "function"
    },
    {
      "inputs": [],
      "name": "quorumDenominator",
      "outputs": [
        {
          "internalType": "uint256",
          "name": "",
          "type": "uint256"
        }
      ],
      "stateMutability": "view",
      "type": "function"
    },
    {
      "inputs": [],
      "name": "quorumNumerator",
      "outputs": [
        {
          "internalType": "uint256",
          "name": "",
          "type": "uint256"
        }
      ],
      "stateMutability": "view",
      "type": "function"
    },
    {
      "inputs": [],
      "name": "receiveEthForTransactions",
      "outputs": [],
      "stateMutability": "payable",
      "type": "function"
    },
    {
      "inputs": [
        {
          "internalType": "string",
          "name": "_name",
          "type": "string"
        },
        {
          "internalType": "uint256",
          "name": "_hackathonId",
          "type": "uint256"
        }
      ],
      "name": "register_hacker",
      "outputs": [
        {
          "internalType": "uint256",
          "name": "",
          "type": "uint256"
        }
      ],
      "stateMutability": "nonpayable",
      "type": "function"
    },
    {
      "inputs": [
        {
          "internalType": "address",
          "name": "target",
          "type": "address"
        },
        {
          "internalType": "uint256",
          "name": "value",
          "type": "uint256"
        },
        {
          "internalType": "bytes",
          "name": "data",
          "type": "bytes"
        }
      ],
      "name": "relay",
      "outputs": [],
      "stateMutability": "nonpayable",
      "type": "function"
    },
    {
      "inputs": [
        {
          "internalType": "uint256",
          "name": "newProposalThreshold",
          "type": "uint256"
        }
      ],
      "name": "setProposalThreshold",
      "outputs": [],
      "stateMutability": "nonpayable",
      "type": "function"
    },
    {
      "inputs": [
        {
          "internalType": "uint256",
          "name": "newVotingDelay",
          "type": "uint256"
        }
      ],
      "name": "setVotingDelay",
      "outputs": [],
      "stateMutability": "nonpayable",
      "type": "function"
    },
    {
      "inputs": [
        {
          "internalType": "uint256",
          "name": "newVotingPeriod",
          "type": "uint256"
        }
      ],
      "name": "setVotingPeriod",
      "outputs": [],
      "stateMutability": "nonpayable",
      "type": "function"
    },
    {
      "inputs": [
        {
          "internalType": "uint256",
          "name": "_hackathonId",
          "type": "uint256"
        }
      ],
      "name": "setWinnerAddress",
      "outputs": [],
      "stateMutability": "nonpayable",
      "type": "function"
    },
    {
      "inputs": [
        {
          "internalType": "address",
          "name": "",
          "type": "address"
        }
      ],
      "name": "sponsorsToAmount",
      "outputs": [
        {
          "internalType": "uint256",
          "name": "",
          "type": "uint256"
        }
      ],
      "stateMutability": "view",
      "type": "function"
    },
    {
      "inputs": [
        {
          "internalType": "uint256",
          "name": "proposalId",
          "type": "uint256"
        }
      ],
      "name": "state",
      "outputs": [
        {
          "internalType": "enum IGovernor.ProposalState",
          "name": "",
          "type": "uint8"
        }
      ],
      "stateMutability": "view",
      "type": "function"
    },
    {
      "inputs": [
        {
          "internalType": "bytes4",
          "name": "interfaceId",
          "type": "bytes4"
        }
      ],
      "name": "supportsInterface",
      "outputs": [
        {
          "internalType": "bool",
          "name": "",
          "type": "bool"
        }
      ],
      "stateMutability": "view",
      "type": "function"
    },
    {
      "inputs": [],
      "name": "token",
      "outputs": [
        {
          "internalType": "contract IVotes",
          "name": "",
          "type": "address"
        }
      ],
      "stateMutability": "view",
      "type": "function"
    },
    {
      "inputs": [
        {
          "internalType": "uint256",
          "name": "newQuorumNumerator",
          "type": "uint256"
        }
      ],
      "name": "updateQuorumNumerator",
      "outputs": [],
      "stateMutability": "nonpayable",
      "type": "function"
    },
    {
      "inputs": [],
      "name": "version",
      "outputs": [
        {
          "internalType": "string",
          "name": "",
          "type": "string"
        }
      ],
      "stateMutability": "view",
      "type": "function"
    },
    {
      "inputs": [],
      "name": "votingDelay",
      "outputs": [
        {
          "internalType": "uint256",
          "name": "",
          "type": "uint256"
        }
      ],
      "stateMutability": "view",
      "type": "function"
    },
    {
      "inputs": [],
      "name": "votingPeriod",
      "outputs": [
        {
          "internalType": "uint256",
          "name": "",
          "type": "uint256"
        }
      ],
      "stateMutability": "view",
      "type": "function"
    },
    {
      "stateMutability": "payable",
      "type": "receive"
    }
  ],
  "bytecode": "0x610160604052601380546001600160a01b03191690553480156200002257600080fd5b50604051620052133803806200521383398101604081905262000045916200041b565b600482600060198185806200006e6040805180820190915260018152603160f81b602082015290565b815160208084019190912082518383012060e08290526101008190524660a0818152604080517f8b73c3c69bb8fe3d512ecc4cf759cc79239f7b179b0ffacaa9a75d522b39400f81880181905281830187905260608201869052608082019490945230818401528151808203909301835260c00190528051940193909320919290916080523060601b60c052610120525050825162000117925060009150602084019062000375565b506200012590508362000182565b6200013082620001c3565b6200013b816200026a565b50505060601b6001600160601b031916610140526200015a81620002ab565b5050601180546001600160a01b0319166001600160a01b039290921691909117905562000567565b60025460408051918252602082018390527fc565b045403dc03c2eea82b81a0465edad9e2e7fc4d97e11421c209da93d7a93910160405180910390a1600255565b60008111620002295760405162461bcd60e51b815260206004820152602760248201527f476f7665726e6f7253657474696e67733a20766f74696e6720706572696f6420604482015266746f6f206c6f7760c81b60648201526084015b60405180910390fd5b60035460408051918252602082018390527f7e3f7f0708a84de9203036abaa450dccc85ad5ff52f78c170f3edb55cf5e8828910160405180910390a1600355565b60045460408051918252602082018390527fccb45da8d5717e6c4544694297c4ba5cf151d455c9bb0ed4fc7a38411bc05461910160405180910390a1600455565b6064811115620003305760405162461bcd60e51b815260206004820152604360248201527f476f7665726e6f72566f74657351756f72756d4672616374696f6e3a2071756f60448201527f72756d4e756d657261746f72206f7665722071756f72756d44656e6f6d696e616064820152623a37b960e91b608482015260a40162000220565b600f80549082905560408051828152602081018490527f0553476bf02ef2726e8ce5ced78d63e26e602e4a2257b1f559418e24b4633997910160405180910390a15050565b828054620003839062000514565b90600052602060002090601f016020900481019282620003a75760008555620003f2565b82601f10620003c257805160ff1916838001178555620003f2565b82800160010185558215620003f2579182015b82811115620003f2578251825591602001919060010190620003d5565b506200040092915062000404565b5090565b5b8082111562000400576000815560010162000405565b600080604083850312156200042e578182fd5b82516001600160a01b038116811462000445578283fd5b602084810151919350906001600160401b038082111562000464578384fd5b818601915086601f83011262000478578384fd5b8151818111156200048d576200048d62000551565b604051601f8201601f19908116603f01168101908382118183101715620004b857620004b862000551565b816040528281528986848701011115620004d0578687fd5b8693505b82841015620004f35784840186015181850187015292850192620004d4565b828411156200050457868684830101525b8096505050505050509250929050565b6002810460018216806200052957607f821691505b602082108114156200054b57634e487b7160e01b600052602260045260246000fd5b50919050565b634e487b7160e01b600052604160045260246000fd5b60805160a05160c05160601c60e05161010051610120516101405160601c614c2f620005e460003960008181610ab501528181612f1b01528181612f630152818161311201526131ea01526000613345015260006133940152600061336f015260006132c6015260006132f00152600061331a0152614c2f6000f3fe6080604052600436106103385760003560e01c80637d5e81e2116101ab578063c28bc2fa116100f7578063e6c0f7fe11610095578063ece40cc11161006f578063ece40cc114610a43578063ee53b11b14610a63578063f8ce560a14610a83578063fc0c546a14610aa35761035b565b8063e6c0f7fe146109fb578063ea0217cf14610a03578063eb9019d414610a235761035b565b8063d8d1ffaa116100d1578063d8d1ffaa1461094e578063dd4e2ba514610961578063deaaa7cc146109a7578063e0b4887c146109db5761035b565b8063c28bc2fa146108f7578063c59057e414610917578063cd2c2bd2146109375761035b565b806395e9209b116101645780639dc5a09d1161013e5780639dc5a09d1461088d578063a7713a70146108ad578063b58131b0146108c2578063c01f9e37146108d75761035b565b806395e9209b146108515780639605270a1461085957806397c3d334146108795761035b565b80637d5e81e2146107845780637fe76979146107a4578063897943c3146107c45780638c5fcdda146107f15780638e539e8c1461081157806391dda66e146108315761035b565b80633bccf4fd11610285578063567813881161022357806370b0f660116101fd57806370b0f660146106f757806378270cad146107175780637b3c71d3146107445780637c95ac27146107645761035b565b806356781388146106975780636cd4dad9146106b75780636cef51ce146106d75761035b565b80634200a80b1161025f5780634200a80b146105ec578063438596321461060357806350c0fbe41461064d57806354fd4d501461066d5761035b565b80633bccf4fd1461057f5780633d36d6481461059f5780633e4f49e6146105bf5761035b565b8063126c018a116102f25780632656227d116102cc5780632656227d1461050a57806329712c5f1461051d5780632d63f6931461054a5780633932abb11461056a5761035b565b8063126c018a1461045257806319de92321461048357806324de2ef6146104b15761035b565b8062d647e11461036057806301ffc9a71461039d57806302a251a3146103cd57806306f3f9e6146103f057806306fdde03146104105780630c47bd45146104325761035b565b3661035b5730610346610ad7565b6001600160a01b03161461035957600080fd5b005b600080fd5b34801561036c57600080fd5b5061038061037b3660046141e6565b610adc565b604051610394989796959493929190614960565b60405180910390f35b3480156103a957600080fd5b506103bd6103b8366004614097565b610cc1565b6040519015158152602001610394565b3480156103d957600080fd5b506103e2610cfa565b604051908152602001610394565b3480156103fc57600080fd5b5061035961040b3660046141e6565b610d0a565b34801561041c57600080fd5b50610425610d57565b604051610394919061462e565b34801561043e57600080fd5b5061038061044d3660046141e6565b610de9565b34801561045e57600080fd5b5061047261046d3660046141e6565b610e0b565b604051610394959493929190614911565b34801561048f57600080fd5b506104a361049e3660046141e6565b610f54565b60405161039492919061469f565b3480156104bd57600080fd5b506104f26104cc3660046140bf565b80516020818301810180516012825292820191909301209152546001600160a01b031681565b6040516001600160a01b039091168152602001610394565b6103e2610518366004613eb6565b6110d7565b34801561052957600080fd5b5061053d6105383660046141e6565b611200565b60405161039491906145f3565b34801561055657600080fd5b506103e26105653660046141e6565b611262565b34801561057657600080fd5b506103e2611299565b34801561058b57600080fd5b506103e261059a36600461431d565b6112a4565b3480156105ab57600080fd5b506103596105ba3660046141e6565b611338565b3480156105cb57600080fd5b506105df6105da3660046141e6565b6113a1565b6040516103949190614606565b3480156105f857600080fd5b506006546103e29081565b34801561060f57600080fd5b506103bd61061e366004614216565b6000828152600d602090815260408083206001600160a01b038516845260010190915290205460ff1692915050565b34801561065957600080fd5b506103e26106683660046141e6565b61147a565b34801561067957600080fd5b506040805180820190915260018152603160f81b6020820152610425565b3480156106a357600080fd5b506103e26106b23660046142b3565b61149e565b3480156106c357600080fd5b506103e26106d2366004613fe8565b6114c7565b3480156106e357600080fd5b506104256106f2366004614292565b611519565b34801561070357600080fd5b506103596107123660046141e6565b61152c565b34801561072357600080fd5b506103e26107323660046141e6565b600b6020526000908152604090205481565b34801561075057600080fd5b506103e261075f3660046142de565b61156d565b34801561077057600080fd5b506103e261077f3660046141e6565b6115b5565b34801561079057600080fd5b506103e261079f366004613f41565b6115cc565b3480156107b057600080fd5b506103bd6107bf3660046141e6565b6118b5565b3480156107d057600080fd5b506103e26107df366004613e16565b600e6020526000908152604090205481565b3480156107fd57600080fd5b5061035961080c366004613e16565b611948565b34801561081d57600080fd5b506103e261082c3660046141e6565b611951565b34801561083d57600080fd5b506103e261084c3660046141a4565b61195c565b610359611b1c565b34801561086557600080fd5b50610359610874366004614245565b611c44565b34801561088557600080fd5b5060646103e2565b34801561089957600080fd5b506103e26108a8366004614292565b611dcc565b3480156108b957600080fd5b50600f546103e2565b3480156108ce57600080fd5b506103e2611dfd565b3480156108e357600080fd5b506103e26108f23660046141e6565b611e08565b34801561090357600080fd5b50610359610912366004613e5d565b611e37565b34801561092357600080fd5b506103e2610932366004613eb6565b611eb8565b34801561094357600080fd5b506005546103e29081565b6103e261095c3660046140f1565b611ef2565b34801561096d57600080fd5b506040805180820190915260208082527f737570706f72743d627261766f2671756f72756d3d666f722c6162737461696e90820152610425565b3480156109b357600080fd5b506103e27f150214d74d59b7d1e90c73fc22ef3d991dd0a76b046543d4d80ab92d2a50328f81565b3480156109e757600080fd5b506103bd6109f63660046141e6565b611fd9565b61035961206b565b348015610a0f57600080fd5b50610359610a1e3660046141e6565b6120f4565b348015610a2f57600080fd5b506103e2610a3e366004613e32565b612135565b348015610a4f57600080fd5b50610359610a5e3660046141e6565b612141565b348015610a6f57600080fd5b50610359610a7e3660046141e6565b612182565b348015610a8f57600080fd5b506103e2610a9e3660046141e6565b612258565b348015610aaf57600080fd5b506104f27f000000000000000000000000000000000000000000000000000000000000000081565b305b90565b60076020526000908152604090208054600182018054919291610afe90614b12565b80601f0160208091040260200160405190810160405280929190818152602001828054610b2a90614b12565b8015610b775780601f10610b4c57610100808354040283529160200191610b77565b820191906000526020600020905b815481529060010190602001808311610b5a57829003601f168201915b505050505090806002015490806004018054610b9290614b12565b80601f0160208091040260200160405190810160405280929190818152602001828054610bbe90614b12565b8015610c0b5780601f10610be057610100808354040283529160200191610c0b565b820191906000526020600020905b815481529060010190602001808311610bee57829003601f168201915b505050505090806005018054610c2090614b12565b80601f0160208091040260200160405190810160405280929190818152602001828054610c4c90614b12565b8015610c995780601f10610c6e57610100808354040283529160200191610c99565b820191906000526020600020905b815481529060010190602001808311610c7c57829003601f168201915b5050505060068301546007840154600890940154929390926001600160a01b03909116915088565b60006001600160e01b0319821663bf26d89760e01b1480610cf257506301ffc9a760e01b6001600160e01b03198316145b90505b919050565b6000610d0560035490565b905090565b610d12610ad7565b6001600160a01b0316336001600160a01b031614610d4b5760405162461bcd60e51b8152600401610d42906146ef565b60405180910390fd5b610d5481612263565b50565b606060008054610d6690614b12565b80601f0160208091040260200160405190810160405280929190818152602001828054610d9290614b12565b8015610ddf5780601f10610db457610100808354040283529160200191610ddf565b820191906000526020600020905b815481529060010190602001808311610dc257829003601f168201915b5050505050905090565b60086020526000908152604090208054600182018054919291610afe90614b12565b600a6020526000908152604090208054600182015460028301805492936001600160a01b0390921692610e3d90614b12565b80601f0160208091040260200160405190810160405280929190818152602001828054610e6990614b12565b8015610eb65780601f10610e8b57610100808354040283529160200191610eb6565b820191906000526020600020905b815481529060010190602001808311610e9957829003601f168201915b505050505090806003018054610ecb90614b12565b80601f0160208091040260200160405190810160405280929190818152602001828054610ef790614b12565b8015610f445780601f10610f1957610100808354040283529160200191610f44565b820191906000526020600020905b815481529060010190602001808311610f2757829003601f168201915b5050505050908060040154905085565b6000818152600a60209081526040808320815160a0810183528154815260018201546001600160a01b0316938101939093526002810180546060958695909490939290840191610fa390614b12565b80601f0160208091040260200160405190810160405280929190818152602001828054610fcf90614b12565b801561101c5780601f10610ff15761010080835404028352916020019161101c565b820191906000526020600020905b815481529060010190602001808311610fff57829003601f168201915b5050505050815260200160038201805461103590614b12565b80601f016020809104026020016040519081016040528092919081815260200182805461106190614b12565b80156110ae5780601f10611083576101008083540402835291602001916110ae565b820191906000526020600020905b81548152906001019060200180831161109157829003601f168201915b505050505081526020016004820154815250509050806040015192508060600151915050915091565b6000806110e686868686611eb8565b905060006110f3826113a1565b9050600481600781111561111757634e487b7160e01b600052602160045260246000fd5b14806111425750600581600781111561114057634e487b7160e01b600052602160045260246000fd5b145b6111985760405162461bcd60e51b815260206004820152602160248201527f476f7665726e6f723a2070726f706f73616c206e6f74207375636365737366756044820152601b60fa1b6064820152608401610d42565b600082815260016020818152604092839020600201805460ff191690921790915590518381527f712ae1383f79ac853f8d882153778e0260ef8f03b504e2866e0593e04d2b291f910160405180910390a16111f6828888888861232b565b5095945050505050565b60008181526009602090815260409182902080548351818402810184019094528084526060939283018282801561125657602002820191906000526020600020905b815481526020019060010190808311611242575b50505050509050919050565b60008181526001602090815260408083208151928301909152546001600160401b0316908190525b6001600160401b031692915050565b6000610d0560025490565b604080517f150214d74d59b7d1e90c73fc22ef3d991dd0a76b046543d4d80ab92d2a50328f602082015290810186905260ff851660608201526000908190611310906113089060800160405160208183030381529060405280519060200120612454565b8686866124a2565b905061132d878288604051806020016040528060008152506124c0565b979650505050505050565b6113666040518060400160405280600c81526020016b1a1858dad85d1a1bdb88125960a21b8152508261262c565b600061137182612671565b601380546001600160a01b0319166001600160a01b039390931692909217909155905061139d81612182565b5050565b6000818152600160205260408120600281015460ff16156113c6576007915050610cf5565b6002810154610100900460ff16156113e2576002915050610cf5565b60006113ed84611262565b90508061143c5760405162461bcd60e51b815260206004820152601d60248201527f476f7665726e6f723a20756e6b6e6f776e2070726f706f73616c2069640000006044820152606401610d42565b43811061144e57600092505050610cf5565b600061145985611e08565b905043811061146e5760019350505050610cf5565b60049350505050610cf5565b6000818152600b602090815260408083205483526007909152812060080154610cf2565b6000803390506114bf848285604051806020016040528060008152506124c0565b949350505050565b60006114d28261296c565b60006114e0878787876115cc565b6000818152600b6020908152604080832087905586835260079091529020600681018290554360089091015590505b9695505050505050565b606061152583836129c4565b9392505050565b611534610ad7565b6001600160a01b0316336001600160a01b0316146115645760405162461bcd60e51b8152600401610d42906146ef565b610d5481612e22565b60008033905061150f86828787878080601f0160208091040260200160405190810160405280939291908181526020018383808284376000920191909152506124c092505050565b600081815260076020526040812060060154610cf2565b60006115d6611dfd565b6115e533610a3e600143614acf565b10156116655760405162461bcd60e51b815260206004820152604360248201527f476f7665726e6f72436f6d7061746962696c697479427261766f3a2070726f7060448201527f6f73657220766f7465732062656c6f772070726f706f73616c207468726573686064820152621bdb1960ea1b608482015260a401610d42565b600061167a8686868680519060200120611eb8565b9050845186511461169d5760405162461bcd60e51b8152600401610d4290614726565b83518651146116be5760405162461bcd60e51b8152600401610d4290614726565b600086511161170f5760405162461bcd60e51b815260206004820152601860248201527f476f7665726e6f723a20656d7074792070726f706f73616c00000000000000006044820152606401610d42565b600081815260016020908152604091829020825191820190925281546001600160401b0316908190521561178f5760405162461bcd60e51b815260206004820152602160248201527f476f7665726e6f723a2070726f706f73616c20616c72656164792065786973746044820152607360f81b6064820152608401610d42565b60006117a161179c611299565b612e63565b6117aa43612e63565b6117b49190614a65565b905060006117c361179c610cfa565b6117cd9083614a65565b835467ffffffffffffffff19166001600160401b038416178455905060018301805467ffffffffffffffff19166001600160401b0383161790557f7d84a6263ae0d98d3329bd7b46bb4e8d6f98cd35a7adb45c274c8b7fd5ebd5e084338b8b8d516001600160401b0381111561185357634e487b7160e01b600052604160045260246000fd5b60405190808252806020026020018201604052801561188657816020015b60608152602001906001900390816118715790505b508c88888e6040516118a099989796959493929190614825565b60405180910390a15091979650505050505050565b600081815260076020526040812060038101825b815481101561193d57336001600160a01b03168282815481106118fc57634e487b7160e01b600052603260045260246000fd5b60009182526020909120600160059092020101546001600160a01b0316141561192b5760019350505050610cf5565b8061193581614b4d565b9150506118c9565b506000949350505050565b610d5481612ecf565b6000610cf282612f4a565b60006119996040518060a001604052806000815260200160006001600160a01b031681526020016060815260200160608152602001600081525090565b6119a7600680546001019055565b60065481523360208083019182526040808401878152600087815260078452918220600301805460018082018355918452928490208651600590940201928355935193820180546001600160a01b0319166001600160a01b039095169490941790935591518051849392611a22926002850192910190613b80565b5060608201518051611a3e916003840191602090910190613b80565b5060808201518160040155505080600a6000611a5960065490565b8152602080820192909252604090810160002083518155838301516001820180546001600160a01b0319166001600160a01b039092169190911790559083015180519192611aaf92600285019290910190613b80565b5060608201518051611acb916003840191602090910190613b80565b50608082015181600401559050507f52f5f480849d7ad260ceec55e9f964d8954e583a8194a893b441abb3dfd70df8611b0360065490565b60405190815260200160405180910390a1519392505050565b655af3107a4000341015611b725760405162461bcd60e51b815260206004820152601c60248201527f706c656173652073656e642061746c65617374203130204d41544943000000006044820152606401610d42565b6011546001600160a01b03166340c10f1933611b9134620f4240614ab0565b6040516001600160e01b031960e085901b1681526001600160a01b0390921660048301526024820152604401600060405180830381600087803b158015611bd757600080fd5b505af1158015611beb573d6000803e3d6000fd5b5050505034600a611bfc9190614ab0565b336000818152600e602090815260409182902093909355519081527fc25f1afed6949a4a7694a278213b94375a841a51748cb7a44116ae897c4f6ecd910160405180910390a1565b611c4d81611fd9565b611cb15760405162461bcd60e51b815260206004820152602f60248201527f4861636b6572204e4f5420726567697374657265642120506c6561736520726560448201526e33b4b9ba32b9103cb7bab939b2b63360891b6064820152608401610d42565b6000818152600760205260408120600301905b8154811015611d695784828281548110611cee57634e487b7160e01b600052603260045260246000fd5b9060005260206000209060050201600001541415611d57576000828281548110611d2857634e487b7160e01b600052603260045260246000fd5b9060005260206000209060050201905084816003019080519060200190611d50929190613b80565b5050611d69565b80611d6181614b4d565b915050611cc4565b50600082815260096020908152604080832080546001810182559084529190922001859055517f39a3b0282f68964e1565dbe1e8656f18e757f212f480fcbc564b36aa3953736490611dbe9086815260200190565b60405180910390a150505050565b60096020528160005260406000208181548110611de857600080fd5b90600052602060002001600091509150505481565b6000610d0560045490565b60008181526001602081815260408084208151928301909152909101546001600160401b03169081905261128a565b611e3f610ad7565b6001600160a01b0316336001600160a01b031614611e6f5760405162461bcd60e51b8152600401610d42906146ef565b611eb18483838080601f016020809104026020016040519081016040528093929190818152602001838380828437600092019190915250889250612fe5915050565b5050505050565b600084848484604051602001611ed194939291906145a8565b60408051601f19818403018152919052805160209091012095945050505050565b6000611f02600580546001019055565b600060076000611f1160055490565b81526020019081526020016000209050611f2a60055490565b81558751611f4190600183019060208b0190613b80565b50600281018590558651611f5e90600483019060208a0190613b80565b508551611f749060058301906020890190613b80565b506007810180546001600160a01b0319166001600160a01b0386161790557fcba4bf7a6b01547e7d8a3c5050ca5009bb70870c39a8702c8b18c226b89545c1611fbc60055490565b60405190815260200160405180910390a154979650505050505050565b60008181526007602052604081206003018054829190825b8181101561206157336001600160a01b031683828154811061202357634e487b7160e01b600052603260045260246000fd5b60009182526020909120600160059092020101546001600160a01b0316141561204f5760019350612061565b8061205981614b4d565b915050611ff1565b5091949350505050565b670de0b6b3a76400003410156120c35760405162461bcd60e51b815260206004820152601860248201527f4d696e696d756d203120657468657220726571756972656400000000000000006044820152606401610d42565b6120f26040518060400160405280600d81526020016c02932b1b2b4bb32b2101e9e9f1609d1b8152503461262c565b565b6120fc610ad7565b6001600160a01b0316336001600160a01b03161461212c5760405162461bcd60e51b8152600401610d42906146ef565b610d548161300b565b600061152583836130ac565b612149610ad7565b6001600160a01b0316336001600160a01b0316146121795760405162461bcd60e51b8152600401610d42906146ef565b610d548161318c565b6013546001600160a01b03166121d25760405162461bcd60e51b8152602060048201526015602482015274141c9bdc1bdcd85b081b9bdd081858d8d95c1d1959605a1b6044820152606401610d42565b6011546013546001600160a01b03918216916340c10f1991166121fd84670de0b6b3a7640000614ab0565b6040516001600160e01b031960e085901b1681526001600160a01b03909216600483015260248201526044015b600060405180830381600087803b15801561224457600080fd5b505af1158015611eb1573d6000803e3d6000fd5b6000610cf2826131cd565b60648111156122e65760405162461bcd60e51b815260206004820152604360248201527f476f7665726e6f72566f74657351756f72756d4672616374696f6e3a2071756f60448201527f72756d4e756d657261746f72206f7665722071756f72756d44656e6f6d696e616064820152623a37b960e91b608482015260a401610d42565b600f80549082905560408051828152602081018490527f0553476bf02ef2726e8ce5ced78d63e26e602e4a2257b1f559418e24b4633997910160405180910390a15050565b6000604051806060016040528060278152602001614baa60279139905060005b855181101561244b5760008087838151811061237757634e487b7160e01b600052603260045260246000fd5b60200260200101516001600160a01b03168784815181106123a857634e487b7160e01b600052603260045260246000fd5b60200260200101518785815181106123d057634e487b7160e01b600052603260045260246000fd5b60200260200101516040516123e5919061458c565b60006040518083038185875af1925050503d8060008114612422576040519150601f19603f3d011682016040523d82523d6000602084013e612427565b606091505b5091509150612437828286613280565b5050508061244490614b4d565b905061234b565b50505050505050565b6000610cf26124616132b9565b8360405161190160f01b6020820152602281018390526042810182905260009060620160405160208183030381529060405280519060200120905092915050565b60008060006124b3878787876133e4565b915091506111f6816134d1565b60008481526001602081905260408220906124da876113a1565b60078111156124f957634e487b7160e01b600052602160045260246000fd5b146125525760405162461bcd60e51b815260206004820152602360248201527f476f7665726e6f723a20766f7465206e6f742063757272656e746c792061637460448201526269766560e81b6064820152608401610d42565b604080516020810190915281546001600160401b03169081905260009061257a908790612135565b90506125cf6040518060400160405280601281526020017115d95a59da1d08199bdc881858d8dbdd5b9d60721b8152508760405180604001604052806005815260200164034b9901e960dd1b815250846136d4565b6125db87878784613723565b856001600160a01b03167fb8e138887d0aa13bab447e82de9d5c1777041ecd21ca36ba824ff1e6c07ddda48887848860405161261a94939291906149d2565b60405180910390a29695505050505050565b61139d82826040516024016126429291906146cd565b60408051601f198184030181529190526020810180516001600160e01b03166309710a9d60e41b179052613999565b600081815260076020908152604080832081518083019092526016825275566f746520666f72204e6f6e65206f6620746865736560501b928201929092526003820180548493926126ff9183906126ca90600190614acf565b815481106126e857634e487b7160e01b600052603260045260246000fd5b90600052602060002090600502016004015461262c565b6000808060015b845461271490600190614acf565b8110156128195784818154811061273b57634e487b7160e01b600052603260045260246000fd5b906000526020600020906005020160040154836127589190614a4d565b92508385828154811061277b57634e487b7160e01b600052603260045260246000fd5b9060005260206000209060050201600401541115612807578481815481106127b357634e487b7160e01b600052603260045260246000fd5b90600052602060002090600502016004015493508481815481106127e757634e487b7160e01b600052603260045260246000fd5b60009182526020909120600160059092020101546001600160a01b031691505b8061281181614b4d565b915050612706565b50612830600361282a8460056139ba565b906139c6565b8454859061284090600190614acf565b8154811061285e57634e487b7160e01b600052603260045260246000fd5b906000526020600020906005020160040154106128fe5783547f9173824f3c339d8aa34cf4de5cfb628749c53017476edd9eea87ae2b915c34f69085906128a790600190614acf565b815481106128c557634e487b7160e01b600052603260045260246000fd5b9060005260206000209060050201600401546040516128e691815260200190565b60405180910390a15060078401546001600160a01b03165b6129586040518060400160405280600e81526020016d57696e6e6572206164647265737360901b815250826040518060400160405280600c81526020016b383934bd329036b7b732bc9d60a11b81525088600201546136d4565b808560020154965096505050505050915091565b600061299e6040518060400160405280600e81526020016d4e6f6e654f6654686541626f766560901b8152508361195c565b905061139d81604051806040016040528060018152602001600f60fb1b81525084611c44565b6000828152600b6020908152604080832054835260078252808320815161012081019092528054825260018101805460609586959094939290840191612a0990614b12565b80601f0160208091040260200160405190810160405280929190818152602001828054612a3590614b12565b8015612a825780601f10612a5757610100808354040283529160200191612a82565b820191906000526020600020905b815481529060010190602001808311612a6557829003601f168201915b505050505081526020016002820154815260200160038201805480602002602001604051908101604052809291908181526020016000905b82821015612c3a5760008481526020908190206040805160a081018252600586029092018054835260018101546001600160a01b03169383019390935260028301805492939291840191612b0d90614b12565b80601f0160208091040260200160405190810160405280929190818152602001828054612b3990614b12565b8015612b865780601f10612b5b57610100808354040283529160200191612b86565b820191906000526020600020905b815481529060010190602001808311612b6957829003601f168201915b50505050508152602001600382018054612b9f90614b12565b80601f0160208091040260200160405190810160405280929190818152602001828054612bcb90614b12565b8015612c185780601f10612bed57610100808354040283529160200191612c18565b820191906000526020600020905b815481529060010190602001808311612bfb57829003601f168201915b5050505050815260200160048201548152505081526020019060010190612aba565b505050508152602001600482018054612c5290614b12565b80601f0160208091040260200160405190810160405280929190818152602001828054612c7e90614b12565b8015612ccb5780601f10612ca057610100808354040283529160200191612ccb565b820191906000526020600020905b815481529060010190602001808311612cae57829003601f168201915b50505050508152602001600582018054612ce490614b12565b80601f0160208091040260200160405190810160405280929190818152602001828054612d1090614b12565b8015612d5d5780601f10612d3257610100808354040283529160200191612d5d565b820191906000526020600020905b815481529060010190602001808311612d4057829003601f168201915b50505091835250506006820154602082015260078201546001600160a01b0316604082015260089091015460609182015281015190915060005b81518111612e175785828281518110612dc057634e487b7160e01b600052603260045260246000fd5b6020026020010151600001511415612e0557818181518110612df257634e487b7160e01b600052603260045260246000fd5b6020026020010151606001519350612e17565b80612e0f81614b4d565b915050612d97565b509195945050505050565b60025460408051918252602082018390527fc565b045403dc03c2eea82b81a0465edad9e2e7fc4d97e11421c209da93d7a93910160405180910390a1600255565b60006001600160401b03821115612ecb5760405162461bcd60e51b815260206004820152602660248201527f53616665436173743a2076616c756520646f65736e27742066697420696e203660448201526534206269747360d01b6064820152608401610d42565b5090565b612efc6040518060400160405280600b81526020016a64656c6567617465653d3d60a81b815250826139d2565b6040516317066a5760e21b81526001600160a01b0382811660048301527f00000000000000000000000000000000000000000000000000000000000000001690635c19a95c9060240161222a565b604051632394e7a360e21b8152600481018290526000907f00000000000000000000000000000000000000000000000000000000000000006001600160a01b031690638e539e8c9060240160206040518083038186803b158015612fad57600080fd5b505afa158015612fc1573d6000803e3d6000fd5b505050506040513d601f19601f82011682018060405250810190610cf291906141fe565b60606114bf848484604051806060016040528060298152602001614bd160299139613a17565b6000811161306b5760405162461bcd60e51b815260206004820152602760248201527f476f7665726e6f7253657474696e67733a20766f74696e6720706572696f6420604482015266746f6f206c6f7760c81b6064820152608401610d42565b60035460408051918252602082018390527f7e3f7f0708a84de9203036abaa450dccc85ad5ff52f78c170f3edb55cf5e8828910160405180910390a1600355565b60006130ec6040518060400160405280601781526020017f476f7665726e6f72566f7465733a20676574566f746573000000000000000000815250613b3d565b604051630748d63560e31b81526001600160a01b038481166004830152602482018490527f00000000000000000000000000000000000000000000000000000000000000001690633a46b1a89060440160206040518083038186803b15801561315457600080fd5b505afa158015613168573d6000803e3d6000fd5b505050506040513d601f19601f8201168201806040525081019061152591906141fe565b60045460408051918252602082018390527fccb45da8d5717e6c4544694297c4ba5cf151d455c9bb0ed4fc7a38411bc05461910160405180910390a1600455565b60006064600f54604051632394e7a360e21b8152600481018590527f00000000000000000000000000000000000000000000000000000000000000006001600160a01b031690638e539e8c9060240160206040518083038186803b15801561323457600080fd5b505afa158015613248573d6000803e3d6000fd5b505050506040513d601f19601f8201168201806040525081019061326c91906141fe565b6132769190614ab0565b610cf29190614a90565b6060831561328f575081611525565b82511561329f5782518084602001fd5b8160405162461bcd60e51b8152600401610d42919061462e565b6000306001600160a01b037f00000000000000000000000000000000000000000000000000000000000000001614801561331257507f000000000000000000000000000000000000000000000000000000000000000046145b1561333e57507f0000000000000000000000000000000000000000000000000000000000000000610ad9565b50604080517f00000000000000000000000000000000000000000000000000000000000000006020808301919091527f0000000000000000000000000000000000000000000000000000000000000000828401527f000000000000000000000000000000000000000000000000000000000000000060608301524660808301523060a0808401919091528351808403909101815260c09092019092528051910120610ad9565b6000807f7fffffffffffffffffffffffffffffff5d576e7357a4501ddfe92f46681b20a083111561341b57506000905060036134c8565b8460ff16601b1415801561343357508460ff16601c14155b1561344457506000905060046134c8565b6040805160008082526020820180845289905260ff881692820192909252606081018690526080810185905260019060a0016020604051602081039080840390855afa158015613498573d6000803e3d6000fd5b5050604051601f1901519150506001600160a01b0381166134c1576000600192509250506134c8565b9150600090505b94509492505050565b60008160048111156134f357634e487b7160e01b600052602160045260246000fd5b14156134fe57610d54565b600181600481111561352057634e487b7160e01b600052602160045260246000fd5b141561356e5760405162461bcd60e51b815260206004820152601860248201527f45434453413a20696e76616c6964207369676e617475726500000000000000006044820152606401610d42565b600281600481111561359057634e487b7160e01b600052602160045260246000fd5b14156135de5760405162461bcd60e51b815260206004820152601f60248201527f45434453413a20696e76616c6964207369676e6174757265206c656e677468006044820152606401610d42565b600381600481111561360057634e487b7160e01b600052602160045260246000fd5b14156136595760405162461bcd60e51b815260206004820152602260248201527f45434453413a20696e76616c6964207369676e6174757265202773272076616c604482015261756560f01b6064820152608401610d42565b600481600481111561367b57634e487b7160e01b600052602160045260246000fd5b1415610d545760405162461bcd60e51b815260206004820152602260248201527f45434453413a20696e76616c6964207369676e6174757265202776272076616c604482015261756560f01b6064820152608401610d42565b61371d848484846040516024016136ee949392919061466b565b60408051601f198184030181529190526020810180516001600160e01b0316638f624be960e01b179052613999565b50505050565b6000848152600d602090815260408083206001600160a01b0387168452600181019092529091205460ff16156137af5760405162461bcd60e51b815260206004820152602b60248201527f476f7665726e6f72566f74696e6753696d706c6553656c663a20766f7465206160448201526a1b1c9958591e4818d85cdd60aa1b6064820152608401610d42565b6001600160a01b0384166000908152600182810160209081526040808420805460ff1916909317909255878352600b815281832054808452600790915291819020905160038201907f2bbe4c96da549b1a787f636d8599819ee650cb00433930c8134b9021ebb21ff890613824908490614767565b60405180910390a180546040519081527fc8f9129b2b9e0b802fd31fddc1d0e8b371b60e57d44c193a2dd41b24b5ce69649060200160405180910390a1805460ff8716116139295784818760ff168154811061389057634e487b7160e01b600052603260045260246000fd5b906000526020600020906005020160040160008282546138b09190614a4d565b925050819055507f5bf7592d0eaef385cd7fc928d276d6be82ad29c01b35a6efc5fbcab1c924d679818760ff16815481106138fb57634e487b7160e01b600052603260045260246000fd5b90600052602060002090600502016004015460405161391c91815260200190565b60405180910390a161398f565b60405162461bcd60e51b815260206004820152603560248201527f476f7665726e6f72566f74696e6753696d706c653a20696e76616c69642076616044820152746c756520666f7220656e756d20566f74655479706560581b6064820152608401610d42565b5050505050505050565b80516a636f6e736f6c652e6c6f67602083016000808483855afa5050505050565b60006115258284614a90565b60006115258284614ab0565b61139d82826040516024016139e8929190614641565b60408051601f198184030181529190526020810180516001600160e01b031663319af33360e01b179052613999565b606082471015613a785760405162461bcd60e51b815260206004820152602660248201527f416464726573733a20696e73756666696369656e742062616c616e636520666f6044820152651c8818d85b1b60d21b6064820152608401610d42565b6001600160a01b0385163b613acf5760405162461bcd60e51b815260206004820152601d60248201527f416464726573733a2063616c6c20746f206e6f6e2d636f6e74726163740000006044820152606401610d42565b600080866001600160a01b03168587604051613aeb919061458c565b60006040518083038185875af1925050503d8060008114613b28576040519150601f19603f3d011682016040523d82523d6000602084013e613b2d565b606091505b509150915061132d828286613280565b610d5481604051602401613b51919061462e565b60408051601f198184030181529190526020810180516001600160e01b031663104c13eb60e21b179052613999565b828054613b8c90614b12565b90600052602060002090601f016020900481019282613bae5760008555613bf4565b82601f10613bc757805160ff1916838001178555613bf4565b82800160010185558215613bf4579182015b82811115613bf4578251825591602001919060010190613bd9565b50612ecb9291505b80821115612ecb5760008155600101613bfc565b60006001600160401b03831115613c2957613c29614b7e565b613c3c601f8401601f19166020016149fa565b9050828152838383011115613c5057600080fd5b828260208301376000602084830101529392505050565b600082601f830112613c77578081fd5b81356020613c8c613c8783614a2a565b6149fa565b8281528181019085830183850287018401881015613ca8578586fd5b855b85811015613ccf578135613cbd81614b94565b84529284019290840190600101613caa565b5090979650505050505050565b600082601f830112613cec578081fd5b81356020613cfc613c8783614a2a565b82815281810190858301855b85811015613ccf578135880189603f820112613d22578788fd5b613d338a8783013560408401613c10565b8552509284019290840190600101613d08565b600082601f830112613d56578081fd5b81356020613d66613c8783614a2a565b8281528181019085830183850287018401881015613d82578586fd5b855b85811015613ccf57813584529284019290840190600101613d84565b60008083601f840112613db1578182fd5b5081356001600160401b03811115613dc7578182fd5b602083019150836020828501011115613ddf57600080fd5b9250929050565b600082601f830112613df6578081fd5b61152583833560208501613c10565b803560ff81168114610cf557600080fd5b600060208284031215613e27578081fd5b813561152581614b94565b60008060408385031215613e44578081fd5b8235613e4f81614b94565b946020939093013593505050565b60008060008060608587031215613e72578182fd5b8435613e7d81614b94565b93506020850135925060408501356001600160401b03811115613e9e578283fd5b613eaa87828801613da0565b95989497509550505050565b60008060008060808587031215613ecb578384fd5b84356001600160401b0380821115613ee1578586fd5b613eed88838901613c67565b95506020870135915080821115613f02578485fd5b613f0e88838901613d46565b94506040870135915080821115613f23578384fd5b50613f3087828801613cdc565b949793965093946060013593505050565b60008060008060808587031215613f56578182fd5b84356001600160401b0380821115613f6c578384fd5b613f7888838901613c67565b95506020870135915080821115613f8d578384fd5b613f9988838901613d46565b94506040870135915080821115613fae578384fd5b613fba88838901613cdc565b93506060870135915080821115613fcf578283fd5b50613fdc87828801613de6565b91505092959194509250565b600080600080600060a08688031215613fff578283fd5b85356001600160401b0380821115614015578485fd5b61402189838a01613c67565b96506020880135915080821115614036578485fd5b61404289838a01613d46565b95506040880135915080821115614057578485fd5b61406389838a01613cdc565b94506060880135915080821115614078578283fd5b5061408588828901613de6565b95989497509295608001359392505050565b6000602082840312156140a8578081fd5b81356001600160e01b031981168114611525578182fd5b6000602082840312156140d0578081fd5b81356001600160401b038111156140e5578182fd5b6114bf84828501613de6565b60008060008060008060c08789031215614109578384fd5b86356001600160401b038082111561411f578586fd5b61412b8a838b01613de6565b97506020890135915080821115614140578586fd5b61414c8a838b01613de6565b96506040890135915080821115614161578586fd5b5061416e89828a01613de6565b94505060608701359250608087013561418681614b94565b915060a087013561419681614b94565b809150509295509295509295565b600080604083850312156141b6578182fd5b82356001600160401b038111156141cb578283fd5b6141d785828601613de6565b95602094909401359450505050565b6000602082840312156141f7578081fd5b5035919050565b60006020828403121561420f578081fd5b5051919050565b60008060408385031215614228578182fd5b82359150602083013561423a81614b94565b809150509250929050565b600080600060608486031215614259578081fd5b8335925060208401356001600160401b03811115614275578182fd5b61428186828701613de6565b925050604084013590509250925092565b600080604083850312156142a4578182fd5b50508035926020909101359150565b600080604083850312156142c5578182fd5b823591506142d560208401613e05565b90509250929050565b600080600080606085870312156142f3578182fd5b8435935061430360208601613e05565b925060408501356001600160401b03811115613e9e578283fd5b600080600080600060a08688031215614334578283fd5b8535945061434460208701613e05565b935061435260408701613e05565b94979396509394606081013594506080013592915050565b6000815180845260208085019450808401835b838110156143a25781516001600160a01b03168752958201959082019060010161437d565b509495945050505050565b6000815180845260208085018081965082840281019150828601855b858110156143f35782840389526143e18483516144c2565b988501989350908401906001016143c9565b5091979650505050505050565b6000815480845260208085018081965082840281019150858552828520855b858110156143f35782840389528154845260018201546001600160a01b03168585015260a06040850181905261445a818601600285016144ee565b9050848103606086015261447181600385016144ee565b600484015460809690960195909552509784019760059091019060010161441f565b6000815180845260208085019450808401835b838110156143a2578151875295820195908201906001016144a6565b600081518084526144da816020860160208601614ae6565b601f01601f19169290920160200192915050565b80546000906002810460018083168061450857607f831692505b602080841082141561452857634e487b7160e01b86526022600452602486fd5b8388526020880182801561454357600181146145545761457f565b60ff1987168252828201975061457f565b60008981526020902060005b8781101561457957815484820152908601908401614560565b83019850505b5050505050505092915050565b6000825161459e818460208701614ae6565b9190910192915050565b6000608082526145bb608083018761436a565b82810360208401526145cd8187614493565b905082810360408401526145e181866143ad565b91505082606083015295945050505050565b6000602082526115256020830184614493565b602081016008831061462857634e487b7160e01b600052602160045260246000fd5b91905290565b60006020825261152560208301846144c2565b60006040825261465460408301856144c2565b905060018060a01b03831660208301529392505050565b60006080825261467e60808301876144c2565b6001600160a01b038616602084015282810360408401526145e181866144c2565b6000604082526146b260408301856144c2565b82810360208401526146c481856144c2565b95945050505050565b6000604082526146e060408301856144c2565b90508260208301529392505050565b60208082526018908201527f476f7665726e6f723a206f6e6c79476f7665726e616e63650000000000000000604082015260600190565b60208082526021908201527f476f7665726e6f723a20696e76616c69642070726f706f73616c206c656e67746040820152600d60fb1b606082015260800190565b6000602082528254602083015261012080604084015261478e6101408401600186016144ee565b60028501546060850152601f19808583030160808601526147b28260038801614400565b9150808583030160a08601526147cb82600488016144ee565b9150808583030160c0860152506147e581600587016144ee565b9050600685015460e085015261480560078601546001600160a01b031690565b6001600160a01b0316610100850152600894909401549201919091525090565b60006101208b8352602060018060a01b038c168185015281604085015261484e8285018c61436a565b91508382036060850152614862828b614493565b848103608086015289518082529092508183019082810284018301838c01865b838110156148b057601f1987840301855261489e8383516144c2565b94860194925090850190600101614882565b505086810360a08801526148c4818c6143ad565b9450505050506148df60c08401876001600160401b03169052565b6001600160401b03851660e084015282810361010084015261490181856144c2565b9c9b505050505050505050505050565b8581526001600160a01b038516602082015260a06040820181905260009061493b908301866144c2565b828103606084015261494d81866144c2565b9150508260808301529695505050505050565b60006101008a835280602084015261497a8184018b6144c2565b9050886040840152828103606084015261499481896144c2565b905082810360808401526149a881886144c2565b60a084019690965250506001600160a01b039290921660c083015260e09091015295945050505050565b600085825260ff851660208301528360408301526080606083015261150f60808301846144c2565b604051601f8201601f191681016001600160401b0381118282101715614a2257614a22614b7e565b604052919050565b60006001600160401b03821115614a4357614a43614b7e565b5060209081020190565b60008219821115614a6057614a60614b68565b500190565b60006001600160401b03808316818516808303821115614a8757614a87614b68565b01949350505050565b600082614aab57634e487b7160e01b81526012600452602481fd5b500490565b6000816000190483118215151615614aca57614aca614b68565b500290565b600082821015614ae157614ae1614b68565b500390565b60005b83811015614b01578181015183820152602001614ae9565b8381111561371d5750506000910152565b600281046001821680614b2657607f821691505b60208210811415614b4757634e487b7160e01b600052602260045260246000fd5b50919050565b6000600019821415614b6157614b61614b68565b5060010190565b634e487b7160e01b600052601160045260246000fd5b634e487b7160e01b600052604160045260246000fd5b6001600160a01b0381168114610d5457600080fdfe476f7665726e6f723a2063616c6c20726576657274656420776974686f7574206d657373616765416464726573733a206c6f772d6c6576656c2063616c6c20776974682076616c7565206661696c6564a26469706673582212203723cea0cee4a170b25b32234f9b86046bb785c91a947c4427720cb1475d8b9d64736f6c63430008020033",
  "linkReferences": {},
  "deployedLinkReferences": {}
}