{
  "_format": "hh-sol-artifact-1",
  "contractName": "PrizeDAOGovernor",
  "sourceName": "contracts/PrizeDAOGovernor.sol",
  "abi": [
    {
      "inputs": [
        {
          "internalType": "contract ERC20Votes",
          "name": "_token",
          "type": "address"
        },
        {
          "internalType": "string",
          "name": "_name",
          "type": "string"
        },
        {
          "internalType": "address",
          "name": "_tokenToAccept",
          "type": "address"
        }
      ],
      "stateMutability": "nonpayable",
      "type": "constructor"
    },
    {
      "anonymous": false,
      "inputs": [
        {
          "indexed": false,
          "internalType": "uint256",
          "name": "currentProposalID",
          "type": "uint256"
        }
      ],
      "name": "CurrentProposalID",
      "type": "event"
    },
    {
      "anonymous": false,
      "inputs": [
        {
          "indexed": false,
          "internalType": "uint256",
          "name": "HackathonId",
          "type": "uint256"
        }
      ],
      "name": "HackathonCreated",
      "type": "event"
    },
    {
      "anonymous": false,
      "inputs": [
        {
          "components": [
            {
              "internalType": "uint256",
              "name": "hackathonId",
              "type": "uint256"
            },
            {
              "internalType": "string",
              "name": "name",
              "type": "string"
            },
            {
              "internalType": "uint256",
              "name": "prizeMoney",
              "type": "uint256"
            },
            {
              "components": [
                {
                  "internalType": "uint256",
                  "name": "hackerId",
                  "type": "uint256"
                },
                {
                  "internalType": "address",
                  "name": "hackerAdd",
                  "type": "address"
                },
                {
                  "internalType": "string",
                  "name": "name",
                  "type": "string"
                },
                {
                  "internalType": "string",
                  "name": "ipfsHash",
                  "type": "string"
                },
                {
                  "internalType": "uint256",
                  "name": "votesGot",
                  "type": "uint256"
                }
              ],
              "internalType": "struct GovernorCountingSimpleSelf.Hacker[]",
              "name": "hackers",
              "type": "tuple[]"
            },
            {
              "internalType": "string",
              "name": "startDate",
              "type": "string"
            },
            {
              "internalType": "string",
              "name": "endDate",
              "type": "string"
            },
            {
              "internalType": "uint256",
              "name": "proposalId",
              "type": "uint256"
            },
            {
              "internalType": "address",
              "name": "sponsorAddress",
              "type": "address"
            },
            {
              "internalType": "uint256",
              "name": "blockNum",
              "type": "uint256"
            }
          ],
          "indexed": false,
          "internalType": "struct GovernorCountingSimpleSelf.Hackathon",
          "name": "hackathon",
          "type": "tuple"
        }
      ],
      "name": "HackathonEvent",
      "type": "event"
    },
    {
      "anonymous": false,
      "inputs": [
        {
          "indexed": false,
          "internalType": "string",
          "name": "hackerIpfsSubmission",
          "type": "string"
        }
      ],
      "name": "HackerIpfsSubmission",
      "type": "event"
    },
    {
      "anonymous": false,
      "inputs": [
        {
          "indexed": false,
          "internalType": "uint256",
          "name": "HackerId",
          "type": "uint256"
        }
      ],
      "name": "HackerRegisted",
      "type": "event"
    },
    {
      "anonymous": false,
      "inputs": [
        {
          "indexed": false,
          "internalType": "uint256",
          "name": "TotalVotesLastOptionGot",
          "type": "uint256"
        }
      ],
      "name": "NoHackerWon",
      "type": "event"
    },
    {
      "anonymous": false,
      "inputs": [
        {
          "indexed": false,
          "internalType": "uint256",
          "name": "numOfHackers",
          "type": "uint256"
        }
      ],
      "name": "NumOfHackers",
      "type": "event"
    },
    {
      "anonymous": false,
      "inputs": [
        {
          "indexed": false,
          "internalType": "uint256",
          "name": "proposalId",
          "type": "uint256"
        }
      ],
      "name": "ProposalCanceled",
      "type": "event"
    },
    {
      "anonymous": false,
      "inputs": [
        {
          "indexed": false,
          "internalType": "uint256",
          "name": "proposalId",
          "type": "uint256"
        },
        {
          "indexed": false,
          "internalType": "address",
          "name": "proposer",
          "type": "address"
        },
        {
          "indexed": false,
          "internalType": "address[]",
          "name": "targets",
          "type": "address[]"
        },
        {
          "indexed": false,
          "internalType": "uint256[]",
          "name": "values",
          "type": "uint256[]"
        },
        {
          "indexed": false,
          "internalType": "string[]",
          "name": "signatures",
          "type": "string[]"
        },
        {
          "indexed": false,
          "internalType": "bytes[]",
          "name": "calldatas",
          "type": "bytes[]"
        },
        {
          "indexed": false,
          "internalType": "uint256",
          "name": "startBlock",
          "type": "uint256"
        },
        {
          "indexed": false,
          "internalType": "uint256",
          "name": "endBlock",
          "type": "uint256"
        },
        {
          "indexed": false,
          "internalType": "string",
          "name": "description",
          "type": "string"
        }
      ],
      "name": "ProposalCreated",
      "type": "event"
    },
    {
      "anonymous": false,
      "inputs": [
        {
          "indexed": false,
          "internalType": "uint256",
          "name": "proposalId",
          "type": "uint256"
        }
      ],
      "name": "ProposalExecuted",
      "type": "event"
    },
    {
      "anonymous": false,
      "inputs": [
        {
          "indexed": false,
          "internalType": "uint256",
          "name": "oldProposalThreshold",
          "type": "uint256"
        },
        {
          "indexed": false,
          "internalType": "uint256",
          "name": "newProposalThreshold",
          "type": "uint256"
        }
      ],
      "name": "ProposalThresholdSet",
      "type": "event"
    },
    {
      "anonymous": false,
      "inputs": [
        {
          "indexed": false,
          "internalType": "uint256",
          "name": "oldQuorumNumerator",
          "type": "uint256"
        },
        {
          "indexed": false,
          "internalType": "uint256",
          "name": "newQuorumNumerator",
          "type": "uint256"
        }
      ],
      "name": "QuorumNumeratorUpdated",
      "type": "event"
    },
    {
      "anonymous": false,
      "inputs": [
        {
          "indexed": false,
          "internalType": "uint256",
          "name": "HackerId",
          "type": "uint256"
        }
      ],
      "name": "SubmissionDone",
      "type": "event"
    },
    {
      "anonymous": false,
      "inputs": [
        {
          "indexed": false,
          "internalType": "uint256",
          "name": "totalVotes",
          "type": "uint256"
        }
      ],
      "name": "TotalVotes",
      "type": "event"
    },
    {
      "anonymous": false,
      "inputs": [
        {
          "indexed": true,
          "internalType": "address",
          "name": "voter",
          "type": "address"
        },
        {
          "indexed": false,
          "internalType": "uint256",
          "name": "proposalId",
          "type": "uint256"
        },
        {
          "indexed": false,
          "internalType": "uint8",
          "name": "support",
          "type": "uint8"
        },
        {
          "indexed": false,
          "internalType": "uint256",
          "name": "weight",
          "type": "uint256"
        },
        {
          "indexed": false,
          "internalType": "string",
          "name": "reason",
          "type": "string"
        }
      ],
      "name": "VoteCast",
      "type": "event"
    },
    {
      "anonymous": false,
      "inputs": [
        {
          "indexed": false,
          "internalType": "uint256",
          "name": "votesPresent",
          "type": "uint256"
        }
      ],
      "name": "VotesPresent",
      "type": "event"
    },
    {
      "anonymous": false,
      "inputs": [
        {
          "indexed": false,
          "internalType": "uint256",
          "name": "oldVotingDelay",
          "type": "uint256"
        },
        {
          "indexed": false,
          "internalType": "uint256",
          "name": "newVotingDelay",
          "type": "uint256"
        }
      ],
      "name": "VotingDelaySet",
      "type": "event"
    },
    {
      "anonymous": false,
      "inputs": [
        {
          "indexed": false,
          "internalType": "uint256",
          "name": "oldVotingPeriod",
          "type": "uint256"
        },
        {
          "indexed": false,
          "internalType": "uint256",
          "name": "newVotingPeriod",
          "type": "uint256"
        }
      ],
      "name": "VotingPeriodSet",
      "type": "event"
    },
    {
      "anonymous": false,
      "inputs": [
        {
          "indexed": false,
          "internalType": "address",
          "name": "winnerAddress",
          "type": "address"
        }
      ],
      "name": "WinnerIs",
      "type": "event"
    },
    {
      "inputs": [],
      "name": "BALLOT_TYPEHASH",
      "outputs": [
        {
          "internalType": "bytes32",
          "name": "",
          "type": "bytes32"
        }
      ],
      "stateMutability": "view",
      "type": "function"
    },
    {
      "inputs": [],
      "name": "COUNTING_MODE",
      "outputs": [
        {
          "internalType": "string",
          "name": "",
          "type": "string"
        }
      ],
      "stateMutability": "pure",
      "type": "function"
    },
    {
      "inputs": [
        {
          "internalType": "uint256",
          "name": "",
          "type": "uint256"
        }
      ],
      "name": "ProposalIdToHackathonId",
      "outputs": [
        {
          "internalType": "uint256",
          "name": "",
          "type": "uint256"
        }
      ],
      "stateMutability": "view",
      "type": "function"
    },
    {
      "inputs": [
        {
          "internalType": "string",
          "name": "",
          "type": "string"
        }
      ],
      "name": "acceptedProposal",
      "outputs": [
        {
          "internalType": "address",
          "name": "",
          "type": "address"
        }
      ],
      "stateMutability": "view",
      "type": "function"
    },
    {
      "inputs": [
        {
          "internalType": "uint256",
          "name": "_amount",
          "type": "uint256"
        }
      ],
      "name": "addMember",
      "outputs": [],
      "stateMutability": "nonpayable",
      "type": "function"
    },
    {
      "inputs": [
        {
          "internalType": "string",
          "name": "_name",
          "type": "string"
        },
        {
          "internalType": "string",
          "name": "_startDate",
          "type": "string"
        },
        {
          "internalType": "string",
          "name": "_endDate",
          "type": "string"
        },
        {
          "internalType": "uint256",
          "name": "_prizeMoney",
          "type": "uint256"
        },
        {
          "internalType": "address payable",
          "name": "_sponsorAddress",
          "type": "address"
        }
      ],
      "name": "add_hackathon",
      "outputs": [
        {
          "internalType": "uint256",
          "name": "",
          "type": "uint256"
        }
      ],
      "stateMutability": "nonpayable",
      "type": "function"
    },
    {
      "inputs": [
        {
          "internalType": "uint256",
          "name": "_hackerId",
          "type": "uint256"
        },
        {
          "internalType": "string",
          "name": "_ipfsHash",
          "type": "string"
        },
        {
          "internalType": "uint256",
          "name": "_hackathonId",
          "type": "uint256"
        }
      ],
      "name": "add_submission",
      "outputs": [],
      "stateMutability": "nonpayable",
      "type": "function"
    },
    {
      "inputs": [
        {
          "internalType": "uint256",
          "name": "proposalId",
          "type": "uint256"
        },
        {
          "internalType": "uint8",
          "name": "support",
          "type": "uint8"
        }
      ],
      "name": "castVote",
      "outputs": [
        {
          "internalType": "uint256",
          "name": "",
          "type": "uint256"
        }
      ],
      "stateMutability": "nonpayable",
      "type": "function"
    },
    {
      "inputs": [
        {
          "internalType": "uint256",
          "name": "proposalId",
          "type": "uint256"
        },
        {
          "internalType": "uint8",
          "name": "support",
          "type": "uint8"
        },
        {
          "internalType": "uint8",
          "name": "v",
          "type": "uint8"
        },
        {
          "internalType": "bytes32",
          "name": "r",
          "type": "bytes32"
        },
        {
          "internalType": "bytes32",
          "name": "s",
          "type": "bytes32"
        }
      ],
      "name": "castVoteBySig",
      "outputs": [
        {
          "internalType": "uint256",
          "name": "",
          "type": "uint256"
        }
      ],
      "stateMutability": "nonpayable",
      "type": "function"
    },
    {
      "inputs": [
        {
          "internalType": "uint256",
          "name": "proposalId",
          "type": "uint256"
        },
        {
          "internalType": "uint8",
          "name": "support",
          "type": "uint8"
        },
        {
          "internalType": "string",
          "name": "reason",
          "type": "string"
        }
      ],
      "name": "castVoteWithReason",
      "outputs": [
        {
          "internalType": "uint256",
          "name": "",
          "type": "uint256"
        }
      ],
      "stateMutability": "nonpayable",
      "type": "function"
    },
    {
      "inputs": [
        {
          "internalType": "address[]",
          "name": "targets",
          "type": "address[]"
        },
        {
          "internalType": "uint256[]",
          "name": "values",
          "type": "uint256[]"
        },
        {
          "internalType": "bytes[]",
          "name": "calldatas",
          "type": "bytes[]"
        },
        {
          "internalType": "string",
          "name": "description",
          "type": "string"
        },
        {
          "internalType": "uint256",
          "name": "hackathonId",
          "type": "uint256"
        }
      ],
      "name": "createProposal",
      "outputs": [
        {
          "internalType": "uint256",
          "name": "",
          "type": "uint256"
        }
      ],
      "stateMutability": "nonpayable",
      "type": "function"
    },
    {
      "inputs": [
        {
          "internalType": "uint256",
          "name": "_amount",
          "type": "uint256"
        },
        {
          "internalType": "address",
          "name": "_user",
          "type": "address"
        }
      ],
      "name": "disburseIncentive",
      "outputs": [],
      "stateMutability": "nonpayable",
      "type": "function"
    },
    {
      "inputs": [
        {
          "internalType": "address[]",
          "name": "targets",
          "type": "address[]"
        },
        {
          "internalType": "uint256[]",
          "name": "values",
          "type": "uint256[]"
        },
        {
          "internalType": "bytes[]",
          "name": "calldatas",
          "type": "bytes[]"
        },
        {
          "internalType": "bytes32",
          "name": "descriptionHash",
          "type": "bytes32"
        }
      ],
      "name": "execute",
      "outputs": [
        {
          "internalType": "uint256",
          "name": "",
          "type": "uint256"
        }
      ],
      "stateMutability": "payable",
      "type": "function"
    },
    {
      "inputs": [
        {
          "internalType": "uint256",
          "name": "_proposalId",
          "type": "uint256"
        }
      ],
      "name": "getBlockNumber",
      "outputs": [
        {
          "internalType": "uint256",
          "name": "",
          "type": "uint256"
        }
      ],
      "stateMutability": "view",
      "type": "function"
    },
    {
      "inputs": [
        {
          "internalType": "uint256",
          "name": "_proposalId",
          "type": "uint256"
        },
        {
          "internalType": "uint256",
          "name": "_hackerId",
          "type": "uint256"
        }
      ],
      "name": "getHackerSubmission",
      "outputs": [
        {
          "internalType": "string",
          "name": "",
          "type": "string"
        }
      ],
      "stateMutability": "view",
      "type": "function"
    },
    {
      "inputs": [
        {
          "internalType": "uint256",
          "name": "_hackathonId",
          "type": "uint256"
        }
      ],
      "name": "getProposalId",
      "outputs": [
        {
          "internalType": "uint256",
          "name": "",
          "type": "uint256"
        }
      ],
      "stateMutability": "view",
      "type": "function"
    },
    {
      "inputs": [
        {
          "internalType": "address",
          "name": "account",
          "type": "address"
        },
        {
          "internalType": "uint256",
          "name": "blockNumber",
          "type": "uint256"
        }
      ],
      "name": "getVotes",
      "outputs": [
        {
          "internalType": "uint256",
          "name": "",
          "type": "uint256"
        }
      ],
      "stateMutability": "view",
      "type": "function"
    },
    {
      "inputs": [],
      "name": "hackathonId",
      "outputs": [
        {
          "internalType": "uint256",
          "name": "_value",
          "type": "uint256"
        }
      ],
      "stateMutability": "view",
      "type": "function"
    },
    {
      "inputs": [
        {
          "internalType": "uint256",
          "name": "",
          "type": "uint256"
        }
      ],
      "name": "hackathonIdToHackathon",
      "outputs": [
        {
          "internalType": "uint256",
          "name": "hackathonId",
          "type": "uint256"
        },
        {
          "internalType": "string",
          "name": "name",
          "type": "string"
        },
        {
          "internalType": "uint256",
          "name": "prizeMoney",
          "type": "uint256"
        },
        {
          "internalType": "string",
          "name": "startDate",
          "type": "string"
        },
        {
          "internalType": "string",
          "name": "endDate",
          "type": "string"
        },
        {
          "internalType": "uint256",
          "name": "proposalId",
          "type": "uint256"
        },
        {
          "internalType": "address",
          "name": "sponsorAddress",
          "type": "address"
        },
        {
          "internalType": "uint256",
          "name": "blockNum",
          "type": "uint256"
        }
      ],
      "stateMutability": "view",
      "type": "function"
    },
    {
      "inputs": [
        {
          "internalType": "uint256",
          "name": "_hackathonId",
          "type": "uint256"
        }
      ],
      "name": "hackerHasRegisteredBefore",
      "outputs": [
        {
          "internalType": "bool",
          "name": "",
          "type": "bool"
        }
      ],
      "stateMutability": "nonpayable",
      "type": "function"
    },
    {
      "inputs": [],
      "name": "hackerId",
      "outputs": [
        {
          "internalType": "uint256",
          "name": "_value",
          "type": "uint256"
        }
      ],
      "stateMutability": "view",
      "type": "function"
    },
    {
      "inputs": [
        {
          "internalType": "uint256",
          "name": "",
          "type": "uint256"
        }
      ],
      "name": "hackerIdToHackathon",
      "outputs": [
        {
          "internalType": "uint256",
          "name": "hackathonId",
          "type": "uint256"
        },
        {
          "internalType": "string",
          "name": "name",
          "type": "string"
        },
        {
          "internalType": "uint256",
          "name": "prizeMoney",
          "type": "uint256"
        },
        {
          "internalType": "string",
          "name": "startDate",
          "type": "string"
        },
        {
          "internalType": "string",
          "name": "endDate",
          "type": "string"
        },
        {
          "internalType": "uint256",
          "name": "proposalId",
          "type": "uint256"
        },
        {
          "internalType": "address",
          "name": "sponsorAddress",
          "type": "address"
        },
        {
          "internalType": "uint256",
          "name": "blockNum",
          "type": "uint256"
        }
      ],
      "stateMutability": "view",
      "type": "function"
    },
    {
      "inputs": [
        {
          "internalType": "uint256",
          "name": "_hackathonId",
          "type": "uint256"
        }
      ],
      "name": "hasHackerRegistedForHackathon",
      "outputs": [
        {
          "internalType": "bool",
          "name": "",
          "type": "bool"
        }
      ],
      "stateMutability": "view",
      "type": "function"
    },
    {
      "inputs": [
        {
          "internalType": "uint256",
          "name": "proposalId",
          "type": "uint256"
        },
        {
          "internalType": "address",
          "name": "account",
          "type": "address"
        }
      ],
      "name": "hasVoted",
      "outputs": [
        {
          "internalType": "bool",
          "name": "",
          "type": "bool"
        }
      ],
      "stateMutability": "view",
      "type": "function"
    },
    {
      "inputs": [
        {
          "internalType": "address[]",
          "name": "targets",
          "type": "address[]"
        },
        {
          "internalType": "uint256[]",
          "name": "values",
          "type": "uint256[]"
        },
        {
          "internalType": "bytes[]",
          "name": "calldatas",
          "type": "bytes[]"
        },
        {
          "internalType": "bytes32",
          "name": "descriptionHash",
          "type": "bytes32"
        }
      ],
      "name": "hashProposal",
      "outputs": [
        {
          "internalType": "uint256",
          "name": "",
          "type": "uint256"
        }
      ],
      "stateMutability": "pure",
      "type": "function"
    },
    {
      "inputs": [],
      "name": "name",
      "outputs": [
        {
          "internalType": "string",
          "name": "",
          "type": "string"
        }
      ],
      "stateMutability": "view",
      "type": "function"
    },
    {
      "inputs": [
        {
          "internalType": "uint256",
          "name": "proposalId",
          "type": "uint256"
        }
      ],
      "name": "proposalDeadline",
      "outputs": [
        {
          "internalType": "uint256",
          "name": "",
          "type": "uint256"
        }
      ],
      "stateMutability": "view",
      "type": "function"
    },
    {
      "inputs": [
        {
          "internalType": "uint256",
          "name": "proposalId",
          "type": "uint256"
        }
      ],
      "name": "proposalSnapshot",
      "outputs": [
        {
          "internalType": "uint256",
          "name": "",
          "type": "uint256"
        }
      ],
      "stateMutability": "view",
      "type": "function"
    },
    {
      "inputs": [],
      "name": "proposalThreshold",
      "outputs": [
        {
          "internalType": "uint256",
          "name": "",
          "type": "uint256"
        }
      ],
      "stateMutability": "view",
      "type": "function"
    },
    {
      "inputs": [
        {
          "internalType": "address[]",
          "name": "targets",
          "type": "address[]"
        },
        {
          "internalType": "uint256[]",
          "name": "values",
          "type": "uint256[]"
        },
        {
          "internalType": "bytes[]",
          "name": "calldatas",
          "type": "bytes[]"
        },
        {
          "internalType": "string",
          "name": "description",
          "type": "string"
        }
      ],
      "name": "propose",
      "outputs": [
        {
          "internalType": "uint256",
          "name": "",
          "type": "uint256"
        }
      ],
      "stateMutability": "nonpayable",
      "type": "function"
    },
    {
      "inputs": [
        {
          "internalType": "uint256",
          "name": "blockNumber",
          "type": "uint256"
        }
      ],
      "name": "quorum",
      "outputs": [
        {
          "internalType": "uint256",
          "name": "",
          "type": "uint256"
        }
      ],
      "stateMutability": "view",
      "type": "function"
    },
    {
      "inputs": [],
      "name": "quorumDenominator",
      "outputs": [
        {
          "internalType": "uint256",
          "name": "",
          "type": "uint256"
        }
      ],
      "stateMutability": "view",
      "type": "function"
    },
    {
      "inputs": [],
      "name": "quorumNumerator",
      "outputs": [
        {
          "internalType": "uint256",
          "name": "",
          "type": "uint256"
        }
      ],
      "stateMutability": "view",
      "type": "function"
    },
    {
      "inputs": [],
      "name": "receiveEthForTransactions",
      "outputs": [],
      "stateMutability": "payable",
      "type": "function"
    },
    {
      "inputs": [
        {
          "internalType": "string",
          "name": "_name",
          "type": "string"
        },
        {
          "internalType": "uint256",
          "name": "_hackathonId",
          "type": "uint256"
        }
      ],
      "name": "register_hacker",
      "outputs": [
        {
          "internalType": "uint256",
          "name": "",
          "type": "uint256"
        }
      ],
      "stateMutability": "nonpayable",
      "type": "function"
    },
    {
      "inputs": [
        {
          "internalType": "address",
          "name": "target",
          "type": "address"
        },
        {
          "internalType": "uint256",
          "name": "value",
          "type": "uint256"
        },
        {
          "internalType": "bytes",
          "name": "data",
          "type": "bytes"
        }
      ],
      "name": "relay",
      "outputs": [],
      "stateMutability": "nonpayable",
      "type": "function"
    },
    {
      "inputs": [
        {
          "internalType": "uint256",
          "name": "newProposalThreshold",
          "type": "uint256"
        }
      ],
      "name": "setProposalThreshold",
      "outputs": [],
      "stateMutability": "nonpayable",
      "type": "function"
    },
    {
      "inputs": [
        {
          "internalType": "uint256",
          "name": "newVotingDelay",
          "type": "uint256"
        }
      ],
      "name": "setVotingDelay",
      "outputs": [],
      "stateMutability": "nonpayable",
      "type": "function"
    },
    {
      "inputs": [
        {
          "internalType": "uint256",
          "name": "newVotingPeriod",
          "type": "uint256"
        }
      ],
      "name": "setVotingPeriod",
      "outputs": [],
      "stateMutability": "nonpayable",
      "type": "function"
    },
    {
      "inputs": [
        {
          "internalType": "uint256",
          "name": "_hackathonId",
          "type": "uint256"
        }
      ],
      "name": "setWinnerAddress",
      "outputs": [],
      "stateMutability": "nonpayable",
      "type": "function"
    },
    {
      "inputs": [
        {
          "internalType": "uint256",
          "name": "proposalId",
          "type": "uint256"
        }
      ],
      "name": "state",
      "outputs": [
        {
          "internalType": "enum IGovernor.ProposalState",
          "name": "",
          "type": "uint8"
        }
      ],
      "stateMutability": "view",
      "type": "function"
    },
    {
      "inputs": [
        {
          "internalType": "bytes4",
          "name": "interfaceId",
          "type": "bytes4"
        }
      ],
      "name": "supportsInterface",
      "outputs": [
        {
          "internalType": "bool",
          "name": "",
          "type": "bool"
        }
      ],
      "stateMutability": "view",
      "type": "function"
    },
    {
      "inputs": [],
      "name": "token",
      "outputs": [
        {
          "internalType": "contract IVotes",
          "name": "",
          "type": "address"
        }
      ],
      "stateMutability": "view",
      "type": "function"
    },
    {
      "inputs": [
        {
          "internalType": "uint256",
          "name": "newQuorumNumerator",
          "type": "uint256"
        }
      ],
      "name": "updateQuorumNumerator",
      "outputs": [],
      "stateMutability": "nonpayable",
      "type": "function"
    },
    {
      "inputs": [],
      "name": "version",
      "outputs": [
        {
          "internalType": "string",
          "name": "",
          "type": "string"
        }
      ],
      "stateMutability": "view",
      "type": "function"
    },
    {
      "inputs": [],
      "name": "votingDelay",
      "outputs": [
        {
          "internalType": "uint256",
          "name": "",
          "type": "uint256"
        }
      ],
      "stateMutability": "view",
      "type": "function"
    },
    {
      "inputs": [],
      "name": "votingPeriod",
      "outputs": [
        {
          "internalType": "uint256",
          "name": "",
          "type": "uint256"
        }
      ],
      "stateMutability": "view",
      "type": "function"
    },
    {
      "stateMutability": "payable",
      "type": "receive"
    }
  ],
  "bytecode": "0x610160604052601080546001600160a01b03191690553480156200002257600080fd5b50604051620048363803806200483683398101604081905262000045916200043d565b600483600060198186806200006e6040805180820190915260018152603160f81b602082015290565b815160208084019190912082518383012060e08290526101008190524660a0818152604080517f8b73c3c69bb8fe3d512ecc4cf759cc79239f7b179b0ffacaa9a75d522b39400f81880181905281830187905260608201869052608082019490945230818401528151808203909301835260c00190528051940193909320919290916080523060601b60c052610120525050825162000117925060009150602084019062000385565b506200012590508362000192565b6200013082620001d3565b6200013b816200027a565b50505060601b6001600160601b031916610140526200015a81620002bb565b50600d80546001600160a01b039283166001600160a01b031991821617909155600e80549490921693169290921790915550620005aa565b60025460408051918252602082018390527fc565b045403dc03c2eea82b81a0465edad9e2e7fc4d97e11421c209da93d7a93910160405180910390a1600255565b60008111620002395760405162461bcd60e51b815260206004820152602760248201527f476f7665726e6f7253657474696e67733a20766f74696e6720706572696f6420604482015266746f6f206c6f7760c81b60648201526084015b60405180910390fd5b60035460408051918252602082018390527f7e3f7f0708a84de9203036abaa450dccc85ad5ff52f78c170f3edb55cf5e8828910160405180910390a1600355565b60045460408051918252602082018390527fccb45da8d5717e6c4544694297c4ba5cf151d455c9bb0ed4fc7a38411bc05461910160405180910390a1600455565b6064811115620003405760405162461bcd60e51b815260206004820152604360248201527f476f7665726e6f72566f74657351756f72756d4672616374696f6e3a2071756f60448201527f72756d4e756d657261746f72206f7665722071756f72756d44656e6f6d696e616064820152623a37b960e91b608482015260a40162000230565b600c80549082905560408051828152602081018490527f0553476bf02ef2726e8ce5ced78d63e26e602e4a2257b1f559418e24b4633997910160405180910390a15050565b82805462000393906200053e565b90600052602060002090601f016020900481019282620003b7576000855562000402565b82601f10620003d257805160ff191683800117855562000402565b8280016001018555821562000402579182015b8281111562000402578251825591602001919060010190620003e5565b506200041092915062000414565b5090565b5b8082111562000410576000815560010162000415565b8051620004388162000591565b919050565b60008060006060848603121562000452578283fd5b83516200045f8162000591565b602085810151919450906001600160401b03808211156200047e578485fd5b818701915087601f83011262000492578485fd5b815181811115620004a757620004a76200057b565b604051601f8201601f19908116603f01168101908382118183101715620004d257620004d26200057b565b816040528281528a86848701011115620004ea578788fd5b8793505b828410156200050d5784840186015181850187015292850192620004ee565b828411156200051e57878684830101525b80975050505050505062000535604085016200042b565b90509250925092565b6002810460018216806200055357607f821691505b602082108114156200057557634e487b7160e01b600052602260045260246000fd5b50919050565b634e487b7160e01b600052604160045260246000fd5b6001600160a01b0381168114620005a757600080fd5b50565b60805160a05160c05160601c60e05161010051610120516101405160601c61421d6200061960003960008181610914015281816128cc01526129a601526000612b0101526000612b5001526000612b2b01526000612a8201526000612aac01526000612ad6015261421d6000f3fe60806040526004361061028b5760003560e01c80637b3c71d31161015a578063c28bc2fa116100c1578063e6c0f7fe1161007a578063e6c0f7fe1461087a578063ea0217cf14610882578063eb9019d4146108a2578063ece40cc1146108c2578063f8ce560a146108e2578063fc0c546a14610902576102ae565b8063c28bc2fa14610789578063c59057e4146107a9578063cd2c2bd2146107c9578063dd4e2ba5146107e0578063deaaa7cc14610826578063e0b4887c1461085a576102ae565b80639605270a116101135780639605270a146106eb57806397c3d3341461070b578063a7713a701461071f578063a90bd40914610734578063b58131b014610754578063c01f9e3714610769576102ae565b80637b3c71d31461062b5780637c95ac271461064b5780637d5e81e21461066b5780637fe769791461068b578063909da8f1146106ab57806391dda66e146106cb576102ae565b80633bccf4fd116101fe57806354fd4d50116101b757806354fd4d5014610554578063567813881461057e5780636cd4dad91461059e5780636cef51ce146105be57806370b0f660146105de57806378270cad146105fe576102ae565b80633bccf4fd146104665780633d36d648146104865780633e4f49e6146104a65780634200a80b146104d357806343859632146104ea57806350c0fbe414610534576102ae565b80630c47bd45116102505780630c47bd45146103855780631089f5ed146103a557806324de2ef6146103c55780632656227d1461041e5780632d63f693146104315780633932abb114610451576102ae565b8062d647e1146102b357806301ffc9a7146102f057806302a251a31461032057806306f3f9e61461034357806306fdde0314610363576102ae565b366102ae5730610299610936565b6001600160a01b0316146102ac57600080fd5b005b600080fd5b3480156102bf57600080fd5b506102d36102ce3660046138be565b61093b565b6040516102e7989796959493929190613f4a565b60405180910390f35b3480156102fc57600080fd5b5061031061030b366004613780565b610b20565b60405190151581526020016102e7565b34801561032c57600080fd5b50610335610b59565b6040519081526020016102e7565b34801561034f57600080fd5b506102ac61035e3660046138be565b610b69565b34801561036f57600080fd5b50610378610bb6565b6040516102e79190613cf3565b34801561039157600080fd5b506102d36103a03660046138be565b610c48565b3480156103b157600080fd5b506102ac6103c03660046138be565b610c6a565b3480156103d157600080fd5b506104066103e03660046137a8565b8051602081830181018051600f825292820191909301209152546001600160a01b031681565b6040516001600160a01b0390911681526020016102e7565b61033561042c36600461357f565b610dbf565b34801561043d57600080fd5b5061033561044c3660046138be565b610ee8565b34801561045d57600080fd5b50610335610f1f565b34801561047257600080fd5b506103356104813660046139f5565b610f2a565b34801561049257600080fd5b506102ac6104a13660046138be565b610fbe565b3480156104b257600080fd5b506104c66104c13660046138be565b610ff6565b6040516102e79190613ccb565b3480156104df57600080fd5b506006546103359081565b3480156104f657600080fd5b506103106105053660046138ee565b6000828152600b602090815260408083206001600160a01b038516845260010190915290205460ff1692915050565b34801561054057600080fd5b5061033561054f3660046138be565b6110cf565b34801561056057600080fd5b506040805180820190915260018152603160f81b6020820152610378565b34801561058a57600080fd5b5061033561059936600461398b565b6110f3565b3480156105aa57600080fd5b506103356105b93660046136b1565b61111c565b3480156105ca57600080fd5b506103786105d936600461396a565b61116e565b3480156105ea57600080fd5b506102ac6105f93660046138be565b611181565b34801561060a57600080fd5b506103356106193660046138be565b60096020526000908152604090205481565b34801561063757600080fd5b506103356106463660046139b6565b6111c2565b34801561065757600080fd5b506103356106663660046138be565b61120a565b34801561067757600080fd5b5061033561068636600461360a565b611221565b34801561069757600080fd5b506103106106a63660046138be565b61150a565b3480156106b757600080fd5b506103356106c63660046137da565b61159d565b3480156106d757600080fd5b506103356106e636600461387c565b611683565b3480156106f757600080fd5b506102ac61070636600461391d565b6117b5565b34801561071757600080fd5b506064610335565b34801561072b57600080fd5b50600c54610335565b34801561074057600080fd5b506102ac61074f3660046138ee565b611914565b34801561076057600080fd5b506103356119e3565b34801561077557600080fd5b506103356107843660046138be565b6119ee565b34801561079557600080fd5b506102ac6107a4366004613526565b611a1d565b3480156107b557600080fd5b506103356107c436600461357f565b611a9e565b3480156107d557600080fd5b506005546103359081565b3480156107ec57600080fd5b506040805180820190915260208082527f737570706f72743d627261766f2671756f72756d3d666f722c6162737461696e90820152610378565b34801561083257600080fd5b506103357f150214d74d59b7d1e90c73fc22ef3d991dd0a76b046543d4d80ab92d2a50328f81565b34801561086657600080fd5b506103106108753660046138be565b611ad8565b6102ac611b6a565b34801561088e57600080fd5b506102ac61089d3660046138be565b611bf3565b3480156108ae57600080fd5b506103356108bd3660046134fb565b611c34565b3480156108ce57600080fd5b506102ac6108dd3660046138be565b611c40565b3480156108ee57600080fd5b506103356108fd3660046138be565b611c81565b34801561090e57600080fd5b506104067f000000000000000000000000000000000000000000000000000000000000000081565b305b90565b6007602052600090815260409020805460018201805491929161095d90614100565b80601f016020809104026020016040519081016040528092919081815260200182805461098990614100565b80156109d65780601f106109ab576101008083540402835291602001916109d6565b820191906000526020600020905b8154815290600101906020018083116109b957829003601f168201915b5050505050908060020154908060040180546109f190614100565b80601f0160208091040260200160405190810160405280929190818152602001828054610a1d90614100565b8015610a6a5780601f10610a3f57610100808354040283529160200191610a6a565b820191906000526020600020905b815481529060010190602001808311610a4d57829003601f168201915b505050505090806005018054610a7f90614100565b80601f0160208091040260200160405190810160405280929190818152602001828054610aab90614100565b8015610af85780601f10610acd57610100808354040283529160200191610af8565b820191906000526020600020905b815481529060010190602001808311610adb57829003601f168201915b5050505060068301546007840154600890940154929390926001600160a01b03909116915088565b60006001600160e01b0319821663bf26d89760e01b1480610b5157506301ffc9a760e01b6001600160e01b03198316145b90505b919050565b6000610b6460035490565b905090565b610b71610936565b6001600160a01b0316336001600160a01b031614610baa5760405162461bcd60e51b8152600401610ba190613d28565b60405180910390fd5b610bb381611c8c565b50565b606060008054610bc590614100565b80601f0160208091040260200160405190810160405280929190818152602001828054610bf190614100565b8015610c3e5780601f10610c1357610100808354040283529160200191610c3e565b820191906000526020600020905b815481529060010190602001808311610c2157829003601f168201915b5050505050905090565b6008602052600090815260409020805460018201805491929161095d90614100565b600d54604051636eb1769f60e11b815233600482015230602482015282916001600160a01b03169063dd62ed3e9060440160206040518083038186803b158015610cb357600080fd5b505afa158015610cc7573d6000803e3d6000fd5b505050506040513d601f19601f82011682018060405250810190610ceb91906138d6565b1015610d315760405162461bcd60e51b815260206004820152601560248201527411105248185b1b1bddd85b98d9481b9bdd081cd95d605a1b6044820152606401610ba1565b600d546040516323b872dd60e01b8152336004820152306024820152604481018390526001600160a01b03909116906323b872dd90606401602060405180830381600087803b158015610d8357600080fd5b505af1158015610d97573d6000803e3d6000fd5b505050506040513d601f19601f82011682018060405250810190610dbb9190613760565b5050565b600080610dce86868686611a9e565b90506000610ddb82610ff6565b90506004816007811115610dff57634e487b7160e01b600052602160045260246000fd5b1480610e2a57506005816007811115610e2857634e487b7160e01b600052602160045260246000fd5b145b610e805760405162461bcd60e51b815260206004820152602160248201527f476f7665726e6f723a2070726f706f73616c206e6f74207375636365737366756044820152601b60fa1b6064820152608401610ba1565b600082815260016020818152604092839020600201805460ff191690921790915590518381527f712ae1383f79ac853f8d882153778e0260ef8f03b504e2866e0593e04d2b291f910160405180910390a1610ede8288888888611d54565b5095945050505050565b60008181526001602090815260408083208151928301909152546001600160401b0316908190525b6001600160401b031692915050565b6000610b6460025490565b604080517f150214d74d59b7d1e90c73fc22ef3d991dd0a76b046543d4d80ab92d2a50328f602082015290810186905260ff851660608201526000908190610f9690610f8e9060800160405160208183030381529060405280519060200120611e7d565b868686611ecb565b9050610fb387828860405180602001604052806000815250611ee9565b979650505050505050565b6000610fc982612002565b601080546001600160a01b0319166001600160a01b039384161790819055909250610dbb91839116611914565b6000818152600160205260408120600281015460ff161561101b576007915050610b54565b6002810154610100900460ff1615611037576002915050610b54565b600061104284610ee8565b9050806110915760405162461bcd60e51b815260206004820152601d60248201527f476f7665726e6f723a20756e6b6e6f776e2070726f706f73616c2069640000006044820152606401610ba1565b4381106110a357600092505050610b54565b60006110ae856119ee565b90504381106110c35760019350505050610b54565b60049350505050610b54565b60008181526009602090815260408083205483526007909152812060080154610b51565b60008033905061111484828560405180602001604052806000815250611ee9565b949350505050565b600061112782612234565b600061113587878787611221565b600081815260096020908152604080832087905586835260079091529020600681018290554360089091015590505b9695505050505050565b606061117a838361228c565b9392505050565b611189610936565b6001600160a01b0316336001600160a01b0316146111b95760405162461bcd60e51b8152600401610ba190613d28565b610bb3816126ea565b60008033905061116486828787878080601f016020809104026020016040519081016040528093929190818152602001838380828437600092019190915250611ee992505050565b600081815260076020526040812060060154610b51565b600061122b6119e3565b61123a336108bd6001436140b9565b10156112ba5760405162461bcd60e51b815260206004820152604360248201527f476f7665726e6f72436f6d7061746962696c697479427261766f3a2070726f7060448201527f6f73657220766f7465732062656c6f772070726f706f73616c207468726573686064820152621bdb1960ea1b608482015260a401610ba1565b60006112cf8686868680519060200120611a9e565b905084518651146112f25760405162461bcd60e51b8152600401610ba190613d5f565b83518651146113135760405162461bcd60e51b8152600401610ba190613d5f565b60008651116113645760405162461bcd60e51b815260206004820152601860248201527f476f7665726e6f723a20656d7074792070726f706f73616c00000000000000006044820152606401610ba1565b600081815260016020908152604091829020825191820190925281546001600160401b031690819052156113e45760405162461bcd60e51b815260206004820152602160248201527f476f7665726e6f723a2070726f706f73616c20616c72656164792065786973746044820152607360f81b6064820152608401610ba1565b60006113f66113f1610f1f565b61272b565b6113ff4361272b565b611409919061404f565b905060006114186113f1610b59565b611422908361404f565b835467ffffffffffffffff19166001600160401b038416178455905060018301805467ffffffffffffffff19166001600160401b0383161790557f7d84a6263ae0d98d3329bd7b46bb4e8d6f98cd35a7adb45c274c8b7fd5ebd5e084338b8b8d516001600160401b038111156114a857634e487b7160e01b600052604160045260246000fd5b6040519080825280602002602001820160405280156114db57816020015b60608152602001906001900390816114c65790505b508c88888e6040516114f599989796959493929190613e5e565b60405180910390a15091979650505050505050565b600081815260076020526040812060038101825b815481101561159257336001600160a01b031682828154811061155157634e487b7160e01b600052603260045260246000fd5b60009182526020909120600160059092020101546001600160a01b031614156115805760019350505050610b54565b8061158a8161413b565b91505061151e565b506000949350505050565b60006115ad600580546001019055565b6000600760006115bc60055490565b815260200190815260200160002090506115d560055490565b815586516115ec90600183019060208a0190613265565b506002810184905585516116099060048301906020890190613265565b50845161161f9060058301906020880190613265565b506007810180546001600160a01b0319166001600160a01b0385161790557fcba4bf7a6b01547e7d8a3c5050ca5009bb70870c39a8702c8b18c226b89545c161166760055490565b60405190815260200160405180910390a1549695505050505050565b60006116c06040518060a001604052806000815260200160006001600160a01b031681526020016060815260200160608152602001600081525090565b6116ce600680546001019055565b60065481523360208083019182526040808401878152600087815260078452918220600301805460018082018355918452928490208651600590940201928355935193820180546001600160a01b0319166001600160a01b039095169490941790935591518051849392611749926002850192910190613265565b5060608201518051611765916003840191602090910190613265565b506080820151816004015550507f52f5f480849d7ad260ceec55e9f964d8954e583a8194a893b441abb3dfd70df861179c60065490565b60405190815260200160405180910390a1519392505050565b6117be81611ad8565b6118225760405162461bcd60e51b815260206004820152602f60248201527f4861636b6572204e4f5420726567697374657265642120506c6561736520726560448201526e33b4b9ba32b9103cb7bab939b2b63360891b6064820152608401610ba1565b6000818152600760205260408120600301905b81548110156118da578482828154811061185f57634e487b7160e01b600052603260045260246000fd5b90600052602060002090600502016000015414156118c857600082828154811061189957634e487b7160e01b600052603260045260246000fd5b90600052602060002090600502019050848160030190805190602001906118c1929190613265565b50506118da565b806118d28161413b565b915050611835565b506040518481527f39a3b0282f68964e1565dbe1e8656f18e757f212f480fcbc564b36aa395373649060200160405180910390a150505050565b6010546001600160a01b03166119645760405162461bcd60e51b8152602060048201526015602482015274141c9bdc1bdcd85b081b9bdd081858d8d95c1d1959605a1b6044820152606401610ba1565b600e546001600160a01b03166340c10f198261198185600a61409a565b6040516001600160e01b031960e085901b1681526001600160a01b0390921660048301526024820152604401600060405180830381600087803b1580156119c757600080fd5b505af11580156119db573d6000803e3d6000fd5b505050505050565b6000610b6460045490565b60008181526001602081815260408084208151928301909152909101546001600160401b031690819052610f10565b611a25610936565b6001600160a01b0316336001600160a01b031614611a555760405162461bcd60e51b8152600401610ba190613d28565b611a978483838080601f016020809104026020016040519081016040528093929190818152602001838380828437600092019190915250889250612797915050565b5050505050565b600084848484604051602001611ab79493929190613c80565b60408051601f19818403018152919052805160209091012095945050505050565b60008181526007602052604081206003018054829190825b81811015611b6057336001600160a01b0316838281548110611b2257634e487b7160e01b600052603260045260246000fd5b60009182526020909120600160059092020101546001600160a01b03161415611b4e5760019350611b60565b80611b588161413b565b915050611af0565b5091949350505050565b670de0b6b3a7640000341015611bc25760405162461bcd60e51b815260206004820152601860248201527f4d696e696d756d203120657468657220726571756972656400000000000000006044820152606401610ba1565b611bf16040518060400160405280600d81526020016c02932b1b2b4bb32b2101e9e9f1609d1b815250346127bd565b565b611bfb610936565b6001600160a01b0316336001600160a01b031614611c2b5760405162461bcd60e51b8152600401610ba190613d28565b610bb381612802565b600061117a83836128a3565b611c48610936565b6001600160a01b0316336001600160a01b031614611c785760405162461bcd60e51b8152600401610ba190613d28565b610bb381612948565b6000610b5182612989565b6064811115611d0f5760405162461bcd60e51b815260206004820152604360248201527f476f7665726e6f72566f74657351756f72756d4672616374696f6e3a2071756f60448201527f72756d4e756d657261746f72206f7665722071756f72756d44656e6f6d696e616064820152623a37b960e91b608482015260a401610ba1565b600c80549082905560408051828152602081018490527f0553476bf02ef2726e8ce5ced78d63e26e602e4a2257b1f559418e24b4633997910160405180910390a15050565b600060405180606001604052806027815260200161419860279139905060005b8551811015611e7457600080878381518110611da057634e487b7160e01b600052603260045260246000fd5b60200260200101516001600160a01b0316878481518110611dd157634e487b7160e01b600052603260045260246000fd5b6020026020010151878581518110611df957634e487b7160e01b600052603260045260246000fd5b6020026020010151604051611e0e9190613c64565b60006040518083038185875af1925050503d8060008114611e4b576040519150601f19603f3d011682016040523d82523d6000602084013e611e50565b606091505b5091509150611e60828286612a3c565b50505080611e6d9061413b565b9050611d74565b50505050505050565b6000610b51611e8a612a75565b8360405161190160f01b6020820152602281018390526042810182905260009060620160405160208183030381529060405280519060200120905092915050565b6000806000611edc87878787612ba0565b91509150610ede81612c8d565b6000848152600160208190526040822090611f0387610ff6565b6007811115611f2257634e487b7160e01b600052602160045260246000fd5b14611f7b5760405162461bcd60e51b815260206004820152602360248201527f476f7665726e6f723a20766f7465206e6f742063757272656e746c792061637460448201526269766560e81b6064820152608401610ba1565b604080516020810190915281546001600160401b031690819052600090611fa3908790611c34565b9050611fb187878784612e90565b856001600160a01b03167fb8e138887d0aa13bab447e82de9d5c1777041ecd21ca36ba824ff1e6c07ddda488878488604051611ff09493929190613fbc565b60405180910390a29695505050505050565b600081815260076020526040812081906003810182808060015b845461202a906001906140b9565b81101561212f5784818154811061205157634e487b7160e01b600052603260045260246000fd5b9060005260206000209060050201600401548361206e9190614037565b92508385828154811061209157634e487b7160e01b600052603260045260246000fd5b906000526020600020906005020160040154111561211d578481815481106120c957634e487b7160e01b600052603260045260246000fd5b90600052602060002090600502016004015493508481815481106120fd57634e487b7160e01b600052603260045260246000fd5b60009182526020909120600160059092020101546001600160a01b031691505b806121278161413b565b91505061201c565b506121466003612140846005613106565b90613112565b84548590612156906001906140b9565b8154811061217457634e487b7160e01b600052603260045260246000fd5b906000526020600020906005020160040154106122145783547f9173824f3c339d8aa34cf4de5cfb628749c53017476edd9eea87ae2b915c34f69085906121bd906001906140b9565b815481106121db57634e487b7160e01b600052603260045260246000fd5b9060005260206000209060050201600401546040516121fc91815260200190565b60405180910390a15060078401546001600160a01b03165b808560020154600a612226919061409a565b965096505050505050915091565b60006122666040518060400160405280600e81526020016d4e6f6e654f6654686541626f766560901b81525083611683565b9050610dbb81604051806040016040528060018152602001600f60fb1b815250846117b5565b6000828152600960209081526040808320548352600782528083208151610120810190925280548252600181018054606095869590949392908401916122d190614100565b80601f01602080910402602001604051908101604052809291908181526020018280546122fd90614100565b801561234a5780601f1061231f5761010080835404028352916020019161234a565b820191906000526020600020905b81548152906001019060200180831161232d57829003601f168201915b505050505081526020016002820154815260200160038201805480602002602001604051908101604052809291908181526020016000905b828210156125025760008481526020908190206040805160a081018252600586029092018054835260018101546001600160a01b031693830193909352600283018054929392918401916123d590614100565b80601f016020809104026020016040519081016040528092919081815260200182805461240190614100565b801561244e5780601f106124235761010080835404028352916020019161244e565b820191906000526020600020905b81548152906001019060200180831161243157829003601f168201915b5050505050815260200160038201805461246790614100565b80601f016020809104026020016040519081016040528092919081815260200182805461249390614100565b80156124e05780601f106124b5576101008083540402835291602001916124e0565b820191906000526020600020905b8154815290600101906020018083116124c357829003601f168201915b5050505050815260200160048201548152505081526020019060010190612382565b50505050815260200160048201805461251a90614100565b80601f016020809104026020016040519081016040528092919081815260200182805461254690614100565b80156125935780601f1061256857610100808354040283529160200191612593565b820191906000526020600020905b81548152906001019060200180831161257657829003601f168201915b505050505081526020016005820180546125ac90614100565b80601f01602080910402602001604051908101604052809291908181526020018280546125d890614100565b80156126255780601f106125fa57610100808354040283529160200191612625565b820191906000526020600020905b81548152906001019060200180831161260857829003601f168201915b50505091835250506006820154602082015260078201546001600160a01b0316604082015260089091015460609182015281015190915060005b815181116126df578582828151811061268857634e487b7160e01b600052603260045260246000fd5b60200260200101516000015114156126cd578181815181106126ba57634e487b7160e01b600052603260045260246000fd5b60200260200101516060015193506126df565b806126d78161413b565b91505061265f565b509195945050505050565b60025460408051918252602082018390527fc565b045403dc03c2eea82b81a0465edad9e2e7fc4d97e11421c209da93d7a93910160405180910390a1600255565b60006001600160401b038211156127935760405162461bcd60e51b815260206004820152602660248201527f53616665436173743a2076616c756520646f65736e27742066697420696e203660448201526534206269747360d01b6064820152608401610ba1565b5090565b60606111148484846040518060600160405280602981526020016141bf6029913961311e565b610dbb82826040516024016127d3929190613d06565b60408051601f198184030181529190526020810180516001600160e01b03166309710a9d60e41b179052613244565b600081116128625760405162461bcd60e51b815260206004820152602760248201527f476f7665726e6f7253657474696e67733a20766f74696e6720706572696f6420604482015266746f6f206c6f7760c81b6064820152608401610ba1565b60035460408051918252602082018390527f7e3f7f0708a84de9203036abaa450dccc85ad5ff52f78c170f3edb55cf5e8828910160405180910390a1600355565b604051630748d63560e31b81526001600160a01b038381166004830152602482018390526000917f000000000000000000000000000000000000000000000000000000000000000090911690633a46b1a89060440160206040518083038186803b15801561291057600080fd5b505afa158015612924573d6000803e3d6000fd5b505050506040513d601f19601f8201168201806040525081019061117a91906138d6565b60045460408051918252602082018390527fccb45da8d5717e6c4544694297c4ba5cf151d455c9bb0ed4fc7a38411bc05461910160405180910390a1600455565b60006064600c54604051632394e7a360e21b8152600481018590527f00000000000000000000000000000000000000000000000000000000000000006001600160a01b031690638e539e8c9060240160206040518083038186803b1580156129f057600080fd5b505afa158015612a04573d6000803e3d6000fd5b505050506040513d601f19601f82011682018060405250810190612a2891906138d6565b612a32919061409a565b610b51919061407a565b60608315612a4b57508161117a565b825115612a5b5782518084602001fd5b8160405162461bcd60e51b8152600401610ba19190613cf3565b6000306001600160a01b037f000000000000000000000000000000000000000000000000000000000000000016148015612ace57507f000000000000000000000000000000000000000000000000000000000000000046145b15612afa57507f0000000000000000000000000000000000000000000000000000000000000000610938565b50604080517f00000000000000000000000000000000000000000000000000000000000000006020808301919091527f0000000000000000000000000000000000000000000000000000000000000000828401527f000000000000000000000000000000000000000000000000000000000000000060608301524660808301523060a0808401919091528351808403909101815260c09092019092528051910120610938565b6000807f7fffffffffffffffffffffffffffffff5d576e7357a4501ddfe92f46681b20a0831115612bd75750600090506003612c84565b8460ff16601b14158015612bef57508460ff16601c14155b15612c005750600090506004612c84565b6040805160008082526020820180845289905260ff881692820192909252606081018690526080810185905260019060a0016020604051602081039080840390855afa158015612c54573d6000803e3d6000fd5b5050604051601f1901519150506001600160a01b038116612c7d57600060019250925050612c84565b9150600090505b94509492505050565b6000816004811115612caf57634e487b7160e01b600052602160045260246000fd5b1415612cba57610bb3565b6001816004811115612cdc57634e487b7160e01b600052602160045260246000fd5b1415612d2a5760405162461bcd60e51b815260206004820152601860248201527f45434453413a20696e76616c6964207369676e617475726500000000000000006044820152606401610ba1565b6002816004811115612d4c57634e487b7160e01b600052602160045260246000fd5b1415612d9a5760405162461bcd60e51b815260206004820152601f60248201527f45434453413a20696e76616c6964207369676e6174757265206c656e677468006044820152606401610ba1565b6003816004811115612dbc57634e487b7160e01b600052602160045260246000fd5b1415612e155760405162461bcd60e51b815260206004820152602260248201527f45434453413a20696e76616c6964207369676e6174757265202773272076616c604482015261756560f01b6064820152608401610ba1565b6004816004811115612e3757634e487b7160e01b600052602160045260246000fd5b1415610bb35760405162461bcd60e51b815260206004820152602260248201527f45434453413a20696e76616c6964207369676e6174757265202776272076616c604482015261756560f01b6064820152608401610ba1565b6000848152600b602090815260408083206001600160a01b0387168452600181019092529091205460ff1615612f1c5760405162461bcd60e51b815260206004820152602b60248201527f476f7665726e6f72566f74696e6753696d706c6553656c663a20766f7465206160448201526a1b1c9958591e4818d85cdd60aa1b6064820152608401610ba1565b6001600160a01b0384166000908152600182810160209081526040808420805460ff19169093179092558783526009815281832054808452600790915291819020905160038201907f2bbe4c96da549b1a787f636d8599819ee650cb00433930c8134b9021ebb21ff890612f91908490613da0565b60405180910390a180546040519081527fc8f9129b2b9e0b802fd31fddc1d0e8b371b60e57d44c193a2dd41b24b5ce69649060200160405180910390a1805460ff8716116130965784818760ff1681548110612ffd57634e487b7160e01b600052603260045260246000fd5b9060005260206000209060050201600401600082825461301d9190614037565b925050819055507f5bf7592d0eaef385cd7fc928d276d6be82ad29c01b35a6efc5fbcab1c924d679818760ff168154811061306857634e487b7160e01b600052603260045260246000fd5b90600052602060002090600502016004015460405161308991815260200190565b60405180910390a16130fc565b60405162461bcd60e51b815260206004820152603560248201527f476f7665726e6f72566f74696e6753696d706c653a20696e76616c69642076616044820152746c756520666f7220656e756d20566f74655479706560581b6064820152608401610ba1565b5050505050505050565b600061117a828461407a565b600061117a828461409a565b60608247101561317f5760405162461bcd60e51b815260206004820152602660248201527f416464726573733a20696e73756666696369656e742062616c616e636520666f6044820152651c8818d85b1b60d21b6064820152608401610ba1565b6001600160a01b0385163b6131d65760405162461bcd60e51b815260206004820152601d60248201527f416464726573733a2063616c6c20746f206e6f6e2d636f6e74726163740000006044820152606401610ba1565b600080866001600160a01b031685876040516131f29190613c64565b60006040518083038185875af1925050503d806000811461322f576040519150601f19603f3d011682016040523d82523d6000602084013e613234565b606091505b5091509150610fb3828286612a3c565b80516a636f6e736f6c652e6c6f67602083016000808483855afa5050505050565b82805461327190614100565b90600052602060002090601f01602090048101928261329357600085556132d9565b82601f106132ac57805160ff19168380011785556132d9565b828001600101855582156132d9579182015b828111156132d95782518255916020019190600101906132be565b506127939291505b8082111561279357600081556001016132e1565b60006001600160401b0383111561330e5761330e61416c565b613321601f8401601f1916602001613fe4565b905082815283838301111561333557600080fd5b828260208301376000602084830101529392505050565b600082601f83011261335c578081fd5b8135602061337161336c83614014565b613fe4565b828152818101908583018385028701840188101561338d578586fd5b855b858110156133b45781356133a281614182565b8452928401929084019060010161338f565b5090979650505050505050565b600082601f8301126133d1578081fd5b813560206133e161336c83614014565b82815281810190858301855b858110156133b4578135880189603f820112613407578788fd5b6134188a87830135604084016132f5565b85525092840192908401906001016133ed565b600082601f83011261343b578081fd5b8135602061344b61336c83614014565b8281528181019085830183850287018401881015613467578586fd5b855b858110156133b457813584529284019290840190600101613469565b60008083601f840112613496578182fd5b5081356001600160401b038111156134ac578182fd5b6020830191508360208285010111156134c457600080fd5b9250929050565b600082601f8301126134db578081fd5b61117a838335602085016132f5565b803560ff81168114610b5457600080fd5b6000806040838503121561350d578182fd5b823561351881614182565b946020939093013593505050565b6000806000806060858703121561353b578182fd5b843561354681614182565b93506020850135925060408501356001600160401b03811115613567578283fd5b61357387828801613485565b95989497509550505050565b60008060008060808587031215613594578384fd5b84356001600160401b03808211156135aa578586fd5b6135b68883890161334c565b955060208701359150808211156135cb578485fd5b6135d78883890161342b565b945060408701359150808211156135ec578384fd5b506135f9878288016133c1565b949793965093946060013593505050565b6000806000806080858703121561361f578182fd5b84356001600160401b0380821115613635578384fd5b6136418883890161334c565b95506020870135915080821115613656578384fd5b6136628883890161342b565b94506040870135915080821115613677578384fd5b613683888389016133c1565b93506060870135915080821115613698578283fd5b506136a5878288016134cb565b91505092959194509250565b600080600080600060a086880312156136c8578283fd5b85356001600160401b03808211156136de578485fd5b6136ea89838a0161334c565b965060208801359150808211156136ff578485fd5b61370b89838a0161342b565b95506040880135915080821115613720578485fd5b61372c89838a016133c1565b94506060880135915080821115613741578283fd5b5061374e888289016134cb565b95989497509295608001359392505050565b600060208284031215613771578081fd5b8151801515811461117a578182fd5b600060208284031215613791578081fd5b81356001600160e01b03198116811461117a578182fd5b6000602082840312156137b9578081fd5b81356001600160401b038111156137ce578182fd5b611114848285016134cb565b600080600080600060a086880312156137f1578283fd5b85356001600160401b0380821115613807578485fd5b61381389838a016134cb565b96506020880135915080821115613828578485fd5b61383489838a016134cb565b95506040880135915080821115613849578485fd5b50613856888289016134cb565b93505060608601359150608086013561386e81614182565b809150509295509295909350565b6000806040838503121561388e578182fd5b82356001600160401b038111156138a3578283fd5b6138af858286016134cb565b95602094909401359450505050565b6000602082840312156138cf578081fd5b5035919050565b6000602082840312156138e7578081fd5b5051919050565b60008060408385031215613900578182fd5b82359150602083013561391281614182565b809150509250929050565b600080600060608486031215613931578081fd5b8335925060208401356001600160401b0381111561394d578182fd5b613959868287016134cb565b925050604084013590509250925092565b6000806040838503121561397c578182fd5b50508035926020909101359150565b6000806040838503121561399d578182fd5b823591506139ad602084016134ea565b90509250929050565b600080600080606085870312156139cb578182fd5b843593506139db602086016134ea565b925060408501356001600160401b03811115613567578283fd5b600080600080600060a08688031215613a0c578283fd5b85359450613a1c602087016134ea565b9350613a2a604087016134ea565b94979396509394606081013594506080013592915050565b6000815180845260208085019450808401835b83811015613a7a5781516001600160a01b031687529582019590820190600101613a55565b509495945050505050565b6000815180845260208085018081965082840281019150828601855b85811015613acb578284038952613ab9848351613b9a565b98850198935090840190600101613aa1565b5091979650505050505050565b6000815480845260208085018081965082840281019150858552828520855b85811015613acb5782840389528154845260018201546001600160a01b03168585015260a060408501819052613b3281860160028501613bc6565b90508481036060860152613b498160038501613bc6565b6004840154608096909601959095525097840197600590910190600101613af7565b6000815180845260208085019450808401835b83811015613a7a57815187529582019590820190600101613b7e565b60008151808452613bb28160208601602086016140d0565b601f01601f19169290920160200192915050565b805460009060028104600180831680613be057607f831692505b6020808410821415613c0057634e487b7160e01b86526022600452602486fd5b83885260208801828015613c1b5760018114613c2c57613c57565b60ff19871682528282019750613c57565b60008981526020902060005b87811015613c5157815484820152908601908401613c38565b83019850505b5050505050505092915050565b60008251613c768184602087016140d0565b9190910192915050565b600060808252613c936080830187613a42565b8281036020840152613ca58187613b6b565b90508281036040840152613cb98186613a85565b91505082606083015295945050505050565b6020810160088310613ced57634e487b7160e01b600052602160045260246000fd5b91905290565b60006020825261117a6020830184613b9a565b600060408252613d196040830185613b9a565b90508260208301529392505050565b60208082526018908201527f476f7665726e6f723a206f6e6c79476f7665726e616e63650000000000000000604082015260600190565b60208082526021908201527f476f7665726e6f723a20696e76616c69642070726f706f73616c206c656e67746040820152600d60fb1b606082015260800190565b60006020825282546020830152610120806040840152613dc7610140840160018601613bc6565b60028501546060850152601f1980858303016080860152613deb8260038801613ad8565b9150808583030160a0860152613e048260048801613bc6565b9150808583030160c086015250613e1e8160058701613bc6565b9050600685015460e0850152613e3e60078601546001600160a01b031690565b6001600160a01b0316610100850152600894909401549201919091525090565b60006101208b8352602060018060a01b038c1681850152816040850152613e878285018c613a42565b91508382036060850152613e9b828b613b6b565b848103608086015289518082529092508183019082810284018301838c01865b83811015613ee957601f19878403018552613ed7838351613b9a565b94860194925090850190600101613ebb565b505086810360a0880152613efd818c613a85565b945050505050613f1860c08401876001600160401b03169052565b6001600160401b03851660e0840152828103610100840152613f3a8185613b9a565b9c9b505050505050505050505050565b60006101008a8352806020840152613f648184018b613b9a565b90508860408401528281036060840152613f7e8189613b9a565b90508281036080840152613f928188613b9a565b60a084019690965250506001600160a01b039290921660c083015260e09091015295945050505050565b600085825260ff85166020830152836040830152608060608301526111646080830184613b9a565b604051601f8201601f191681016001600160401b038111828210171561400c5761400c61416c565b604052919050565b60006001600160401b0382111561402d5761402d61416c565b5060209081020190565b6000821982111561404a5761404a614156565b500190565b60006001600160401b0380831681851680830382111561407157614071614156565b01949350505050565b60008261409557634e487b7160e01b81526012600452602481fd5b500490565b60008160001904831182151516156140b4576140b4614156565b500290565b6000828210156140cb576140cb614156565b500390565b60005b838110156140eb5781810151838201526020016140d3565b838111156140fa576000848401525b50505050565b60028104600182168061411457607f821691505b6020821081141561413557634e487b7160e01b600052602260045260246000fd5b50919050565b600060001982141561414f5761414f614156565b5060010190565b634e487b7160e01b600052601160045260246000fd5b634e487b7160e01b600052604160045260246000fd5b6001600160a01b0381168114610bb357600080fdfe476f7665726e6f723a2063616c6c20726576657274656420776974686f7574206d657373616765416464726573733a206c6f772d6c6576656c2063616c6c20776974682076616c7565206661696c6564a2646970667358221220599c1b1e7c9e182d8c0c14d1e84c7d154c13ddce4b383fe9e62120155338b90564736f6c63430008020033",
  "linkReferences": {},
  "deployedLinkReferences": {}
}