{
  "_format": "hh-sol-artifact-1",
  "contractName": "PrizeDAOGovernor",
  "sourceName": "contracts/PrizeDAOGovernor.sol",
  "abi": [
    {
      "inputs": [
        {
          "internalType": "contract ERC20Votes",
          "name": "_token",
          "type": "address"
        },
        {
          "internalType": "string",
          "name": "_name",
          "type": "string"
        },
        {
          "internalType": "address",
          "name": "_tokenToAccept",
          "type": "address"
        }
      ],
      "stateMutability": "nonpayable",
      "type": "constructor"
    },
    {
      "anonymous": false,
      "inputs": [
        {
          "indexed": false,
          "internalType": "uint256",
          "name": "currentProposalID",
          "type": "uint256"
        }
      ],
      "name": "CurrentProposalID",
      "type": "event"
    },
    {
      "anonymous": false,
      "inputs": [
        {
          "indexed": false,
          "internalType": "uint256",
          "name": "HackathonId",
          "type": "uint256"
        }
      ],
      "name": "HackathonCreated",
      "type": "event"
    },
    {
      "anonymous": false,
      "inputs": [
        {
          "components": [
            {
              "internalType": "uint256",
              "name": "hackathonId",
              "type": "uint256"
            },
            {
              "internalType": "string",
              "name": "name",
              "type": "string"
            },
            {
              "internalType": "uint256",
              "name": "prizeMoney",
              "type": "uint256"
            },
            {
              "components": [
                {
                  "internalType": "uint256",
                  "name": "hackerId",
                  "type": "uint256"
                },
                {
                  "internalType": "address",
                  "name": "hackerAdd",
                  "type": "address"
                },
                {
                  "internalType": "string",
                  "name": "name",
                  "type": "string"
                },
                {
                  "internalType": "string",
                  "name": "ipfsHash",
                  "type": "string"
                },
                {
                  "internalType": "uint256",
                  "name": "votesGot",
                  "type": "uint256"
                }
              ],
              "internalType": "struct GovernorCountingSimpleSelf.Hacker[]",
              "name": "hackers",
              "type": "tuple[]"
            },
            {
              "internalType": "string",
              "name": "startDate",
              "type": "string"
            },
            {
              "internalType": "string",
              "name": "endDate",
              "type": "string"
            },
            {
              "internalType": "uint256",
              "name": "proposalId",
              "type": "uint256"
            }
          ],
          "indexed": false,
          "internalType": "struct GovernorCountingSimpleSelf.Hackathon",
          "name": "hackathon",
          "type": "tuple"
        }
      ],
      "name": "HackathonEvent",
      "type": "event"
    },
    {
      "anonymous": false,
      "inputs": [
        {
          "indexed": false,
          "internalType": "string",
          "name": "hackerIpfsSubmission",
          "type": "string"
        }
      ],
      "name": "HackerIpfsSubmission",
      "type": "event"
    },
    {
      "anonymous": false,
      "inputs": [
        {
          "indexed": false,
          "internalType": "uint256",
          "name": "HackerId",
          "type": "uint256"
        }
      ],
      "name": "HackerRegisted",
      "type": "event"
    },
    {
      "anonymous": false,
      "inputs": [
        {
          "indexed": false,
          "internalType": "uint256",
          "name": "proposalId",
          "type": "uint256"
        }
      ],
      "name": "ProposalCanceled",
      "type": "event"
    },
    {
      "anonymous": false,
      "inputs": [
        {
          "indexed": false,
          "internalType": "uint256",
          "name": "proposalId",
          "type": "uint256"
        },
        {
          "indexed": false,
          "internalType": "address",
          "name": "proposer",
          "type": "address"
        },
        {
          "indexed": false,
          "internalType": "address[]",
          "name": "targets",
          "type": "address[]"
        },
        {
          "indexed": false,
          "internalType": "uint256[]",
          "name": "values",
          "type": "uint256[]"
        },
        {
          "indexed": false,
          "internalType": "string[]",
          "name": "signatures",
          "type": "string[]"
        },
        {
          "indexed": false,
          "internalType": "bytes[]",
          "name": "calldatas",
          "type": "bytes[]"
        },
        {
          "indexed": false,
          "internalType": "uint256",
          "name": "startBlock",
          "type": "uint256"
        },
        {
          "indexed": false,
          "internalType": "uint256",
          "name": "endBlock",
          "type": "uint256"
        },
        {
          "indexed": false,
          "internalType": "string",
          "name": "description",
          "type": "string"
        }
      ],
      "name": "ProposalCreated",
      "type": "event"
    },
    {
      "anonymous": false,
      "inputs": [
        {
          "indexed": false,
          "internalType": "uint256",
          "name": "proposalId",
          "type": "uint256"
        }
      ],
      "name": "ProposalExecuted",
      "type": "event"
    },
    {
      "anonymous": false,
      "inputs": [
        {
          "indexed": false,
          "internalType": "uint256",
          "name": "oldProposalThreshold",
          "type": "uint256"
        },
        {
          "indexed": false,
          "internalType": "uint256",
          "name": "newProposalThreshold",
          "type": "uint256"
        }
      ],
      "name": "ProposalThresholdSet",
      "type": "event"
    },
    {
      "anonymous": false,
      "inputs": [
        {
          "indexed": false,
          "internalType": "uint256",
          "name": "oldQuorumNumerator",
          "type": "uint256"
        },
        {
          "indexed": false,
          "internalType": "uint256",
          "name": "newQuorumNumerator",
          "type": "uint256"
        }
      ],
      "name": "QuorumNumeratorUpdated",
      "type": "event"
    },
    {
      "anonymous": false,
      "inputs": [
        {
          "indexed": false,
          "internalType": "uint256",
          "name": "HackerId",
          "type": "uint256"
        }
      ],
      "name": "SubmissionDone",
      "type": "event"
    },
    {
      "anonymous": false,
      "inputs": [
        {
          "indexed": true,
          "internalType": "address",
          "name": "voter",
          "type": "address"
        },
        {
          "indexed": false,
          "internalType": "uint256",
          "name": "proposalId",
          "type": "uint256"
        },
        {
          "indexed": false,
          "internalType": "uint8",
          "name": "support",
          "type": "uint8"
        },
        {
          "indexed": false,
          "internalType": "uint256",
          "name": "weight",
          "type": "uint256"
        },
        {
          "indexed": false,
          "internalType": "string",
          "name": "reason",
          "type": "string"
        }
      ],
      "name": "VoteCast",
      "type": "event"
    },
    {
      "anonymous": false,
      "inputs": [
        {
          "indexed": false,
          "internalType": "uint256",
          "name": "oldVotingDelay",
          "type": "uint256"
        },
        {
          "indexed": false,
          "internalType": "uint256",
          "name": "newVotingDelay",
          "type": "uint256"
        }
      ],
      "name": "VotingDelaySet",
      "type": "event"
    },
    {
      "anonymous": false,
      "inputs": [
        {
          "indexed": false,
          "internalType": "uint256",
          "name": "oldVotingPeriod",
          "type": "uint256"
        },
        {
          "indexed": false,
          "internalType": "uint256",
          "name": "newVotingPeriod",
          "type": "uint256"
        }
      ],
      "name": "VotingPeriodSet",
      "type": "event"
    },
    {
      "inputs": [],
      "name": "BALLOT_TYPEHASH",
      "outputs": [
        {
          "internalType": "bytes32",
          "name": "",
          "type": "bytes32"
        }
      ],
      "stateMutability": "view",
      "type": "function"
    },
    {
      "inputs": [],
      "name": "COUNTING_MODE",
      "outputs": [
        {
          "internalType": "string",
          "name": "",
          "type": "string"
        }
      ],
      "stateMutability": "pure",
      "type": "function"
    },
    {
      "inputs": [
        {
          "internalType": "uint256",
          "name": "",
          "type": "uint256"
        }
      ],
      "name": "ProposalIdToHackathonId",
      "outputs": [
        {
          "internalType": "uint256",
          "name": "",
          "type": "uint256"
        }
      ],
      "stateMutability": "view",
      "type": "function"
    },
    {
      "inputs": [
        {
          "internalType": "string",
          "name": "",
          "type": "string"
        }
      ],
      "name": "acceptedProposal",
      "outputs": [
        {
          "internalType": "address",
          "name": "",
          "type": "address"
        }
      ],
      "stateMutability": "view",
      "type": "function"
    },
    {
      "inputs": [
        {
          "internalType": "uint256",
          "name": "_amount",
          "type": "uint256"
        }
      ],
      "name": "addMember",
      "outputs": [],
      "stateMutability": "nonpayable",
      "type": "function"
    },
    {
      "inputs": [
        {
          "internalType": "string",
          "name": "_name",
          "type": "string"
        },
        {
          "internalType": "string",
          "name": "_startDate",
          "type": "string"
        },
        {
          "internalType": "string",
          "name": "_endDate",
          "type": "string"
        },
        {
          "internalType": "uint256",
          "name": "_prizeMoney",
          "type": "uint256"
        }
      ],
      "name": "add_hackathon",
      "outputs": [
        {
          "internalType": "uint256",
          "name": "",
          "type": "uint256"
        }
      ],
      "stateMutability": "nonpayable",
      "type": "function"
    },
    {
      "inputs": [
        {
          "internalType": "uint256",
          "name": "_hackerId",
          "type": "uint256"
        },
        {
          "internalType": "string",
          "name": "_ipfsHash",
          "type": "string"
        },
        {
          "internalType": "uint256",
          "name": "_hackathonId",
          "type": "uint256"
        }
      ],
      "name": "add_submission",
      "outputs": [],
      "stateMutability": "nonpayable",
      "type": "function"
    },
    {
      "inputs": [
        {
          "internalType": "uint256",
          "name": "proposalId",
          "type": "uint256"
        },
        {
          "internalType": "uint8",
          "name": "support",
          "type": "uint8"
        }
      ],
      "name": "castVote",
      "outputs": [
        {
          "internalType": "uint256",
          "name": "",
          "type": "uint256"
        }
      ],
      "stateMutability": "nonpayable",
      "type": "function"
    },
    {
      "inputs": [
        {
          "internalType": "uint256",
          "name": "proposalId",
          "type": "uint256"
        },
        {
          "internalType": "uint8",
          "name": "support",
          "type": "uint8"
        },
        {
          "internalType": "uint8",
          "name": "v",
          "type": "uint8"
        },
        {
          "internalType": "bytes32",
          "name": "r",
          "type": "bytes32"
        },
        {
          "internalType": "bytes32",
          "name": "s",
          "type": "bytes32"
        }
      ],
      "name": "castVoteBySig",
      "outputs": [
        {
          "internalType": "uint256",
          "name": "",
          "type": "uint256"
        }
      ],
      "stateMutability": "nonpayable",
      "type": "function"
    },
    {
      "inputs": [
        {
          "internalType": "uint256",
          "name": "proposalId",
          "type": "uint256"
        },
        {
          "internalType": "uint8",
          "name": "support",
          "type": "uint8"
        },
        {
          "internalType": "string",
          "name": "reason",
          "type": "string"
        }
      ],
      "name": "castVoteWithReason",
      "outputs": [
        {
          "internalType": "uint256",
          "name": "",
          "type": "uint256"
        }
      ],
      "stateMutability": "nonpayable",
      "type": "function"
    },
    {
      "inputs": [
        {
          "internalType": "address[]",
          "name": "targets",
          "type": "address[]"
        },
        {
          "internalType": "uint256[]",
          "name": "values",
          "type": "uint256[]"
        },
        {
          "internalType": "bytes[]",
          "name": "calldatas",
          "type": "bytes[]"
        },
        {
          "internalType": "string",
          "name": "description",
          "type": "string"
        },
        {
          "internalType": "uint256",
          "name": "hackathonId",
          "type": "uint256"
        }
      ],
      "name": "createProposal",
      "outputs": [
        {
          "internalType": "uint256",
          "name": "",
          "type": "uint256"
        }
      ],
      "stateMutability": "nonpayable",
      "type": "function"
    },
    {
      "inputs": [
        {
          "internalType": "uint256",
          "name": "_amount",
          "type": "uint256"
        },
        {
          "internalType": "address",
          "name": "_user",
          "type": "address"
        }
      ],
      "name": "disburseIncentive",
      "outputs": [],
      "stateMutability": "nonpayable",
      "type": "function"
    },
    {
      "inputs": [
        {
          "internalType": "address[]",
          "name": "targets",
          "type": "address[]"
        },
        {
          "internalType": "uint256[]",
          "name": "values",
          "type": "uint256[]"
        },
        {
          "internalType": "bytes[]",
          "name": "calldatas",
          "type": "bytes[]"
        },
        {
          "internalType": "bytes32",
          "name": "descriptionHash",
          "type": "bytes32"
        }
      ],
      "name": "execute",
      "outputs": [
        {
          "internalType": "uint256",
          "name": "",
          "type": "uint256"
        }
      ],
      "stateMutability": "payable",
      "type": "function"
    },
    {
      "inputs": [
        {
          "internalType": "uint256",
          "name": "_proposalId",
          "type": "uint256"
        },
        {
          "internalType": "uint256",
          "name": "_hackerId",
          "type": "uint256"
        }
      ],
      "name": "getHackerSubmission",
      "outputs": [
        {
          "internalType": "string",
          "name": "",
          "type": "string"
        }
      ],
      "stateMutability": "nonpayable",
      "type": "function"
    },
    {
      "inputs": [
        {
          "internalType": "uint256",
          "name": "_hackathonId",
          "type": "uint256"
        }
      ],
      "name": "getProposalId",
      "outputs": [
        {
          "internalType": "uint256",
          "name": "",
          "type": "uint256"
        }
      ],
      "stateMutability": "nonpayable",
      "type": "function"
    },
    {
      "inputs": [
        {
          "internalType": "address",
          "name": "account",
          "type": "address"
        },
        {
          "internalType": "uint256",
          "name": "blockNumber",
          "type": "uint256"
        }
      ],
      "name": "getVotes",
      "outputs": [
        {
          "internalType": "uint256",
          "name": "",
          "type": "uint256"
        }
      ],
      "stateMutability": "view",
      "type": "function"
    },
    {
      "inputs": [],
      "name": "hackathonId",
      "outputs": [
        {
          "internalType": "uint256",
          "name": "_value",
          "type": "uint256"
        }
      ],
      "stateMutability": "view",
      "type": "function"
    },
    {
      "inputs": [
        {
          "internalType": "uint256",
          "name": "",
          "type": "uint256"
        }
      ],
      "name": "hackathonIdToHackathon",
      "outputs": [
        {
          "internalType": "uint256",
          "name": "hackathonId",
          "type": "uint256"
        },
        {
          "internalType": "string",
          "name": "name",
          "type": "string"
        },
        {
          "internalType": "uint256",
          "name": "prizeMoney",
          "type": "uint256"
        },
        {
          "internalType": "string",
          "name": "startDate",
          "type": "string"
        },
        {
          "internalType": "string",
          "name": "endDate",
          "type": "string"
        },
        {
          "internalType": "uint256",
          "name": "proposalId",
          "type": "uint256"
        }
      ],
      "stateMutability": "view",
      "type": "function"
    },
    {
      "inputs": [],
      "name": "hackerId",
      "outputs": [
        {
          "internalType": "uint256",
          "name": "_value",
          "type": "uint256"
        }
      ],
      "stateMutability": "view",
      "type": "function"
    },
    {
      "inputs": [
        {
          "internalType": "uint256",
          "name": "",
          "type": "uint256"
        }
      ],
      "name": "hackerIdToHackathon",
      "outputs": [
        {
          "internalType": "uint256",
          "name": "hackathonId",
          "type": "uint256"
        },
        {
          "internalType": "string",
          "name": "name",
          "type": "string"
        },
        {
          "internalType": "uint256",
          "name": "prizeMoney",
          "type": "uint256"
        },
        {
          "internalType": "string",
          "name": "startDate",
          "type": "string"
        },
        {
          "internalType": "string",
          "name": "endDate",
          "type": "string"
        },
        {
          "internalType": "uint256",
          "name": "proposalId",
          "type": "uint256"
        }
      ],
      "stateMutability": "view",
      "type": "function"
    },
    {
      "inputs": [
        {
          "internalType": "uint256",
          "name": "_hackathonId",
          "type": "uint256"
        }
      ],
      "name": "hasHackerRegistedForHackathon",
      "outputs": [
        {
          "internalType": "bool",
          "name": "",
          "type": "bool"
        }
      ],
      "stateMutability": "view",
      "type": "function"
    },
    {
      "inputs": [
        {
          "internalType": "uint256",
          "name": "proposalId",
          "type": "uint256"
        },
        {
          "internalType": "address",
          "name": "account",
          "type": "address"
        }
      ],
      "name": "hasVoted",
      "outputs": [
        {
          "internalType": "bool",
          "name": "",
          "type": "bool"
        }
      ],
      "stateMutability": "view",
      "type": "function"
    },
    {
      "inputs": [
        {
          "internalType": "address[]",
          "name": "targets",
          "type": "address[]"
        },
        {
          "internalType": "uint256[]",
          "name": "values",
          "type": "uint256[]"
        },
        {
          "internalType": "bytes[]",
          "name": "calldatas",
          "type": "bytes[]"
        },
        {
          "internalType": "bytes32",
          "name": "descriptionHash",
          "type": "bytes32"
        }
      ],
      "name": "hashProposal",
      "outputs": [
        {
          "internalType": "uint256",
          "name": "",
          "type": "uint256"
        }
      ],
      "stateMutability": "pure",
      "type": "function"
    },
    {
      "inputs": [],
      "name": "name",
      "outputs": [
        {
          "internalType": "string",
          "name": "",
          "type": "string"
        }
      ],
      "stateMutability": "view",
      "type": "function"
    },
    {
      "inputs": [
        {
          "internalType": "uint256",
          "name": "proposalId",
          "type": "uint256"
        }
      ],
      "name": "proposalDeadline",
      "outputs": [
        {
          "internalType": "uint256",
          "name": "",
          "type": "uint256"
        }
      ],
      "stateMutability": "view",
      "type": "function"
    },
    {
      "inputs": [
        {
          "internalType": "uint256",
          "name": "proposalId",
          "type": "uint256"
        }
      ],
      "name": "proposalSnapshot",
      "outputs": [
        {
          "internalType": "uint256",
          "name": "",
          "type": "uint256"
        }
      ],
      "stateMutability": "view",
      "type": "function"
    },
    {
      "inputs": [],
      "name": "proposalThreshold",
      "outputs": [
        {
          "internalType": "uint256",
          "name": "",
          "type": "uint256"
        }
      ],
      "stateMutability": "view",
      "type": "function"
    },
    {
      "inputs": [
        {
          "internalType": "address[]",
          "name": "targets",
          "type": "address[]"
        },
        {
          "internalType": "uint256[]",
          "name": "values",
          "type": "uint256[]"
        },
        {
          "internalType": "bytes[]",
          "name": "calldatas",
          "type": "bytes[]"
        },
        {
          "internalType": "string",
          "name": "description",
          "type": "string"
        }
      ],
      "name": "propose",
      "outputs": [
        {
          "internalType": "uint256",
          "name": "",
          "type": "uint256"
        }
      ],
      "stateMutability": "nonpayable",
      "type": "function"
    },
    {
      "inputs": [
        {
          "internalType": "uint256",
          "name": "blockNumber",
          "type": "uint256"
        }
      ],
      "name": "quorum",
      "outputs": [
        {
          "internalType": "uint256",
          "name": "",
          "type": "uint256"
        }
      ],
      "stateMutability": "view",
      "type": "function"
    },
    {
      "inputs": [],
      "name": "quorumDenominator",
      "outputs": [
        {
          "internalType": "uint256",
          "name": "",
          "type": "uint256"
        }
      ],
      "stateMutability": "view",
      "type": "function"
    },
    {
      "inputs": [],
      "name": "quorumNumerator",
      "outputs": [
        {
          "internalType": "uint256",
          "name": "",
          "type": "uint256"
        }
      ],
      "stateMutability": "view",
      "type": "function"
    },
    {
      "inputs": [],
      "name": "receiveEthForTransactions",
      "outputs": [],
      "stateMutability": "payable",
      "type": "function"
    },
    {
      "inputs": [
        {
          "internalType": "string",
          "name": "_name",
          "type": "string"
        },
        {
          "internalType": "uint256",
          "name": "_hackathonId",
          "type": "uint256"
        }
      ],
      "name": "register_hacker",
      "outputs": [
        {
          "internalType": "uint256",
          "name": "",
          "type": "uint256"
        }
      ],
      "stateMutability": "nonpayable",
      "type": "function"
    },
    {
      "inputs": [
        {
          "internalType": "address",
          "name": "target",
          "type": "address"
        },
        {
          "internalType": "uint256",
          "name": "value",
          "type": "uint256"
        },
        {
          "internalType": "bytes",
          "name": "data",
          "type": "bytes"
        }
      ],
      "name": "relay",
      "outputs": [],
      "stateMutability": "nonpayable",
      "type": "function"
    },
    {
      "inputs": [
        {
          "internalType": "uint256",
          "name": "newProposalThreshold",
          "type": "uint256"
        }
      ],
      "name": "setProposalThreshold",
      "outputs": [],
      "stateMutability": "nonpayable",
      "type": "function"
    },
    {
      "inputs": [
        {
          "internalType": "uint256",
          "name": "newVotingDelay",
          "type": "uint256"
        }
      ],
      "name": "setVotingDelay",
      "outputs": [],
      "stateMutability": "nonpayable",
      "type": "function"
    },
    {
      "inputs": [
        {
          "internalType": "uint256",
          "name": "newVotingPeriod",
          "type": "uint256"
        }
      ],
      "name": "setVotingPeriod",
      "outputs": [],
      "stateMutability": "nonpayable",
      "type": "function"
    },
    {
      "inputs": [
        {
          "internalType": "uint256",
          "name": "_hackathonId",
          "type": "uint256"
        }
      ],
      "name": "setWinnerAddress",
      "outputs": [],
      "stateMutability": "nonpayable",
      "type": "function"
    },
    {
      "inputs": [
        {
          "internalType": "uint256",
          "name": "proposalId",
          "type": "uint256"
        }
      ],
      "name": "state",
      "outputs": [
        {
          "internalType": "enum IGovernor.ProposalState",
          "name": "",
          "type": "uint8"
        }
      ],
      "stateMutability": "view",
      "type": "function"
    },
    {
      "inputs": [
        {
          "internalType": "bytes4",
          "name": "interfaceId",
          "type": "bytes4"
        }
      ],
      "name": "supportsInterface",
      "outputs": [
        {
          "internalType": "bool",
          "name": "",
          "type": "bool"
        }
      ],
      "stateMutability": "view",
      "type": "function"
    },
    {
      "inputs": [],
      "name": "token",
      "outputs": [
        {
          "internalType": "contract IVotes",
          "name": "",
          "type": "address"
        }
      ],
      "stateMutability": "view",
      "type": "function"
    },
    {
      "inputs": [
        {
          "internalType": "uint256",
          "name": "newQuorumNumerator",
          "type": "uint256"
        }
      ],
      "name": "updateQuorumNumerator",
      "outputs": [],
      "stateMutability": "nonpayable",
      "type": "function"
    },
    {
      "inputs": [],
      "name": "version",
      "outputs": [
        {
          "internalType": "string",
          "name": "",
          "type": "string"
        }
      ],
      "stateMutability": "view",
      "type": "function"
    },
    {
      "inputs": [],
      "name": "votingDelay",
      "outputs": [
        {
          "internalType": "uint256",
          "name": "",
          "type": "uint256"
        }
      ],
      "stateMutability": "view",
      "type": "function"
    },
    {
      "inputs": [],
      "name": "votingPeriod",
      "outputs": [
        {
          "internalType": "uint256",
          "name": "",
          "type": "uint256"
        }
      ],
      "stateMutability": "view",
      "type": "function"
    },
    {
      "stateMutability": "payable",
      "type": "receive"
    }
  ],
  "bytecode": "0x610160604052601080546001600160a01b03191690553480156200002257600080fd5b506040516200421e3803806200421e83398101604081905262000045916200043d565b600483600060018186806200006e6040805180820190915260018152603160f81b602082015290565b815160208084019190912082518383012060e08290526101008190524660a0818152604080517f8b73c3c69bb8fe3d512ecc4cf759cc79239f7b179b0ffacaa9a75d522b39400f81880181905281830187905260608201869052608082019490945230818401528151808203909301835260c00190528051940193909320919290916080523060601b60c052610120525050825162000117925060009150602084019062000385565b506200012590508362000192565b6200013082620001d3565b6200013b816200027a565b50505060601b6001600160601b031916610140526200015a81620002bb565b50600d80546001600160a01b039283166001600160a01b031991821617909155600e80549490921693169290921790915550620005aa565b60025460408051918252602082018390527fc565b045403dc03c2eea82b81a0465edad9e2e7fc4d97e11421c209da93d7a93910160405180910390a1600255565b60008111620002395760405162461bcd60e51b815260206004820152602760248201527f476f7665726e6f7253657474696e67733a20766f74696e6720706572696f6420604482015266746f6f206c6f7760c81b60648201526084015b60405180910390fd5b60035460408051918252602082018390527f7e3f7f0708a84de9203036abaa450dccc85ad5ff52f78c170f3edb55cf5e8828910160405180910390a1600355565b60045460408051918252602082018390527fccb45da8d5717e6c4544694297c4ba5cf151d455c9bb0ed4fc7a38411bc05461910160405180910390a1600455565b6064811115620003405760405162461bcd60e51b815260206004820152604360248201527f476f7665726e6f72566f74657351756f72756d4672616374696f6e3a2071756f60448201527f72756d4e756d657261746f72206f7665722071756f72756d44656e6f6d696e616064820152623a37b960e91b608482015260a40162000230565b600c80549082905560408051828152602081018490527f0553476bf02ef2726e8ce5ced78d63e26e602e4a2257b1f559418e24b4633997910160405180910390a15050565b82805462000393906200053e565b90600052602060002090601f016020900481019282620003b7576000855562000402565b82601f10620003d257805160ff191683800117855562000402565b8280016001018555821562000402579182015b8281111562000402578251825591602001919060010190620003e5565b506200041092915062000414565b5090565b5b8082111562000410576000815560010162000415565b8051620004388162000591565b919050565b60008060006060848603121562000452578283fd5b83516200045f8162000591565b602085810151919450906001600160401b03808211156200047e578485fd5b818701915087601f83011262000492578485fd5b815181811115620004a757620004a76200057b565b604051601f8201601f19908116603f01168101908382118183101715620004d257620004d26200057b565b816040528281528a86848701011115620004ea578788fd5b8793505b828410156200050d5784840186015181850187015292850192620004ee565b828411156200051e57878684830101525b80975050505050505062000535604085016200042b565b90509250925092565b6002810460018216806200055357607f821691505b602082108114156200057557634e487b7160e01b600052602260045260246000fd5b50919050565b634e487b7160e01b600052604160045260246000fd5b6001600160a01b0381168114620005a757600080fd5b50565b60805160a05160c05160601c60e05161010051610120516101405160601c613c0562000619600039600081816108bc015281816123f701526124d10152600061262c0152600061267b01526000612656015260006125ad015260006125d7015260006126010152613c056000f3fe6080604052600436106102755760003560e01c80637b3c71d31161014f578063c28bc2fa116100c1578063e6c0f7fe1161007a578063e6c0f7fe14610822578063ea0217cf1461082a578063eb9019d41461084a578063ece40cc11461086a578063f8ce560a1461088a578063fc0c546a146108aa57610298565b8063c28bc2fa14610731578063c59057e414610751578063cd2c2bd214610771578063dd4e2ba514610788578063deaaa7cc146107ce578063e0b4887c1461080257610298565b80639605270a116101135780639605270a1461069357806397c3d334146106b3578063a7713a70146106c7578063a90bd409146106dc578063b58131b0146106fc578063c01f9e371461071157610298565b80637b3c71d3146105f35780637c11914d146106135780637c95ac27146106335780637d5e81e21461065357806391dda66e1461067357610298565b80633bccf4fd116101e857806354fd4d50116101ac57806354fd4d501461051c57806356781388146105465780636cd4dad9146105665780636cef51ce1461058657806370b0f660146105a657806378270cad146105c657610298565b80633bccf4fd1461044e5780633d36d6481461046e5780633e4f49e61461048e5780634200a80b146104bb57806343859632146104d257610298565b80630c47bd451161023a5780630c47bd451461036d5780631089f5ed1461038d57806324de2ef6146103ad5780632656227d146104065780632d63f693146104195780633932abb11461043957610298565b8062d647e11461029d57806301ffc9a7146102d857806302a251a31461030857806306f3f9e61461032b57806306fdde031461034b57610298565b3661029857306102836108de565b6001600160a01b03161461029657600080fd5b005b600080fd5b3480156102a957600080fd5b506102bd6102b8366004613318565b6108e3565b6040516102cf96959493929190613960565b60405180910390f35b3480156102e457600080fd5b506102f86102f3366004613202565b610ab0565b60405190151581526020016102cf565b34801561031457600080fd5b5061031d610ae9565b6040519081526020016102cf565b34801561033757600080fd5b50610296610346366004613318565b610af9565b34801561035757600080fd5b50610360610b46565b6040516102cf91906137b4565b34801561037957600080fd5b506102bd610388366004613318565b610bd8565b34801561039957600080fd5b506102966103a8366004613318565b610bfa565b3480156103b957600080fd5b506103ee6103c836600461322a565b8051602081830181018051600f825292820191909301209152546001600160a01b031681565b6040516001600160a01b0390911681526020016102cf565b61031d610414366004613001565b610db3565b34801561042557600080fd5b5061031d610434366004613318565b610edc565b34801561044557600080fd5b5061031d610f13565b34801561045a57600080fd5b5061031d610469366004613442565b610f1e565b34801561047a57600080fd5b50610296610489366004613318565b610fb2565b34801561049a57600080fd5b506104ae6104a9366004613318565b610fee565b6040516102cf919061378c565b3480156104c757600080fd5b5060065461031d9081565b3480156104de57600080fd5b506102f86104ed366004613348565b6000828152600b602090815260408083206001600160a01b038516845260010190915290205460ff1692915050565b34801561052857600080fd5b506040805180820190915260018152603160f81b6020820152610360565b34801561055257600080fd5b5061031d6105613660046133e1565b6110c7565b34801561057257600080fd5b5061031d610581366004613133565b6110f0565b34801561059257600080fd5b506103606105a13660046133c0565b611130565b3480156105b257600080fd5b506102966105c1366004613318565b611143565b3480156105d257600080fd5b5061031d6105e1366004613318565b60096020526000908152604090205481565b3480156105ff57600080fd5b5061031d61060e366004613403565b611184565b34801561061f57600080fd5b5061031d61062e36600461325c565b6111cc565b34801561063f57600080fd5b5061031d61064e366004613318565b611294565b34801561065f57600080fd5b5061031d61066e36600461308c565b61129f565b34801561067f57600080fd5b5061031d61068e3660046132d6565b611588565b34801561069f57600080fd5b506102966106ae366004613373565b6116ff565b3480156106bf57600080fd5b50606461031d565b3480156106d357600080fd5b50600c5461031d565b3480156106e857600080fd5b506102966106f7366004613348565b61185e565b34801561070857600080fd5b5061031d61192d565b34801561071d57600080fd5b5061031d61072c366004613318565b611938565b34801561073d57600080fd5b5061029661074c366004612faa565b611967565b34801561075d57600080fd5b5061031d61076c366004613001565b6119e1565b34801561077d57600080fd5b5060055461031d9081565b34801561079457600080fd5b506040805180820190915260208082527f737570706f72743d627261766f2671756f72756d3d666f722c6162737461696e90820152610360565b3480156107da57600080fd5b5061031d7f150214d74d59b7d1e90c73fc22ef3d991dd0a76b046543d4d80ab92d2a50328f81565b34801561080e57600080fd5b506102f861081d366004613318565b611a1b565b610296611aad565b34801561083657600080fd5b50610296610845366004613318565b611b36565b34801561085657600080fd5b5061031d610865366004612f81565b611b77565b34801561087657600080fd5b50610296610885366004613318565b611b83565b34801561089657600080fd5b5061031d6108a5366004613318565b611bc4565b3480156108b657600080fd5b506103ee7f000000000000000000000000000000000000000000000000000000000000000081565b305b90565b6007602052600090815260409020805460018201805491929161090590613afd565b80601f016020809104026020016040519081016040528092919081815260200182805461093190613afd565b801561097e5780601f106109535761010080835404028352916020019161097e565b820191906000526020600020905b81548152906001019060200180831161096157829003601f168201915b50505050509080600201549080600401805461099990613afd565b80601f01602080910402602001604051908101604052809291908181526020018280546109c590613afd565b8015610a125780601f106109e757610100808354040283529160200191610a12565b820191906000526020600020905b8154815290600101906020018083116109f557829003601f168201915b505050505090806005018054610a2790613afd565b80601f0160208091040260200160405190810160405280929190818152602001828054610a5390613afd565b8015610aa05780601f10610a7557610100808354040283529160200191610aa0565b820191906000526020600020905b815481529060010190602001808311610a8357829003601f168201915b5050505050908060060154905086565b60006001600160e01b0319821663bf26d89760e01b1480610ae157506301ffc9a760e01b6001600160e01b03198316145b90505b919050565b6000610af460035490565b905090565b610b016108de565b6001600160a01b0316336001600160a01b031614610b3a5760405162461bcd60e51b8152600401610b31906137e9565b60405180910390fd5b610b4381611bcf565b50565b606060008054610b5590613afd565b80601f0160208091040260200160405190810160405280929190818152602001828054610b8190613afd565b8015610bce5780601f10610ba357610100808354040283529160200191610bce565b820191906000526020600020905b815481529060010190602001808311610bb157829003601f168201915b5050505050905090565b6008602052600090815260409020805460018201805491929161090590613afd565b600d54604051636eb1769f60e11b815233600482015230602482015282916001600160a01b03169063dd62ed3e9060440160206040518083038186803b158015610c4357600080fd5b505afa158015610c57573d6000803e3d6000fd5b505050506040513d601f19601f82011682018060405250810190610c7b9190613330565b1015610cc15760405162461bcd60e51b815260206004820152601560248201527411105248185b1b1bddd85b98d9481b9bdd081cd95d605a1b6044820152606401610b31565b600d546040516323b872dd60e01b8152336004820152306024820152604481018390526001600160a01b03909116906323b872dd90606401602060405180830381600087803b158015610d1357600080fd5b505af1158015610d27573d6000803e3d6000fd5b505050506040513d601f19601f82011682018060405250810190610d4b91906131e2565b50600e546040516340c10f1960e01b8152336004820152602481018390526001600160a01b03909116906340c10f1990604401600060405180830381600087803b158015610d9857600080fd5b505af1158015610dac573d6000803e3d6000fd5b5050505050565b600080610dc2868686866119e1565b90506000610dcf82610fee565b90506004816007811115610df357634e487b7160e01b600052602160045260246000fd5b1480610e1e57506005816007811115610e1c57634e487b7160e01b600052602160045260246000fd5b145b610e745760405162461bcd60e51b815260206004820152602160248201527f476f7665726e6f723a2070726f706f73616c206e6f74207375636365737366756044820152601b60fa1b6064820152608401610b31565b600082815260016020818152604092839020600201805460ff191690921790915590518381527f712ae1383f79ac853f8d882153778e0260ef8f03b504e2866e0593e04d2b291f910160405180910390a1610ed28288888888611c97565b5095945050505050565b60008181526001602090815260408083208151928301909152546001600160401b0316908190525b6001600160401b031692915050565b6000610af460025490565b604080517f150214d74d59b7d1e90c73fc22ef3d991dd0a76b046543d4d80ab92d2a50328f602082015290810186905260ff851660608201526000908190610f8a90610f829060800160405160208183030381529060405280519060200120611dc0565b868686611e0e565b9050610fa787828860405180602001604052806000815250611e2c565b979650505050505050565b6000610fbd82611f45565b601080546001600160a01b0319166001600160a01b039384161790819055909250610fea9183911661185e565b5050565b6000818152600160205260408120600281015460ff1615611013576007915050610ae4565b6002810154610100900460ff161561102f576002915050610ae4565b600061103a84610edc565b9050806110895760405162461bcd60e51b815260206004820152601d60248201527f476f7665726e6f723a20756e6b6e6f776e2070726f706f73616c2069640000006044820152606401610b31565b43811061109b57600092505050610ae4565b60006110a685611938565b90504381106110bb5760019350505050610ae4565b60049350505050610ae4565b6000803390506110e884828560405180602001604052806000815250611e2c565b949350505050565b6000806110ff8787878761129f565b60008181526009602090815260408083208790558683526007909152902060060181905590505b9695505050505050565b606061113c8383612046565b9392505050565b61114b6108de565b6001600160a01b0316336001600160a01b03161461117b5760405162461bcd60e51b8152600401610b31906137e9565b610b43816121c3565b60008033905061112686828787878080601f016020809104026020016040519081016040528093929190818152602001838380828437600092019190915250611e2c92505050565b60006111dc600580546001019055565b6000600760006111eb60055490565b8152602001908152602001600020905061120460055490565b8155855161121b9060018301906020890190612cd6565b506002810183905584516112389060048301906020880190612cd6565b50835161124e9060058301906020870190612cd6565b507fcba4bf7a6b01547e7d8a3c5050ca5009bb70870c39a8702c8b18c226b89545c161127960055490565b60405190815260200160405180910390a15495945050505050565b6000610ae182612204565b60006112a961192d565b6112b833610865600143613ab6565b10156113385760405162461bcd60e51b815260206004820152604360248201527f476f7665726e6f72436f6d7061746962696c697479427261766f3a2070726f7060448201527f6f73657220766f7465732062656c6f772070726f706f73616c207468726573686064820152621bdb1960ea1b608482015260a401610b31565b600061134d86868686805190602001206119e1565b905084518651146113705760405162461bcd60e51b8152600401610b3190613820565b83518651146113915760405162461bcd60e51b8152600401610b3190613820565b60008651116113e25760405162461bcd60e51b815260206004820152601860248201527f476f7665726e6f723a20656d7074792070726f706f73616c00000000000000006044820152606401610b31565b600081815260016020908152604091829020825191820190925281546001600160401b031690819052156114625760405162461bcd60e51b815260206004820152602160248201527f476f7665726e6f723a2070726f706f73616c20616c72656164792065786973746044820152607360f81b6064820152608401610b31565b600061147461146f610f13565b612256565b61147d43612256565b6114879190613a4c565b9050600061149661146f610ae9565b6114a09083613a4c565b835467ffffffffffffffff19166001600160401b038416178455905060018301805467ffffffffffffffff19166001600160401b0383161790557f7d84a6263ae0d98d3329bd7b46bb4e8d6f98cd35a7adb45c274c8b7fd5ebd5e084338b8b8d516001600160401b0381111561152657634e487b7160e01b600052604160045260246000fd5b60405190808252806020026020018201604052801561155957816020015b60608152602001906001900390816115445790505b508c88888e60405161157399989796959493929190613874565b60405180910390a15091979650505050505050565b60006115c56040518060a001604052806000815260200160006001600160a01b031681526020016060815260200160608152602001600081525090565b6115d3600680546001019055565b60065481523360208083019182526040808401878152600087815260078452918220600301805460018082018355918452928490208651600590940201928355935193820180546001600160a01b0319166001600160a01b03909516949094179093559151805184939261164e926002850192910190612cd6565b506060820151805161166a916003840191602090910190612cd6565b506080820151816004015550507f52f5f480849d7ad260ceec55e9f964d8954e583a8194a893b441abb3dfd70df86116a160065490565b60405190815260200160405180910390a16000838152600760205260409081902090517f1f5cfbba4654f87ab5db55569c3f387ade93c165943d97b58cb04d11a49181ec916116ef91613861565b60405180910390a1519392505050565b61170881611a1b565b61176c5760405162461bcd60e51b815260206004820152602f60248201527f4861636b6572204e4f5420726567697374657265642120506c6561736520726560448201526e33b4b9ba32b9103cb7bab939b2b63360891b6064820152608401610b31565b6000818152600760205260408120600301905b815481101561182457848282815481106117a957634e487b7160e01b600052603260045260246000fd5b90600052602060002090600502016000015414156118125760008282815481106117e357634e487b7160e01b600052603260045260246000fd5b906000526020600020906005020190508481600301908051906020019061180b929190612cd6565b5050611824565b8061181c81613b38565b91505061177f565b506040518481527f39a3b0282f68964e1565dbe1e8656f18e757f212f480fcbc564b36aa395373649060200160405180910390a150505050565b6010546001600160a01b03166118ae5760405162461bcd60e51b8152602060048201526015602482015274141c9bdc1bdcd85b081b9bdd081858d8d95c1d1959605a1b6044820152606401610b31565b600e546001600160a01b03166340c10f19826118cb85600a613a97565b6040516001600160e01b031960e085901b1681526001600160a01b0390921660048301526024820152604401600060405180830381600087803b15801561191157600080fd5b505af1158015611925573d6000803e3d6000fd5b505050505050565b6000610af460045490565b60008181526001602081815260408084208151928301909152909101546001600160401b031690819052610f04565b61196f6108de565b6001600160a01b0316336001600160a01b03161461199f5760405162461bcd60e51b8152600401610b31906137e9565b610dac8483838080601f0160208091040260200160405190810160405280939291908181526020018383808284376000920191909152508892506122c2915050565b6000848484846040516020016119fa9493929190613741565b60408051601f19818403018152919052805160209091012095945050505050565b60008181526007602052604081206003018054829190825b81811015611aa357336001600160a01b0316838281548110611a6557634e487b7160e01b600052603260045260246000fd5b60009182526020909120600160059092020101546001600160a01b03161415611a915760019350611aa3565b80611a9b81613b38565b915050611a33565b5091949350505050565b670de0b6b3a7640000341015611b055760405162461bcd60e51b815260206004820152601860248201527f4d696e696d756d203120657468657220726571756972656400000000000000006044820152606401610b31565b611b346040518060400160405280600d81526020016c02932b1b2b4bb32b2101e9e9f1609d1b815250346122e8565b565b611b3e6108de565b6001600160a01b0316336001600160a01b031614611b6e5760405162461bcd60e51b8152600401610b31906137e9565b610b438161232d565b600061113c83836123ce565b611b8b6108de565b6001600160a01b0316336001600160a01b031614611bbb5760405162461bcd60e51b8152600401610b31906137e9565b610b4381612473565b6000610ae1826124b4565b6064811115611c525760405162461bcd60e51b815260206004820152604360248201527f476f7665726e6f72566f74657351756f72756d4672616374696f6e3a2071756f60448201527f72756d4e756d657261746f72206f7665722071756f72756d44656e6f6d696e616064820152623a37b960e91b608482015260a401610b31565b600c80549082905560408051828152602081018490527f0553476bf02ef2726e8ce5ced78d63e26e602e4a2257b1f559418e24b4633997910160405180910390a15050565b6000604051806060016040528060278152602001613b8060279139905060005b8551811015611db757600080878381518110611ce357634e487b7160e01b600052603260045260246000fd5b60200260200101516001600160a01b0316878481518110611d1457634e487b7160e01b600052603260045260246000fd5b6020026020010151878581518110611d3c57634e487b7160e01b600052603260045260246000fd5b6020026020010151604051611d519190613725565b60006040518083038185875af1925050503d8060008114611d8e576040519150601f19603f3d011682016040523d82523d6000602084013e611d93565b606091505b5091509150611da3828286612567565b50505080611db090613b38565b9050611cb7565b50505050505050565b6000610ae1611dcd6125a0565b8360405161190160f01b6020820152602281018390526042810182905260009060620160405160208183030381529060405280519060200120905092915050565b6000806000611e1f878787876126cb565b91509150610ed2816127b8565b6000848152600160208190526040822090611e4687610fee565b6007811115611e6557634e487b7160e01b600052602160045260246000fd5b14611ebe5760405162461bcd60e51b815260206004820152602360248201527f476f7665726e6f723a20766f7465206e6f742063757272656e746c792061637460448201526269766560e81b6064820152608401610b31565b604080516020810190915281546001600160401b031690819052600090611ee6908790611b77565b9050611ef4878787846129bb565b856001600160a01b03167fb8e138887d0aa13bab447e82de9d5c1777041ecd21ca36ba824ff1e6c07ddda488878488604051611f3394939291906139b9565b60405180910390a29695505050505050565b6000818152600760205260408120819060038101828060015b83548110156120265782848281548110611f8857634e487b7160e01b600052603260045260246000fd5b906000526020600020906005020160040154111561201457838181548110611fc057634e487b7160e01b600052603260045260246000fd5b9060005260206000209060050201600401549250838181548110611ff457634e487b7160e01b600052603260045260246000fd5b60009182526020909120600160059092020101546001600160a01b031691505b8061201e81613b38565b915050611f5e565b50808460020154600a6120399190613a97565b9550955050505050915091565b60008281526009602090815260408083205483526007909152812060609182919060038201905b81548111612181578582828154811061209657634e487b7160e01b600052603260045260246000fd5b906000526020600020906005020160000154141561216f578181815481106120ce57634e487b7160e01b600052603260045260246000fd5b906000526020600020906005020160030180546120ea90613afd565b80601f016020809104026020016040519081016040528092919081815260200182805461211690613afd565b80156121635780601f1061213857610100808354040283529160200191612163565b820191906000526020600020905b81548152906001019060200180831161214657829003601f168201915b50505050509350612181565b8061217981613b38565b91505061206d565b507f7829ebf771064c5d130c67617c2e72fadc405daaa8ed15cdf57dd4550d3e0e85836040516121b191906137b4565b60405180910390a15090949350505050565b60025460408051918252602082018390527fc565b045403dc03c2eea82b81a0465edad9e2e7fc4d97e11421c209da93d7a93910160405180910390a1600255565b6000818152600760205260408082206006015490517ff50a47520cf8032d96a273f0c9ba4997dbb1c6532ead0e05061e7886ba7c0010906122489083815260200190565b60405180910390a192915050565b60006001600160401b038211156122be5760405162461bcd60e51b815260206004820152602660248201527f53616665436173743a2076616c756520646f65736e27742066697420696e203660448201526534206269747360d01b6064820152608401610b31565b5090565b60606110e8848484604051806060016040528060298152602001613ba760299139612b8f565b610fea82826040516024016122fe9291906137c7565b60408051601f198184030181529190526020810180516001600160e01b03166309710a9d60e41b179052612cb5565b6000811161238d5760405162461bcd60e51b815260206004820152602760248201527f476f7665726e6f7253657474696e67733a20766f74696e6720706572696f6420604482015266746f6f206c6f7760c81b6064820152608401610b31565b60035460408051918252602082018390527f7e3f7f0708a84de9203036abaa450dccc85ad5ff52f78c170f3edb55cf5e8828910160405180910390a1600355565b604051630748d63560e31b81526001600160a01b038381166004830152602482018390526000917f000000000000000000000000000000000000000000000000000000000000000090911690633a46b1a89060440160206040518083038186803b15801561243b57600080fd5b505afa15801561244f573d6000803e3d6000fd5b505050506040513d601f19601f8201168201806040525081019061113c9190613330565b60045460408051918252602082018390527fccb45da8d5717e6c4544694297c4ba5cf151d455c9bb0ed4fc7a38411bc05461910160405180910390a1600455565b60006064600c54604051632394e7a360e21b8152600481018590527f00000000000000000000000000000000000000000000000000000000000000006001600160a01b031690638e539e8c9060240160206040518083038186803b15801561251b57600080fd5b505afa15801561252f573d6000803e3d6000fd5b505050506040513d601f19601f820116820180604052508101906125539190613330565b61255d9190613a97565b610ae19190613a77565b6060831561257657508161113c565b8251156125865782518084602001fd5b8160405162461bcd60e51b8152600401610b3191906137b4565b6000306001600160a01b037f0000000000000000000000000000000000000000000000000000000000000000161480156125f957507f000000000000000000000000000000000000000000000000000000000000000046145b1561262557507f00000000000000000000000000000000000000000000000000000000000000006108e0565b50604080517f00000000000000000000000000000000000000000000000000000000000000006020808301919091527f0000000000000000000000000000000000000000000000000000000000000000828401527f000000000000000000000000000000000000000000000000000000000000000060608301524660808301523060a0808401919091528351808403909101815260c090920190925280519101206108e0565b6000807f7fffffffffffffffffffffffffffffff5d576e7357a4501ddfe92f46681b20a083111561270257506000905060036127af565b8460ff16601b1415801561271a57508460ff16601c14155b1561272b57506000905060046127af565b6040805160008082526020820180845289905260ff881692820192909252606081018690526080810185905260019060a0016020604051602081039080840390855afa15801561277f573d6000803e3d6000fd5b5050604051601f1901519150506001600160a01b0381166127a8576000600192509250506127af565b9150600090505b94509492505050565b60008160048111156127da57634e487b7160e01b600052602160045260246000fd5b14156127e557610b43565b600181600481111561280757634e487b7160e01b600052602160045260246000fd5b14156128555760405162461bcd60e51b815260206004820152601860248201527f45434453413a20696e76616c6964207369676e617475726500000000000000006044820152606401610b31565b600281600481111561287757634e487b7160e01b600052602160045260246000fd5b14156128c55760405162461bcd60e51b815260206004820152601f60248201527f45434453413a20696e76616c6964207369676e6174757265206c656e677468006044820152606401610b31565b60038160048111156128e757634e487b7160e01b600052602160045260246000fd5b14156129405760405162461bcd60e51b815260206004820152602260248201527f45434453413a20696e76616c6964207369676e6174757265202773272076616c604482015261756560f01b6064820152608401610b31565b600481600481111561296257634e487b7160e01b600052602160045260246000fd5b1415610b435760405162461bcd60e51b815260206004820152602260248201527f45434453413a20696e76616c6964207369676e6174757265202776272076616c604482015261756560f01b6064820152608401610b31565b6000848152600b602090815260408083206001600160a01b0387168452600181019092529091205460ff1615612a475760405162461bcd60e51b815260206004820152602b60248201527f476f7665726e6f72566f74696e6753696d706c6553656c663a20766f7465206160448201526a1b1c9958591e4818d85cdd60aa1b6064820152608401610b31565b6001600160a01b0384166000908152600182810160209081526040808420805460ff19169093179092558783526009815281832054808452600790915291819020905160038201907f1f5cfbba4654f87ab5db55569c3f387ade93c165943d97b58cb04d11a49181ec90612abc908490613861565b60405180910390a1805460ff87161015612b1f5784818760ff1681548110612af457634e487b7160e01b600052603260045260246000fd5b90600052602060002090600502016004016000828254612b149190613a34565b90915550612b859050565b60405162461bcd60e51b815260206004820152603560248201527f476f7665726e6f72566f74696e6753696d706c653a20696e76616c69642076616044820152746c756520666f7220656e756d20566f74655479706560581b6064820152608401610b31565b5050505050505050565b606082471015612bf05760405162461bcd60e51b815260206004820152602660248201527f416464726573733a20696e73756666696369656e742062616c616e636520666f6044820152651c8818d85b1b60d21b6064820152608401610b31565b6001600160a01b0385163b612c475760405162461bcd60e51b815260206004820152601d60248201527f416464726573733a2063616c6c20746f206e6f6e2d636f6e74726163740000006044820152606401610b31565b600080866001600160a01b03168587604051612c639190613725565b60006040518083038185875af1925050503d8060008114612ca0576040519150601f19603f3d011682016040523d82523d6000602084013e612ca5565b606091505b5091509150610fa7828286612567565b80516a636f6e736f6c652e6c6f67602083016000808483855afa5050505050565b828054612ce290613afd565b90600052602060002090601f016020900481019282612d045760008555612d4a565b82601f10612d1d57805160ff1916838001178555612d4a565b82800160010185558215612d4a579182015b82811115612d4a578251825591602001919060010190612d2f565b506122be9291505b808211156122be5760008155600101612d52565b60006001600160401b03831115612d7f57612d7f613b69565b612d92601f8401601f19166020016139e1565b9050828152838383011115612da657600080fd5b828260208301376000602084830101529392505050565b80356001600160a01b0381168114610ae457600080fd5b600082601f830112612de4578081fd5b81356020612df9612df483613a11565b6139e1565b8281528181019085830183850287018401881015612e15578586fd5b855b85811015612e3a57612e2882612dbd565b84529284019290840190600101612e17565b5090979650505050505050565b600082601f830112612e57578081fd5b81356020612e67612df483613a11565b82815281810190858301855b85811015612e3a578135880189603f820112612e8d578788fd5b612e9e8a8783013560408401612d66565b8552509284019290840190600101612e73565b600082601f830112612ec1578081fd5b81356020612ed1612df483613a11565b8281528181019085830183850287018401881015612eed578586fd5b855b85811015612e3a57813584529284019290840190600101612eef565b60008083601f840112612f1c578182fd5b5081356001600160401b03811115612f32578182fd5b602083019150836020828501011115612f4a57600080fd5b9250929050565b600082601f830112612f61578081fd5b61113c83833560208501612d66565b803560ff81168114610ae457600080fd5b60008060408385031215612f93578182fd5b612f9c83612dbd565b946020939093013593505050565b60008060008060608587031215612fbf578182fd5b612fc885612dbd565b93506020850135925060408501356001600160401b03811115612fe9578283fd5b612ff587828801612f0b565b95989497509550505050565b60008060008060808587031215613016578384fd5b84356001600160401b038082111561302c578586fd5b61303888838901612dd4565b9550602087013591508082111561304d578485fd5b61305988838901612eb1565b9450604087013591508082111561306e578384fd5b5061307b87828801612e47565b949793965093946060013593505050565b600080600080608085870312156130a1578384fd5b84356001600160401b03808211156130b7578586fd5b6130c388838901612dd4565b955060208701359150808211156130d8578485fd5b6130e488838901612eb1565b945060408701359150808211156130f9578384fd5b61310588838901612e47565b9350606087013591508082111561311a578283fd5b5061312787828801612f51565b91505092959194509250565b600080600080600060a0868803121561314a578283fd5b85356001600160401b0380821115613160578485fd5b61316c89838a01612dd4565b96506020880135915080821115613181578485fd5b61318d89838a01612eb1565b955060408801359150808211156131a2578485fd5b6131ae89838a01612e47565b945060608801359150808211156131c3578283fd5b506131d088828901612f51565b95989497509295608001359392505050565b6000602082840312156131f3578081fd5b8151801515811461113c578182fd5b600060208284031215613213578081fd5b81356001600160e01b03198116811461113c578182fd5b60006020828403121561323b578081fd5b81356001600160401b03811115613250578182fd5b6110e884828501612f51565b60008060008060808587031215613271578182fd5b84356001600160401b0380821115613287578384fd5b61329388838901612f51565b955060208701359150808211156132a8578384fd5b6132b488838901612f51565b945060408701359150808211156132c9578384fd5b5061307b87828801612f51565b600080604083850312156132e8578182fd5b82356001600160401b038111156132fd578283fd5b61330985828601612f51565b95602094909401359450505050565b600060208284031215613329578081fd5b5035919050565b600060208284031215613341578081fd5b5051919050565b6000806040838503121561335a578182fd5b8235915061336a60208401612dbd565b90509250929050565b600080600060608486031215613387578081fd5b8335925060208401356001600160401b038111156133a3578182fd5b6133af86828701612f51565b925050604084013590509250925092565b600080604083850312156133d2578182fd5b50508035926020909101359150565b600080604083850312156133f3578182fd5b8235915061336a60208401612f70565b60008060008060608587031215613418578182fd5b8435935061342860208601612f70565b925060408501356001600160401b03811115612fe9578283fd5b600080600080600060a08688031215613459578283fd5b8535945061346960208701612f70565b935061347760408701612f70565b94979396509394606081013594506080013592915050565b6000815180845260208085019450808401835b838110156134c75781516001600160a01b0316875295820195908201906001016134a2565b509495945050505050565b6000815180845260208085019450848183028601828601855b85811015612e3a578383038952613503838351613544565b988501989250908401906001016134eb565b6000815180845260208085019450808401835b838110156134c757815187529582019590820190600101613528565b6000815180845261355c816020860160208601613acd565b601f01601f19169290920160200192915050565b80546000906002810460018083168061358a57607f831692505b60208084108214156135aa57634e487b7160e01b86526022600452602486fd5b838852602088018280156135c557600181146135d657613601565b60ff19871682528282019750613601565b60008981526020902060005b878110156135fb578154848201529086019084016135e2565b83019850505b5050505050505092915050565b6000815483526001602060e08186015261362d60e08601838601613570565b600280860154604081818a01526003915081880160608a8603818c0152858254808852888801915088898202890101848c52898c2094508b5b828110156136d857898203601f19018452855482528b8601546001600160a01b03168b83015260a08783018190526136a28184018b8901613570565b9050828103868401526136b7818a8901613570565b60048801546080949094019390935250600590950194928a01928b01613666565b508d810360808f01526136ee8160048f01613570565b9a505050505050505050505083810360a085015261370f8160058501613570565b9050600683015460c08501528091505092915050565b60008251613737818460208701613acd565b9190910192915050565b600060808252613754608083018761348f565b82810360208401526137668187613515565b9050828103604084015261377a81866134d2565b91505082606083015295945050505050565b60208101600883106137ae57634e487b7160e01b600052602160045260246000fd5b91905290565b60006020825261113c6020830184613544565b6000604082526137da6040830185613544565b90508260208301529392505050565b60208082526018908201527f476f7665726e6f723a206f6e6c79476f7665726e616e63650000000000000000604082015260600190565b60208082526021908201527f476f7665726e6f723a20696e76616c69642070726f706f73616c206c656e67746040820152600d60fb1b606082015260800190565b60006020825261113c602083018461360e565b60006101208b8352602060018060a01b038c168185015281604085015261389d8285018c61348f565b915083820360608501526138b1828b613515565b848103608086015289518082529092508183019082810284018301838c01865b838110156138ff57601f198784030185526138ed838351613544565b948601949250908501906001016138d1565b505086810360a0880152613913818c6134d2565b94505050505061392e60c08401876001600160401b03169052565b6001600160401b03851660e08401528281036101008401526139508185613544565b9c9b505050505050505050505050565b600087825260c0602083015261397960c0830188613544565b86604084015282810360608401526139918187613544565b905082810360808401526139a58186613544565b9150508260a0830152979650505050505050565b600085825260ff85166020830152836040830152608060608301526111266080830184613544565b604051601f8201601f191681016001600160401b0381118282101715613a0957613a09613b69565b604052919050565b60006001600160401b03821115613a2a57613a2a613b69565b5060209081020190565b60008219821115613a4757613a47613b53565b500190565b60006001600160401b03808316818516808303821115613a6e57613a6e613b53565b01949350505050565b600082613a9257634e487b7160e01b81526012600452602481fd5b500490565b6000816000190483118215151615613ab157613ab1613b53565b500290565b600082821015613ac857613ac8613b53565b500390565b60005b83811015613ae8578181015183820152602001613ad0565b83811115613af7576000848401525b50505050565b600281046001821680613b1157607f821691505b60208210811415613b3257634e487b7160e01b600052602260045260246000fd5b50919050565b6000600019821415613b4c57613b4c613b53565b5060010190565b634e487b7160e01b600052601160045260246000fd5b634e487b7160e01b600052604160045260246000fdfe476f7665726e6f723a2063616c6c20726576657274656420776974686f7574206d657373616765416464726573733a206c6f772d6c6576656c2063616c6c20776974682076616c7565206661696c6564a2646970667358221220c00c29167f44196068a7fb76d772b607b2f02067e14bef7bb8c61a65069f4c6c64736f6c63430008020033",
  "linkReferences": {},
  "deployedLinkReferences": {}
}