{
  "_format": "hh-sol-artifact-1",
  "contractName": "PrizeDAOGovernor",
  "sourceName": "contracts/PrizeDAOGovernor.sol",
  "abi": [
    {
      "inputs": [
        {
          "internalType": "contract ERC20Votes",
          "name": "_token",
          "type": "address"
        },
        {
          "internalType": "string",
          "name": "_name",
          "type": "string"
        }
      ],
      "stateMutability": "nonpayable",
      "type": "constructor"
    },
    {
      "anonymous": false,
      "inputs": [
        {
          "indexed": false,
          "internalType": "uint256",
          "name": "currentProposalID",
          "type": "uint256"
        }
      ],
      "name": "CurrentProposalID",
      "type": "event"
    },
    {
      "anonymous": false,
      "inputs": [
        {
          "indexed": false,
          "internalType": "uint256",
          "name": "HackathonId",
          "type": "uint256"
        }
      ],
      "name": "HackathonCreated",
      "type": "event"
    },
    {
      "anonymous": false,
      "inputs": [
        {
          "components": [
            {
              "internalType": "uint256",
              "name": "hackathonId",
              "type": "uint256"
            },
            {
              "internalType": "string",
              "name": "name",
              "type": "string"
            },
            {
              "internalType": "uint256",
              "name": "prizeMoney",
              "type": "uint256"
            },
            {
              "components": [
                {
                  "internalType": "uint256",
                  "name": "hackerId",
                  "type": "uint256"
                },
                {
                  "internalType": "address",
                  "name": "hackerAdd",
                  "type": "address"
                },
                {
                  "internalType": "string",
                  "name": "name",
                  "type": "string"
                },
                {
                  "internalType": "string",
                  "name": "ipfsHash",
                  "type": "string"
                },
                {
                  "internalType": "uint256",
                  "name": "votesGot",
                  "type": "uint256"
                }
              ],
              "internalType": "struct GovernorCountingSimpleSelf.Hacker[]",
              "name": "hackers",
              "type": "tuple[]"
            },
            {
              "internalType": "string",
              "name": "startDate",
              "type": "string"
            },
            {
              "internalType": "string",
              "name": "endDate",
              "type": "string"
            },
            {
              "internalType": "uint256",
              "name": "proposalId",
              "type": "uint256"
            },
            {
              "internalType": "address",
              "name": "sponsorAddress",
              "type": "address"
            },
            {
              "internalType": "uint256",
              "name": "blockNum",
              "type": "uint256"
            }
          ],
          "indexed": false,
          "internalType": "struct GovernorCountingSimpleSelf.Hackathon",
          "name": "hackathon",
          "type": "tuple"
        }
      ],
      "name": "HackathonEvent",
      "type": "event"
    },
    {
      "anonymous": false,
      "inputs": [
        {
          "indexed": false,
          "internalType": "string",
          "name": "hackerIpfsSubmission",
          "type": "string"
        }
      ],
      "name": "HackerIpfsSubmission",
      "type": "event"
    },
    {
      "anonymous": false,
      "inputs": [
        {
          "indexed": false,
          "internalType": "uint256",
          "name": "HackerId",
          "type": "uint256"
        }
      ],
      "name": "HackerRegisted",
      "type": "event"
    },
    {
      "anonymous": false,
      "inputs": [
        {
          "indexed": false,
          "internalType": "uint256",
          "name": "TotalVotesLastOptionGot",
          "type": "uint256"
        }
      ],
      "name": "NoHackerWon",
      "type": "event"
    },
    {
      "anonymous": false,
      "inputs": [
        {
          "indexed": false,
          "internalType": "uint256",
          "name": "numOfHackers",
          "type": "uint256"
        }
      ],
      "name": "NumOfHackers",
      "type": "event"
    },
    {
      "anonymous": false,
      "inputs": [
        {
          "indexed": false,
          "internalType": "uint256",
          "name": "proposalId",
          "type": "uint256"
        }
      ],
      "name": "ProposalCanceled",
      "type": "event"
    },
    {
      "anonymous": false,
      "inputs": [
        {
          "indexed": false,
          "internalType": "uint256",
          "name": "proposalId",
          "type": "uint256"
        },
        {
          "indexed": false,
          "internalType": "address",
          "name": "proposer",
          "type": "address"
        },
        {
          "indexed": false,
          "internalType": "address[]",
          "name": "targets",
          "type": "address[]"
        },
        {
          "indexed": false,
          "internalType": "uint256[]",
          "name": "values",
          "type": "uint256[]"
        },
        {
          "indexed": false,
          "internalType": "string[]",
          "name": "signatures",
          "type": "string[]"
        },
        {
          "indexed": false,
          "internalType": "bytes[]",
          "name": "calldatas",
          "type": "bytes[]"
        },
        {
          "indexed": false,
          "internalType": "uint256",
          "name": "startBlock",
          "type": "uint256"
        },
        {
          "indexed": false,
          "internalType": "uint256",
          "name": "endBlock",
          "type": "uint256"
        },
        {
          "indexed": false,
          "internalType": "string",
          "name": "description",
          "type": "string"
        }
      ],
      "name": "ProposalCreated",
      "type": "event"
    },
    {
      "anonymous": false,
      "inputs": [
        {
          "indexed": false,
          "internalType": "uint256",
          "name": "proposalId",
          "type": "uint256"
        }
      ],
      "name": "ProposalExecuted",
      "type": "event"
    },
    {
      "anonymous": false,
      "inputs": [
        {
          "indexed": false,
          "internalType": "uint256",
          "name": "oldProposalThreshold",
          "type": "uint256"
        },
        {
          "indexed": false,
          "internalType": "uint256",
          "name": "newProposalThreshold",
          "type": "uint256"
        }
      ],
      "name": "ProposalThresholdSet",
      "type": "event"
    },
    {
      "anonymous": false,
      "inputs": [
        {
          "indexed": false,
          "internalType": "uint256",
          "name": "oldQuorumNumerator",
          "type": "uint256"
        },
        {
          "indexed": false,
          "internalType": "uint256",
          "name": "newQuorumNumerator",
          "type": "uint256"
        }
      ],
      "name": "QuorumNumeratorUpdated",
      "type": "event"
    },
    {
      "anonymous": false,
      "inputs": [
        {
          "indexed": false,
          "internalType": "address",
          "name": "new_sponsor",
          "type": "address"
        }
      ],
      "name": "SponsorAdded",
      "type": "event"
    },
    {
      "anonymous": false,
      "inputs": [
        {
          "indexed": false,
          "internalType": "uint256",
          "name": "HackerId",
          "type": "uint256"
        }
      ],
      "name": "SubmissionDone",
      "type": "event"
    },
    {
      "anonymous": false,
      "inputs": [
        {
          "indexed": false,
          "internalType": "uint256",
          "name": "totalVotes",
          "type": "uint256"
        }
      ],
      "name": "TotalVotes",
      "type": "event"
    },
    {
      "anonymous": false,
      "inputs": [
        {
          "indexed": true,
          "internalType": "address",
          "name": "voter",
          "type": "address"
        },
        {
          "indexed": false,
          "internalType": "uint256",
          "name": "proposalId",
          "type": "uint256"
        },
        {
          "indexed": false,
          "internalType": "uint8",
          "name": "support",
          "type": "uint8"
        },
        {
          "indexed": false,
          "internalType": "uint256",
          "name": "weight",
          "type": "uint256"
        },
        {
          "indexed": false,
          "internalType": "string",
          "name": "reason",
          "type": "string"
        }
      ],
      "name": "VoteCast",
      "type": "event"
    },
    {
      "anonymous": false,
      "inputs": [
        {
          "indexed": false,
          "internalType": "uint256",
          "name": "votesPresent",
          "type": "uint256"
        }
      ],
      "name": "VotesPresent",
      "type": "event"
    },
    {
      "anonymous": false,
      "inputs": [
        {
          "indexed": false,
          "internalType": "uint256",
          "name": "oldVotingDelay",
          "type": "uint256"
        },
        {
          "indexed": false,
          "internalType": "uint256",
          "name": "newVotingDelay",
          "type": "uint256"
        }
      ],
      "name": "VotingDelaySet",
      "type": "event"
    },
    {
      "anonymous": false,
      "inputs": [
        {
          "indexed": false,
          "internalType": "uint256",
          "name": "oldVotingPeriod",
          "type": "uint256"
        },
        {
          "indexed": false,
          "internalType": "uint256",
          "name": "newVotingPeriod",
          "type": "uint256"
        }
      ],
      "name": "VotingPeriodSet",
      "type": "event"
    },
    {
      "anonymous": false,
      "inputs": [
        {
          "indexed": false,
          "internalType": "address",
          "name": "winnerAddress",
          "type": "address"
        }
      ],
      "name": "WinnerIs",
      "type": "event"
    },
    {
      "inputs": [],
      "name": "BALLOT_TYPEHASH",
      "outputs": [
        {
          "internalType": "bytes32",
          "name": "",
          "type": "bytes32"
        }
      ],
      "stateMutability": "view",
      "type": "function"
    },
    {
      "inputs": [],
      "name": "COUNTING_MODE",
      "outputs": [
        {
          "internalType": "string",
          "name": "",
          "type": "string"
        }
      ],
      "stateMutability": "pure",
      "type": "function"
    },
    {
      "inputs": [
        {
          "internalType": "uint256",
          "name": "",
          "type": "uint256"
        }
      ],
      "name": "ProposalIdToHackathonId",
      "outputs": [
        {
          "internalType": "uint256",
          "name": "",
          "type": "uint256"
        }
      ],
      "stateMutability": "view",
      "type": "function"
    },
    {
      "inputs": [
        {
          "internalType": "string",
          "name": "",
          "type": "string"
        }
      ],
      "name": "acceptedProposal",
      "outputs": [
        {
          "internalType": "address",
          "name": "",
          "type": "address"
        }
      ],
      "stateMutability": "view",
      "type": "function"
    },
    {
      "inputs": [],
      "name": "addSponsor",
      "outputs": [],
      "stateMutability": "payable",
      "type": "function"
    },
    {
      "inputs": [
        {
          "internalType": "string",
          "name": "_name",
          "type": "string"
        },
        {
          "internalType": "string",
          "name": "_startDate",
          "type": "string"
        },
        {
          "internalType": "string",
          "name": "_endDate",
          "type": "string"
        },
        {
          "internalType": "uint256",
          "name": "_prizeMoney",
          "type": "uint256"
        },
        {
          "internalType": "address payable",
          "name": "_sponsorAddress",
          "type": "address"
        },
        {
          "internalType": "address",
          "name": "_token",
          "type": "address"
        }
      ],
      "name": "add_hackathon",
      "outputs": [
        {
          "internalType": "uint256",
          "name": "",
          "type": "uint256"
        }
      ],
      "stateMutability": "payable",
      "type": "function"
    },
    {
      "inputs": [
        {
          "internalType": "uint256",
          "name": "_hackerId",
          "type": "uint256"
        },
        {
          "internalType": "string",
          "name": "_ipfsHash",
          "type": "string"
        },
        {
          "internalType": "uint256",
          "name": "_hackathonId",
          "type": "uint256"
        }
      ],
      "name": "add_submission",
      "outputs": [],
      "stateMutability": "nonpayable",
      "type": "function"
    },
    {
      "inputs": [
        {
          "internalType": "uint256",
          "name": "proposalId",
          "type": "uint256"
        },
        {
          "internalType": "uint8",
          "name": "support",
          "type": "uint8"
        }
      ],
      "name": "castVote",
      "outputs": [
        {
          "internalType": "uint256",
          "name": "",
          "type": "uint256"
        }
      ],
      "stateMutability": "nonpayable",
      "type": "function"
    },
    {
      "inputs": [
        {
          "internalType": "uint256",
          "name": "proposalId",
          "type": "uint256"
        },
        {
          "internalType": "uint8",
          "name": "support",
          "type": "uint8"
        },
        {
          "internalType": "uint8",
          "name": "v",
          "type": "uint8"
        },
        {
          "internalType": "bytes32",
          "name": "r",
          "type": "bytes32"
        },
        {
          "internalType": "bytes32",
          "name": "s",
          "type": "bytes32"
        }
      ],
      "name": "castVoteBySig",
      "outputs": [
        {
          "internalType": "uint256",
          "name": "",
          "type": "uint256"
        }
      ],
      "stateMutability": "nonpayable",
      "type": "function"
    },
    {
      "inputs": [
        {
          "internalType": "uint256",
          "name": "proposalId",
          "type": "uint256"
        },
        {
          "internalType": "uint8",
          "name": "support",
          "type": "uint8"
        },
        {
          "internalType": "string",
          "name": "reason",
          "type": "string"
        }
      ],
      "name": "castVoteWithReason",
      "outputs": [
        {
          "internalType": "uint256",
          "name": "",
          "type": "uint256"
        }
      ],
      "stateMutability": "nonpayable",
      "type": "function"
    },
    {
      "inputs": [
        {
          "internalType": "address[]",
          "name": "targets",
          "type": "address[]"
        },
        {
          "internalType": "uint256[]",
          "name": "values",
          "type": "uint256[]"
        },
        {
          "internalType": "bytes[]",
          "name": "calldatas",
          "type": "bytes[]"
        },
        {
          "internalType": "string",
          "name": "description",
          "type": "string"
        },
        {
          "internalType": "uint256",
          "name": "hackathonId",
          "type": "uint256"
        }
      ],
      "name": "createProposal",
      "outputs": [
        {
          "internalType": "uint256",
          "name": "",
          "type": "uint256"
        }
      ],
      "stateMutability": "nonpayable",
      "type": "function"
    },
    {
      "inputs": [
        {
          "internalType": "uint256",
          "name": "_amount",
          "type": "uint256"
        },
        {
          "internalType": "address",
          "name": "_user",
          "type": "address"
        }
      ],
      "name": "disburseIncentive",
      "outputs": [],
      "stateMutability": "nonpayable",
      "type": "function"
    },
    {
      "inputs": [
        {
          "internalType": "address[]",
          "name": "targets",
          "type": "address[]"
        },
        {
          "internalType": "uint256[]",
          "name": "values",
          "type": "uint256[]"
        },
        {
          "internalType": "bytes[]",
          "name": "calldatas",
          "type": "bytes[]"
        },
        {
          "internalType": "bytes32",
          "name": "descriptionHash",
          "type": "bytes32"
        }
      ],
      "name": "execute",
      "outputs": [
        {
          "internalType": "uint256",
          "name": "",
          "type": "uint256"
        }
      ],
      "stateMutability": "payable",
      "type": "function"
    },
    {
      "inputs": [
        {
          "internalType": "uint256",
          "name": "_proposalId",
          "type": "uint256"
        }
      ],
      "name": "getBlockNumber",
      "outputs": [
        {
          "internalType": "uint256",
          "name": "",
          "type": "uint256"
        }
      ],
      "stateMutability": "view",
      "type": "function"
    },
    {
      "inputs": [
        {
          "internalType": "uint256",
          "name": "_proposalId",
          "type": "uint256"
        },
        {
          "internalType": "uint256",
          "name": "_hackerId",
          "type": "uint256"
        }
      ],
      "name": "getHackerSubmission",
      "outputs": [
        {
          "internalType": "string",
          "name": "",
          "type": "string"
        }
      ],
      "stateMutability": "view",
      "type": "function"
    },
    {
      "inputs": [
        {
          "internalType": "uint256",
          "name": "_hackathonId",
          "type": "uint256"
        }
      ],
      "name": "getProposalId",
      "outputs": [
        {
          "internalType": "uint256",
          "name": "",
          "type": "uint256"
        }
      ],
      "stateMutability": "view",
      "type": "function"
    },
    {
      "inputs": [
        {
          "internalType": "address",
          "name": "account",
          "type": "address"
        },
        {
          "internalType": "uint256",
          "name": "blockNumber",
          "type": "uint256"
        }
      ],
      "name": "getVotes",
      "outputs": [
        {
          "internalType": "uint256",
          "name": "",
          "type": "uint256"
        }
      ],
      "stateMutability": "view",
      "type": "function"
    },
    {
      "inputs": [],
      "name": "hackathonId",
      "outputs": [
        {
          "internalType": "uint256",
          "name": "_value",
          "type": "uint256"
        }
      ],
      "stateMutability": "view",
      "type": "function"
    },
    {
      "inputs": [
        {
          "internalType": "uint256",
          "name": "",
          "type": "uint256"
        }
      ],
      "name": "hackathonIdToHackathon",
      "outputs": [
        {
          "internalType": "uint256",
          "name": "hackathonId",
          "type": "uint256"
        },
        {
          "internalType": "string",
          "name": "name",
          "type": "string"
        },
        {
          "internalType": "uint256",
          "name": "prizeMoney",
          "type": "uint256"
        },
        {
          "internalType": "string",
          "name": "startDate",
          "type": "string"
        },
        {
          "internalType": "string",
          "name": "endDate",
          "type": "string"
        },
        {
          "internalType": "uint256",
          "name": "proposalId",
          "type": "uint256"
        },
        {
          "internalType": "address",
          "name": "sponsorAddress",
          "type": "address"
        },
        {
          "internalType": "uint256",
          "name": "blockNum",
          "type": "uint256"
        }
      ],
      "stateMutability": "view",
      "type": "function"
    },
    {
      "inputs": [
        {
          "internalType": "uint256",
          "name": "_hackathonId",
          "type": "uint256"
        }
      ],
      "name": "hackerHasRegisteredBefore",
      "outputs": [
        {
          "internalType": "bool",
          "name": "",
          "type": "bool"
        }
      ],
      "stateMutability": "nonpayable",
      "type": "function"
    },
    {
      "inputs": [],
      "name": "hackerId",
      "outputs": [
        {
          "internalType": "uint256",
          "name": "_value",
          "type": "uint256"
        }
      ],
      "stateMutability": "view",
      "type": "function"
    },
    {
      "inputs": [
        {
          "internalType": "uint256",
          "name": "",
          "type": "uint256"
        }
      ],
      "name": "hackerIdToHackathon",
      "outputs": [
        {
          "internalType": "uint256",
          "name": "hackathonId",
          "type": "uint256"
        },
        {
          "internalType": "string",
          "name": "name",
          "type": "string"
        },
        {
          "internalType": "uint256",
          "name": "prizeMoney",
          "type": "uint256"
        },
        {
          "internalType": "string",
          "name": "startDate",
          "type": "string"
        },
        {
          "internalType": "string",
          "name": "endDate",
          "type": "string"
        },
        {
          "internalType": "uint256",
          "name": "proposalId",
          "type": "uint256"
        },
        {
          "internalType": "address",
          "name": "sponsorAddress",
          "type": "address"
        },
        {
          "internalType": "uint256",
          "name": "blockNum",
          "type": "uint256"
        }
      ],
      "stateMutability": "view",
      "type": "function"
    },
    {
      "inputs": [
        {
          "internalType": "uint256",
          "name": "_hackathonId",
          "type": "uint256"
        }
      ],
      "name": "hasHackerRegistedForHackathon",
      "outputs": [
        {
          "internalType": "bool",
          "name": "",
          "type": "bool"
        }
      ],
      "stateMutability": "view",
      "type": "function"
    },
    {
      "inputs": [
        {
          "internalType": "uint256",
          "name": "proposalId",
          "type": "uint256"
        },
        {
          "internalType": "address",
          "name": "account",
          "type": "address"
        }
      ],
      "name": "hasVoted",
      "outputs": [
        {
          "internalType": "bool",
          "name": "",
          "type": "bool"
        }
      ],
      "stateMutability": "view",
      "type": "function"
    },
    {
      "inputs": [
        {
          "internalType": "address[]",
          "name": "targets",
          "type": "address[]"
        },
        {
          "internalType": "uint256[]",
          "name": "values",
          "type": "uint256[]"
        },
        {
          "internalType": "bytes[]",
          "name": "calldatas",
          "type": "bytes[]"
        },
        {
          "internalType": "bytes32",
          "name": "descriptionHash",
          "type": "bytes32"
        }
      ],
      "name": "hashProposal",
      "outputs": [
        {
          "internalType": "uint256",
          "name": "",
          "type": "uint256"
        }
      ],
      "stateMutability": "pure",
      "type": "function"
    },
    {
      "inputs": [],
      "name": "name",
      "outputs": [
        {
          "internalType": "string",
          "name": "",
          "type": "string"
        }
      ],
      "stateMutability": "view",
      "type": "function"
    },
    {
      "inputs": [
        {
          "internalType": "uint256",
          "name": "proposalId",
          "type": "uint256"
        }
      ],
      "name": "proposalDeadline",
      "outputs": [
        {
          "internalType": "uint256",
          "name": "",
          "type": "uint256"
        }
      ],
      "stateMutability": "view",
      "type": "function"
    },
    {
      "inputs": [
        {
          "internalType": "uint256",
          "name": "proposalId",
          "type": "uint256"
        }
      ],
      "name": "proposalSnapshot",
      "outputs": [
        {
          "internalType": "uint256",
          "name": "",
          "type": "uint256"
        }
      ],
      "stateMutability": "view",
      "type": "function"
    },
    {
      "inputs": [],
      "name": "proposalThreshold",
      "outputs": [
        {
          "internalType": "uint256",
          "name": "",
          "type": "uint256"
        }
      ],
      "stateMutability": "view",
      "type": "function"
    },
    {
      "inputs": [
        {
          "internalType": "address[]",
          "name": "targets",
          "type": "address[]"
        },
        {
          "internalType": "uint256[]",
          "name": "values",
          "type": "uint256[]"
        },
        {
          "internalType": "bytes[]",
          "name": "calldatas",
          "type": "bytes[]"
        },
        {
          "internalType": "string",
          "name": "description",
          "type": "string"
        }
      ],
      "name": "propose",
      "outputs": [
        {
          "internalType": "uint256",
          "name": "",
          "type": "uint256"
        }
      ],
      "stateMutability": "nonpayable",
      "type": "function"
    },
    {
      "inputs": [
        {
          "internalType": "uint256",
          "name": "blockNumber",
          "type": "uint256"
        }
      ],
      "name": "quorum",
      "outputs": [
        {
          "internalType": "uint256",
          "name": "",
          "type": "uint256"
        }
      ],
      "stateMutability": "view",
      "type": "function"
    },
    {
      "inputs": [],
      "name": "quorumDenominator",
      "outputs": [
        {
          "internalType": "uint256",
          "name": "",
          "type": "uint256"
        }
      ],
      "stateMutability": "view",
      "type": "function"
    },
    {
      "inputs": [],
      "name": "quorumNumerator",
      "outputs": [
        {
          "internalType": "uint256",
          "name": "",
          "type": "uint256"
        }
      ],
      "stateMutability": "view",
      "type": "function"
    },
    {
      "inputs": [],
      "name": "receiveEthForTransactions",
      "outputs": [],
      "stateMutability": "payable",
      "type": "function"
    },
    {
      "inputs": [
        {
          "internalType": "string",
          "name": "_name",
          "type": "string"
        },
        {
          "internalType": "uint256",
          "name": "_hackathonId",
          "type": "uint256"
        }
      ],
      "name": "register_hacker",
      "outputs": [
        {
          "internalType": "uint256",
          "name": "",
          "type": "uint256"
        }
      ],
      "stateMutability": "nonpayable",
      "type": "function"
    },
    {
      "inputs": [
        {
          "internalType": "address",
          "name": "target",
          "type": "address"
        },
        {
          "internalType": "uint256",
          "name": "value",
          "type": "uint256"
        },
        {
          "internalType": "bytes",
          "name": "data",
          "type": "bytes"
        }
      ],
      "name": "relay",
      "outputs": [],
      "stateMutability": "nonpayable",
      "type": "function"
    },
    {
      "inputs": [
        {
          "internalType": "uint256",
          "name": "newProposalThreshold",
          "type": "uint256"
        }
      ],
      "name": "setProposalThreshold",
      "outputs": [],
      "stateMutability": "nonpayable",
      "type": "function"
    },
    {
      "inputs": [
        {
          "internalType": "uint256",
          "name": "newVotingDelay",
          "type": "uint256"
        }
      ],
      "name": "setVotingDelay",
      "outputs": [],
      "stateMutability": "nonpayable",
      "type": "function"
    },
    {
      "inputs": [
        {
          "internalType": "uint256",
          "name": "newVotingPeriod",
          "type": "uint256"
        }
      ],
      "name": "setVotingPeriod",
      "outputs": [],
      "stateMutability": "nonpayable",
      "type": "function"
    },
    {
      "inputs": [
        {
          "internalType": "uint256",
          "name": "_hackathonId",
          "type": "uint256"
        }
      ],
      "name": "setWinnerAddress",
      "outputs": [],
      "stateMutability": "nonpayable",
      "type": "function"
    },
    {
      "inputs": [
        {
          "internalType": "uint256",
          "name": "proposalId",
          "type": "uint256"
        }
      ],
      "name": "state",
      "outputs": [
        {
          "internalType": "enum IGovernor.ProposalState",
          "name": "",
          "type": "uint8"
        }
      ],
      "stateMutability": "view",
      "type": "function"
    },
    {
      "inputs": [
        {
          "internalType": "bytes4",
          "name": "interfaceId",
          "type": "bytes4"
        }
      ],
      "name": "supportsInterface",
      "outputs": [
        {
          "internalType": "bool",
          "name": "",
          "type": "bool"
        }
      ],
      "stateMutability": "view",
      "type": "function"
    },
    {
      "inputs": [],
      "name": "token",
      "outputs": [
        {
          "internalType": "contract IVotes",
          "name": "",
          "type": "address"
        }
      ],
      "stateMutability": "view",
      "type": "function"
    },
    {
      "inputs": [
        {
          "internalType": "uint256",
          "name": "newQuorumNumerator",
          "type": "uint256"
        }
      ],
      "name": "updateQuorumNumerator",
      "outputs": [],
      "stateMutability": "nonpayable",
      "type": "function"
    },
    {
      "inputs": [],
      "name": "version",
      "outputs": [
        {
          "internalType": "string",
          "name": "",
          "type": "string"
        }
      ],
      "stateMutability": "view",
      "type": "function"
    },
    {
      "inputs": [],
      "name": "votingDelay",
      "outputs": [
        {
          "internalType": "uint256",
          "name": "",
          "type": "uint256"
        }
      ],
      "stateMutability": "view",
      "type": "function"
    },
    {
      "inputs": [],
      "name": "votingPeriod",
      "outputs": [
        {
          "internalType": "uint256",
          "name": "",
          "type": "uint256"
        }
      ],
      "stateMutability": "view",
      "type": "function"
    },
    {
      "stateMutability": "payable",
      "type": "receive"
    }
  ],
  "bytecode": "0x610160604052601180546001600160a01b03191690553480156200002257600080fd5b50604051620049373803806200493783398101604081905262000045916200041b565b600482600060198185806200006e6040805180820190915260018152603160f81b602082015290565b815160208084019190912082518383012060e08290526101008190524660a0818152604080517f8b73c3c69bb8fe3d512ecc4cf759cc79239f7b179b0ffacaa9a75d522b39400f81880181905281830187905260608201869052608082019490945230818401528151808203909301835260c00190528051940193909320919290916080523060601b60c052610120525050825162000117925060009150602084019062000375565b506200012590508362000182565b6200013082620001c3565b6200013b816200026a565b50505060601b6001600160601b031916610140526200015a81620002ab565b5050600e80546001600160a01b0319166001600160a01b039290921691909117905562000567565b60025460408051918252602082018390527fc565b045403dc03c2eea82b81a0465edad9e2e7fc4d97e11421c209da93d7a93910160405180910390a1600255565b60008111620002295760405162461bcd60e51b815260206004820152602760248201527f476f7665726e6f7253657474696e67733a20766f74696e6720706572696f6420604482015266746f6f206c6f7760c81b60648201526084015b60405180910390fd5b60035460408051918252602082018390527f7e3f7f0708a84de9203036abaa450dccc85ad5ff52f78c170f3edb55cf5e8828910160405180910390a1600355565b60045460408051918252602082018390527fccb45da8d5717e6c4544694297c4ba5cf151d455c9bb0ed4fc7a38411bc05461910160405180910390a1600455565b6064811115620003305760405162461bcd60e51b815260206004820152604360248201527f476f7665726e6f72566f74657351756f72756d4672616374696f6e3a2071756f60448201527f72756d4e756d657261746f72206f7665722071756f72756d44656e6f6d696e616064820152623a37b960e91b608482015260a40162000220565b600c80549082905560408051828152602081018490527f0553476bf02ef2726e8ce5ced78d63e26e602e4a2257b1f559418e24b4633997910160405180910390a15050565b828054620003839062000514565b90600052602060002090601f016020900481019282620003a75760008555620003f2565b82601f10620003c257805160ff1916838001178555620003f2565b82800160010185558215620003f2579182015b82811115620003f2578251825591602001919060010190620003d5565b506200040092915062000404565b5090565b5b8082111562000400576000815560010162000405565b600080604083850312156200042e578182fd5b82516001600160a01b038116811462000445578283fd5b602084810151919350906001600160401b038082111562000464578384fd5b818601915086601f83011262000478578384fd5b8151818111156200048d576200048d62000551565b604051601f8201601f19908116603f01168101908382118183101715620004b857620004b862000551565b816040528281528986848701011115620004d0578687fd5b8693505b82841015620004f35784840186015181850187015292850192620004d4565b828411156200050457868684830101525b8096505050505050509250929050565b6002810460018216806200052957607f821691505b602082108114156200054b57634e487b7160e01b600052602260045260246000fd5b50919050565b634e487b7160e01b600052604160045260246000fd5b60805160a05160c05160601c60e05161010051610120516101405160601c614361620005d6600039600081816108ef015281816129ff0152612ad901526000612c3401526000612c8301526000612c5e01526000612bb501526000612bdf01526000612c0901526143616000f3fe60806040526004361061028b5760003560e01c80637c95ac271161015a578063c59057e4116100c1578063e6c0f7fe1161007a578063e6c0f7fe14610855578063ea0217cf1461085d578063eb9019d41461087d578063ece40cc11461089d578063f8ce560a146108bd578063fc0c546a146108dd576102ae565b8063c59057e414610771578063cd2c2bd214610791578063d8d1ffaa146107a8578063dd4e2ba5146107bb578063deaaa7cc14610801578063e0b4887c14610835576102ae565b806397c3d3341161011357806397c3d334146106d3578063a7713a70146106e7578063a90bd409146106fc578063b58131b01461071c578063c01f9e3714610731578063c28bc2fa14610751576102ae565b80637c95ac271461062b5780637d5e81e21461064b5780637fe769791461066b57806391dda66e1461068b57806395e9209b146106ab5780639605270a146106b3576102ae565b80633d36d648116101fe57806356781388116101b7578063567813881461055e5780636cd4dad91461057e5780636cef51ce1461059e57806370b0f660146105be57806378270cad146105de5780637b3c71d31461060b576102ae565b80633d36d648146104665780633e4f49e6146104865780634200a80b146104b357806343859632146104ca57806350c0fbe41461051457806354fd4d5014610534576102ae565b80630c47bd45116102505780630c47bd451461038557806324de2ef6146103a55780632656227d146103fe5780632d63f693146104115780633932abb1146104315780633bccf4fd14610446576102ae565b8062d647e1146102b357806301ffc9a7146102f057806302a251a31461032057806306f3f9e61461034357806306fdde0314610363576102ae565b366102ae5730610299610911565b6001600160a01b0316146102ac57600080fd5b005b600080fd5b3480156102bf57600080fd5b506102d36102ce366004613a02565b610916565b6040516102e798979695949392919061408e565b60405180910390f35b3480156102fc57600080fd5b5061031061030b3660046138b3565b610afb565b60405190151581526020016102e7565b34801561032c57600080fd5b50610335610b34565b6040519081526020016102e7565b34801561034f57600080fd5b506102ac61035e366004613a02565b610b44565b34801561036f57600080fd5b50610378610b91565b6040516102e79190613e37565b34801561039157600080fd5b506102d36103a0366004613a02565b610c23565b3480156103b157600080fd5b506103e66103c03660046138db565b8051602081830181018051600f825292820191909301209152546001600160a01b031681565b6040516001600160a01b0390911681526020016102e7565b61033561040c3660046136b2565b610c45565b34801561041d57600080fd5b5061033561042c366004613a02565b610d6e565b34801561043d57600080fd5b50610335610da5565b34801561045257600080fd5b50610335610461366004613b39565b610db0565b34801561047257600080fd5b506102ac610481366004613a02565b610e44565b34801561049257600080fd5b506104a66104a1366004613a02565b610e80565b6040516102e79190613e0f565b3480156104bf57600080fd5b506006546103359081565b3480156104d657600080fd5b506103106104e5366004613a32565b6000828152600b602090815260408083206001600160a01b038516845260010190915290205460ff1692915050565b34801561052057600080fd5b5061033561052f366004613a02565b610f59565b34801561054057600080fd5b506040805180820190915260018152603160f81b6020820152610378565b34801561056a57600080fd5b50610335610579366004613acf565b610f7d565b34801561058a57600080fd5b506103356105993660046137e4565b610fa6565b3480156105aa57600080fd5b506103786105b9366004613aae565b610ff8565b3480156105ca57600080fd5b506102ac6105d9366004613a02565b61100b565b3480156105ea57600080fd5b506103356105f9366004613a02565b60096020526000908152604090205481565b34801561061757600080fd5b50610335610626366004613afa565b61104c565b34801561063757600080fd5b50610335610646366004613a02565b611094565b34801561065757600080fd5b5061033561066636600461373d565b6110ab565b34801561067757600080fd5b50610310610686366004613a02565b611394565b34801561069757600080fd5b506103356106a63660046139c0565b611427565b6102ac611559565b3480156106bf57600080fd5b506102ac6106ce366004613a61565b611681565b3480156106df57600080fd5b506064610335565b3480156106f357600080fd5b50600c54610335565b34801561070857600080fd5b506102ac610717366004613a32565b6117e0565b34801561072857600080fd5b506103356118af565b34801561073d57600080fd5b5061033561074c366004613a02565b6118ba565b34801561075d57600080fd5b506102ac61076c366004613659565b6118e9565b34801561077d57600080fd5b5061033561078c3660046136b2565b61196a565b34801561079d57600080fd5b506005546103359081565b6103356107b636600461390d565b6119a4565b3480156107c757600080fd5b506040805180820190915260208082527f737570706f72743d627261766f2671756f72756d3d666f722c6162737461696e90820152610378565b34801561080d57600080fd5b506103357f150214d74d59b7d1e90c73fc22ef3d991dd0a76b046543d4d80ab92d2a50328f81565b34801561084157600080fd5b50610310610850366004613a02565b611c0b565b6102ac611c9d565b34801561086957600080fd5b506102ac610878366004613a02565b611d26565b34801561088957600080fd5b5061033561089836600461362e565b611d67565b3480156108a957600080fd5b506102ac6108b8366004613a02565b611d73565b3480156108c957600080fd5b506103356108d8366004613a02565b611db4565b3480156108e957600080fd5b506103e67f000000000000000000000000000000000000000000000000000000000000000081565b305b90565b6007602052600090815260409020805460018201805491929161093890614244565b80601f016020809104026020016040519081016040528092919081815260200182805461096490614244565b80156109b15780601f10610986576101008083540402835291602001916109b1565b820191906000526020600020905b81548152906001019060200180831161099457829003601f168201915b5050505050908060020154908060040180546109cc90614244565b80601f01602080910402602001604051908101604052809291908181526020018280546109f890614244565b8015610a455780601f10610a1a57610100808354040283529160200191610a45565b820191906000526020600020905b815481529060010190602001808311610a2857829003601f168201915b505050505090806005018054610a5a90614244565b80601f0160208091040260200160405190810160405280929190818152602001828054610a8690614244565b8015610ad35780601f10610aa857610100808354040283529160200191610ad3565b820191906000526020600020905b815481529060010190602001808311610ab657829003601f168201915b5050505060068301546007840154600890940154929390926001600160a01b03909116915088565b60006001600160e01b0319821663bf26d89760e01b1480610b2c57506301ffc9a760e01b6001600160e01b03198316145b90505b919050565b6000610b3f60035490565b905090565b610b4c610911565b6001600160a01b0316336001600160a01b031614610b855760405162461bcd60e51b8152600401610b7c90613e6c565b60405180910390fd5b610b8e81611dbf565b50565b606060008054610ba090614244565b80601f0160208091040260200160405190810160405280929190818152602001828054610bcc90614244565b8015610c195780601f10610bee57610100808354040283529160200191610c19565b820191906000526020600020905b815481529060010190602001808311610bfc57829003601f168201915b5050505050905090565b6008602052600090815260409020805460018201805491929161093890614244565b600080610c548686868661196a565b90506000610c6182610e80565b90506004816007811115610c8557634e487b7160e01b600052602160045260246000fd5b1480610cb057506005816007811115610cae57634e487b7160e01b600052602160045260246000fd5b145b610d065760405162461bcd60e51b815260206004820152602160248201527f476f7665726e6f723a2070726f706f73616c206e6f74207375636365737366756044820152601b60fa1b6064820152608401610b7c565b600082815260016020818152604092839020600201805460ff191690921790915590518381527f712ae1383f79ac853f8d882153778e0260ef8f03b504e2866e0593e04d2b291f910160405180910390a1610d648288888888611e87565b5095945050505050565b60008181526001602090815260408083208151928301909152546001600160401b0316908190525b6001600160401b031692915050565b6000610b3f60025490565b604080517f150214d74d59b7d1e90c73fc22ef3d991dd0a76b046543d4d80ab92d2a50328f602082015290810186905260ff851660608201526000908190610e1c90610e149060800160405160208183030381529060405280519060200120611fb0565b868686611ffe565b9050610e398782886040518060200160405280600081525061201c565b979650505050505050565b6000610e4f82612135565b601180546001600160a01b0319166001600160a01b039384161790819055909250610e7c918391166117e0565b5050565b6000818152600160205260408120600281015460ff1615610ea5576007915050610b2f565b6002810154610100900460ff1615610ec1576002915050610b2f565b6000610ecc84610d6e565b905080610f1b5760405162461bcd60e51b815260206004820152601d60248201527f476f7665726e6f723a20756e6b6e6f776e2070726f706f73616c2069640000006044820152606401610b7c565b438110610f2d57600092505050610b2f565b6000610f38856118ba565b9050438110610f4d5760019350505050610b2f565b60049350505050610b2f565b60008181526009602090815260408083205483526007909152812060080154610b2c565b600080339050610f9e8482856040518060200160405280600081525061201c565b949350505050565b6000610fb182612367565b6000610fbf878787876110ab565b600081815260096020908152604080832087905586835260079091529020600681018290554360089091015590505b9695505050505050565b606061100483836123bf565b9392505050565b611013610911565b6001600160a01b0316336001600160a01b0316146110435760405162461bcd60e51b8152600401610b7c90613e6c565b610b8e8161281d565b600080339050610fee86828787878080601f01602080910402602001604051908101604052809392919081815260200183838082843760009201919091525061201c92505050565b600081815260076020526040812060060154610b2c565b60006110b56118af565b6110c4336108986001436141fd565b10156111445760405162461bcd60e51b815260206004820152604360248201527f476f7665726e6f72436f6d7061746962696c697479427261766f3a2070726f7060448201527f6f73657220766f7465732062656c6f772070726f706f73616c207468726573686064820152621bdb1960ea1b608482015260a401610b7c565b6000611159868686868051906020012061196a565b9050845186511461117c5760405162461bcd60e51b8152600401610b7c90613ea3565b835186511461119d5760405162461bcd60e51b8152600401610b7c90613ea3565b60008651116111ee5760405162461bcd60e51b815260206004820152601860248201527f476f7665726e6f723a20656d7074792070726f706f73616c00000000000000006044820152606401610b7c565b600081815260016020908152604091829020825191820190925281546001600160401b0316908190521561126e5760405162461bcd60e51b815260206004820152602160248201527f476f7665726e6f723a2070726f706f73616c20616c72656164792065786973746044820152607360f81b6064820152608401610b7c565b600061128061127b610da5565b61285e565b6112894361285e565b6112939190614193565b905060006112a261127b610b34565b6112ac9083614193565b835467ffffffffffffffff19166001600160401b038416178455905060018301805467ffffffffffffffff19166001600160401b0383161790557f7d84a6263ae0d98d3329bd7b46bb4e8d6f98cd35a7adb45c274c8b7fd5ebd5e084338b8b8d516001600160401b0381111561133257634e487b7160e01b600052604160045260246000fd5b60405190808252806020026020018201604052801561136557816020015b60608152602001906001900390816113505790505b508c88888e60405161137f99989796959493929190613fa2565b60405180910390a15091979650505050505050565b600081815260076020526040812060038101825b815481101561141c57336001600160a01b03168282815481106113db57634e487b7160e01b600052603260045260246000fd5b60009182526020909120600160059092020101546001600160a01b0316141561140a5760019350505050610b2f565b806114148161427f565b9150506113a8565b506000949350505050565b60006114646040518060a001604052806000815260200160006001600160a01b031681526020016060815260200160608152602001600081525090565b611472600680546001019055565b60065481523360208083019182526040808401878152600087815260078452918220600301805460018082018355918452928490208651600590940201928355935193820180546001600160a01b0319166001600160a01b0390951694909417909355915180518493926114ed926002850192910190613398565b5060608201518051611509916003840191602090910190613398565b506080820151816004015550507f52f5f480849d7ad260ceec55e9f964d8954e583a8194a893b441abb3dfd70df861154060065490565b60405190815260200160405180910390a1519392505050565b678ac7230489e800003410156115b15760405162461bcd60e51b815260206004820152601c60248201527f706c656173652073656e642061746c65617374203130204d41544943000000006044820152606401610b7c565b600e546001600160a01b03166340c10f19336115ce34600a6141de565b6040516001600160e01b031960e085901b1681526001600160a01b0390921660048301526024820152604401600060405180830381600087803b15801561161457600080fd5b505af1158015611628573d6000803e3d6000fd5b5050505034600a61163991906141de565b3360008181526010602090815260409182902093909355519081527fc25f1afed6949a4a7694a278213b94375a841a51748cb7a44116ae897c4f6ecd910160405180910390a1565b61168a81611c0b565b6116ee5760405162461bcd60e51b815260206004820152602f60248201527f4861636b6572204e4f5420726567697374657265642120506c6561736520726560448201526e33b4b9ba32b9103cb7bab939b2b63360891b6064820152608401610b7c565b6000818152600760205260408120600301905b81548110156117a6578482828154811061172b57634e487b7160e01b600052603260045260246000fd5b906000526020600020906005020160000154141561179457600082828154811061176557634e487b7160e01b600052603260045260246000fd5b906000526020600020906005020190508481600301908051906020019061178d929190613398565b50506117a6565b8061179e8161427f565b915050611701565b506040518481527f39a3b0282f68964e1565dbe1e8656f18e757f212f480fcbc564b36aa395373649060200160405180910390a150505050565b6011546001600160a01b03166118305760405162461bcd60e51b8152602060048201526015602482015274141c9bdc1bdcd85b081b9bdd081858d8d95c1d1959605a1b6044820152606401610b7c565b600d546001600160a01b03166340c10f198261184d85600a6141de565b6040516001600160e01b031960e085901b1681526001600160a01b0390921660048301526024820152604401600060405180830381600087803b15801561189357600080fd5b505af11580156118a7573d6000803e3d6000fd5b505050505050565b6000610b3f60045490565b60008181526001602081815260408084208151928301909152909101546001600160401b031690819052610d96565b6118f1610911565b6001600160a01b0316336001600160a01b0316146119215760405162461bcd60e51b8152600401610b7c90613e6c565b6119638483838080601f0160208091040260200160405190810160405280939291908181526020018383808284376000920191909152508892506128ca915050565b5050505050565b6000848484846040516020016119839493929190613dc4565b60408051601f19818403018152919052805160209091012095945050505050565b60006119b884670de0b6b3a76400006141de565b604051636eb1769f60e11b81523360048201523060248201526001600160a01b0384169063dd62ed3e9060440160206040518083038186803b1580156119fd57600080fd5b505afa158015611a11573d6000803e3d6000fd5b505050506040513d601f19601f82011682018060405250810190611a359190613a1a565b1015611a775760405162461bcd60e51b8152602060048201526011602482015270105b1b1bddd85b98d9481b9bdd081cd95d607a1b6044820152606401610b7c565b60006001600160a01b0383166323b872dd3330611a9c89670de0b6b3a76400006141de565b6040516001600160e01b031960e086901b1681526001600160a01b0393841660048201529290911660248301526044820152606401602060405180830381600087803b158015611aeb57600080fd5b505af1158015611aff573d6000803e3d6000fd5b505050506040513d601f19601f82011682018060405250810190611b239190613893565b9050611b33600580546001019055565b600060076000611b4260055490565b81526020019081526020016000209050611b5b60055490565b81558851611b7290600183019060208c0190613398565b50600281018690558751611b8f90600483019060208b0190613398565b508651611ba590600583019060208a0190613398565b506007810180546001600160a01b0319166001600160a01b0387161790557fcba4bf7a6b01547e7d8a3c5050ca5009bb70870c39a8702c8b18c226b89545c1611bed60055490565b60405190815260200160405180910390a15498975050505050505050565b60008181526007602052604081206003018054829190825b81811015611c9357336001600160a01b0316838281548110611c5557634e487b7160e01b600052603260045260246000fd5b60009182526020909120600160059092020101546001600160a01b03161415611c815760019350611c93565b80611c8b8161427f565b915050611c23565b5091949350505050565b670de0b6b3a7640000341015611cf55760405162461bcd60e51b815260206004820152601860248201527f4d696e696d756d203120657468657220726571756972656400000000000000006044820152606401610b7c565b611d246040518060400160405280600d81526020016c02932b1b2b4bb32b2101e9e9f1609d1b815250346128f0565b565b611d2e610911565b6001600160a01b0316336001600160a01b031614611d5e5760405162461bcd60e51b8152600401610b7c90613e6c565b610b8e81612935565b600061100483836129d6565b611d7b610911565b6001600160a01b0316336001600160a01b031614611dab5760405162461bcd60e51b8152600401610b7c90613e6c565b610b8e81612a7b565b6000610b2c82612abc565b6064811115611e425760405162461bcd60e51b815260206004820152604360248201527f476f7665726e6f72566f74657351756f72756d4672616374696f6e3a2071756f60448201527f72756d4e756d657261746f72206f7665722071756f72756d44656e6f6d696e616064820152623a37b960e91b608482015260a401610b7c565b600c80549082905560408051828152602081018490527f0553476bf02ef2726e8ce5ced78d63e26e602e4a2257b1f559418e24b4633997910160405180910390a15050565b60006040518060600160405280602781526020016142dc60279139905060005b8551811015611fa757600080878381518110611ed357634e487b7160e01b600052603260045260246000fd5b60200260200101516001600160a01b0316878481518110611f0457634e487b7160e01b600052603260045260246000fd5b6020026020010151878581518110611f2c57634e487b7160e01b600052603260045260246000fd5b6020026020010151604051611f419190613da8565b60006040518083038185875af1925050503d8060008114611f7e576040519150601f19603f3d011682016040523d82523d6000602084013e611f83565b606091505b5091509150611f93828286612b6f565b50505080611fa09061427f565b9050611ea7565b50505050505050565b6000610b2c611fbd612ba8565b8360405161190160f01b6020820152602281018390526042810182905260009060620160405160208183030381529060405280519060200120905092915050565b600080600061200f87878787612cd3565b91509150610d6481612dc0565b600084815260016020819052604082209061203687610e80565b600781111561205557634e487b7160e01b600052602160045260246000fd5b146120ae5760405162461bcd60e51b815260206004820152602360248201527f476f7665726e6f723a20766f7465206e6f742063757272656e746c792061637460448201526269766560e81b6064820152608401610b7c565b604080516020810190915281546001600160401b0316908190526000906120d6908790611d67565b90506120e487878784612fc3565b856001600160a01b03167fb8e138887d0aa13bab447e82de9d5c1777041ecd21ca36ba824ff1e6c07ddda4888784886040516121239493929190614100565b60405180910390a29695505050505050565b600081815260076020526040812081906003810182808060015b845461215d906001906141fd565b8110156122625784818154811061218457634e487b7160e01b600052603260045260246000fd5b906000526020600020906005020160040154836121a1919061417b565b9250838582815481106121c457634e487b7160e01b600052603260045260246000fd5b9060005260206000209060050201600401541115612250578481815481106121fc57634e487b7160e01b600052603260045260246000fd5b906000526020600020906005020160040154935084818154811061223057634e487b7160e01b600052603260045260246000fd5b60009182526020909120600160059092020101546001600160a01b031691505b8061225a8161427f565b91505061214f565b506122796003612273846005613239565b90613245565b84548590612289906001906141fd565b815481106122a757634e487b7160e01b600052603260045260246000fd5b906000526020600020906005020160040154106123475783547f9173824f3c339d8aa34cf4de5cfb628749c53017476edd9eea87ae2b915c34f69085906122f0906001906141fd565b8154811061230e57634e487b7160e01b600052603260045260246000fd5b90600052602060002090600502016004015460405161232f91815260200190565b60405180910390a15060078401546001600160a01b03165b808560020154600a61235991906141de565b965096505050505050915091565b60006123996040518060400160405280600e81526020016d4e6f6e654f6654686541626f766560901b81525083611427565b9050610e7c81604051806040016040528060018152602001600f60fb1b81525084611681565b60008281526009602090815260408083205483526007825280832081516101208101909252805482526001810180546060958695909493929084019161240490614244565b80601f016020809104026020016040519081016040528092919081815260200182805461243090614244565b801561247d5780601f106124525761010080835404028352916020019161247d565b820191906000526020600020905b81548152906001019060200180831161246057829003601f168201915b505050505081526020016002820154815260200160038201805480602002602001604051908101604052809291908181526020016000905b828210156126355760008481526020908190206040805160a081018252600586029092018054835260018101546001600160a01b0316938301939093526002830180549293929184019161250890614244565b80601f016020809104026020016040519081016040528092919081815260200182805461253490614244565b80156125815780601f1061255657610100808354040283529160200191612581565b820191906000526020600020905b81548152906001019060200180831161256457829003601f168201915b5050505050815260200160038201805461259a90614244565b80601f01602080910402602001604051908101604052809291908181526020018280546125c690614244565b80156126135780601f106125e857610100808354040283529160200191612613565b820191906000526020600020905b8154815290600101906020018083116125f657829003601f168201915b50505050508152602001600482015481525050815260200190600101906124b5565b50505050815260200160048201805461264d90614244565b80601f016020809104026020016040519081016040528092919081815260200182805461267990614244565b80156126c65780601f1061269b576101008083540402835291602001916126c6565b820191906000526020600020905b8154815290600101906020018083116126a957829003601f168201915b505050505081526020016005820180546126df90614244565b80601f016020809104026020016040519081016040528092919081815260200182805461270b90614244565b80156127585780601f1061272d57610100808354040283529160200191612758565b820191906000526020600020905b81548152906001019060200180831161273b57829003601f168201915b50505091835250506006820154602082015260078201546001600160a01b0316604082015260089091015460609182015281015190915060005b8151811161281257858282815181106127bb57634e487b7160e01b600052603260045260246000fd5b6020026020010151600001511415612800578181815181106127ed57634e487b7160e01b600052603260045260246000fd5b6020026020010151606001519350612812565b8061280a8161427f565b915050612792565b509195945050505050565b60025460408051918252602082018390527fc565b045403dc03c2eea82b81a0465edad9e2e7fc4d97e11421c209da93d7a93910160405180910390a1600255565b60006001600160401b038211156128c65760405162461bcd60e51b815260206004820152602660248201527f53616665436173743a2076616c756520646f65736e27742066697420696e203660448201526534206269747360d01b6064820152608401610b7c565b5090565b6060610f9e84848460405180606001604052806029815260200161430360299139613251565b610e7c8282604051602401612906929190613e4a565b60408051601f198184030181529190526020810180516001600160e01b03166309710a9d60e41b179052613377565b600081116129955760405162461bcd60e51b815260206004820152602760248201527f476f7665726e6f7253657474696e67733a20766f74696e6720706572696f6420604482015266746f6f206c6f7760c81b6064820152608401610b7c565b60035460408051918252602082018390527f7e3f7f0708a84de9203036abaa450dccc85ad5ff52f78c170f3edb55cf5e8828910160405180910390a1600355565b604051630748d63560e31b81526001600160a01b038381166004830152602482018390526000917f000000000000000000000000000000000000000000000000000000000000000090911690633a46b1a89060440160206040518083038186803b158015612a4357600080fd5b505afa158015612a57573d6000803e3d6000fd5b505050506040513d601f19601f820116820180604052508101906110049190613a1a565b60045460408051918252602082018390527fccb45da8d5717e6c4544694297c4ba5cf151d455c9bb0ed4fc7a38411bc05461910160405180910390a1600455565b60006064600c54604051632394e7a360e21b8152600481018590527f00000000000000000000000000000000000000000000000000000000000000006001600160a01b031690638e539e8c9060240160206040518083038186803b158015612b2357600080fd5b505afa158015612b37573d6000803e3d6000fd5b505050506040513d601f19601f82011682018060405250810190612b5b9190613a1a565b612b6591906141de565b610b2c91906141be565b60608315612b7e575081611004565b825115612b8e5782518084602001fd5b8160405162461bcd60e51b8152600401610b7c9190613e37565b6000306001600160a01b037f000000000000000000000000000000000000000000000000000000000000000016148015612c0157507f000000000000000000000000000000000000000000000000000000000000000046145b15612c2d57507f0000000000000000000000000000000000000000000000000000000000000000610913565b50604080517f00000000000000000000000000000000000000000000000000000000000000006020808301919091527f0000000000000000000000000000000000000000000000000000000000000000828401527f000000000000000000000000000000000000000000000000000000000000000060608301524660808301523060a0808401919091528351808403909101815260c09092019092528051910120610913565b6000807f7fffffffffffffffffffffffffffffff5d576e7357a4501ddfe92f46681b20a0831115612d0a5750600090506003612db7565b8460ff16601b14158015612d2257508460ff16601c14155b15612d335750600090506004612db7565b6040805160008082526020820180845289905260ff881692820192909252606081018690526080810185905260019060a0016020604051602081039080840390855afa158015612d87573d6000803e3d6000fd5b5050604051601f1901519150506001600160a01b038116612db057600060019250925050612db7565b9150600090505b94509492505050565b6000816004811115612de257634e487b7160e01b600052602160045260246000fd5b1415612ded57610b8e565b6001816004811115612e0f57634e487b7160e01b600052602160045260246000fd5b1415612e5d5760405162461bcd60e51b815260206004820152601860248201527f45434453413a20696e76616c6964207369676e617475726500000000000000006044820152606401610b7c565b6002816004811115612e7f57634e487b7160e01b600052602160045260246000fd5b1415612ecd5760405162461bcd60e51b815260206004820152601f60248201527f45434453413a20696e76616c6964207369676e6174757265206c656e677468006044820152606401610b7c565b6003816004811115612eef57634e487b7160e01b600052602160045260246000fd5b1415612f485760405162461bcd60e51b815260206004820152602260248201527f45434453413a20696e76616c6964207369676e6174757265202773272076616c604482015261756560f01b6064820152608401610b7c565b6004816004811115612f6a57634e487b7160e01b600052602160045260246000fd5b1415610b8e5760405162461bcd60e51b815260206004820152602260248201527f45434453413a20696e76616c6964207369676e6174757265202776272076616c604482015261756560f01b6064820152608401610b7c565b6000848152600b602090815260408083206001600160a01b0387168452600181019092529091205460ff161561304f5760405162461bcd60e51b815260206004820152602b60248201527f476f7665726e6f72566f74696e6753696d706c6553656c663a20766f7465206160448201526a1b1c9958591e4818d85cdd60aa1b6064820152608401610b7c565b6001600160a01b0384166000908152600182810160209081526040808420805460ff19169093179092558783526009815281832054808452600790915291819020905160038201907f2bbe4c96da549b1a787f636d8599819ee650cb00433930c8134b9021ebb21ff8906130c4908490613ee4565b60405180910390a180546040519081527fc8f9129b2b9e0b802fd31fddc1d0e8b371b60e57d44c193a2dd41b24b5ce69649060200160405180910390a1805460ff8716116131c95784818760ff168154811061313057634e487b7160e01b600052603260045260246000fd5b90600052602060002090600502016004016000828254613150919061417b565b925050819055507f5bf7592d0eaef385cd7fc928d276d6be82ad29c01b35a6efc5fbcab1c924d679818760ff168154811061319b57634e487b7160e01b600052603260045260246000fd5b9060005260206000209060050201600401546040516131bc91815260200190565b60405180910390a161322f565b60405162461bcd60e51b815260206004820152603560248201527f476f7665726e6f72566f74696e6753696d706c653a20696e76616c69642076616044820152746c756520666f7220656e756d20566f74655479706560581b6064820152608401610b7c565b5050505050505050565b600061100482846141be565b600061100482846141de565b6060824710156132b25760405162461bcd60e51b815260206004820152602660248201527f416464726573733a20696e73756666696369656e742062616c616e636520666f6044820152651c8818d85b1b60d21b6064820152608401610b7c565b6001600160a01b0385163b6133095760405162461bcd60e51b815260206004820152601d60248201527f416464726573733a2063616c6c20746f206e6f6e2d636f6e74726163740000006044820152606401610b7c565b600080866001600160a01b031685876040516133259190613da8565b60006040518083038185875af1925050503d8060008114613362576040519150601f19603f3d011682016040523d82523d6000602084013e613367565b606091505b5091509150610e39828286612b6f565b80516a636f6e736f6c652e6c6f67602083016000808483855afa5050505050565b8280546133a490614244565b90600052602060002090601f0160209004810192826133c6576000855561340c565b82601f106133df57805160ff191683800117855561340c565b8280016001018555821561340c579182015b8281111561340c5782518255916020019190600101906133f1565b506128c69291505b808211156128c65760008155600101613414565b60006001600160401b03831115613441576134416142b0565b613454601f8401601f1916602001614128565b905082815283838301111561346857600080fd5b828260208301376000602084830101529392505050565b600082601f83011261348f578081fd5b813560206134a461349f83614158565b614128565b82815281810190858301838502870184018810156134c0578586fd5b855b858110156134e75781356134d5816142c6565b845292840192908401906001016134c2565b5090979650505050505050565b600082601f830112613504578081fd5b8135602061351461349f83614158565b82815281810190858301855b858110156134e7578135880189603f82011261353a578788fd5b61354b8a8783013560408401613428565b8552509284019290840190600101613520565b600082601f83011261356e578081fd5b8135602061357e61349f83614158565b828152818101908583018385028701840188101561359a578586fd5b855b858110156134e75781358452928401929084019060010161359c565b60008083601f8401126135c9578182fd5b5081356001600160401b038111156135df578182fd5b6020830191508360208285010111156135f757600080fd5b9250929050565b600082601f83011261360e578081fd5b61100483833560208501613428565b803560ff81168114610b2f57600080fd5b60008060408385031215613640578182fd5b823561364b816142c6565b946020939093013593505050565b6000806000806060858703121561366e578182fd5b8435613679816142c6565b93506020850135925060408501356001600160401b0381111561369a578283fd5b6136a6878288016135b8565b95989497509550505050565b600080600080608085870312156136c7578384fd5b84356001600160401b03808211156136dd578586fd5b6136e98883890161347f565b955060208701359150808211156136fe578485fd5b61370a8883890161355e565b9450604087013591508082111561371f578384fd5b5061372c878288016134f4565b949793965093946060013593505050565b60008060008060808587031215613752578182fd5b84356001600160401b0380821115613768578384fd5b6137748883890161347f565b95506020870135915080821115613789578384fd5b6137958883890161355e565b945060408701359150808211156137aa578384fd5b6137b6888389016134f4565b935060608701359150808211156137cb578283fd5b506137d8878288016135fe565b91505092959194509250565b600080600080600060a086880312156137fb578283fd5b85356001600160401b0380821115613811578485fd5b61381d89838a0161347f565b96506020880135915080821115613832578485fd5b61383e89838a0161355e565b95506040880135915080821115613853578485fd5b61385f89838a016134f4565b94506060880135915080821115613874578283fd5b50613881888289016135fe565b95989497509295608001359392505050565b6000602082840312156138a4578081fd5b81518015158114611004578182fd5b6000602082840312156138c4578081fd5b81356001600160e01b031981168114611004578182fd5b6000602082840312156138ec578081fd5b81356001600160401b03811115613901578182fd5b610f9e848285016135fe565b60008060008060008060c08789031215613925578384fd5b86356001600160401b038082111561393b578586fd5b6139478a838b016135fe565b9750602089013591508082111561395c578586fd5b6139688a838b016135fe565b9650604089013591508082111561397d578586fd5b5061398a89828a016135fe565b9450506060870135925060808701356139a2816142c6565b915060a08701356139b2816142c6565b809150509295509295509295565b600080604083850312156139d2578182fd5b82356001600160401b038111156139e7578283fd5b6139f3858286016135fe565b95602094909401359450505050565b600060208284031215613a13578081fd5b5035919050565b600060208284031215613a2b578081fd5b5051919050565b60008060408385031215613a44578182fd5b823591506020830135613a56816142c6565b809150509250929050565b600080600060608486031215613a75578081fd5b8335925060208401356001600160401b03811115613a91578182fd5b613a9d868287016135fe565b925050604084013590509250925092565b60008060408385031215613ac0578182fd5b50508035926020909101359150565b60008060408385031215613ae1578182fd5b82359150613af16020840161361d565b90509250929050565b60008060008060608587031215613b0f578182fd5b84359350613b1f6020860161361d565b925060408501356001600160401b0381111561369a578283fd5b600080600080600060a08688031215613b50578283fd5b85359450613b606020870161361d565b9350613b6e6040870161361d565b94979396509394606081013594506080013592915050565b6000815180845260208085019450808401835b83811015613bbe5781516001600160a01b031687529582019590820190600101613b99565b509495945050505050565b6000815180845260208085018081965082840281019150828601855b85811015613c0f578284038952613bfd848351613cde565b98850198935090840190600101613be5565b5091979650505050505050565b6000815480845260208085018081965082840281019150858552828520855b85811015613c0f5782840389528154845260018201546001600160a01b03168585015260a060408501819052613c7681860160028501613d0a565b90508481036060860152613c8d8160038501613d0a565b6004840154608096909601959095525097840197600590910190600101613c3b565b6000815180845260208085019450808401835b83811015613bbe57815187529582019590820190600101613cc2565b60008151808452613cf6816020860160208601614214565b601f01601f19169290920160200192915050565b805460009060028104600180831680613d2457607f831692505b6020808410821415613d4457634e487b7160e01b86526022600452602486fd5b83885260208801828015613d5f5760018114613d7057613d9b565b60ff19871682528282019750613d9b565b60008981526020902060005b87811015613d9557815484820152908601908401613d7c565b83019850505b5050505050505092915050565b60008251613dba818460208701614214565b9190910192915050565b600060808252613dd76080830187613b86565b8281036020840152613de98187613caf565b90508281036040840152613dfd8186613bc9565b91505082606083015295945050505050565b6020810160088310613e3157634e487b7160e01b600052602160045260246000fd5b91905290565b6000602082526110046020830184613cde565b600060408252613e5d6040830185613cde565b90508260208301529392505050565b60208082526018908201527f476f7665726e6f723a206f6e6c79476f7665726e616e63650000000000000000604082015260600190565b60208082526021908201527f476f7665726e6f723a20696e76616c69642070726f706f73616c206c656e67746040820152600d60fb1b606082015260800190565b60006020825282546020830152610120806040840152613f0b610140840160018601613d0a565b60028501546060850152601f1980858303016080860152613f2f8260038801613c1c565b9150808583030160a0860152613f488260048801613d0a565b9150808583030160c086015250613f628160058701613d0a565b9050600685015460e0850152613f8260078601546001600160a01b031690565b6001600160a01b0316610100850152600894909401549201919091525090565b60006101208b8352602060018060a01b038c1681850152816040850152613fcb8285018c613b86565b91508382036060850152613fdf828b613caf565b848103608086015289518082529092508183019082810284018301838c01865b8381101561402d57601f1987840301855261401b838351613cde565b94860194925090850190600101613fff565b505086810360a0880152614041818c613bc9565b94505050505061405c60c08401876001600160401b03169052565b6001600160401b03851660e084015282810361010084015261407e8185613cde565b9c9b505050505050505050505050565b60006101008a83528060208401526140a88184018b613cde565b905088604084015282810360608401526140c28189613cde565b905082810360808401526140d68188613cde565b60a084019690965250506001600160a01b039290921660c083015260e09091015295945050505050565b600085825260ff8516602083015283604083015260806060830152610fee6080830184613cde565b604051601f8201601f191681016001600160401b0381118282101715614150576141506142b0565b604052919050565b60006001600160401b03821115614171576141716142b0565b5060209081020190565b6000821982111561418e5761418e61429a565b500190565b60006001600160401b038083168185168083038211156141b5576141b561429a565b01949350505050565b6000826141d957634e487b7160e01b81526012600452602481fd5b500490565b60008160001904831182151516156141f8576141f861429a565b500290565b60008282101561420f5761420f61429a565b500390565b60005b8381101561422f578181015183820152602001614217565b8381111561423e576000848401525b50505050565b60028104600182168061425857607f821691505b6020821081141561427957634e487b7160e01b600052602260045260246000fd5b50919050565b60006000198214156142935761429361429a565b5060010190565b634e487b7160e01b600052601160045260246000fd5b634e487b7160e01b600052604160045260246000fd5b6001600160a01b0381168114610b8e57600080fdfe476f7665726e6f723a2063616c6c20726576657274656420776974686f7574206d657373616765416464726573733a206c6f772d6c6576656c2063616c6c20776974682076616c7565206661696c6564a264697066735822122025d73809d0f2558cb0071df5ae9625ffa59fe3751886fc797c97189c9172c8ce64736f6c63430008020033",
  "linkReferences": {},
  "deployedLinkReferences": {}
}