{
  "_format": "hh-sol-artifact-1",
  "contractName": "PrizeDAOGovernor",
  "sourceName": "contracts/PrizeDAOGovernor.sol",
  "abi": [
    {
      "inputs": [
        {
          "internalType": "contract ERC20Votes",
          "name": "_token",
          "type": "address"
        },
        {
          "internalType": "string",
          "name": "_name",
          "type": "string"
        }
      ],
      "stateMutability": "nonpayable",
      "type": "constructor"
    },
    {
      "anonymous": false,
      "inputs": [
        {
          "indexed": false,
          "internalType": "uint256",
          "name": "currentProposalID",
          "type": "uint256"
        }
      ],
      "name": "CurrentProposalID",
      "type": "event"
    },
    {
      "anonymous": false,
      "inputs": [
        {
          "indexed": false,
          "internalType": "uint256",
          "name": "HackathonId",
          "type": "uint256"
        }
      ],
      "name": "HackathonCreated",
      "type": "event"
    },
    {
      "anonymous": false,
      "inputs": [
        {
          "components": [
            {
              "internalType": "uint256",
              "name": "hackathonId",
              "type": "uint256"
            },
            {
              "internalType": "string",
              "name": "name",
              "type": "string"
            },
            {
              "internalType": "uint256",
              "name": "prizeMoney",
              "type": "uint256"
            },
            {
              "components": [
                {
                  "internalType": "uint256",
                  "name": "hackerId",
                  "type": "uint256"
                },
                {
                  "internalType": "address",
                  "name": "hackerAdd",
                  "type": "address"
                },
                {
                  "internalType": "string",
                  "name": "name",
                  "type": "string"
                },
                {
                  "internalType": "string",
                  "name": "ipfsHash",
                  "type": "string"
                },
                {
                  "internalType": "uint256",
                  "name": "votesGot",
                  "type": "uint256"
                }
              ],
              "internalType": "struct GovernorCountingSimpleSelf.Hacker[]",
              "name": "hackers",
              "type": "tuple[]"
            },
            {
              "internalType": "string",
              "name": "startDate",
              "type": "string"
            },
            {
              "internalType": "string",
              "name": "endDate",
              "type": "string"
            },
            {
              "internalType": "uint256",
              "name": "proposalId",
              "type": "uint256"
            },
            {
              "internalType": "address",
              "name": "sponsorAddress",
              "type": "address"
            },
            {
              "internalType": "uint256",
              "name": "blockNum",
              "type": "uint256"
            }
          ],
          "indexed": false,
          "internalType": "struct GovernorCountingSimpleSelf.Hackathon",
          "name": "hackathon",
          "type": "tuple"
        }
      ],
      "name": "HackathonEvent",
      "type": "event"
    },
    {
      "anonymous": false,
      "inputs": [
        {
          "indexed": false,
          "internalType": "string",
          "name": "hackerIpfsSubmission",
          "type": "string"
        }
      ],
      "name": "HackerIpfsSubmission",
      "type": "event"
    },
    {
      "anonymous": false,
      "inputs": [
        {
          "indexed": false,
          "internalType": "uint256",
          "name": "HackerId",
          "type": "uint256"
        }
      ],
      "name": "HackerRegisted",
      "type": "event"
    },
    {
      "anonymous": false,
      "inputs": [
        {
          "indexed": false,
          "internalType": "uint256",
          "name": "TotalVotesLastOptionGot",
          "type": "uint256"
        }
      ],
      "name": "NoHackerWon",
      "type": "event"
    },
    {
      "anonymous": false,
      "inputs": [
        {
          "indexed": false,
          "internalType": "uint256",
          "name": "numOfHackers",
          "type": "uint256"
        }
      ],
      "name": "NumOfHackers",
      "type": "event"
    },
    {
      "anonymous": false,
      "inputs": [
        {
          "indexed": false,
          "internalType": "uint256",
          "name": "proposalId",
          "type": "uint256"
        }
      ],
      "name": "ProposalCanceled",
      "type": "event"
    },
    {
      "anonymous": false,
      "inputs": [
        {
          "indexed": false,
          "internalType": "uint256",
          "name": "proposalId",
          "type": "uint256"
        },
        {
          "indexed": false,
          "internalType": "address",
          "name": "proposer",
          "type": "address"
        },
        {
          "indexed": false,
          "internalType": "address[]",
          "name": "targets",
          "type": "address[]"
        },
        {
          "indexed": false,
          "internalType": "uint256[]",
          "name": "values",
          "type": "uint256[]"
        },
        {
          "indexed": false,
          "internalType": "string[]",
          "name": "signatures",
          "type": "string[]"
        },
        {
          "indexed": false,
          "internalType": "bytes[]",
          "name": "calldatas",
          "type": "bytes[]"
        },
        {
          "indexed": false,
          "internalType": "uint256",
          "name": "startBlock",
          "type": "uint256"
        },
        {
          "indexed": false,
          "internalType": "uint256",
          "name": "endBlock",
          "type": "uint256"
        },
        {
          "indexed": false,
          "internalType": "string",
          "name": "description",
          "type": "string"
        }
      ],
      "name": "ProposalCreated",
      "type": "event"
    },
    {
      "anonymous": false,
      "inputs": [
        {
          "indexed": false,
          "internalType": "uint256",
          "name": "proposalId",
          "type": "uint256"
        }
      ],
      "name": "ProposalExecuted",
      "type": "event"
    },
    {
      "anonymous": false,
      "inputs": [
        {
          "indexed": false,
          "internalType": "uint256",
          "name": "oldProposalThreshold",
          "type": "uint256"
        },
        {
          "indexed": false,
          "internalType": "uint256",
          "name": "newProposalThreshold",
          "type": "uint256"
        }
      ],
      "name": "ProposalThresholdSet",
      "type": "event"
    },
    {
      "anonymous": false,
      "inputs": [
        {
          "indexed": false,
          "internalType": "uint256",
          "name": "oldQuorumNumerator",
          "type": "uint256"
        },
        {
          "indexed": false,
          "internalType": "uint256",
          "name": "newQuorumNumerator",
          "type": "uint256"
        }
      ],
      "name": "QuorumNumeratorUpdated",
      "type": "event"
    },
    {
      "anonymous": false,
      "inputs": [
        {
          "indexed": false,
          "internalType": "address",
          "name": "new_sponsor",
          "type": "address"
        }
      ],
      "name": "SponsorAdded",
      "type": "event"
    },
    {
      "anonymous": false,
      "inputs": [
        {
          "indexed": false,
          "internalType": "uint256",
          "name": "HackerId",
          "type": "uint256"
        }
      ],
      "name": "SubmissionDone",
      "type": "event"
    },
    {
      "anonymous": false,
      "inputs": [
        {
          "indexed": false,
          "internalType": "uint256",
          "name": "totalVotes",
          "type": "uint256"
        }
      ],
      "name": "TotalVotes",
      "type": "event"
    },
    {
      "anonymous": false,
      "inputs": [
        {
          "indexed": true,
          "internalType": "address",
          "name": "voter",
          "type": "address"
        },
        {
          "indexed": false,
          "internalType": "uint256",
          "name": "proposalId",
          "type": "uint256"
        },
        {
          "indexed": false,
          "internalType": "uint8",
          "name": "support",
          "type": "uint8"
        },
        {
          "indexed": false,
          "internalType": "uint256",
          "name": "weight",
          "type": "uint256"
        },
        {
          "indexed": false,
          "internalType": "string",
          "name": "reason",
          "type": "string"
        }
      ],
      "name": "VoteCast",
      "type": "event"
    },
    {
      "anonymous": false,
      "inputs": [
        {
          "indexed": false,
          "internalType": "uint256",
          "name": "votesPresent",
          "type": "uint256"
        }
      ],
      "name": "VotesPresent",
      "type": "event"
    },
    {
      "anonymous": false,
      "inputs": [
        {
          "indexed": false,
          "internalType": "uint256",
          "name": "oldVotingDelay",
          "type": "uint256"
        },
        {
          "indexed": false,
          "internalType": "uint256",
          "name": "newVotingDelay",
          "type": "uint256"
        }
      ],
      "name": "VotingDelaySet",
      "type": "event"
    },
    {
      "anonymous": false,
      "inputs": [
        {
          "indexed": false,
          "internalType": "uint256",
          "name": "oldVotingPeriod",
          "type": "uint256"
        },
        {
          "indexed": false,
          "internalType": "uint256",
          "name": "newVotingPeriod",
          "type": "uint256"
        }
      ],
      "name": "VotingPeriodSet",
      "type": "event"
    },
    {
      "anonymous": false,
      "inputs": [
        {
          "indexed": false,
          "internalType": "address",
          "name": "winnerAddress",
          "type": "address"
        }
      ],
      "name": "WinnerIs",
      "type": "event"
    },
    {
      "inputs": [],
      "name": "BALLOT_TYPEHASH",
      "outputs": [
        {
          "internalType": "bytes32",
          "name": "",
          "type": "bytes32"
        }
      ],
      "stateMutability": "view",
      "type": "function"
    },
    {
      "inputs": [],
      "name": "COUNTING_MODE",
      "outputs": [
        {
          "internalType": "string",
          "name": "",
          "type": "string"
        }
      ],
      "stateMutability": "pure",
      "type": "function"
    },
    {
      "inputs": [
        {
          "internalType": "uint256",
          "name": "",
          "type": "uint256"
        }
      ],
      "name": "ProposalIdToHackathonId",
      "outputs": [
        {
          "internalType": "uint256",
          "name": "",
          "type": "uint256"
        }
      ],
      "stateMutability": "view",
      "type": "function"
    },
    {
      "inputs": [
        {
          "internalType": "string",
          "name": "",
          "type": "string"
        }
      ],
      "name": "acceptedProposal",
      "outputs": [
        {
          "internalType": "address",
          "name": "",
          "type": "address"
        }
      ],
      "stateMutability": "view",
      "type": "function"
    },
    {
      "inputs": [],
      "name": "addSponsor",
      "outputs": [],
      "stateMutability": "payable",
      "type": "function"
    },
    {
      "inputs": [
        {
          "internalType": "string",
          "name": "_name",
          "type": "string"
        },
        {
          "internalType": "string",
          "name": "_startDate",
          "type": "string"
        },
        {
          "internalType": "string",
          "name": "_endDate",
          "type": "string"
        },
        {
          "internalType": "uint256",
          "name": "_prizeMoney",
          "type": "uint256"
        },
        {
          "internalType": "address payable",
          "name": "_sponsorAddress",
          "type": "address"
        },
        {
          "internalType": "address",
          "name": "_token",
          "type": "address"
        }
      ],
      "name": "add_hackathon",
      "outputs": [
        {
          "internalType": "uint256",
          "name": "",
          "type": "uint256"
        }
      ],
      "stateMutability": "payable",
      "type": "function"
    },
    {
      "inputs": [
        {
          "internalType": "uint256",
          "name": "_hackerId",
          "type": "uint256"
        },
        {
          "internalType": "string",
          "name": "_ipfsHash",
          "type": "string"
        },
        {
          "internalType": "uint256",
          "name": "_hackathonId",
          "type": "uint256"
        }
      ],
      "name": "add_submission",
      "outputs": [],
      "stateMutability": "nonpayable",
      "type": "function"
    },
    {
      "inputs": [
        {
          "internalType": "uint256",
          "name": "proposalId",
          "type": "uint256"
        },
        {
          "internalType": "uint8",
          "name": "support",
          "type": "uint8"
        }
      ],
      "name": "castVote",
      "outputs": [
        {
          "internalType": "uint256",
          "name": "",
          "type": "uint256"
        }
      ],
      "stateMutability": "nonpayable",
      "type": "function"
    },
    {
      "inputs": [
        {
          "internalType": "uint256",
          "name": "proposalId",
          "type": "uint256"
        },
        {
          "internalType": "uint8",
          "name": "support",
          "type": "uint8"
        },
        {
          "internalType": "uint8",
          "name": "v",
          "type": "uint8"
        },
        {
          "internalType": "bytes32",
          "name": "r",
          "type": "bytes32"
        },
        {
          "internalType": "bytes32",
          "name": "s",
          "type": "bytes32"
        }
      ],
      "name": "castVoteBySig",
      "outputs": [
        {
          "internalType": "uint256",
          "name": "",
          "type": "uint256"
        }
      ],
      "stateMutability": "nonpayable",
      "type": "function"
    },
    {
      "inputs": [
        {
          "internalType": "uint256",
          "name": "proposalId",
          "type": "uint256"
        },
        {
          "internalType": "uint8",
          "name": "support",
          "type": "uint8"
        },
        {
          "internalType": "string",
          "name": "reason",
          "type": "string"
        }
      ],
      "name": "castVoteWithReason",
      "outputs": [
        {
          "internalType": "uint256",
          "name": "",
          "type": "uint256"
        }
      ],
      "stateMutability": "nonpayable",
      "type": "function"
    },
    {
      "inputs": [
        {
          "internalType": "address[]",
          "name": "targets",
          "type": "address[]"
        },
        {
          "internalType": "uint256[]",
          "name": "values",
          "type": "uint256[]"
        },
        {
          "internalType": "bytes[]",
          "name": "calldatas",
          "type": "bytes[]"
        },
        {
          "internalType": "string",
          "name": "description",
          "type": "string"
        },
        {
          "internalType": "uint256",
          "name": "hackathonId",
          "type": "uint256"
        }
      ],
      "name": "createProposal",
      "outputs": [
        {
          "internalType": "uint256",
          "name": "",
          "type": "uint256"
        }
      ],
      "stateMutability": "nonpayable",
      "type": "function"
    },
    {
      "inputs": [
        {
          "internalType": "address",
          "name": "delegatee",
          "type": "address"
        }
      ],
      "name": "delegateVotes",
      "outputs": [],
      "stateMutability": "nonpayable",
      "type": "function"
    },
    {
      "inputs": [
        {
          "internalType": "uint256",
          "name": "amount",
          "type": "uint256"
        }
      ],
      "name": "disburseIncentive",
      "outputs": [],
      "stateMutability": "nonpayable",
      "type": "function"
    },
    {
      "inputs": [
        {
          "internalType": "address[]",
          "name": "targets",
          "type": "address[]"
        },
        {
          "internalType": "uint256[]",
          "name": "values",
          "type": "uint256[]"
        },
        {
          "internalType": "bytes[]",
          "name": "calldatas",
          "type": "bytes[]"
        },
        {
          "internalType": "bytes32",
          "name": "descriptionHash",
          "type": "bytes32"
        }
      ],
      "name": "execute",
      "outputs": [
        {
          "internalType": "uint256",
          "name": "",
          "type": "uint256"
        }
      ],
      "stateMutability": "payable",
      "type": "function"
    },
    {
      "inputs": [
        {
          "internalType": "uint256",
          "name": "_proposalId",
          "type": "uint256"
        }
      ],
      "name": "getBlockNumber",
      "outputs": [
        {
          "internalType": "uint256",
          "name": "",
          "type": "uint256"
        }
      ],
      "stateMutability": "view",
      "type": "function"
    },
    {
      "inputs": [
        {
          "internalType": "uint256",
          "name": "_proposalId",
          "type": "uint256"
        },
        {
          "internalType": "uint256",
          "name": "_hackerId",
          "type": "uint256"
        }
      ],
      "name": "getHackerSubmission",
      "outputs": [
        {
          "internalType": "string",
          "name": "",
          "type": "string"
        }
      ],
      "stateMutability": "view",
      "type": "function"
    },
    {
      "inputs": [
        {
          "internalType": "uint256",
          "name": "blockNumber",
          "type": "uint256"
        }
      ],
      "name": "getPastTotalSupply",
      "outputs": [
        {
          "internalType": "uint256",
          "name": "",
          "type": "uint256"
        }
      ],
      "stateMutability": "view",
      "type": "function"
    },
    {
      "inputs": [
        {
          "internalType": "uint256",
          "name": "_hackathonId",
          "type": "uint256"
        }
      ],
      "name": "getProposalId",
      "outputs": [
        {
          "internalType": "uint256",
          "name": "",
          "type": "uint256"
        }
      ],
      "stateMutability": "view",
      "type": "function"
    },
    {
      "inputs": [
        {
          "internalType": "address",
          "name": "account",
          "type": "address"
        },
        {
          "internalType": "uint256",
          "name": "blockNumber",
          "type": "uint256"
        }
      ],
      "name": "getVotes",
      "outputs": [
        {
          "internalType": "uint256",
          "name": "",
          "type": "uint256"
        }
      ],
      "stateMutability": "view",
      "type": "function"
    },
    {
      "inputs": [],
      "name": "hackathonId",
      "outputs": [
        {
          "internalType": "uint256",
          "name": "_value",
          "type": "uint256"
        }
      ],
      "stateMutability": "view",
      "type": "function"
    },
    {
      "inputs": [
        {
          "internalType": "uint256",
          "name": "",
          "type": "uint256"
        }
      ],
      "name": "hackathonIdToHackathon",
      "outputs": [
        {
          "internalType": "uint256",
          "name": "hackathonId",
          "type": "uint256"
        },
        {
          "internalType": "string",
          "name": "name",
          "type": "string"
        },
        {
          "internalType": "uint256",
          "name": "prizeMoney",
          "type": "uint256"
        },
        {
          "internalType": "string",
          "name": "startDate",
          "type": "string"
        },
        {
          "internalType": "string",
          "name": "endDate",
          "type": "string"
        },
        {
          "internalType": "uint256",
          "name": "proposalId",
          "type": "uint256"
        },
        {
          "internalType": "address",
          "name": "sponsorAddress",
          "type": "address"
        },
        {
          "internalType": "uint256",
          "name": "blockNum",
          "type": "uint256"
        }
      ],
      "stateMutability": "view",
      "type": "function"
    },
    {
      "inputs": [
        {
          "internalType": "uint256",
          "name": "_hackathonId",
          "type": "uint256"
        }
      ],
      "name": "hackerHasRegisteredBefore",
      "outputs": [
        {
          "internalType": "bool",
          "name": "",
          "type": "bool"
        }
      ],
      "stateMutability": "nonpayable",
      "type": "function"
    },
    {
      "inputs": [],
      "name": "hackerId",
      "outputs": [
        {
          "internalType": "uint256",
          "name": "_value",
          "type": "uint256"
        }
      ],
      "stateMutability": "view",
      "type": "function"
    },
    {
      "inputs": [
        {
          "internalType": "uint256",
          "name": "",
          "type": "uint256"
        }
      ],
      "name": "hackerIdToHackathon",
      "outputs": [
        {
          "internalType": "uint256",
          "name": "hackathonId",
          "type": "uint256"
        },
        {
          "internalType": "string",
          "name": "name",
          "type": "string"
        },
        {
          "internalType": "uint256",
          "name": "prizeMoney",
          "type": "uint256"
        },
        {
          "internalType": "string",
          "name": "startDate",
          "type": "string"
        },
        {
          "internalType": "string",
          "name": "endDate",
          "type": "string"
        },
        {
          "internalType": "uint256",
          "name": "proposalId",
          "type": "uint256"
        },
        {
          "internalType": "address",
          "name": "sponsorAddress",
          "type": "address"
        },
        {
          "internalType": "uint256",
          "name": "blockNum",
          "type": "uint256"
        }
      ],
      "stateMutability": "view",
      "type": "function"
    },
    {
      "inputs": [
        {
          "internalType": "uint256",
          "name": "_hackathonId",
          "type": "uint256"
        }
      ],
      "name": "hasHackerRegistedForHackathon",
      "outputs": [
        {
          "internalType": "bool",
          "name": "",
          "type": "bool"
        }
      ],
      "stateMutability": "view",
      "type": "function"
    },
    {
      "inputs": [
        {
          "internalType": "uint256",
          "name": "proposalId",
          "type": "uint256"
        },
        {
          "internalType": "address",
          "name": "account",
          "type": "address"
        }
      ],
      "name": "hasVoted",
      "outputs": [
        {
          "internalType": "bool",
          "name": "",
          "type": "bool"
        }
      ],
      "stateMutability": "view",
      "type": "function"
    },
    {
      "inputs": [
        {
          "internalType": "address[]",
          "name": "targets",
          "type": "address[]"
        },
        {
          "internalType": "uint256[]",
          "name": "values",
          "type": "uint256[]"
        },
        {
          "internalType": "bytes[]",
          "name": "calldatas",
          "type": "bytes[]"
        },
        {
          "internalType": "bytes32",
          "name": "descriptionHash",
          "type": "bytes32"
        }
      ],
      "name": "hashProposal",
      "outputs": [
        {
          "internalType": "uint256",
          "name": "",
          "type": "uint256"
        }
      ],
      "stateMutability": "pure",
      "type": "function"
    },
    {
      "inputs": [],
      "name": "name",
      "outputs": [
        {
          "internalType": "string",
          "name": "",
          "type": "string"
        }
      ],
      "stateMutability": "view",
      "type": "function"
    },
    {
      "inputs": [
        {
          "internalType": "uint256",
          "name": "proposalId",
          "type": "uint256"
        }
      ],
      "name": "proposalDeadline",
      "outputs": [
        {
          "internalType": "uint256",
          "name": "",
          "type": "uint256"
        }
      ],
      "stateMutability": "view",
      "type": "function"
    },
    {
      "inputs": [
        {
          "internalType": "uint256",
          "name": "proposalId",
          "type": "uint256"
        }
      ],
      "name": "proposalSnapshot",
      "outputs": [
        {
          "internalType": "uint256",
          "name": "",
          "type": "uint256"
        }
      ],
      "stateMutability": "view",
      "type": "function"
    },
    {
      "inputs": [],
      "name": "proposalThreshold",
      "outputs": [
        {
          "internalType": "uint256",
          "name": "",
          "type": "uint256"
        }
      ],
      "stateMutability": "view",
      "type": "function"
    },
    {
      "inputs": [
        {
          "internalType": "address[]",
          "name": "targets",
          "type": "address[]"
        },
        {
          "internalType": "uint256[]",
          "name": "values",
          "type": "uint256[]"
        },
        {
          "internalType": "bytes[]",
          "name": "calldatas",
          "type": "bytes[]"
        },
        {
          "internalType": "string",
          "name": "description",
          "type": "string"
        }
      ],
      "name": "propose",
      "outputs": [
        {
          "internalType": "uint256",
          "name": "",
          "type": "uint256"
        }
      ],
      "stateMutability": "nonpayable",
      "type": "function"
    },
    {
      "inputs": [
        {
          "internalType": "uint256",
          "name": "blockNumber",
          "type": "uint256"
        }
      ],
      "name": "quorum",
      "outputs": [
        {
          "internalType": "uint256",
          "name": "",
          "type": "uint256"
        }
      ],
      "stateMutability": "view",
      "type": "function"
    },
    {
      "inputs": [],
      "name": "quorumDenominator",
      "outputs": [
        {
          "internalType": "uint256",
          "name": "",
          "type": "uint256"
        }
      ],
      "stateMutability": "view",
      "type": "function"
    },
    {
      "inputs": [],
      "name": "quorumNumerator",
      "outputs": [
        {
          "internalType": "uint256",
          "name": "",
          "type": "uint256"
        }
      ],
      "stateMutability": "view",
      "type": "function"
    },
    {
      "inputs": [],
      "name": "receiveEthForTransactions",
      "outputs": [],
      "stateMutability": "payable",
      "type": "function"
    },
    {
      "inputs": [
        {
          "internalType": "string",
          "name": "_name",
          "type": "string"
        },
        {
          "internalType": "uint256",
          "name": "_hackathonId",
          "type": "uint256"
        }
      ],
      "name": "register_hacker",
      "outputs": [
        {
          "internalType": "uint256",
          "name": "",
          "type": "uint256"
        }
      ],
      "stateMutability": "nonpayable",
      "type": "function"
    },
    {
      "inputs": [
        {
          "internalType": "address",
          "name": "target",
          "type": "address"
        },
        {
          "internalType": "uint256",
          "name": "value",
          "type": "uint256"
        },
        {
          "internalType": "bytes",
          "name": "data",
          "type": "bytes"
        }
      ],
      "name": "relay",
      "outputs": [],
      "stateMutability": "nonpayable",
      "type": "function"
    },
    {
      "inputs": [
        {
          "internalType": "uint256",
          "name": "newProposalThreshold",
          "type": "uint256"
        }
      ],
      "name": "setProposalThreshold",
      "outputs": [],
      "stateMutability": "nonpayable",
      "type": "function"
    },
    {
      "inputs": [
        {
          "internalType": "uint256",
          "name": "newVotingDelay",
          "type": "uint256"
        }
      ],
      "name": "setVotingDelay",
      "outputs": [],
      "stateMutability": "nonpayable",
      "type": "function"
    },
    {
      "inputs": [
        {
          "internalType": "uint256",
          "name": "newVotingPeriod",
          "type": "uint256"
        }
      ],
      "name": "setVotingPeriod",
      "outputs": [],
      "stateMutability": "nonpayable",
      "type": "function"
    },
    {
      "inputs": [
        {
          "internalType": "uint256",
          "name": "_hackathonId",
          "type": "uint256"
        }
      ],
      "name": "setWinnerAddress",
      "outputs": [],
      "stateMutability": "nonpayable",
      "type": "function"
    },
    {
      "inputs": [
        {
          "internalType": "address",
          "name": "",
          "type": "address"
        }
      ],
      "name": "sponsorsToAmount",
      "outputs": [
        {
          "internalType": "uint256",
          "name": "",
          "type": "uint256"
        }
      ],
      "stateMutability": "view",
      "type": "function"
    },
    {
      "inputs": [
        {
          "internalType": "uint256",
          "name": "proposalId",
          "type": "uint256"
        }
      ],
      "name": "state",
      "outputs": [
        {
          "internalType": "enum IGovernor.ProposalState",
          "name": "",
          "type": "uint8"
        }
      ],
      "stateMutability": "view",
      "type": "function"
    },
    {
      "inputs": [
        {
          "internalType": "bytes4",
          "name": "interfaceId",
          "type": "bytes4"
        }
      ],
      "name": "supportsInterface",
      "outputs": [
        {
          "internalType": "bool",
          "name": "",
          "type": "bool"
        }
      ],
      "stateMutability": "view",
      "type": "function"
    },
    {
      "inputs": [],
      "name": "token",
      "outputs": [
        {
          "internalType": "contract IVotes",
          "name": "",
          "type": "address"
        }
      ],
      "stateMutability": "view",
      "type": "function"
    },
    {
      "inputs": [
        {
          "internalType": "uint256",
          "name": "newQuorumNumerator",
          "type": "uint256"
        }
      ],
      "name": "updateQuorumNumerator",
      "outputs": [],
      "stateMutability": "nonpayable",
      "type": "function"
    },
    {
      "inputs": [],
      "name": "version",
      "outputs": [
        {
          "internalType": "string",
          "name": "",
          "type": "string"
        }
      ],
      "stateMutability": "view",
      "type": "function"
    },
    {
      "inputs": [],
      "name": "votingDelay",
      "outputs": [
        {
          "internalType": "uint256",
          "name": "",
          "type": "uint256"
        }
      ],
      "stateMutability": "view",
      "type": "function"
    },
    {
      "inputs": [],
      "name": "votingPeriod",
      "outputs": [
        {
          "internalType": "uint256",
          "name": "",
          "type": "uint256"
        }
      ],
      "stateMutability": "view",
      "type": "function"
    },
    {
      "stateMutability": "payable",
      "type": "receive"
    }
  ],
  "bytecode": "0x610160604052601180546001600160a01b03191690553480156200002257600080fd5b5060405162004c5238038062004c5283398101604081905262000045916200041b565b600482600060198185806200006e6040805180820190915260018152603160f81b602082015290565b815160208084019190912082518383012060e08290526101008190524660a0818152604080517f8b73c3c69bb8fe3d512ecc4cf759cc79239f7b179b0ffacaa9a75d522b39400f81880181905281830187905260608201869052608082019490945230818401528151808203909301835260c00190528051940193909320919290916080523060601b60c052610120525050825162000117925060009150602084019062000375565b506200012590508362000182565b6200013082620001c3565b6200013b816200026a565b50505060601b6001600160601b031916610140526200015a81620002ab565b5050600f80546001600160a01b0319166001600160a01b039290921691909117905562000567565b60025460408051918252602082018390527fc565b045403dc03c2eea82b81a0465edad9e2e7fc4d97e11421c209da93d7a93910160405180910390a1600255565b60008111620002295760405162461bcd60e51b815260206004820152602760248201527f476f7665726e6f7253657474696e67733a20766f74696e6720706572696f6420604482015266746f6f206c6f7760c81b60648201526084015b60405180910390fd5b60035460408051918252602082018390527f7e3f7f0708a84de9203036abaa450dccc85ad5ff52f78c170f3edb55cf5e8828910160405180910390a1600355565b60045460408051918252602082018390527fccb45da8d5717e6c4544694297c4ba5cf151d455c9bb0ed4fc7a38411bc05461910160405180910390a1600455565b6064811115620003305760405162461bcd60e51b815260206004820152604360248201527f476f7665726e6f72566f74657351756f72756d4672616374696f6e3a2071756f60448201527f72756d4e756d657261746f72206f7665722071756f72756d44656e6f6d696e616064820152623a37b960e91b608482015260a40162000220565b600d80549082905560408051828152602081018490527f0553476bf02ef2726e8ce5ced78d63e26e602e4a2257b1f559418e24b4633997910160405180910390a15050565b828054620003839062000514565b90600052602060002090601f016020900481019282620003a75760008555620003f2565b82601f10620003c257805160ff1916838001178555620003f2565b82800160010185558215620003f2579182015b82811115620003f2578251825591602001919060010190620003d5565b506200040092915062000404565b5090565b5b8082111562000400576000815560010162000405565b600080604083850312156200042e578182fd5b82516001600160a01b038116811462000445578283fd5b602084810151919350906001600160401b038082111562000464578384fd5b818601915086601f83011262000478578384fd5b8151818111156200048d576200048d62000551565b604051601f8201601f19908116603f01168101908382118183101715620004b857620004b862000551565b816040528281528986848701011115620004d0578687fd5b8693505b82841015620004f35784840186015181850187015292850192620004d4565b828411156200050457868684830101525b8096505050505050509250929050565b6002810460018216806200052957607f821691505b602082108114156200054b57634e487b7160e01b600052602260045260246000fd5b50919050565b634e487b7160e01b600052604160045260246000fd5b60805160a05160c05160601c60e05161010051610120516101405160601c61466e620005e46000396000818161099d015281816129ed01528181612a3501528181612be40152612cbc01526000612e1701526000612e6601526000612e4101526000612d9801526000612dc201526000612dec015261466e6000f3fe6080604052600436106102cc5760003560e01c80637fe7697911610175578063c59057e4116100dc578063e6c0f7fe11610095578063ece40cc11161006f578063ece40cc11461092b578063ee53b11b1461094b578063f8ce560a1461096b578063fc0c546a1461098b576102ef565b8063e6c0f7fe146108e3578063ea0217cf146108eb578063eb9019d41461090b576102ef565b8063c59057e4146107ff578063cd2c2bd21461081f578063d8d1ffaa14610836578063dd4e2ba514610849578063deaaa7cc1461088f578063e0b4887c146108c3576102ef565b80639605270a1161012e5780639605270a1461076157806397c3d33414610781578063a7713a7014610795578063b58131b0146107aa578063c01f9e37146107bf578063c28bc2fa146107df576102ef565b80637fe76979146106ac578063897943c3146106cc5780638c5fcdda146106f95780638e539e8c1461071957806391dda66e1461073957806395e9209b14610759576102ef565b80633e4f49e6116102345780636cd4dad9116101ed57806378270cad116101c757806378270cad1461061f5780637b3c71d31461064c5780637c95ac271461066c5780637d5e81e21461068c576102ef565b80636cd4dad9146105bf5780636cef51ce146105df57806370b0f660146105ff576102ef565b80633e4f49e6146104c75780634200a80b146104f4578063438596321461050b57806350c0fbe41461055557806354fd4d5014610575578063567813881461059f576102ef565b806324de2ef61161028657806324de2ef6146103e65780632656227d1461043f5780632d63f693146104525780633932abb1146104725780633bccf4fd146104875780633d36d648146104a7576102ef565b8062d647e1146102f457806301ffc9a71461033157806302a251a31461036157806306f3f9e61461038457806306fdde03146103a45780630c47bd45146103c6576102ef565b366102ef57306102da6109bf565b6001600160a01b0316146102ed57600080fd5b005b600080fd5b34801561030057600080fd5b5061031461030f366004613cb8565b6109c4565b60405161032898979695949392919061439f565b60405180910390f35b34801561033d57600080fd5b5061035161034c366004613b69565b610ba9565b6040519015158152602001610328565b34801561036d57600080fd5b50610376610be2565b604051908152602001610328565b34801561039057600080fd5b506102ed61039f366004613cb8565b610bf2565b3480156103b057600080fd5b506103b9610c3f565b60405161032891906140ea565b3480156103d257600080fd5b506103146103e1366004613cb8565b610cd1565b3480156103f257600080fd5b50610427610401366004613b91565b80516020818301810180516010825292820191909301209152546001600160a01b031681565b6040516001600160a01b039091168152602001610328565b61037661044d366004613988565b610cf3565b34801561045e57600080fd5b5061037661046d366004613cb8565b610e1c565b34801561047e57600080fd5b50610376610e53565b34801561049357600080fd5b506103766104a2366004613def565b610e5e565b3480156104b357600080fd5b506102ed6104c2366004613cb8565b610ef2565b3480156104d357600080fd5b506104e76104e2366004613cb8565b610f5b565b60405161032891906140c2565b34801561050057600080fd5b506006546103769081565b34801561051757600080fd5b50610351610526366004613ce8565b6000828152600b602090815260408083206001600160a01b038516845260010190915290205460ff1692915050565b34801561056157600080fd5b50610376610570366004613cb8565b611034565b34801561058157600080fd5b506040805180820190915260018152603160f81b60208201526103b9565b3480156105ab57600080fd5b506103766105ba366004613d85565b611058565b3480156105cb57600080fd5b506103766105da366004613aba565b611081565b3480156105eb57600080fd5b506103b96105fa366004613d64565b6110d3565b34801561060b57600080fd5b506102ed61061a366004613cb8565b6110e6565b34801561062b57600080fd5b5061037661063a366004613cb8565b60096020526000908152604090205481565b34801561065857600080fd5b50610376610667366004613db0565b611127565b34801561067857600080fd5b50610376610687366004613cb8565b61116f565b34801561069857600080fd5b506103766106a7366004613a13565b611186565b3480156106b857600080fd5b506103516106c7366004613cb8565b61146f565b3480156106d857600080fd5b506103766106e73660046138e8565b600c6020526000908152604090205481565b34801561070557600080fd5b506102ed6107143660046138e8565b611502565b34801561072557600080fd5b50610376610734366004613cb8565b61150b565b34801561074557600080fd5b50610376610754366004613c76565b611516565b6102ed611648565b34801561076d57600080fd5b506102ed61077c366004613d17565b611770565b34801561078d57600080fd5b506064610376565b3480156107a157600080fd5b50600d54610376565b3480156107b657600080fd5b506103766118cf565b3480156107cb57600080fd5b506103766107da366004613cb8565b6118da565b3480156107eb57600080fd5b506102ed6107fa36600461392f565b611909565b34801561080b57600080fd5b5061037661081a366004613988565b61198a565b34801561082b57600080fd5b506005546103769081565b610376610844366004613bc3565b6119c4565b34801561085557600080fd5b506040805180820190915260208082527f737570706f72743d627261766f2671756f72756d3d666f722c6162737461696e908201526103b9565b34801561089b57600080fd5b506103767f150214d74d59b7d1e90c73fc22ef3d991dd0a76b046543d4d80ab92d2a50328f81565b3480156108cf57600080fd5b506103516108de366004613cb8565b611aab565b6102ed611b3d565b3480156108f757600080fd5b506102ed610906366004613cb8565b611bc6565b34801561091757600080fd5b50610376610926366004613904565b611c07565b34801561093757600080fd5b506102ed610946366004613cb8565b611c13565b34801561095757600080fd5b506102ed610966366004613cb8565b611c54565b34801561097757600080fd5b50610376610986366004613cb8565b611d2a565b34801561099757600080fd5b506104277f000000000000000000000000000000000000000000000000000000000000000081565b305b90565b600760205260009081526040902080546001820180549192916109e690614551565b80601f0160208091040260200160405190810160405280929190818152602001828054610a1290614551565b8015610a5f5780601f10610a3457610100808354040283529160200191610a5f565b820191906000526020600020905b815481529060010190602001808311610a4257829003601f168201915b505050505090806002015490806004018054610a7a90614551565b80601f0160208091040260200160405190810160405280929190818152602001828054610aa690614551565b8015610af35780601f10610ac857610100808354040283529160200191610af3565b820191906000526020600020905b815481529060010190602001808311610ad657829003601f168201915b505050505090806005018054610b0890614551565b80601f0160208091040260200160405190810160405280929190818152602001828054610b3490614551565b8015610b815780601f10610b5657610100808354040283529160200191610b81565b820191906000526020600020905b815481529060010190602001808311610b6457829003601f168201915b5050505060068301546007840154600890940154929390926001600160a01b03909116915088565b60006001600160e01b0319821663bf26d89760e01b1480610bda57506301ffc9a760e01b6001600160e01b03198316145b90505b919050565b6000610bed60035490565b905090565b610bfa6109bf565b6001600160a01b0316336001600160a01b031614610c335760405162461bcd60e51b8152600401610c2a9061417d565b60405180910390fd5b610c3c81611d35565b50565b606060008054610c4e90614551565b80601f0160208091040260200160405190810160405280929190818152602001828054610c7a90614551565b8015610cc75780601f10610c9c57610100808354040283529160200191610cc7565b820191906000526020600020905b815481529060010190602001808311610caa57829003601f168201915b5050505050905090565b600860205260009081526040902080546001820180549192916109e690614551565b600080610d028686868661198a565b90506000610d0f82610f5b565b90506004816007811115610d3357634e487b7160e01b600052602160045260246000fd5b1480610d5e57506005816007811115610d5c57634e487b7160e01b600052602160045260246000fd5b145b610db45760405162461bcd60e51b815260206004820152602160248201527f476f7665726e6f723a2070726f706f73616c206e6f74207375636365737366756044820152601b60fa1b6064820152608401610c2a565b600082815260016020818152604092839020600201805460ff191690921790915590518381527f712ae1383f79ac853f8d882153778e0260ef8f03b504e2866e0593e04d2b291f910160405180910390a1610e128288888888611dfd565b5095945050505050565b60008181526001602090815260408083208151928301909152546001600160401b0316908190525b6001600160401b031692915050565b6000610bed60025490565b604080517f150214d74d59b7d1e90c73fc22ef3d991dd0a76b046543d4d80ab92d2a50328f602082015290810186905260ff851660608201526000908190610eca90610ec29060800160405160208183030381529060405280519060200120611f26565b868686611f74565b9050610ee787828860405180602001604052806000815250611f92565b979650505050505050565b610f206040518060400160405280600c81526020016b1a1858dad85d1a1bdb88125960a21b815250826120fe565b6000610f2b82612143565b601180546001600160a01b0319166001600160a01b0393909316929092179091559050610f5781611c54565b5050565b6000818152600160205260408120600281015460ff1615610f80576007915050610bdd565b6002810154610100900460ff1615610f9c576002915050610bdd565b6000610fa784610e1c565b905080610ff65760405162461bcd60e51b815260206004820152601d60248201527f476f7665726e6f723a20756e6b6e6f776e2070726f706f73616c2069640000006044820152606401610c2a565b43811061100857600092505050610bdd565b6000611013856118da565b90504381106110285760019350505050610bdd565b60049350505050610bdd565b60008181526009602090815260408083205483526007909152812060080154610bda565b60008033905061107984828560405180602001604052806000815250611f92565b949350505050565b600061108c8261243e565b600061109a87878787611186565b600081815260096020908152604080832087905586835260079091529020600681018290554360089091015590505b9695505050505050565b60606110df8383612496565b9392505050565b6110ee6109bf565b6001600160a01b0316336001600160a01b03161461111e5760405162461bcd60e51b8152600401610c2a9061417d565b610c3c816128f4565b6000803390506110c986828787878080601f016020809104026020016040519081016040528093929190818152602001838380828437600092019190915250611f9292505050565b600081815260076020526040812060060154610bda565b60006111906118cf565b61119f3361092660014361450e565b101561121f5760405162461bcd60e51b815260206004820152604360248201527f476f7665726e6f72436f6d7061746962696c697479427261766f3a2070726f7060448201527f6f73657220766f7465732062656c6f772070726f706f73616c207468726573686064820152621bdb1960ea1b608482015260a401610c2a565b6000611234868686868051906020012061198a565b905084518651146112575760405162461bcd60e51b8152600401610c2a906141b4565b83518651146112785760405162461bcd60e51b8152600401610c2a906141b4565b60008651116112c95760405162461bcd60e51b815260206004820152601860248201527f476f7665726e6f723a20656d7074792070726f706f73616c00000000000000006044820152606401610c2a565b600081815260016020908152604091829020825191820190925281546001600160401b031690819052156113495760405162461bcd60e51b815260206004820152602160248201527f476f7665726e6f723a2070726f706f73616c20616c72656164792065786973746044820152607360f81b6064820152608401610c2a565b600061135b611356610e53565b612935565b61136443612935565b61136e91906144a4565b9050600061137d611356610be2565b61138790836144a4565b835467ffffffffffffffff19166001600160401b038416178455905060018301805467ffffffffffffffff19166001600160401b0383161790557f7d84a6263ae0d98d3329bd7b46bb4e8d6f98cd35a7adb45c274c8b7fd5ebd5e084338b8b8d516001600160401b0381111561140d57634e487b7160e01b600052604160045260246000fd5b60405190808252806020026020018201604052801561144057816020015b606081526020019060019003908161142b5790505b508c88888e60405161145a999897969594939291906142b3565b60405180910390a15091979650505050505050565b600081815260076020526040812060038101825b81548110156114f757336001600160a01b03168282815481106114b657634e487b7160e01b600052603260045260246000fd5b60009182526020909120600160059092020101546001600160a01b031614156114e55760019350505050610bdd565b806114ef8161458c565b915050611483565b506000949350505050565b610c3c816129a1565b6000610bda82612a1c565b60006115536040518060a001604052806000815260200160006001600160a01b031681526020016060815260200160608152602001600081525090565b611561600680546001019055565b60065481523360208083019182526040808401878152600087815260078452918220600301805460018082018355918452928490208651600590940201928355935193820180546001600160a01b0319166001600160a01b0390951694909417909355915180518493926115dc926002850192910190613652565b50606082015180516115f8916003840191602090910190613652565b506080820151816004015550507f52f5f480849d7ad260ceec55e9f964d8954e583a8194a893b441abb3dfd70df861162f60065490565b60405190815260200160405180910390a1519392505050565b655af3107a400034101561169e5760405162461bcd60e51b815260206004820152601c60248201527f706c656173652073656e642061746c65617374203130204d41544943000000006044820152606401610c2a565b600f546001600160a01b03166340c10f19336116bd34620f42406144ef565b6040516001600160e01b031960e085901b1681526001600160a01b0390921660048301526024820152604401600060405180830381600087803b15801561170357600080fd5b505af1158015611717573d6000803e3d6000fd5b5050505034600a61172891906144ef565b336000818152600c602090815260409182902093909355519081527fc25f1afed6949a4a7694a278213b94375a841a51748cb7a44116ae897c4f6ecd910160405180910390a1565b61177981611aab565b6117dd5760405162461bcd60e51b815260206004820152602f60248201527f4861636b6572204e4f5420726567697374657265642120506c6561736520726560448201526e33b4b9ba32b9103cb7bab939b2b63360891b6064820152608401610c2a565b6000818152600760205260408120600301905b8154811015611895578482828154811061181a57634e487b7160e01b600052603260045260246000fd5b906000526020600020906005020160000154141561188357600082828154811061185457634e487b7160e01b600052603260045260246000fd5b906000526020600020906005020190508481600301908051906020019061187c929190613652565b5050611895565b8061188d8161458c565b9150506117f0565b506040518481527f39a3b0282f68964e1565dbe1e8656f18e757f212f480fcbc564b36aa395373649060200160405180910390a150505050565b6000610bed60045490565b60008181526001602081815260408084208151928301909152909101546001600160401b031690819052610e44565b6119116109bf565b6001600160a01b0316336001600160a01b0316146119415760405162461bcd60e51b8152600401610c2a9061417d565b6119838483838080601f016020809104026020016040519081016040528093929190818152602001838380828437600092019190915250889250612ab7915050565b5050505050565b6000848484846040516020016119a39493929190614077565b60408051601f19818403018152919052805160209091012095945050505050565b60006119d4600580546001019055565b6000600760006119e360055490565b815260200190815260200160002090506119fc60055490565b81558751611a1390600183019060208b0190613652565b50600281018590558651611a3090600483019060208a0190613652565b508551611a469060058301906020890190613652565b506007810180546001600160a01b0319166001600160a01b0386161790557fcba4bf7a6b01547e7d8a3c5050ca5009bb70870c39a8702c8b18c226b89545c1611a8e60055490565b60405190815260200160405180910390a154979650505050505050565b60008181526007602052604081206003018054829190825b81811015611b3357336001600160a01b0316838281548110611af557634e487b7160e01b600052603260045260246000fd5b60009182526020909120600160059092020101546001600160a01b03161415611b215760019350611b33565b80611b2b8161458c565b915050611ac3565b5091949350505050565b670de0b6b3a7640000341015611b955760405162461bcd60e51b815260206004820152601860248201527f4d696e696d756d203120657468657220726571756972656400000000000000006044820152606401610c2a565b611bc46040518060400160405280600d81526020016c02932b1b2b4bb32b2101e9e9f1609d1b815250346120fe565b565b611bce6109bf565b6001600160a01b0316336001600160a01b031614611bfe5760405162461bcd60e51b8152600401610c2a9061417d565b610c3c81612add565b60006110df8383612b7e565b611c1b6109bf565b6001600160a01b0316336001600160a01b031614611c4b5760405162461bcd60e51b8152600401610c2a9061417d565b610c3c81612c5e565b6011546001600160a01b0316611ca45760405162461bcd60e51b8152602060048201526015602482015274141c9bdc1bdcd85b081b9bdd081858d8d95c1d1959605a1b6044820152606401610c2a565b600f546011546001600160a01b03918216916340c10f199116611ccf84670de0b6b3a76400006144ef565b6040516001600160e01b031960e085901b1681526001600160a01b03909216600483015260248201526044015b600060405180830381600087803b158015611d1657600080fd5b505af1158015611983573d6000803e3d6000fd5b6000610bda82612c9f565b6064811115611db85760405162461bcd60e51b815260206004820152604360248201527f476f7665726e6f72566f74657351756f72756d4672616374696f6e3a2071756f60448201527f72756d4e756d657261746f72206f7665722071756f72756d44656e6f6d696e616064820152623a37b960e91b608482015260a401610c2a565b600d80549082905560408051828152602081018490527f0553476bf02ef2726e8ce5ced78d63e26e602e4a2257b1f559418e24b4633997910160405180910390a15050565b60006040518060600160405280602781526020016145e960279139905060005b8551811015611f1d57600080878381518110611e4957634e487b7160e01b600052603260045260246000fd5b60200260200101516001600160a01b0316878481518110611e7a57634e487b7160e01b600052603260045260246000fd5b6020026020010151878581518110611ea257634e487b7160e01b600052603260045260246000fd5b6020026020010151604051611eb7919061405b565b60006040518083038185875af1925050503d8060008114611ef4576040519150601f19603f3d011682016040523d82523d6000602084013e611ef9565b606091505b5091509150611f09828286612d52565b50505080611f169061458c565b9050611e1d565b50505050505050565b6000610bda611f33612d8b565b8360405161190160f01b6020820152602281018390526042810182905260009060620160405160208183030381529060405280519060200120905092915050565b6000806000611f8587878787612eb6565b91509150610e1281612fa3565b6000848152600160208190526040822090611fac87610f5b565b6007811115611fcb57634e487b7160e01b600052602160045260246000fd5b146120245760405162461bcd60e51b815260206004820152602360248201527f476f7665726e6f723a20766f7465206e6f742063757272656e746c792061637460448201526269766560e81b6064820152608401610c2a565b604080516020810190915281546001600160401b03169081905260009061204c908790611c07565b90506120a16040518060400160405280601281526020017115d95a59da1d08199bdc881858d8dbdd5b9d60721b8152508760405180604001604052806005815260200164034b9901e960dd1b815250846131a6565b6120ad878787846131f5565b856001600160a01b03167fb8e138887d0aa13bab447e82de9d5c1777041ecd21ca36ba824ff1e6c07ddda4888784886040516120ec9493929190614411565b60405180910390a29695505050505050565b610f57828260405160240161211492919061415b565b60408051601f198184030181529190526020810180516001600160e01b03166309710a9d60e41b17905261346b565b600081815260076020908152604080832081518083019092526016825275566f746520666f72204e6f6e65206f6620746865736560501b928201929092526003820180548493926121d191839061219c9060019061450e565b815481106121ba57634e487b7160e01b600052603260045260246000fd5b9060005260206000209060050201600401546120fe565b6000808060015b84546121e69060019061450e565b8110156122eb5784818154811061220d57634e487b7160e01b600052603260045260246000fd5b9060005260206000209060050201600401548361222a919061448c565b92508385828154811061224d57634e487b7160e01b600052603260045260246000fd5b90600052602060002090600502016004015411156122d95784818154811061228557634e487b7160e01b600052603260045260246000fd5b90600052602060002090600502016004015493508481815481106122b957634e487b7160e01b600052603260045260246000fd5b60009182526020909120600160059092020101546001600160a01b031691505b806122e38161458c565b9150506121d8565b5061230260036122fc84600561348c565b90613498565b845485906123129060019061450e565b8154811061233057634e487b7160e01b600052603260045260246000fd5b906000526020600020906005020160040154106123d05783547f9173824f3c339d8aa34cf4de5cfb628749c53017476edd9eea87ae2b915c34f69085906123799060019061450e565b8154811061239757634e487b7160e01b600052603260045260246000fd5b9060005260206000209060050201600401546040516123b891815260200190565b60405180910390a15060078401546001600160a01b03165b61242a6040518060400160405280600e81526020016d57696e6e6572206164647265737360901b815250826040518060400160405280600c81526020016b383934bd329036b7b732bc9d60a11b81525088600201546131a6565b808560020154965096505050505050915091565b60006124706040518060400160405280600e81526020016d4e6f6e654f6654686541626f766560901b81525083611516565b9050610f5781604051806040016040528060018152602001600f60fb1b81525084611770565b6000828152600960209081526040808320548352600782528083208151610120810190925280548252600181018054606095869590949392908401916124db90614551565b80601f016020809104026020016040519081016040528092919081815260200182805461250790614551565b80156125545780601f1061252957610100808354040283529160200191612554565b820191906000526020600020905b81548152906001019060200180831161253757829003601f168201915b505050505081526020016002820154815260200160038201805480602002602001604051908101604052809291908181526020016000905b8282101561270c5760008481526020908190206040805160a081018252600586029092018054835260018101546001600160a01b031693830193909352600283018054929392918401916125df90614551565b80601f016020809104026020016040519081016040528092919081815260200182805461260b90614551565b80156126585780601f1061262d57610100808354040283529160200191612658565b820191906000526020600020905b81548152906001019060200180831161263b57829003601f168201915b5050505050815260200160038201805461267190614551565b80601f016020809104026020016040519081016040528092919081815260200182805461269d90614551565b80156126ea5780601f106126bf576101008083540402835291602001916126ea565b820191906000526020600020905b8154815290600101906020018083116126cd57829003601f168201915b505050505081526020016004820154815250508152602001906001019061258c565b50505050815260200160048201805461272490614551565b80601f016020809104026020016040519081016040528092919081815260200182805461275090614551565b801561279d5780601f106127725761010080835404028352916020019161279d565b820191906000526020600020905b81548152906001019060200180831161278057829003601f168201915b505050505081526020016005820180546127b690614551565b80601f01602080910402602001604051908101604052809291908181526020018280546127e290614551565b801561282f5780601f106128045761010080835404028352916020019161282f565b820191906000526020600020905b81548152906001019060200180831161281257829003601f168201915b50505091835250506006820154602082015260078201546001600160a01b0316604082015260089091015460609182015281015190915060005b815181116128e9578582828151811061289257634e487b7160e01b600052603260045260246000fd5b60200260200101516000015114156128d7578181815181106128c457634e487b7160e01b600052603260045260246000fd5b60200260200101516060015193506128e9565b806128e18161458c565b915050612869565b509195945050505050565b60025460408051918252602082018390527fc565b045403dc03c2eea82b81a0465edad9e2e7fc4d97e11421c209da93d7a93910160405180910390a1600255565b60006001600160401b0382111561299d5760405162461bcd60e51b815260206004820152602660248201527f53616665436173743a2076616c756520646f65736e27742066697420696e203660448201526534206269747360d01b6064820152608401610c2a565b5090565b6129ce6040518060400160405280600b81526020016a64656c6567617465653d3d60a81b815250826134a4565b6040516317066a5760e21b81526001600160a01b0382811660048301527f00000000000000000000000000000000000000000000000000000000000000001690635c19a95c90602401611cfc565b604051632394e7a360e21b8152600481018290526000907f00000000000000000000000000000000000000000000000000000000000000006001600160a01b031690638e539e8c9060240160206040518083038186803b158015612a7f57600080fd5b505afa158015612a93573d6000803e3d6000fd5b505050506040513d601f19601f82011682018060405250810190610bda9190613cd0565b6060611079848484604051806060016040528060298152602001614610602991396134e9565b60008111612b3d5760405162461bcd60e51b815260206004820152602760248201527f476f7665726e6f7253657474696e67733a20766f74696e6720706572696f6420604482015266746f6f206c6f7760c81b6064820152608401610c2a565b60035460408051918252602082018390527f7e3f7f0708a84de9203036abaa450dccc85ad5ff52f78c170f3edb55cf5e8828910160405180910390a1600355565b6000612bbe6040518060400160405280601781526020017f476f7665726e6f72566f7465733a20676574566f74657300000000000000000081525061360f565b604051630748d63560e31b81526001600160a01b038481166004830152602482018490527f00000000000000000000000000000000000000000000000000000000000000001690633a46b1a89060440160206040518083038186803b158015612c2657600080fd5b505afa158015612c3a573d6000803e3d6000fd5b505050506040513d601f19601f820116820180604052508101906110df9190613cd0565b60045460408051918252602082018390527fccb45da8d5717e6c4544694297c4ba5cf151d455c9bb0ed4fc7a38411bc05461910160405180910390a1600455565b60006064600d54604051632394e7a360e21b8152600481018590527f00000000000000000000000000000000000000000000000000000000000000006001600160a01b031690638e539e8c9060240160206040518083038186803b158015612d0657600080fd5b505afa158015612d1a573d6000803e3d6000fd5b505050506040513d601f19601f82011682018060405250810190612d3e9190613cd0565b612d4891906144ef565b610bda91906144cf565b60608315612d615750816110df565b825115612d715782518084602001fd5b8160405162461bcd60e51b8152600401610c2a91906140ea565b6000306001600160a01b037f000000000000000000000000000000000000000000000000000000000000000016148015612de457507f000000000000000000000000000000000000000000000000000000000000000046145b15612e1057507f00000000000000000000000000000000000000000000000000000000000000006109c1565b50604080517f00000000000000000000000000000000000000000000000000000000000000006020808301919091527f0000000000000000000000000000000000000000000000000000000000000000828401527f000000000000000000000000000000000000000000000000000000000000000060608301524660808301523060a0808401919091528351808403909101815260c090920190925280519101206109c1565b6000807f7fffffffffffffffffffffffffffffff5d576e7357a4501ddfe92f46681b20a0831115612eed5750600090506003612f9a565b8460ff16601b14158015612f0557508460ff16601c14155b15612f165750600090506004612f9a565b6040805160008082526020820180845289905260ff881692820192909252606081018690526080810185905260019060a0016020604051602081039080840390855afa158015612f6a573d6000803e3d6000fd5b5050604051601f1901519150506001600160a01b038116612f9357600060019250925050612f9a565b9150600090505b94509492505050565b6000816004811115612fc557634e487b7160e01b600052602160045260246000fd5b1415612fd057610c3c565b6001816004811115612ff257634e487b7160e01b600052602160045260246000fd5b14156130405760405162461bcd60e51b815260206004820152601860248201527f45434453413a20696e76616c6964207369676e617475726500000000000000006044820152606401610c2a565b600281600481111561306257634e487b7160e01b600052602160045260246000fd5b14156130b05760405162461bcd60e51b815260206004820152601f60248201527f45434453413a20696e76616c6964207369676e6174757265206c656e677468006044820152606401610c2a565b60038160048111156130d257634e487b7160e01b600052602160045260246000fd5b141561312b5760405162461bcd60e51b815260206004820152602260248201527f45434453413a20696e76616c6964207369676e6174757265202773272076616c604482015261756560f01b6064820152608401610c2a565b600481600481111561314d57634e487b7160e01b600052602160045260246000fd5b1415610c3c5760405162461bcd60e51b815260206004820152602260248201527f45434453413a20696e76616c6964207369676e6174757265202776272076616c604482015261756560f01b6064820152608401610c2a565b6131ef848484846040516024016131c09493929190614127565b60408051601f198184030181529190526020810180516001600160e01b0316638f624be960e01b17905261346b565b50505050565b6000848152600b602090815260408083206001600160a01b0387168452600181019092529091205460ff16156132815760405162461bcd60e51b815260206004820152602b60248201527f476f7665726e6f72566f74696e6753696d706c6553656c663a20766f7465206160448201526a1b1c9958591e4818d85cdd60aa1b6064820152608401610c2a565b6001600160a01b0384166000908152600182810160209081526040808420805460ff19169093179092558783526009815281832054808452600790915291819020905160038201907f2bbe4c96da549b1a787f636d8599819ee650cb00433930c8134b9021ebb21ff8906132f69084906141f5565b60405180910390a180546040519081527fc8f9129b2b9e0b802fd31fddc1d0e8b371b60e57d44c193a2dd41b24b5ce69649060200160405180910390a1805460ff8716116133fb5784818760ff168154811061336257634e487b7160e01b600052603260045260246000fd5b90600052602060002090600502016004016000828254613382919061448c565b925050819055507f5bf7592d0eaef385cd7fc928d276d6be82ad29c01b35a6efc5fbcab1c924d679818760ff16815481106133cd57634e487b7160e01b600052603260045260246000fd5b9060005260206000209060050201600401546040516133ee91815260200190565b60405180910390a1613461565b60405162461bcd60e51b815260206004820152603560248201527f476f7665726e6f72566f74696e6753696d706c653a20696e76616c69642076616044820152746c756520666f7220656e756d20566f74655479706560581b6064820152608401610c2a565b5050505050505050565b80516a636f6e736f6c652e6c6f67602083016000808483855afa5050505050565b60006110df82846144cf565b60006110df82846144ef565b610f5782826040516024016134ba9291906140fd565b60408051601f198184030181529190526020810180516001600160e01b031663319af33360e01b17905261346b565b60608247101561354a5760405162461bcd60e51b815260206004820152602660248201527f416464726573733a20696e73756666696369656e742062616c616e636520666f6044820152651c8818d85b1b60d21b6064820152608401610c2a565b6001600160a01b0385163b6135a15760405162461bcd60e51b815260206004820152601d60248201527f416464726573733a2063616c6c20746f206e6f6e2d636f6e74726163740000006044820152606401610c2a565b600080866001600160a01b031685876040516135bd919061405b565b60006040518083038185875af1925050503d80600081146135fa576040519150601f19603f3d011682016040523d82523d6000602084013e6135ff565b606091505b5091509150610ee7828286612d52565b610c3c8160405160240161362391906140ea565b60408051601f198184030181529190526020810180516001600160e01b031663104c13eb60e21b17905261346b565b82805461365e90614551565b90600052602060002090601f01602090048101928261368057600085556136c6565b82601f1061369957805160ff19168380011785556136c6565b828001600101855582156136c6579182015b828111156136c65782518255916020019190600101906136ab565b5061299d9291505b8082111561299d57600081556001016136ce565b60006001600160401b038311156136fb576136fb6145bd565b61370e601f8401601f1916602001614439565b905082815283838301111561372257600080fd5b828260208301376000602084830101529392505050565b600082601f830112613749578081fd5b8135602061375e61375983614469565b614439565b828152818101908583018385028701840188101561377a578586fd5b855b858110156137a157813561378f816145d3565b8452928401929084019060010161377c565b5090979650505050505050565b600082601f8301126137be578081fd5b813560206137ce61375983614469565b82815281810190858301855b858110156137a1578135880189603f8201126137f4578788fd5b6138058a87830135604084016136e2565b85525092840192908401906001016137da565b600082601f830112613828578081fd5b8135602061383861375983614469565b8281528181019085830183850287018401881015613854578586fd5b855b858110156137a157813584529284019290840190600101613856565b60008083601f840112613883578182fd5b5081356001600160401b03811115613899578182fd5b6020830191508360208285010111156138b157600080fd5b9250929050565b600082601f8301126138c8578081fd5b6110df838335602085016136e2565b803560ff81168114610bdd57600080fd5b6000602082840312156138f9578081fd5b81356110df816145d3565b60008060408385031215613916578081fd5b8235613921816145d3565b946020939093013593505050565b60008060008060608587031215613944578182fd5b843561394f816145d3565b93506020850135925060408501356001600160401b03811115613970578283fd5b61397c87828801613872565b95989497509550505050565b6000806000806080858703121561399d578384fd5b84356001600160401b03808211156139b3578586fd5b6139bf88838901613739565b955060208701359150808211156139d4578485fd5b6139e088838901613818565b945060408701359150808211156139f5578384fd5b50613a02878288016137ae565b949793965093946060013593505050565b60008060008060808587031215613a28578182fd5b84356001600160401b0380821115613a3e578384fd5b613a4a88838901613739565b95506020870135915080821115613a5f578384fd5b613a6b88838901613818565b94506040870135915080821115613a80578384fd5b613a8c888389016137ae565b93506060870135915080821115613aa1578283fd5b50613aae878288016138b8565b91505092959194509250565b600080600080600060a08688031215613ad1578283fd5b85356001600160401b0380821115613ae7578485fd5b613af389838a01613739565b96506020880135915080821115613b08578485fd5b613b1489838a01613818565b95506040880135915080821115613b29578485fd5b613b3589838a016137ae565b94506060880135915080821115613b4a578283fd5b50613b57888289016138b8565b95989497509295608001359392505050565b600060208284031215613b7a578081fd5b81356001600160e01b0319811681146110df578182fd5b600060208284031215613ba2578081fd5b81356001600160401b03811115613bb7578182fd5b611079848285016138b8565b60008060008060008060c08789031215613bdb578384fd5b86356001600160401b0380821115613bf1578586fd5b613bfd8a838b016138b8565b97506020890135915080821115613c12578586fd5b613c1e8a838b016138b8565b96506040890135915080821115613c33578586fd5b50613c4089828a016138b8565b945050606087013592506080870135613c58816145d3565b915060a0870135613c68816145d3565b809150509295509295509295565b60008060408385031215613c88578182fd5b82356001600160401b03811115613c9d578283fd5b613ca9858286016138b8565b95602094909401359450505050565b600060208284031215613cc9578081fd5b5035919050565b600060208284031215613ce1578081fd5b5051919050565b60008060408385031215613cfa578182fd5b823591506020830135613d0c816145d3565b809150509250929050565b600080600060608486031215613d2b578081fd5b8335925060208401356001600160401b03811115613d47578182fd5b613d53868287016138b8565b925050604084013590509250925092565b60008060408385031215613d76578182fd5b50508035926020909101359150565b60008060408385031215613d97578182fd5b82359150613da7602084016138d7565b90509250929050565b60008060008060608587031215613dc5578182fd5b84359350613dd5602086016138d7565b925060408501356001600160401b03811115613970578283fd5b600080600080600060a08688031215613e06578283fd5b85359450613e16602087016138d7565b9350613e24604087016138d7565b94979396509394606081013594506080013592915050565b6000815180845260208085019450808401835b83811015613e745781516001600160a01b031687529582019590820190600101613e4f565b509495945050505050565b6000815180845260208085019450848183028601828601855b858110156137a1578383038952613eb0838351613f91565b98850198925090840190600101613e98565b6000815480845260208085018081965082840281019150858552828520855b85811015613f555782840389528154845260018201546001600160a01b03168585015260a060408501819052613f1c81860160028501613fbd565b90508481036060860152613f338160038501613fbd565b6004840154608096909601959095525097840197600590910190600101613ee1565b5091979650505050505050565b6000815180845260208085019450808401835b83811015613e7457815187529582019590820190600101613f75565b60008151808452613fa9816020860160208601614525565b601f01601f19169290920160200192915050565b805460009060028104600180831680613fd757607f831692505b6020808410821415613ff757634e487b7160e01b86526022600452602486fd5b8388526020880182801561401257600181146140235761404e565b60ff1987168252828201975061404e565b60008981526020902060005b878110156140485781548482015290860190840161402f565b83019850505b5050505050505092915050565b6000825161406d818460208701614525565b9190910192915050565b60006080825261408a6080830187613e3c565b828103602084015261409c8187613f62565b905082810360408401526140b08186613e7f565b91505082606083015295945050505050565b60208101600883106140e457634e487b7160e01b600052602160045260246000fd5b91905290565b6000602082526110df6020830184613f91565b6000604082526141106040830185613f91565b905060018060a01b03831660208301529392505050565b60006080825261413a6080830187613f91565b6001600160a01b038616602084015282810360408401526140b08186613f91565b60006040825261416e6040830185613f91565b90508260208301529392505050565b60208082526018908201527f476f7665726e6f723a206f6e6c79476f7665726e616e63650000000000000000604082015260600190565b60208082526021908201527f476f7665726e6f723a20696e76616c69642070726f706f73616c206c656e67746040820152600d60fb1b606082015260800190565b6000602082528254602083015261012080604084015261421c610140840160018601613fbd565b60028501546060850152601f19808583030160808601526142408260038801613ec2565b9150808583030160a08601526142598260048801613fbd565b9150808583030160c0860152506142738160058701613fbd565b9050600685015460e085015261429360078601546001600160a01b031690565b6001600160a01b0316610100850152600894909401549201919091525090565b60006101208b8352602060018060a01b038c16818501528160408501526142dc8285018c613e3c565b915083820360608501526142f0828b613f62565b848103608086015289518082529092508183019082810284018301838c01865b8381101561433e57601f1987840301855261432c838351613f91565b94860194925090850190600101614310565b505086810360a0880152614352818c613e7f565b94505050505061436d60c08401876001600160401b03169052565b6001600160401b03851660e084015282810361010084015261438f8185613f91565b9c9b505050505050505050505050565b60006101008a83528060208401526143b98184018b613f91565b905088604084015282810360608401526143d38189613f91565b905082810360808401526143e78188613f91565b60a084019690965250506001600160a01b039290921660c083015260e09091015295945050505050565b600085825260ff85166020830152836040830152608060608301526110c96080830184613f91565b604051601f8201601f191681016001600160401b0381118282101715614461576144616145bd565b604052919050565b60006001600160401b03821115614482576144826145bd565b5060209081020190565b6000821982111561449f5761449f6145a7565b500190565b60006001600160401b038083168185168083038211156144c6576144c66145a7565b01949350505050565b6000826144ea57634e487b7160e01b81526012600452602481fd5b500490565b6000816000190483118215151615614509576145096145a7565b500290565b600082821015614520576145206145a7565b500390565b60005b83811015614540578181015183820152602001614528565b838111156131ef5750506000910152565b60028104600182168061456557607f821691505b6020821081141561458657634e487b7160e01b600052602260045260246000fd5b50919050565b60006000198214156145a0576145a06145a7565b5060010190565b634e487b7160e01b600052601160045260246000fd5b634e487b7160e01b600052604160045260246000fd5b6001600160a01b0381168114610c3c57600080fdfe476f7665726e6f723a2063616c6c20726576657274656420776974686f7574206d657373616765416464726573733a206c6f772d6c6576656c2063616c6c20776974682076616c7565206661696c6564a2646970667358221220ec8aabce04429215a7cf92228c24d0c48077e47f9b447f38949bd8b9eccca4a964736f6c63430008020033",
  "linkReferences": {},
  "deployedLinkReferences": {}
}