{
  "_format": "hh-sol-artifact-1",
  "contractName": "strings",
  "sourceName": "contracts/strings.sol",
  "abi": [
    {
      "inputs": [
        {
          "internalType": "string",
          "name": "self",
          "type": "string"
        }
      ],
      "name": "toSlice",
      "outputs": [
        {
          "components": [
            {
              "internalType": "uint256",
              "name": "_len",
              "type": "uint256"
            },
            {
              "internalType": "uint256",
              "name": "_ptr",
              "type": "uint256"
            }
          ],
          "internalType": "struct strings.slice",
          "name": "",
          "type": "tuple"
        }
      ],
      "stateMutability": "pure",
      "type": "function"
    }
  ],
  "bytecode": "0x61018a61003a600b82828239805160001a60731461002d57634e487b7160e01b600052600060045260246000fd5b30600052607381538281f3fe73000000000000000000000000000000000000000030146080604052600436106100355760003560e01c8063afed762b1461003a575b600080fd5b610075610048366004610094565b60408051808201825260008082526020918201528151808301909252825182529182019181019190915290565b6040805182518152602092830151928101929092520160405180910390f35b6000602082840312156100a5578081fd5b813567ffffffffffffffff808211156100bc578283fd5b818401915084601f8301126100cf578283fd5b8135818111156100e1576100e161013e565b604051601f8201601f19908116603f011681019083821181831017156101095761010961013e565b81604052828152876020848701011115610121578586fd5b826020860160208301379182016020019490945295945050505050565b634e487b7160e01b600052604160045260246000fdfea26469706673582212201b5c90482ba9e0ab605c61c355ae8273f767149d5374c04357628a3eba6fe8c364736f6c63430008020033",
  "linkReferences": {},
  "deployedLinkReferences": {}
}