{
  "_format": "hh-sol-artifact-1",
  "contractName": "PrizeDAOGovernor",
  "sourceName": "contracts/PrizeDAOGovernor.sol",
  "abi": [
    {
      "inputs": [
        {
          "internalType": "contract ERC20Votes",
          "name": "_token",
          "type": "address"
        },
        {
          "internalType": "string",
          "name": "_name",
          "type": "string"
        },
        {
          "internalType": "address",
          "name": "_tokenToAccept",
          "type": "address"
        }
      ],
      "stateMutability": "nonpayable",
      "type": "constructor"
    },
    {
      "anonymous": false,
      "inputs": [
        {
          "indexed": false,
          "internalType": "uint256",
          "name": "currentProposalID",
          "type": "uint256"
        }
      ],
      "name": "CurrentProposalID",
      "type": "event"
    },
    {
      "anonymous": false,
      "inputs": [
        {
          "indexed": false,
          "internalType": "uint256",
          "name": "HackathonId",
          "type": "uint256"
        }
      ],
      "name": "HackathonCreated",
      "type": "event"
    },
    {
      "anonymous": false,
      "inputs": [
        {
          "components": [
            {
              "internalType": "uint256",
              "name": "hackathonId",
              "type": "uint256"
            },
            {
              "internalType": "string",
              "name": "name",
              "type": "string"
            },
            {
              "internalType": "uint256",
              "name": "prizeMoney",
              "type": "uint256"
            },
            {
              "components": [
                {
                  "internalType": "uint256",
                  "name": "hackerId",
                  "type": "uint256"
                },
                {
                  "internalType": "address",
                  "name": "hackerAdd",
                  "type": "address"
                },
                {
                  "internalType": "string",
                  "name": "name",
                  "type": "string"
                },
                {
                  "internalType": "string",
                  "name": "ipfsHash",
                  "type": "string"
                },
                {
                  "internalType": "uint256",
                  "name": "votesGot",
                  "type": "uint256"
                }
              ],
              "internalType": "struct GovernorCountingSimpleSelf.Hacker[]",
              "name": "hackers",
              "type": "tuple[]"
            },
            {
              "internalType": "string",
              "name": "startDate",
              "type": "string"
            },
            {
              "internalType": "string",
              "name": "endDate",
              "type": "string"
            },
            {
              "internalType": "uint256",
              "name": "proposalId",
              "type": "uint256"
            },
            {
              "internalType": "address",
              "name": "sponsorAddress",
              "type": "address"
            },
            {
              "internalType": "uint256",
              "name": "blockNum",
              "type": "uint256"
            }
          ],
          "indexed": false,
          "internalType": "struct GovernorCountingSimpleSelf.Hackathon",
          "name": "hackathon",
          "type": "tuple"
        }
      ],
      "name": "HackathonEvent",
      "type": "event"
    },
    {
      "anonymous": false,
      "inputs": [
        {
          "indexed": false,
          "internalType": "string",
          "name": "hackerIpfsSubmission",
          "type": "string"
        }
      ],
      "name": "HackerIpfsSubmission",
      "type": "event"
    },
    {
      "anonymous": false,
      "inputs": [
        {
          "indexed": false,
          "internalType": "uint256",
          "name": "HackerId",
          "type": "uint256"
        }
      ],
      "name": "HackerRegisted",
      "type": "event"
    },
    {
      "anonymous": false,
      "inputs": [
        {
          "indexed": false,
          "internalType": "uint256",
          "name": "TotalVotesLastOptionGot",
          "type": "uint256"
        }
      ],
      "name": "NoHackerWon",
      "type": "event"
    },
    {
      "anonymous": false,
      "inputs": [
        {
          "indexed": false,
          "internalType": "uint256",
          "name": "numOfHackers",
          "type": "uint256"
        }
      ],
      "name": "NumOfHackers",
      "type": "event"
    },
    {
      "anonymous": false,
      "inputs": [
        {
          "indexed": false,
          "internalType": "uint256",
          "name": "proposalId",
          "type": "uint256"
        }
      ],
      "name": "ProposalCanceled",
      "type": "event"
    },
    {
      "anonymous": false,
      "inputs": [
        {
          "indexed": false,
          "internalType": "uint256",
          "name": "proposalId",
          "type": "uint256"
        },
        {
          "indexed": false,
          "internalType": "address",
          "name": "proposer",
          "type": "address"
        },
        {
          "indexed": false,
          "internalType": "address[]",
          "name": "targets",
          "type": "address[]"
        },
        {
          "indexed": false,
          "internalType": "uint256[]",
          "name": "values",
          "type": "uint256[]"
        },
        {
          "indexed": false,
          "internalType": "string[]",
          "name": "signatures",
          "type": "string[]"
        },
        {
          "indexed": false,
          "internalType": "bytes[]",
          "name": "calldatas",
          "type": "bytes[]"
        },
        {
          "indexed": false,
          "internalType": "uint256",
          "name": "startBlock",
          "type": "uint256"
        },
        {
          "indexed": false,
          "internalType": "uint256",
          "name": "endBlock",
          "type": "uint256"
        },
        {
          "indexed": false,
          "internalType": "string",
          "name": "description",
          "type": "string"
        }
      ],
      "name": "ProposalCreated",
      "type": "event"
    },
    {
      "anonymous": false,
      "inputs": [
        {
          "indexed": false,
          "internalType": "uint256",
          "name": "proposalId",
          "type": "uint256"
        }
      ],
      "name": "ProposalExecuted",
      "type": "event"
    },
    {
      "anonymous": false,
      "inputs": [
        {
          "indexed": false,
          "internalType": "uint256",
          "name": "oldProposalThreshold",
          "type": "uint256"
        },
        {
          "indexed": false,
          "internalType": "uint256",
          "name": "newProposalThreshold",
          "type": "uint256"
        }
      ],
      "name": "ProposalThresholdSet",
      "type": "event"
    },
    {
      "anonymous": false,
      "inputs": [
        {
          "indexed": false,
          "internalType": "uint256",
          "name": "oldQuorumNumerator",
          "type": "uint256"
        },
        {
          "indexed": false,
          "internalType": "uint256",
          "name": "newQuorumNumerator",
          "type": "uint256"
        }
      ],
      "name": "QuorumNumeratorUpdated",
      "type": "event"
    },
    {
      "anonymous": false,
      "inputs": [
        {
          "indexed": false,
          "internalType": "uint256",
          "name": "HackerId",
          "type": "uint256"
        }
      ],
      "name": "SubmissionDone",
      "type": "event"
    },
    {
      "anonymous": false,
      "inputs": [
        {
          "indexed": false,
          "internalType": "uint256",
          "name": "totalVotes",
          "type": "uint256"
        }
      ],
      "name": "TotalVotes",
      "type": "event"
    },
    {
      "anonymous": false,
      "inputs": [
        {
          "indexed": true,
          "internalType": "address",
          "name": "voter",
          "type": "address"
        },
        {
          "indexed": false,
          "internalType": "uint256",
          "name": "proposalId",
          "type": "uint256"
        },
        {
          "indexed": false,
          "internalType": "uint8",
          "name": "support",
          "type": "uint8"
        },
        {
          "indexed": false,
          "internalType": "uint256",
          "name": "weight",
          "type": "uint256"
        },
        {
          "indexed": false,
          "internalType": "string",
          "name": "reason",
          "type": "string"
        }
      ],
      "name": "VoteCast",
      "type": "event"
    },
    {
      "anonymous": false,
      "inputs": [
        {
          "indexed": false,
          "internalType": "uint256",
          "name": "votesPresent",
          "type": "uint256"
        }
      ],
      "name": "VotesPresent",
      "type": "event"
    },
    {
      "anonymous": false,
      "inputs": [
        {
          "indexed": false,
          "internalType": "uint256",
          "name": "oldVotingDelay",
          "type": "uint256"
        },
        {
          "indexed": false,
          "internalType": "uint256",
          "name": "newVotingDelay",
          "type": "uint256"
        }
      ],
      "name": "VotingDelaySet",
      "type": "event"
    },
    {
      "anonymous": false,
      "inputs": [
        {
          "indexed": false,
          "internalType": "uint256",
          "name": "oldVotingPeriod",
          "type": "uint256"
        },
        {
          "indexed": false,
          "internalType": "uint256",
          "name": "newVotingPeriod",
          "type": "uint256"
        }
      ],
      "name": "VotingPeriodSet",
      "type": "event"
    },
    {
      "anonymous": false,
      "inputs": [
        {
          "indexed": false,
          "internalType": "address",
          "name": "winnerAddress",
          "type": "address"
        }
      ],
      "name": "WinnerIs",
      "type": "event"
    },
    {
      "inputs": [],
      "name": "BALLOT_TYPEHASH",
      "outputs": [
        {
          "internalType": "bytes32",
          "name": "",
          "type": "bytes32"
        }
      ],
      "stateMutability": "view",
      "type": "function"
    },
    {
      "inputs": [],
      "name": "COUNTING_MODE",
      "outputs": [
        {
          "internalType": "string",
          "name": "",
          "type": "string"
        }
      ],
      "stateMutability": "pure",
      "type": "function"
    },
    {
      "inputs": [
        {
          "internalType": "uint256",
          "name": "",
          "type": "uint256"
        }
      ],
      "name": "ProposalIdToHackathonId",
      "outputs": [
        {
          "internalType": "uint256",
          "name": "",
          "type": "uint256"
        }
      ],
      "stateMutability": "view",
      "type": "function"
    },
    {
      "inputs": [
        {
          "internalType": "string",
          "name": "",
          "type": "string"
        }
      ],
      "name": "acceptedProposal",
      "outputs": [
        {
          "internalType": "address",
          "name": "",
          "type": "address"
        }
      ],
      "stateMutability": "view",
      "type": "function"
    },
    {
      "inputs": [
        {
          "internalType": "uint256",
          "name": "_amount",
          "type": "uint256"
        }
      ],
      "name": "addMember",
      "outputs": [],
      "stateMutability": "nonpayable",
      "type": "function"
    },
    {
      "inputs": [
        {
          "internalType": "string",
          "name": "_name",
          "type": "string"
        },
        {
          "internalType": "string",
          "name": "_startDate",
          "type": "string"
        },
        {
          "internalType": "string",
          "name": "_endDate",
          "type": "string"
        },
        {
          "internalType": "uint256",
          "name": "_prizeMoney",
          "type": "uint256"
        },
        {
          "internalType": "address payable",
          "name": "_sponsorAddress",
          "type": "address"
        }
      ],
      "name": "add_hackathon",
      "outputs": [
        {
          "internalType": "uint256",
          "name": "",
          "type": "uint256"
        }
      ],
      "stateMutability": "nonpayable",
      "type": "function"
    },
    {
      "inputs": [
        {
          "internalType": "uint256",
          "name": "_hackerId",
          "type": "uint256"
        },
        {
          "internalType": "string",
          "name": "_ipfsHash",
          "type": "string"
        },
        {
          "internalType": "uint256",
          "name": "_hackathonId",
          "type": "uint256"
        }
      ],
      "name": "add_submission",
      "outputs": [],
      "stateMutability": "nonpayable",
      "type": "function"
    },
    {
      "inputs": [
        {
          "internalType": "uint256",
          "name": "proposalId",
          "type": "uint256"
        },
        {
          "internalType": "uint8",
          "name": "support",
          "type": "uint8"
        }
      ],
      "name": "castVote",
      "outputs": [
        {
          "internalType": "uint256",
          "name": "",
          "type": "uint256"
        }
      ],
      "stateMutability": "nonpayable",
      "type": "function"
    },
    {
      "inputs": [
        {
          "internalType": "uint256",
          "name": "proposalId",
          "type": "uint256"
        },
        {
          "internalType": "uint8",
          "name": "support",
          "type": "uint8"
        },
        {
          "internalType": "uint8",
          "name": "v",
          "type": "uint8"
        },
        {
          "internalType": "bytes32",
          "name": "r",
          "type": "bytes32"
        },
        {
          "internalType": "bytes32",
          "name": "s",
          "type": "bytes32"
        }
      ],
      "name": "castVoteBySig",
      "outputs": [
        {
          "internalType": "uint256",
          "name": "",
          "type": "uint256"
        }
      ],
      "stateMutability": "nonpayable",
      "type": "function"
    },
    {
      "inputs": [
        {
          "internalType": "uint256",
          "name": "proposalId",
          "type": "uint256"
        },
        {
          "internalType": "uint8",
          "name": "support",
          "type": "uint8"
        },
        {
          "internalType": "string",
          "name": "reason",
          "type": "string"
        }
      ],
      "name": "castVoteWithReason",
      "outputs": [
        {
          "internalType": "uint256",
          "name": "",
          "type": "uint256"
        }
      ],
      "stateMutability": "nonpayable",
      "type": "function"
    },
    {
      "inputs": [
        {
          "internalType": "address[]",
          "name": "targets",
          "type": "address[]"
        },
        {
          "internalType": "uint256[]",
          "name": "values",
          "type": "uint256[]"
        },
        {
          "internalType": "bytes[]",
          "name": "calldatas",
          "type": "bytes[]"
        },
        {
          "internalType": "string",
          "name": "description",
          "type": "string"
        },
        {
          "internalType": "uint256",
          "name": "hackathonId",
          "type": "uint256"
        }
      ],
      "name": "createProposal",
      "outputs": [
        {
          "internalType": "uint256",
          "name": "",
          "type": "uint256"
        }
      ],
      "stateMutability": "nonpayable",
      "type": "function"
    },
    {
      "inputs": [
        {
          "internalType": "uint256",
          "name": "_amount",
          "type": "uint256"
        },
        {
          "internalType": "address",
          "name": "_user",
          "type": "address"
        }
      ],
      "name": "disburseIncentive",
      "outputs": [],
      "stateMutability": "nonpayable",
      "type": "function"
    },
    {
      "inputs": [
        {
          "internalType": "address[]",
          "name": "targets",
          "type": "address[]"
        },
        {
          "internalType": "uint256[]",
          "name": "values",
          "type": "uint256[]"
        },
        {
          "internalType": "bytes[]",
          "name": "calldatas",
          "type": "bytes[]"
        },
        {
          "internalType": "bytes32",
          "name": "descriptionHash",
          "type": "bytes32"
        }
      ],
      "name": "execute",
      "outputs": [
        {
          "internalType": "uint256",
          "name": "",
          "type": "uint256"
        }
      ],
      "stateMutability": "payable",
      "type": "function"
    },
    {
      "inputs": [
        {
          "internalType": "uint256",
          "name": "_proposalId",
          "type": "uint256"
        }
      ],
      "name": "getBlockNumber",
      "outputs": [
        {
          "internalType": "uint256",
          "name": "",
          "type": "uint256"
        }
      ],
      "stateMutability": "view",
      "type": "function"
    },
    {
      "inputs": [
        {
          "internalType": "uint256",
          "name": "_proposalId",
          "type": "uint256"
        },
        {
          "internalType": "uint256",
          "name": "_hackerId",
          "type": "uint256"
        }
      ],
      "name": "getHackerSubmission",
      "outputs": [
        {
          "internalType": "string",
          "name": "",
          "type": "string"
        }
      ],
      "stateMutability": "view",
      "type": "function"
    },
    {
      "inputs": [
        {
          "internalType": "uint256",
          "name": "_hackathonId",
          "type": "uint256"
        }
      ],
      "name": "getProposalId",
      "outputs": [
        {
          "internalType": "uint256",
          "name": "",
          "type": "uint256"
        }
      ],
      "stateMutability": "view",
      "type": "function"
    },
    {
      "inputs": [
        {
          "internalType": "address",
          "name": "account",
          "type": "address"
        },
        {
          "internalType": "uint256",
          "name": "blockNumber",
          "type": "uint256"
        }
      ],
      "name": "getVotes",
      "outputs": [
        {
          "internalType": "uint256",
          "name": "",
          "type": "uint256"
        }
      ],
      "stateMutability": "view",
      "type": "function"
    },
    {
      "inputs": [
        {
          "internalType": "uint256",
          "name": "_amount",
          "type": "uint256"
        },
        {
          "internalType": "address payable",
          "name": "_spender",
          "type": "address"
        }
      ],
      "name": "giveApproval",
      "outputs": [],
      "stateMutability": "nonpayable",
      "type": "function"
    },
    {
      "inputs": [],
      "name": "hackathonId",
      "outputs": [
        {
          "internalType": "uint256",
          "name": "_value",
          "type": "uint256"
        }
      ],
      "stateMutability": "view",
      "type": "function"
    },
    {
      "inputs": [
        {
          "internalType": "uint256",
          "name": "",
          "type": "uint256"
        }
      ],
      "name": "hackathonIdToHackathon",
      "outputs": [
        {
          "internalType": "uint256",
          "name": "hackathonId",
          "type": "uint256"
        },
        {
          "internalType": "string",
          "name": "name",
          "type": "string"
        },
        {
          "internalType": "uint256",
          "name": "prizeMoney",
          "type": "uint256"
        },
        {
          "internalType": "string",
          "name": "startDate",
          "type": "string"
        },
        {
          "internalType": "string",
          "name": "endDate",
          "type": "string"
        },
        {
          "internalType": "uint256",
          "name": "proposalId",
          "type": "uint256"
        },
        {
          "internalType": "address",
          "name": "sponsorAddress",
          "type": "address"
        },
        {
          "internalType": "uint256",
          "name": "blockNum",
          "type": "uint256"
        }
      ],
      "stateMutability": "view",
      "type": "function"
    },
    {
      "inputs": [
        {
          "internalType": "uint256",
          "name": "_hackathonId",
          "type": "uint256"
        }
      ],
      "name": "hackerHasRegisteredBefore",
      "outputs": [
        {
          "internalType": "bool",
          "name": "",
          "type": "bool"
        }
      ],
      "stateMutability": "nonpayable",
      "type": "function"
    },
    {
      "inputs": [],
      "name": "hackerId",
      "outputs": [
        {
          "internalType": "uint256",
          "name": "_value",
          "type": "uint256"
        }
      ],
      "stateMutability": "view",
      "type": "function"
    },
    {
      "inputs": [
        {
          "internalType": "uint256",
          "name": "",
          "type": "uint256"
        }
      ],
      "name": "hackerIdToHackathon",
      "outputs": [
        {
          "internalType": "uint256",
          "name": "hackathonId",
          "type": "uint256"
        },
        {
          "internalType": "string",
          "name": "name",
          "type": "string"
        },
        {
          "internalType": "uint256",
          "name": "prizeMoney",
          "type": "uint256"
        },
        {
          "internalType": "string",
          "name": "startDate",
          "type": "string"
        },
        {
          "internalType": "string",
          "name": "endDate",
          "type": "string"
        },
        {
          "internalType": "uint256",
          "name": "proposalId",
          "type": "uint256"
        },
        {
          "internalType": "address",
          "name": "sponsorAddress",
          "type": "address"
        },
        {
          "internalType": "uint256",
          "name": "blockNum",
          "type": "uint256"
        }
      ],
      "stateMutability": "view",
      "type": "function"
    },
    {
      "inputs": [
        {
          "internalType": "uint256",
          "name": "_hackathonId",
          "type": "uint256"
        }
      ],
      "name": "hasHackerRegistedForHackathon",
      "outputs": [
        {
          "internalType": "bool",
          "name": "",
          "type": "bool"
        }
      ],
      "stateMutability": "view",
      "type": "function"
    },
    {
      "inputs": [
        {
          "internalType": "uint256",
          "name": "proposalId",
          "type": "uint256"
        },
        {
          "internalType": "address",
          "name": "account",
          "type": "address"
        }
      ],
      "name": "hasVoted",
      "outputs": [
        {
          "internalType": "bool",
          "name": "",
          "type": "bool"
        }
      ],
      "stateMutability": "view",
      "type": "function"
    },
    {
      "inputs": [
        {
          "internalType": "address[]",
          "name": "targets",
          "type": "address[]"
        },
        {
          "internalType": "uint256[]",
          "name": "values",
          "type": "uint256[]"
        },
        {
          "internalType": "bytes[]",
          "name": "calldatas",
          "type": "bytes[]"
        },
        {
          "internalType": "bytes32",
          "name": "descriptionHash",
          "type": "bytes32"
        }
      ],
      "name": "hashProposal",
      "outputs": [
        {
          "internalType": "uint256",
          "name": "",
          "type": "uint256"
        }
      ],
      "stateMutability": "pure",
      "type": "function"
    },
    {
      "inputs": [],
      "name": "name",
      "outputs": [
        {
          "internalType": "string",
          "name": "",
          "type": "string"
        }
      ],
      "stateMutability": "view",
      "type": "function"
    },
    {
      "inputs": [
        {
          "internalType": "uint256",
          "name": "proposalId",
          "type": "uint256"
        }
      ],
      "name": "proposalDeadline",
      "outputs": [
        {
          "internalType": "uint256",
          "name": "",
          "type": "uint256"
        }
      ],
      "stateMutability": "view",
      "type": "function"
    },
    {
      "inputs": [
        {
          "internalType": "uint256",
          "name": "proposalId",
          "type": "uint256"
        }
      ],
      "name": "proposalSnapshot",
      "outputs": [
        {
          "internalType": "uint256",
          "name": "",
          "type": "uint256"
        }
      ],
      "stateMutability": "view",
      "type": "function"
    },
    {
      "inputs": [],
      "name": "proposalThreshold",
      "outputs": [
        {
          "internalType": "uint256",
          "name": "",
          "type": "uint256"
        }
      ],
      "stateMutability": "view",
      "type": "function"
    },
    {
      "inputs": [
        {
          "internalType": "address[]",
          "name": "targets",
          "type": "address[]"
        },
        {
          "internalType": "uint256[]",
          "name": "values",
          "type": "uint256[]"
        },
        {
          "internalType": "bytes[]",
          "name": "calldatas",
          "type": "bytes[]"
        },
        {
          "internalType": "string",
          "name": "description",
          "type": "string"
        }
      ],
      "name": "propose",
      "outputs": [
        {
          "internalType": "uint256",
          "name": "",
          "type": "uint256"
        }
      ],
      "stateMutability": "nonpayable",
      "type": "function"
    },
    {
      "inputs": [
        {
          "internalType": "uint256",
          "name": "blockNumber",
          "type": "uint256"
        }
      ],
      "name": "quorum",
      "outputs": [
        {
          "internalType": "uint256",
          "name": "",
          "type": "uint256"
        }
      ],
      "stateMutability": "view",
      "type": "function"
    },
    {
      "inputs": [],
      "name": "quorumDenominator",
      "outputs": [
        {
          "internalType": "uint256",
          "name": "",
          "type": "uint256"
        }
      ],
      "stateMutability": "view",
      "type": "function"
    },
    {
      "inputs": [],
      "name": "quorumNumerator",
      "outputs": [
        {
          "internalType": "uint256",
          "name": "",
          "type": "uint256"
        }
      ],
      "stateMutability": "view",
      "type": "function"
    },
    {
      "inputs": [],
      "name": "receiveEthForTransactions",
      "outputs": [],
      "stateMutability": "payable",
      "type": "function"
    },
    {
      "inputs": [
        {
          "internalType": "string",
          "name": "_name",
          "type": "string"
        },
        {
          "internalType": "uint256",
          "name": "_hackathonId",
          "type": "uint256"
        }
      ],
      "name": "register_hacker",
      "outputs": [
        {
          "internalType": "uint256",
          "name": "",
          "type": "uint256"
        }
      ],
      "stateMutability": "nonpayable",
      "type": "function"
    },
    {
      "inputs": [
        {
          "internalType": "address",
          "name": "target",
          "type": "address"
        },
        {
          "internalType": "uint256",
          "name": "value",
          "type": "uint256"
        },
        {
          "internalType": "bytes",
          "name": "data",
          "type": "bytes"
        }
      ],
      "name": "relay",
      "outputs": [],
      "stateMutability": "nonpayable",
      "type": "function"
    },
    {
      "inputs": [
        {
          "internalType": "uint256",
          "name": "newProposalThreshold",
          "type": "uint256"
        }
      ],
      "name": "setProposalThreshold",
      "outputs": [],
      "stateMutability": "nonpayable",
      "type": "function"
    },
    {
      "inputs": [
        {
          "internalType": "uint256",
          "name": "newVotingDelay",
          "type": "uint256"
        }
      ],
      "name": "setVotingDelay",
      "outputs": [],
      "stateMutability": "nonpayable",
      "type": "function"
    },
    {
      "inputs": [
        {
          "internalType": "uint256",
          "name": "newVotingPeriod",
          "type": "uint256"
        }
      ],
      "name": "setVotingPeriod",
      "outputs": [],
      "stateMutability": "nonpayable",
      "type": "function"
    },
    {
      "inputs": [
        {
          "internalType": "uint256",
          "name": "_hackathonId",
          "type": "uint256"
        }
      ],
      "name": "setWinnerAddress",
      "outputs": [],
      "stateMutability": "nonpayable",
      "type": "function"
    },
    {
      "inputs": [
        {
          "internalType": "uint256",
          "name": "proposalId",
          "type": "uint256"
        }
      ],
      "name": "state",
      "outputs": [
        {
          "internalType": "enum IGovernor.ProposalState",
          "name": "",
          "type": "uint8"
        }
      ],
      "stateMutability": "view",
      "type": "function"
    },
    {
      "inputs": [
        {
          "internalType": "bytes4",
          "name": "interfaceId",
          "type": "bytes4"
        }
      ],
      "name": "supportsInterface",
      "outputs": [
        {
          "internalType": "bool",
          "name": "",
          "type": "bool"
        }
      ],
      "stateMutability": "view",
      "type": "function"
    },
    {
      "inputs": [],
      "name": "token",
      "outputs": [
        {
          "internalType": "contract IVotes",
          "name": "",
          "type": "address"
        }
      ],
      "stateMutability": "view",
      "type": "function"
    },
    {
      "inputs": [
        {
          "internalType": "uint256",
          "name": "newQuorumNumerator",
          "type": "uint256"
        }
      ],
      "name": "updateQuorumNumerator",
      "outputs": [],
      "stateMutability": "nonpayable",
      "type": "function"
    },
    {
      "inputs": [],
      "name": "version",
      "outputs": [
        {
          "internalType": "string",
          "name": "",
          "type": "string"
        }
      ],
      "stateMutability": "view",
      "type": "function"
    },
    {
      "inputs": [],
      "name": "votingDelay",
      "outputs": [
        {
          "internalType": "uint256",
          "name": "",
          "type": "uint256"
        }
      ],
      "stateMutability": "view",
      "type": "function"
    },
    {
      "inputs": [],
      "name": "votingPeriod",
      "outputs": [
        {
          "internalType": "uint256",
          "name": "",
          "type": "uint256"
        }
      ],
      "stateMutability": "view",
      "type": "function"
    },
    {
      "stateMutability": "payable",
      "type": "receive"
    }
  ],
  "bytecode": "0x610160604052601080546001600160a01b03191690553480156200002257600080fd5b50604051620048ec380380620048ec83398101604081905262000045916200043d565b6004836000600a8186806200006e6040805180820190915260018152603160f81b602082015290565b815160208084019190912082518383012060e08290526101008190524660a0818152604080517f8b73c3c69bb8fe3d512ecc4cf759cc79239f7b179b0ffacaa9a75d522b39400f81880181905281830187905260608201869052608082019490945230818401528151808203909301835260c00190528051940193909320919290916080523060601b60c052610120525050825162000117925060009150602084019062000385565b506200012590508362000192565b6200013082620001d3565b6200013b816200027a565b50505060601b6001600160601b031916610140526200015a81620002bb565b50600d80546001600160a01b039283166001600160a01b031991821617909155600e80549490921693169290921790915550620005aa565b60025460408051918252602082018390527fc565b045403dc03c2eea82b81a0465edad9e2e7fc4d97e11421c209da93d7a93910160405180910390a1600255565b60008111620002395760405162461bcd60e51b815260206004820152602760248201527f476f7665726e6f7253657474696e67733a20766f74696e6720706572696f6420604482015266746f6f206c6f7760c81b60648201526084015b60405180910390fd5b60035460408051918252602082018390527f7e3f7f0708a84de9203036abaa450dccc85ad5ff52f78c170f3edb55cf5e8828910160405180910390a1600355565b60045460408051918252602082018390527fccb45da8d5717e6c4544694297c4ba5cf151d455c9bb0ed4fc7a38411bc05461910160405180910390a1600455565b6064811115620003405760405162461bcd60e51b815260206004820152604360248201527f476f7665726e6f72566f74657351756f72756d4672616374696f6e3a2071756f60448201527f72756d4e756d657261746f72206f7665722071756f72756d44656e6f6d696e616064820152623a37b960e91b608482015260a40162000230565b600c80549082905560408051828152602081018490527f0553476bf02ef2726e8ce5ced78d63e26e602e4a2257b1f559418e24b4633997910160405180910390a15050565b82805462000393906200053e565b90600052602060002090601f016020900481019282620003b7576000855562000402565b82601f10620003d257805160ff191683800117855562000402565b8280016001018555821562000402579182015b8281111562000402578251825591602001919060010190620003e5565b506200041092915062000414565b5090565b5b8082111562000410576000815560010162000415565b8051620004388162000591565b919050565b60008060006060848603121562000452578283fd5b83516200045f8162000591565b602085810151919450906001600160401b03808211156200047e578485fd5b818701915087601f83011262000492578485fd5b815181811115620004a757620004a76200057b565b604051601f8201601f19908116603f01168101908382118183101715620004d257620004d26200057b565b816040528281528a86848701011115620004ea578788fd5b8793505b828410156200050d5784840186015181850187015292850192620004ee565b828411156200051e57878684830101525b80975050505050505062000535604085016200042b565b90509250925092565b6002810460018216806200055357607f821691505b602082108114156200057557634e487b7160e01b600052602260045260246000fd5b50919050565b634e487b7160e01b600052604160045260246000fd5b6001600160a01b0381168114620005a757600080fd5b50565b60805160a05160c05160601c60e05161010051610120516101405160601c6142d3620006196000396000818161093f015281816129820152612a5c01526000612bb701526000612c0601526000612be101526000612b3801526000612b6201526000612b8c01526142d36000f3fe6080604052600436106102965760003560e01c80637ba6aa641161015a578063c28bc2fa116100c1578063e6c0f7fe1161007a578063e6c0f7fe146108a5578063ea0217cf146108ad578063eb9019d4146108cd578063ece40cc1146108ed578063f8ce560a1461090d578063fc0c546a1461092d576102b9565b8063c28bc2fa146107b4578063c59057e4146107d4578063cd2c2bd2146107f4578063dd4e2ba51461080b578063deaaa7cc14610851578063e0b4887c14610885576102b9565b80639605270a116101135780639605270a1461071657806397c3d33414610736578063a7713a701461074a578063a90bd4091461075f578063b58131b01461077f578063c01f9e3714610794576102b9565b80637ba6aa64146106565780637c95ac27146106765780637d5e81e2146106965780637fe76979146106b6578063909da8f1146106d657806391dda66e146106f6576102b9565b80633d36d648116101fe57806356781388116101b757806356781388146105895780636cd4dad9146105a95780636cef51ce146105c957806370b0f660146105e957806378270cad146106095780637b3c71d314610636576102b9565b80633d36d648146104915780633e4f49e6146104b15780634200a80b146104de57806343859632146104f557806350c0fbe41461053f57806354fd4d501461055f576102b9565b80631089f5ed116102505780631089f5ed146103b057806324de2ef6146103d05780632656227d146104295780632d63f6931461043c5780633932abb11461045c5780633bccf4fd14610471576102b9565b8062d647e1146102be57806301ffc9a7146102fb57806302a251a31461032b57806306f3f9e61461034e57806306fdde031461036e5780630c47bd4514610390576102b9565b366102b957306102a4610961565b6001600160a01b0316146102b757600080fd5b005b600080fd5b3480156102ca57600080fd5b506102de6102d9366004613974565b610966565b6040516102f2989796959493929190614000565b60405180910390f35b34801561030757600080fd5b5061031b610316366004613836565b610b4b565b60405190151581526020016102f2565b34801561033757600080fd5b50610340610b84565b6040519081526020016102f2565b34801561035a57600080fd5b506102b7610369366004613974565b610b94565b34801561037a57600080fd5b50610383610be1565b6040516102f29190613da9565b34801561039c57600080fd5b506102de6103ab366004613974565b610c73565b3480156103bc57600080fd5b506102b76103cb366004613974565b610c95565b3480156103dc57600080fd5b506104116103eb36600461385e565b8051602081830181018051600f825292820191909301209152546001600160a01b031681565b6040516001600160a01b0390911681526020016102f2565b610340610437366004613635565b610dea565b34801561044857600080fd5b50610340610457366004613974565b610f13565b34801561046857600080fd5b50610340610f4a565b34801561047d57600080fd5b5061034061048c366004613aab565b610f55565b34801561049d57600080fd5b506102b76104ac366004613974565b610fe9565b3480156104bd57600080fd5b506104d16104cc366004613974565b611021565b6040516102f29190613d81565b3480156104ea57600080fd5b506006546103409081565b34801561050157600080fd5b5061031b6105103660046139a4565b6000828152600b602090815260408083206001600160a01b038516845260010190915290205460ff1692915050565b34801561054b57600080fd5b5061034061055a366004613974565b6110fa565b34801561056b57600080fd5b506040805180820190915260018152603160f81b6020820152610383565b34801561059557600080fd5b506103406105a4366004613a41565b61111e565b3480156105b557600080fd5b506103406105c4366004613767565b611147565b3480156105d557600080fd5b506103836105e4366004613a20565b611199565b3480156105f557600080fd5b506102b7610604366004613974565b6111ac565b34801561061557600080fd5b50610340610624366004613974565b60096020526000908152604090205481565b34801561064257600080fd5b50610340610651366004613a6c565b6111ed565b34801561066257600080fd5b506102b76106713660046139a4565b611235565b34801561068257600080fd5b50610340610691366004613974565b6112c0565b3480156106a257600080fd5b506103406106b13660046136c0565b6112d7565b3480156106c257600080fd5b5061031b6106d1366004613974565b6115c0565b3480156106e257600080fd5b506103406106f1366004613890565b611653565b34801561070257600080fd5b50610340610711366004613932565b611739565b34801561072257600080fd5b506102b76107313660046139d3565b61186b565b34801561074257600080fd5b506064610340565b34801561075657600080fd5b50600c54610340565b34801561076b57600080fd5b506102b761077a3660046139a4565b6119ca565b34801561078b57600080fd5b50610340611a99565b3480156107a057600080fd5b506103406107af366004613974565b611aa4565b3480156107c057600080fd5b506102b76107cf3660046135dc565b611ad3565b3480156107e057600080fd5b506103406107ef366004613635565b611b54565b34801561080057600080fd5b506005546103409081565b34801561081757600080fd5b506040805180820190915260208082527f737570706f72743d627261766f2671756f72756d3d666f722c6162737461696e90820152610383565b34801561085d57600080fd5b506103407f150214d74d59b7d1e90c73fc22ef3d991dd0a76b046543d4d80ab92d2a50328f81565b34801561089157600080fd5b5061031b6108a0366004613974565b611b8e565b6102b7611c20565b3480156108b957600080fd5b506102b76108c8366004613974565b611ca9565b3480156108d957600080fd5b506103406108e83660046135b1565b611cea565b3480156108f957600080fd5b506102b7610908366004613974565b611cf6565b34801561091957600080fd5b50610340610928366004613974565b611d37565b34801561093957600080fd5b506104117f000000000000000000000000000000000000000000000000000000000000000081565b305b90565b60076020526000908152604090208054600182018054919291610988906141b6565b80601f01602080910402602001604051908101604052809291908181526020018280546109b4906141b6565b8015610a015780601f106109d657610100808354040283529160200191610a01565b820191906000526020600020905b8154815290600101906020018083116109e457829003601f168201915b505050505090806002015490806004018054610a1c906141b6565b80601f0160208091040260200160405190810160405280929190818152602001828054610a48906141b6565b8015610a955780601f10610a6a57610100808354040283529160200191610a95565b820191906000526020600020905b815481529060010190602001808311610a7857829003601f168201915b505050505090806005018054610aaa906141b6565b80601f0160208091040260200160405190810160405280929190818152602001828054610ad6906141b6565b8015610b235780601f10610af857610100808354040283529160200191610b23565b820191906000526020600020905b815481529060010190602001808311610b0657829003601f168201915b5050505060068301546007840154600890940154929390926001600160a01b03909116915088565b60006001600160e01b0319821663bf26d89760e01b1480610b7c57506301ffc9a760e01b6001600160e01b03198316145b90505b919050565b6000610b8f60035490565b905090565b610b9c610961565b6001600160a01b0316336001600160a01b031614610bd55760405162461bcd60e51b8152600401610bcc90613dde565b60405180910390fd5b610bde81611d42565b50565b606060008054610bf0906141b6565b80601f0160208091040260200160405190810160405280929190818152602001828054610c1c906141b6565b8015610c695780601f10610c3e57610100808354040283529160200191610c69565b820191906000526020600020905b815481529060010190602001808311610c4c57829003601f168201915b5050505050905090565b60086020526000908152604090208054600182018054919291610988906141b6565b600d54604051636eb1769f60e11b815233600482015230602482015282916001600160a01b03169063dd62ed3e9060440160206040518083038186803b158015610cde57600080fd5b505afa158015610cf2573d6000803e3d6000fd5b505050506040513d601f19601f82011682018060405250810190610d16919061398c565b1015610d5c5760405162461bcd60e51b815260206004820152601560248201527411105248185b1b1bddd85b98d9481b9bdd081cd95d605a1b6044820152606401610bcc565b600d546040516323b872dd60e01b8152336004820152306024820152604481018390526001600160a01b03909116906323b872dd90606401602060405180830381600087803b158015610dae57600080fd5b505af1158015610dc2573d6000803e3d6000fd5b505050506040513d601f19601f82011682018060405250810190610de69190613816565b5050565b600080610df986868686611b54565b90506000610e0682611021565b90506004816007811115610e2a57634e487b7160e01b600052602160045260246000fd5b1480610e5557506005816007811115610e5357634e487b7160e01b600052602160045260246000fd5b145b610eab5760405162461bcd60e51b815260206004820152602160248201527f476f7665726e6f723a2070726f706f73616c206e6f74207375636365737366756044820152601b60fa1b6064820152608401610bcc565b600082815260016020818152604092839020600201805460ff191690921790915590518381527f712ae1383f79ac853f8d882153778e0260ef8f03b504e2866e0593e04d2b291f910160405180910390a1610f098288888888611e0a565b5095945050505050565b60008181526001602090815260408083208151928301909152546001600160401b0316908190525b6001600160401b031692915050565b6000610b8f60025490565b604080517f150214d74d59b7d1e90c73fc22ef3d991dd0a76b046543d4d80ab92d2a50328f602082015290810186905260ff851660608201526000908190610fc190610fb99060800160405160208183030381529060405280519060200120611f33565b868686611f81565b9050610fde87828860405180602001604052806000815250611f9f565b979650505050505050565b6000610ff4826120b8565b601080546001600160a01b0319166001600160a01b039384161790819055909250610de6918391166119ca565b6000818152600160205260408120600281015460ff1615611046576007915050610b7f565b6002810154610100900460ff1615611062576002915050610b7f565b600061106d84610f13565b9050806110bc5760405162461bcd60e51b815260206004820152601d60248201527f476f7665726e6f723a20756e6b6e6f776e2070726f706f73616c2069640000006044820152606401610bcc565b4381106110ce57600092505050610b7f565b60006110d985611aa4565b90504381106110ee5760019350505050610b7f565b60049350505050610b7f565b60008181526009602090815260408083205483526007909152812060080154610b7c565b60008033905061113f84828560405180602001604052806000815250611f9f565b949350505050565b6000611152826122ea565b6000611160878787876112d7565b600081815260096020908152604080832087905586835260079091529020600681018290554360089091015590505b9695505050505050565b60606111a58383612342565b9392505050565b6111b4610961565b6001600160a01b0316336001600160a01b0316146111e45760405162461bcd60e51b8152600401610bcc90613dde565b610bde816127a0565b60008033905061118f86828787878080601f016020809104026020016040519081016040528093929190818152602001838380828437600092019190915250611f9f92505050565b600d5460405163095ea7b360e01b81526001600160a01b038381166004830152602482018590529091169063095ea7b390604401602060405180830381600087803b15801561128357600080fd5b505af1158015611297573d6000803e3d6000fd5b505050506040513d601f19601f820116820180604052508101906112bb9190613816565b505050565b600081815260076020526040812060060154610b7c565b60006112e1611a99565b6112f0336108e860014361416f565b10156113705760405162461bcd60e51b815260206004820152604360248201527f476f7665726e6f72436f6d7061746962696c697479427261766f3a2070726f7060448201527f6f73657220766f7465732062656c6f772070726f706f73616c207468726573686064820152621bdb1960ea1b608482015260a401610bcc565b60006113858686868680519060200120611b54565b905084518651146113a85760405162461bcd60e51b8152600401610bcc90613e15565b83518651146113c95760405162461bcd60e51b8152600401610bcc90613e15565b600086511161141a5760405162461bcd60e51b815260206004820152601860248201527f476f7665726e6f723a20656d7074792070726f706f73616c00000000000000006044820152606401610bcc565b600081815260016020908152604091829020825191820190925281546001600160401b0316908190521561149a5760405162461bcd60e51b815260206004820152602160248201527f476f7665726e6f723a2070726f706f73616c20616c72656164792065786973746044820152607360f81b6064820152608401610bcc565b60006114ac6114a7610f4a565b6127e1565b6114b5436127e1565b6114bf9190614105565b905060006114ce6114a7610b84565b6114d89083614105565b835467ffffffffffffffff19166001600160401b038416178455905060018301805467ffffffffffffffff19166001600160401b0383161790557f7d84a6263ae0d98d3329bd7b46bb4e8d6f98cd35a7adb45c274c8b7fd5ebd5e084338b8b8d516001600160401b0381111561155e57634e487b7160e01b600052604160045260246000fd5b60405190808252806020026020018201604052801561159157816020015b606081526020019060019003908161157c5790505b508c88888e6040516115ab99989796959493929190613f14565b60405180910390a15091979650505050505050565b600081815260076020526040812060038101825b815481101561164857336001600160a01b031682828154811061160757634e487b7160e01b600052603260045260246000fd5b60009182526020909120600160059092020101546001600160a01b031614156116365760019350505050610b7f565b80611640816141f1565b9150506115d4565b506000949350505050565b6000611663600580546001019055565b60006007600061167260055490565b8152602001908152602001600020905061168b60055490565b815586516116a290600183019060208a019061331b565b506002810184905585516116bf906004830190602089019061331b565b5084516116d5906005830190602088019061331b565b506007810180546001600160a01b0319166001600160a01b0385161790557fcba4bf7a6b01547e7d8a3c5050ca5009bb70870c39a8702c8b18c226b89545c161171d60055490565b60405190815260200160405180910390a1549695505050505050565b60006117766040518060a001604052806000815260200160006001600160a01b031681526020016060815260200160608152602001600081525090565b611784600680546001019055565b60065481523360208083019182526040808401878152600087815260078452918220600301805460018082018355918452928490208651600590940201928355935193820180546001600160a01b0319166001600160a01b0390951694909417909355915180518493926117ff92600285019291019061331b565b506060820151805161181b91600384019160209091019061331b565b506080820151816004015550507f52f5f480849d7ad260ceec55e9f964d8954e583a8194a893b441abb3dfd70df861185260065490565b60405190815260200160405180910390a1519392505050565b61187481611b8e565b6118d85760405162461bcd60e51b815260206004820152602f60248201527f4861636b6572204e4f5420726567697374657265642120506c6561736520726560448201526e33b4b9ba32b9103cb7bab939b2b63360891b6064820152608401610bcc565b6000818152600760205260408120600301905b8154811015611990578482828154811061191557634e487b7160e01b600052603260045260246000fd5b906000526020600020906005020160000154141561197e57600082828154811061194f57634e487b7160e01b600052603260045260246000fd5b906000526020600020906005020190508481600301908051906020019061197792919061331b565b5050611990565b80611988816141f1565b9150506118eb565b506040518481527f39a3b0282f68964e1565dbe1e8656f18e757f212f480fcbc564b36aa395373649060200160405180910390a150505050565b6010546001600160a01b0316611a1a5760405162461bcd60e51b8152602060048201526015602482015274141c9bdc1bdcd85b081b9bdd081858d8d95c1d1959605a1b6044820152606401610bcc565b600e546001600160a01b03166340c10f1982611a3785600a614150565b6040516001600160e01b031960e085901b1681526001600160a01b0390921660048301526024820152604401600060405180830381600087803b158015611a7d57600080fd5b505af1158015611a91573d6000803e3d6000fd5b505050505050565b6000610b8f60045490565b60008181526001602081815260408084208151928301909152909101546001600160401b031690819052610f3b565b611adb610961565b6001600160a01b0316336001600160a01b031614611b0b5760405162461bcd60e51b8152600401610bcc90613dde565b611b4d8483838080601f01602080910402602001604051908101604052809392919081815260200183838082843760009201919091525088925061284d915050565b5050505050565b600084848484604051602001611b6d9493929190613d36565b60408051601f19818403018152919052805160209091012095945050505050565b60008181526007602052604081206003018054829190825b81811015611c1657336001600160a01b0316838281548110611bd857634e487b7160e01b600052603260045260246000fd5b60009182526020909120600160059092020101546001600160a01b03161415611c045760019350611c16565b80611c0e816141f1565b915050611ba6565b5091949350505050565b670de0b6b3a7640000341015611c785760405162461bcd60e51b815260206004820152601860248201527f4d696e696d756d203120657468657220726571756972656400000000000000006044820152606401610bcc565b611ca76040518060400160405280600d81526020016c02932b1b2b4bb32b2101e9e9f1609d1b81525034612873565b565b611cb1610961565b6001600160a01b0316336001600160a01b031614611ce15760405162461bcd60e51b8152600401610bcc90613dde565b610bde816128b8565b60006111a58383612959565b611cfe610961565b6001600160a01b0316336001600160a01b031614611d2e5760405162461bcd60e51b8152600401610bcc90613dde565b610bde816129fe565b6000610b7c82612a3f565b6064811115611dc55760405162461bcd60e51b815260206004820152604360248201527f476f7665726e6f72566f74657351756f72756d4672616374696f6e3a2071756f60448201527f72756d4e756d657261746f72206f7665722071756f72756d44656e6f6d696e616064820152623a37b960e91b608482015260a401610bcc565b600c80549082905560408051828152602081018490527f0553476bf02ef2726e8ce5ced78d63e26e602e4a2257b1f559418e24b4633997910160405180910390a15050565b600060405180606001604052806027815260200161424e60279139905060005b8551811015611f2a57600080878381518110611e5657634e487b7160e01b600052603260045260246000fd5b60200260200101516001600160a01b0316878481518110611e8757634e487b7160e01b600052603260045260246000fd5b6020026020010151878581518110611eaf57634e487b7160e01b600052603260045260246000fd5b6020026020010151604051611ec49190613d1a565b60006040518083038185875af1925050503d8060008114611f01576040519150601f19603f3d011682016040523d82523d6000602084013e611f06565b606091505b5091509150611f16828286612af2565b50505080611f23906141f1565b9050611e2a565b50505050505050565b6000610b7c611f40612b2b565b8360405161190160f01b6020820152602281018390526042810182905260009060620160405160208183030381529060405280519060200120905092915050565b6000806000611f9287878787612c56565b91509150610f0981612d43565b6000848152600160208190526040822090611fb987611021565b6007811115611fd857634e487b7160e01b600052602160045260246000fd5b146120315760405162461bcd60e51b815260206004820152602360248201527f476f7665726e6f723a20766f7465206e6f742063757272656e746c792061637460448201526269766560e81b6064820152608401610bcc565b604080516020810190915281546001600160401b031690819052600090612059908790611cea565b905061206787878784612f46565b856001600160a01b03167fb8e138887d0aa13bab447e82de9d5c1777041ecd21ca36ba824ff1e6c07ddda4888784886040516120a69493929190614072565b60405180910390a29695505050505050565b600081815260076020526040812081906003810182808060015b84546120e09060019061416f565b8110156121e55784818154811061210757634e487b7160e01b600052603260045260246000fd5b9060005260206000209060050201600401548361212491906140ed565b92508385828154811061214757634e487b7160e01b600052603260045260246000fd5b90600052602060002090600502016004015411156121d35784818154811061217f57634e487b7160e01b600052603260045260246000fd5b90600052602060002090600502016004015493508481815481106121b357634e487b7160e01b600052603260045260246000fd5b60009182526020909120600160059092020101546001600160a01b031691505b806121dd816141f1565b9150506120d2565b506121fc60036121f68460056131bc565b906131c8565b8454859061220c9060019061416f565b8154811061222a57634e487b7160e01b600052603260045260246000fd5b906000526020600020906005020160040154106122ca5783547f9173824f3c339d8aa34cf4de5cfb628749c53017476edd9eea87ae2b915c34f69085906122739060019061416f565b8154811061229157634e487b7160e01b600052603260045260246000fd5b9060005260206000209060050201600401546040516122b291815260200190565b60405180910390a15060078401546001600160a01b03165b808560020154600a6122dc9190614150565b965096505050505050915091565b600061231c6040518060400160405280600e81526020016d4e6f6e654f6654686541626f766560901b81525083611739565b9050610de681604051806040016040528060018152602001600f60fb1b8152508461186b565b600082815260096020908152604080832054835260078252808320815161012081019092528054825260018101805460609586959094939290840191612387906141b6565b80601f01602080910402602001604051908101604052809291908181526020018280546123b3906141b6565b80156124005780601f106123d557610100808354040283529160200191612400565b820191906000526020600020905b8154815290600101906020018083116123e357829003601f168201915b505050505081526020016002820154815260200160038201805480602002602001604051908101604052809291908181526020016000905b828210156125b85760008481526020908190206040805160a081018252600586029092018054835260018101546001600160a01b0316938301939093526002830180549293929184019161248b906141b6565b80601f01602080910402602001604051908101604052809291908181526020018280546124b7906141b6565b80156125045780601f106124d957610100808354040283529160200191612504565b820191906000526020600020905b8154815290600101906020018083116124e757829003601f168201915b5050505050815260200160038201805461251d906141b6565b80601f0160208091040260200160405190810160405280929190818152602001828054612549906141b6565b80156125965780601f1061256b57610100808354040283529160200191612596565b820191906000526020600020905b81548152906001019060200180831161257957829003601f168201915b5050505050815260200160048201548152505081526020019060010190612438565b5050505081526020016004820180546125d0906141b6565b80601f01602080910402602001604051908101604052809291908181526020018280546125fc906141b6565b80156126495780601f1061261e57610100808354040283529160200191612649565b820191906000526020600020905b81548152906001019060200180831161262c57829003601f168201915b50505050508152602001600582018054612662906141b6565b80601f016020809104026020016040519081016040528092919081815260200182805461268e906141b6565b80156126db5780601f106126b0576101008083540402835291602001916126db565b820191906000526020600020905b8154815290600101906020018083116126be57829003601f168201915b50505091835250506006820154602082015260078201546001600160a01b0316604082015260089091015460609182015281015190915060005b81518111612795578582828151811061273e57634e487b7160e01b600052603260045260246000fd5b60200260200101516000015114156127835781818151811061277057634e487b7160e01b600052603260045260246000fd5b6020026020010151606001519350612795565b8061278d816141f1565b915050612715565b509195945050505050565b60025460408051918252602082018390527fc565b045403dc03c2eea82b81a0465edad9e2e7fc4d97e11421c209da93d7a93910160405180910390a1600255565b60006001600160401b038211156128495760405162461bcd60e51b815260206004820152602660248201527f53616665436173743a2076616c756520646f65736e27742066697420696e203660448201526534206269747360d01b6064820152608401610bcc565b5090565b606061113f848484604051806060016040528060298152602001614275602991396131d4565b610de68282604051602401612889929190613dbc565b60408051601f198184030181529190526020810180516001600160e01b03166309710a9d60e41b1790526132fa565b600081116129185760405162461bcd60e51b815260206004820152602760248201527f476f7665726e6f7253657474696e67733a20766f74696e6720706572696f6420604482015266746f6f206c6f7760c81b6064820152608401610bcc565b60035460408051918252602082018390527f7e3f7f0708a84de9203036abaa450dccc85ad5ff52f78c170f3edb55cf5e8828910160405180910390a1600355565b604051630748d63560e31b81526001600160a01b038381166004830152602482018390526000917f000000000000000000000000000000000000000000000000000000000000000090911690633a46b1a89060440160206040518083038186803b1580156129c657600080fd5b505afa1580156129da573d6000803e3d6000fd5b505050506040513d601f19601f820116820180604052508101906111a5919061398c565b60045460408051918252602082018390527fccb45da8d5717e6c4544694297c4ba5cf151d455c9bb0ed4fc7a38411bc05461910160405180910390a1600455565b60006064600c54604051632394e7a360e21b8152600481018590527f00000000000000000000000000000000000000000000000000000000000000006001600160a01b031690638e539e8c9060240160206040518083038186803b158015612aa657600080fd5b505afa158015612aba573d6000803e3d6000fd5b505050506040513d601f19601f82011682018060405250810190612ade919061398c565b612ae89190614150565b610b7c9190614130565b60608315612b015750816111a5565b825115612b115782518084602001fd5b8160405162461bcd60e51b8152600401610bcc9190613da9565b6000306001600160a01b037f000000000000000000000000000000000000000000000000000000000000000016148015612b8457507f000000000000000000000000000000000000000000000000000000000000000046145b15612bb057507f0000000000000000000000000000000000000000000000000000000000000000610963565b50604080517f00000000000000000000000000000000000000000000000000000000000000006020808301919091527f0000000000000000000000000000000000000000000000000000000000000000828401527f000000000000000000000000000000000000000000000000000000000000000060608301524660808301523060a0808401919091528351808403909101815260c09092019092528051910120610963565b6000807f7fffffffffffffffffffffffffffffff5d576e7357a4501ddfe92f46681b20a0831115612c8d5750600090506003612d3a565b8460ff16601b14158015612ca557508460ff16601c14155b15612cb65750600090506004612d3a565b6040805160008082526020820180845289905260ff881692820192909252606081018690526080810185905260019060a0016020604051602081039080840390855afa158015612d0a573d6000803e3d6000fd5b5050604051601f1901519150506001600160a01b038116612d3357600060019250925050612d3a565b9150600090505b94509492505050565b6000816004811115612d6557634e487b7160e01b600052602160045260246000fd5b1415612d7057610bde565b6001816004811115612d9257634e487b7160e01b600052602160045260246000fd5b1415612de05760405162461bcd60e51b815260206004820152601860248201527f45434453413a20696e76616c6964207369676e617475726500000000000000006044820152606401610bcc565b6002816004811115612e0257634e487b7160e01b600052602160045260246000fd5b1415612e505760405162461bcd60e51b815260206004820152601f60248201527f45434453413a20696e76616c6964207369676e6174757265206c656e677468006044820152606401610bcc565b6003816004811115612e7257634e487b7160e01b600052602160045260246000fd5b1415612ecb5760405162461bcd60e51b815260206004820152602260248201527f45434453413a20696e76616c6964207369676e6174757265202773272076616c604482015261756560f01b6064820152608401610bcc565b6004816004811115612eed57634e487b7160e01b600052602160045260246000fd5b1415610bde5760405162461bcd60e51b815260206004820152602260248201527f45434453413a20696e76616c6964207369676e6174757265202776272076616c604482015261756560f01b6064820152608401610bcc565b6000848152600b602090815260408083206001600160a01b0387168452600181019092529091205460ff1615612fd25760405162461bcd60e51b815260206004820152602b60248201527f476f7665726e6f72566f74696e6753696d706c6553656c663a20766f7465206160448201526a1b1c9958591e4818d85cdd60aa1b6064820152608401610bcc565b6001600160a01b0384166000908152600182810160209081526040808420805460ff19169093179092558783526009815281832054808452600790915291819020905160038201907f2bbe4c96da549b1a787f636d8599819ee650cb00433930c8134b9021ebb21ff890613047908490613e56565b60405180910390a180546040519081527fc8f9129b2b9e0b802fd31fddc1d0e8b371b60e57d44c193a2dd41b24b5ce69649060200160405180910390a1805460ff87161161314c5784818760ff16815481106130b357634e487b7160e01b600052603260045260246000fd5b906000526020600020906005020160040160008282546130d391906140ed565b925050819055507f5bf7592d0eaef385cd7fc928d276d6be82ad29c01b35a6efc5fbcab1c924d679818760ff168154811061311e57634e487b7160e01b600052603260045260246000fd5b90600052602060002090600502016004015460405161313f91815260200190565b60405180910390a16131b2565b60405162461bcd60e51b815260206004820152603560248201527f476f7665726e6f72566f74696e6753696d706c653a20696e76616c69642076616044820152746c756520666f7220656e756d20566f74655479706560581b6064820152608401610bcc565b5050505050505050565b60006111a58284614130565b60006111a58284614150565b6060824710156132355760405162461bcd60e51b815260206004820152602660248201527f416464726573733a20696e73756666696369656e742062616c616e636520666f6044820152651c8818d85b1b60d21b6064820152608401610bcc565b6001600160a01b0385163b61328c5760405162461bcd60e51b815260206004820152601d60248201527f416464726573733a2063616c6c20746f206e6f6e2d636f6e74726163740000006044820152606401610bcc565b600080866001600160a01b031685876040516132a89190613d1a565b60006040518083038185875af1925050503d80600081146132e5576040519150601f19603f3d011682016040523d82523d6000602084013e6132ea565b606091505b5091509150610fde828286612af2565b80516a636f6e736f6c652e6c6f67602083016000808483855afa5050505050565b828054613327906141b6565b90600052602060002090601f016020900481019282613349576000855561338f565b82601f1061336257805160ff191683800117855561338f565b8280016001018555821561338f579182015b8281111561338f578251825591602001919060010190613374565b506128499291505b808211156128495760008155600101613397565b60006001600160401b038311156133c4576133c4614222565b6133d7601f8401601f191660200161409a565b90508281528383830111156133eb57600080fd5b828260208301376000602084830101529392505050565b600082601f830112613412578081fd5b81356020613427613422836140ca565b61409a565b8281528181019085830183850287018401881015613443578586fd5b855b8581101561346a57813561345881614238565b84529284019290840190600101613445565b5090979650505050505050565b600082601f830112613487578081fd5b81356020613497613422836140ca565b82815281810190858301855b8581101561346a578135880189603f8201126134bd578788fd5b6134ce8a87830135604084016133ab565b85525092840192908401906001016134a3565b600082601f8301126134f1578081fd5b81356020613501613422836140ca565b828152818101908583018385028701840188101561351d578586fd5b855b8581101561346a5781358452928401929084019060010161351f565b60008083601f84011261354c578182fd5b5081356001600160401b03811115613562578182fd5b60208301915083602082850101111561357a57600080fd5b9250929050565b600082601f830112613591578081fd5b6111a5838335602085016133ab565b803560ff81168114610b7f57600080fd5b600080604083850312156135c3578182fd5b82356135ce81614238565b946020939093013593505050565b600080600080606085870312156135f1578182fd5b84356135fc81614238565b93506020850135925060408501356001600160401b0381111561361d578283fd5b6136298782880161353b565b95989497509550505050565b6000806000806080858703121561364a578384fd5b84356001600160401b0380821115613660578586fd5b61366c88838901613402565b95506020870135915080821115613681578485fd5b61368d888389016134e1565b945060408701359150808211156136a2578384fd5b506136af87828801613477565b949793965093946060013593505050565b600080600080608085870312156136d5578182fd5b84356001600160401b03808211156136eb578384fd5b6136f788838901613402565b9550602087013591508082111561370c578384fd5b613718888389016134e1565b9450604087013591508082111561372d578384fd5b61373988838901613477565b9350606087013591508082111561374e578283fd5b5061375b87828801613581565b91505092959194509250565b600080600080600060a0868803121561377e578283fd5b85356001600160401b0380821115613794578485fd5b6137a089838a01613402565b965060208801359150808211156137b5578485fd5b6137c189838a016134e1565b955060408801359150808211156137d6578485fd5b6137e289838a01613477565b945060608801359150808211156137f7578283fd5b5061380488828901613581565b95989497509295608001359392505050565b600060208284031215613827578081fd5b815180151581146111a5578182fd5b600060208284031215613847578081fd5b81356001600160e01b0319811681146111a5578182fd5b60006020828403121561386f578081fd5b81356001600160401b03811115613884578182fd5b61113f84828501613581565b600080600080600060a086880312156138a7578283fd5b85356001600160401b03808211156138bd578485fd5b6138c989838a01613581565b965060208801359150808211156138de578485fd5b6138ea89838a01613581565b955060408801359150808211156138ff578485fd5b5061390c88828901613581565b93505060608601359150608086013561392481614238565b809150509295509295909350565b60008060408385031215613944578182fd5b82356001600160401b03811115613959578283fd5b61396585828601613581565b95602094909401359450505050565b600060208284031215613985578081fd5b5035919050565b60006020828403121561399d578081fd5b5051919050565b600080604083850312156139b6578182fd5b8235915060208301356139c881614238565b809150509250929050565b6000806000606084860312156139e7578081fd5b8335925060208401356001600160401b03811115613a03578182fd5b613a0f86828701613581565b925050604084013590509250925092565b60008060408385031215613a32578182fd5b50508035926020909101359150565b60008060408385031215613a53578182fd5b82359150613a63602084016135a0565b90509250929050565b60008060008060608587031215613a81578182fd5b84359350613a91602086016135a0565b925060408501356001600160401b0381111561361d578283fd5b600080600080600060a08688031215613ac2578283fd5b85359450613ad2602087016135a0565b9350613ae0604087016135a0565b94979396509394606081013594506080013592915050565b6000815180845260208085019450808401835b83811015613b305781516001600160a01b031687529582019590820190600101613b0b565b509495945050505050565b6000815180845260208085018081965082840281019150828601855b85811015613b81578284038952613b6f848351613c50565b98850198935090840190600101613b57565b5091979650505050505050565b6000815480845260208085018081965082840281019150858552828520855b85811015613b815782840389528154845260018201546001600160a01b03168585015260a060408501819052613be881860160028501613c7c565b90508481036060860152613bff8160038501613c7c565b6004840154608096909601959095525097840197600590910190600101613bad565b6000815180845260208085019450808401835b83811015613b3057815187529582019590820190600101613c34565b60008151808452613c68816020860160208601614186565b601f01601f19169290920160200192915050565b805460009060028104600180831680613c9657607f831692505b6020808410821415613cb657634e487b7160e01b86526022600452602486fd5b83885260208801828015613cd15760018114613ce257613d0d565b60ff19871682528282019750613d0d565b60008981526020902060005b87811015613d0757815484820152908601908401613cee565b83019850505b5050505050505092915050565b60008251613d2c818460208701614186565b9190910192915050565b600060808252613d496080830187613af8565b8281036020840152613d5b8187613c21565b90508281036040840152613d6f8186613b3b565b91505082606083015295945050505050565b6020810160088310613da357634e487b7160e01b600052602160045260246000fd5b91905290565b6000602082526111a56020830184613c50565b600060408252613dcf6040830185613c50565b90508260208301529392505050565b60208082526018908201527f476f7665726e6f723a206f6e6c79476f7665726e616e63650000000000000000604082015260600190565b60208082526021908201527f476f7665726e6f723a20696e76616c69642070726f706f73616c206c656e67746040820152600d60fb1b606082015260800190565b60006020825282546020830152610120806040840152613e7d610140840160018601613c7c565b60028501546060850152601f1980858303016080860152613ea18260038801613b8e565b9150808583030160a0860152613eba8260048801613c7c565b9150808583030160c086015250613ed48160058701613c7c565b9050600685015460e0850152613ef460078601546001600160a01b031690565b6001600160a01b0316610100850152600894909401549201919091525090565b60006101208b8352602060018060a01b038c1681850152816040850152613f3d8285018c613af8565b91508382036060850152613f51828b613c21565b848103608086015289518082529092508183019082810284018301838c01865b83811015613f9f57601f19878403018552613f8d838351613c50565b94860194925090850190600101613f71565b505086810360a0880152613fb3818c613b3b565b945050505050613fce60c08401876001600160401b03169052565b6001600160401b03851660e0840152828103610100840152613ff08185613c50565b9c9b505050505050505050505050565b60006101008a835280602084015261401a8184018b613c50565b905088604084015282810360608401526140348189613c50565b905082810360808401526140488188613c50565b60a084019690965250506001600160a01b039290921660c083015260e09091015295945050505050565b600085825260ff851660208301528360408301526080606083015261118f6080830184613c50565b604051601f8201601f191681016001600160401b03811182821017156140c2576140c2614222565b604052919050565b60006001600160401b038211156140e3576140e3614222565b5060209081020190565b600082198211156141005761410061420c565b500190565b60006001600160401b038083168185168083038211156141275761412761420c565b01949350505050565b60008261414b57634e487b7160e01b81526012600452602481fd5b500490565b600081600019048311821515161561416a5761416a61420c565b500290565b6000828210156141815761418161420c565b500390565b60005b838110156141a1578181015183820152602001614189565b838111156141b0576000848401525b50505050565b6002810460018216806141ca57607f821691505b602082108114156141eb57634e487b7160e01b600052602260045260246000fd5b50919050565b60006000198214156142055761420561420c565b5060010190565b634e487b7160e01b600052601160045260246000fd5b634e487b7160e01b600052604160045260246000fd5b6001600160a01b0381168114610bde57600080fdfe476f7665726e6f723a2063616c6c20726576657274656420776974686f7574206d657373616765416464726573733a206c6f772d6c6576656c2063616c6c20776974682076616c7565206661696c6564a2646970667358221220e585e7b51237c765c06c135bde51d5e04e2dfe4b2aa1a5cdcf2e74aeb78a6f2464736f6c63430008020033",
  "linkReferences": {},
  "deployedLinkReferences": {}
}