{
  "_format": "hh-sol-artifact-1",
  "contractName": "PDAOToken",
  "sourceName": "contracts/PDAOToken.sol",
  "abi": [
    {
      "inputs": [],
      "stateMutability": "nonpayable",
      "type": "constructor"
    },
    {
      "anonymous": false,
      "inputs": [
        {
          "indexed": true,
          "internalType": "address",
          "name": "owner",
          "type": "address"
        },
        {
          "indexed": true,
          "internalType": "address",
          "name": "spender",
          "type": "address"
        },
        {
          "indexed": false,
          "internalType": "uint256",
          "name": "value",
          "type": "uint256"
        }
      ],
      "name": "Approval",
      "type": "event"
    },
    {
      "anonymous": false,
      "inputs": [
        {
          "indexed": true,
          "internalType": "address",
          "name": "delegator",
          "type": "address"
        },
        {
          "indexed": true,
          "internalType": "address",
          "name": "fromDelegate",
          "type": "address"
        },
        {
          "indexed": true,
          "internalType": "address",
          "name": "toDelegate",
          "type": "address"
        }
      ],
      "name": "DelegateChanged",
      "type": "event"
    },
    {
      "anonymous": false,
      "inputs": [
        {
          "indexed": true,
          "internalType": "address",
          "name": "delegate",
          "type": "address"
        },
        {
          "indexed": false,
          "internalType": "uint256",
          "name": "previousBalance",
          "type": "uint256"
        },
        {
          "indexed": false,
          "internalType": "uint256",
          "name": "newBalance",
          "type": "uint256"
        }
      ],
      "name": "DelegateVotesChanged",
      "type": "event"
    },
    {
      "anonymous": false,
      "inputs": [
        {
          "indexed": false,
          "internalType": "address",
          "name": "account",
          "type": "address"
        }
      ],
      "name": "Paused",
      "type": "event"
    },
    {
      "anonymous": false,
      "inputs": [
        {
          "indexed": true,
          "internalType": "bytes32",
          "name": "role",
          "type": "bytes32"
        },
        {
          "indexed": true,
          "internalType": "bytes32",
          "name": "previousAdminRole",
          "type": "bytes32"
        },
        {
          "indexed": true,
          "internalType": "bytes32",
          "name": "newAdminRole",
          "type": "bytes32"
        }
      ],
      "name": "RoleAdminChanged",
      "type": "event"
    },
    {
      "anonymous": false,
      "inputs": [
        {
          "indexed": true,
          "internalType": "bytes32",
          "name": "role",
          "type": "bytes32"
        },
        {
          "indexed": true,
          "internalType": "address",
          "name": "account",
          "type": "address"
        },
        {
          "indexed": true,
          "internalType": "address",
          "name": "sender",
          "type": "address"
        }
      ],
      "name": "RoleGranted",
      "type": "event"
    },
    {
      "anonymous": false,
      "inputs": [
        {
          "indexed": true,
          "internalType": "bytes32",
          "name": "role",
          "type": "bytes32"
        },
        {
          "indexed": true,
          "internalType": "address",
          "name": "account",
          "type": "address"
        },
        {
          "indexed": true,
          "internalType": "address",
          "name": "sender",
          "type": "address"
        }
      ],
      "name": "RoleRevoked",
      "type": "event"
    },
    {
      "anonymous": false,
      "inputs": [
        {
          "indexed": true,
          "internalType": "address",
          "name": "from",
          "type": "address"
        },
        {
          "indexed": true,
          "internalType": "address",
          "name": "to",
          "type": "address"
        },
        {
          "indexed": false,
          "internalType": "uint256",
          "name": "value",
          "type": "uint256"
        }
      ],
      "name": "Transfer",
      "type": "event"
    },
    {
      "anonymous": false,
      "inputs": [
        {
          "indexed": false,
          "internalType": "address",
          "name": "account",
          "type": "address"
        }
      ],
      "name": "Unpaused",
      "type": "event"
    },
    {
      "inputs": [],
      "name": "DEFAULT_ADMIN_ROLE",
      "outputs": [
        {
          "internalType": "bytes32",
          "name": "",
          "type": "bytes32"
        }
      ],
      "stateMutability": "view",
      "type": "function"
    },
    {
      "inputs": [],
      "name": "DOMAIN_SEPARATOR",
      "outputs": [
        {
          "internalType": "bytes32",
          "name": "",
          "type": "bytes32"
        }
      ],
      "stateMutability": "view",
      "type": "function"
    },
    {
      "inputs": [],
      "name": "MINTER_ROLE",
      "outputs": [
        {
          "internalType": "bytes32",
          "name": "",
          "type": "bytes32"
        }
      ],
      "stateMutability": "view",
      "type": "function"
    },
    {
      "inputs": [],
      "name": "PAUSER_ROLE",
      "outputs": [
        {
          "internalType": "bytes32",
          "name": "",
          "type": "bytes32"
        }
      ],
      "stateMutability": "view",
      "type": "function"
    },
    {
      "inputs": [
        {
          "internalType": "address",
          "name": "owner",
          "type": "address"
        },
        {
          "internalType": "address",
          "name": "spender",
          "type": "address"
        }
      ],
      "name": "allowance",
      "outputs": [
        {
          "internalType": "uint256",
          "name": "",
          "type": "uint256"
        }
      ],
      "stateMutability": "view",
      "type": "function"
    },
    {
      "inputs": [
        {
          "internalType": "address",
          "name": "spender",
          "type": "address"
        },
        {
          "internalType": "uint256",
          "name": "amount",
          "type": "uint256"
        }
      ],
      "name": "approve",
      "outputs": [
        {
          "internalType": "bool",
          "name": "",
          "type": "bool"
        }
      ],
      "stateMutability": "nonpayable",
      "type": "function"
    },
    {
      "inputs": [
        {
          "internalType": "address",
          "name": "account",
          "type": "address"
        }
      ],
      "name": "balanceOf",
      "outputs": [
        {
          "internalType": "uint256",
          "name": "",
          "type": "uint256"
        }
      ],
      "stateMutability": "view",
      "type": "function"
    },
    {
      "inputs": [
        {
          "internalType": "uint256",
          "name": "amount",
          "type": "uint256"
        }
      ],
      "name": "burn",
      "outputs": [],
      "stateMutability": "nonpayable",
      "type": "function"
    },
    {
      "inputs": [
        {
          "internalType": "address",
          "name": "account",
          "type": "address"
        },
        {
          "internalType": "uint256",
          "name": "amount",
          "type": "uint256"
        }
      ],
      "name": "burnFrom",
      "outputs": [],
      "stateMutability": "nonpayable",
      "type": "function"
    },
    {
      "inputs": [
        {
          "internalType": "address",
          "name": "account",
          "type": "address"
        }
      ],
      "name": "checkMinterRole",
      "outputs": [
        {
          "internalType": "bool",
          "name": "",
          "type": "bool"
        }
      ],
      "stateMutability": "view",
      "type": "function"
    },
    {
      "inputs": [
        {
          "internalType": "address",
          "name": "account",
          "type": "address"
        }
      ],
      "name": "checkPauserRole",
      "outputs": [
        {
          "internalType": "bool",
          "name": "",
          "type": "bool"
        }
      ],
      "stateMutability": "view",
      "type": "function"
    },
    {
      "inputs": [
        {
          "internalType": "address",
          "name": "account",
          "type": "address"
        },
        {
          "internalType": "uint32",
          "name": "pos",
          "type": "uint32"
        }
      ],
      "name": "checkpoints",
      "outputs": [
        {
          "components": [
            {
              "internalType": "uint32",
              "name": "fromBlock",
              "type": "uint32"
            },
            {
              "internalType": "uint224",
              "name": "votes",
              "type": "uint224"
            }
          ],
          "internalType": "struct ERC20Votes.Checkpoint",
          "name": "",
          "type": "tuple"
        }
      ],
      "stateMutability": "view",
      "type": "function"
    },
    {
      "inputs": [],
      "name": "decimals",
      "outputs": [
        {
          "internalType": "uint8",
          "name": "",
          "type": "uint8"
        }
      ],
      "stateMutability": "view",
      "type": "function"
    },
    {
      "inputs": [
        {
          "internalType": "address",
          "name": "spender",
          "type": "address"
        },
        {
          "internalType": "uint256",
          "name": "subtractedValue",
          "type": "uint256"
        }
      ],
      "name": "decreaseAllowance",
      "outputs": [
        {
          "internalType": "bool",
          "name": "",
          "type": "bool"
        }
      ],
      "stateMutability": "nonpayable",
      "type": "function"
    },
    {
      "inputs": [
        {
          "internalType": "address",
          "name": "delegatee",
          "type": "address"
        }
      ],
      "name": "delegate",
      "outputs": [],
      "stateMutability": "nonpayable",
      "type": "function"
    },
    {
      "inputs": [
        {
          "internalType": "address",
          "name": "delegatee",
          "type": "address"
        },
        {
          "internalType": "uint256",
          "name": "nonce",
          "type": "uint256"
        },
        {
          "internalType": "uint256",
          "name": "expiry",
          "type": "uint256"
        },
        {
          "internalType": "uint8",
          "name": "v",
          "type": "uint8"
        },
        {
          "internalType": "bytes32",
          "name": "r",
          "type": "bytes32"
        },
        {
          "internalType": "bytes32",
          "name": "s",
          "type": "bytes32"
        }
      ],
      "name": "delegateBySig",
      "outputs": [],
      "stateMutability": "nonpayable",
      "type": "function"
    },
    {
      "inputs": [
        {
          "internalType": "address",
          "name": "account",
          "type": "address"
        }
      ],
      "name": "delegates",
      "outputs": [
        {
          "internalType": "address",
          "name": "",
          "type": "address"
        }
      ],
      "stateMutability": "view",
      "type": "function"
    },
    {
      "inputs": [
        {
          "internalType": "uint256",
          "name": "blockNumber",
          "type": "uint256"
        }
      ],
      "name": "getPastTotalSupply",
      "outputs": [
        {
          "internalType": "uint256",
          "name": "",
          "type": "uint256"
        }
      ],
      "stateMutability": "view",
      "type": "function"
    },
    {
      "inputs": [
        {
          "internalType": "address",
          "name": "account",
          "type": "address"
        },
        {
          "internalType": "uint256",
          "name": "blockNumber",
          "type": "uint256"
        }
      ],
      "name": "getPastVotes",
      "outputs": [
        {
          "internalType": "uint256",
          "name": "",
          "type": "uint256"
        }
      ],
      "stateMutability": "view",
      "type": "function"
    },
    {
      "inputs": [
        {
          "internalType": "bytes32",
          "name": "role",
          "type": "bytes32"
        }
      ],
      "name": "getRoleAdmin",
      "outputs": [
        {
          "internalType": "bytes32",
          "name": "",
          "type": "bytes32"
        }
      ],
      "stateMutability": "view",
      "type": "function"
    },
    {
      "inputs": [
        {
          "internalType": "address",
          "name": "account",
          "type": "address"
        }
      ],
      "name": "getVotes",
      "outputs": [
        {
          "internalType": "uint256",
          "name": "",
          "type": "uint256"
        }
      ],
      "stateMutability": "view",
      "type": "function"
    },
    {
      "inputs": [
        {
          "internalType": "bytes32",
          "name": "role",
          "type": "bytes32"
        },
        {
          "internalType": "address",
          "name": "account",
          "type": "address"
        }
      ],
      "name": "grantRole",
      "outputs": [],
      "stateMutability": "nonpayable",
      "type": "function"
    },
    {
      "inputs": [
        {
          "internalType": "bytes32",
          "name": "role",
          "type": "bytes32"
        },
        {
          "internalType": "address",
          "name": "account",
          "type": "address"
        }
      ],
      "name": "hasRole",
      "outputs": [
        {
          "internalType": "bool",
          "name": "",
          "type": "bool"
        }
      ],
      "stateMutability": "view",
      "type": "function"
    },
    {
      "inputs": [
        {
          "internalType": "address",
          "name": "spender",
          "type": "address"
        },
        {
          "internalType": "uint256",
          "name": "addedValue",
          "type": "uint256"
        }
      ],
      "name": "increaseAllowance",
      "outputs": [
        {
          "internalType": "bool",
          "name": "",
          "type": "bool"
        }
      ],
      "stateMutability": "nonpayable",
      "type": "function"
    },
    {
      "inputs": [
        {
          "internalType": "address",
          "name": "to",
          "type": "address"
        },
        {
          "internalType": "uint256",
          "name": "amount",
          "type": "uint256"
        }
      ],
      "name": "mint",
      "outputs": [],
      "stateMutability": "nonpayable",
      "type": "function"
    },
    {
      "inputs": [],
      "name": "name",
      "outputs": [
        {
          "internalType": "string",
          "name": "",
          "type": "string"
        }
      ],
      "stateMutability": "view",
      "type": "function"
    },
    {
      "inputs": [
        {
          "internalType": "address",
          "name": "owner",
          "type": "address"
        }
      ],
      "name": "nonces",
      "outputs": [
        {
          "internalType": "uint256",
          "name": "",
          "type": "uint256"
        }
      ],
      "stateMutability": "view",
      "type": "function"
    },
    {
      "inputs": [
        {
          "internalType": "address",
          "name": "account",
          "type": "address"
        }
      ],
      "name": "numCheckpoints",
      "outputs": [
        {
          "internalType": "uint32",
          "name": "",
          "type": "uint32"
        }
      ],
      "stateMutability": "view",
      "type": "function"
    },
    {
      "inputs": [],
      "name": "pause",
      "outputs": [],
      "stateMutability": "nonpayable",
      "type": "function"
    },
    {
      "inputs": [],
      "name": "paused",
      "outputs": [
        {
          "internalType": "bool",
          "name": "",
          "type": "bool"
        }
      ],
      "stateMutability": "view",
      "type": "function"
    },
    {
      "inputs": [
        {
          "internalType": "address",
          "name": "owner",
          "type": "address"
        },
        {
          "internalType": "address",
          "name": "spender",
          "type": "address"
        },
        {
          "internalType": "uint256",
          "name": "value",
          "type": "uint256"
        },
        {
          "internalType": "uint256",
          "name": "deadline",
          "type": "uint256"
        },
        {
          "internalType": "uint8",
          "name": "v",
          "type": "uint8"
        },
        {
          "internalType": "bytes32",
          "name": "r",
          "type": "bytes32"
        },
        {
          "internalType": "bytes32",
          "name": "s",
          "type": "bytes32"
        }
      ],
      "name": "permit",
      "outputs": [],
      "stateMutability": "nonpayable",
      "type": "function"
    },
    {
      "inputs": [
        {
          "internalType": "bytes32",
          "name": "role",
          "type": "bytes32"
        },
        {
          "internalType": "address",
          "name": "account",
          "type": "address"
        }
      ],
      "name": "renounceRole",
      "outputs": [],
      "stateMutability": "nonpayable",
      "type": "function"
    },
    {
      "inputs": [
        {
          "internalType": "bytes32",
          "name": "role",
          "type": "bytes32"
        },
        {
          "internalType": "address",
          "name": "account",
          "type": "address"
        }
      ],
      "name": "revokeRole",
      "outputs": [],
      "stateMutability": "nonpayable",
      "type": "function"
    },
    {
      "inputs": [
        {
          "internalType": "address",
          "name": "account",
          "type": "address"
        }
      ],
      "name": "setMinterRole",
      "outputs": [],
      "stateMutability": "nonpayable",
      "type": "function"
    },
    {
      "inputs": [
        {
          "internalType": "address",
          "name": "account",
          "type": "address"
        }
      ],
      "name": "setPauserRole",
      "outputs": [],
      "stateMutability": "nonpayable",
      "type": "function"
    },
    {
      "inputs": [
        {
          "internalType": "bytes4",
          "name": "interfaceId",
          "type": "bytes4"
        }
      ],
      "name": "supportsInterface",
      "outputs": [
        {
          "internalType": "bool",
          "name": "",
          "type": "bool"
        }
      ],
      "stateMutability": "view",
      "type": "function"
    },
    {
      "inputs": [],
      "name": "symbol",
      "outputs": [
        {
          "internalType": "string",
          "name": "",
          "type": "string"
        }
      ],
      "stateMutability": "view",
      "type": "function"
    },
    {
      "inputs": [],
      "name": "totalSupply",
      "outputs": [
        {
          "internalType": "uint256",
          "name": "",
          "type": "uint256"
        }
      ],
      "stateMutability": "view",
      "type": "function"
    },
    {
      "inputs": [
        {
          "internalType": "address",
          "name": "to",
          "type": "address"
        },
        {
          "internalType": "uint256",
          "name": "amount",
          "type": "uint256"
        }
      ],
      "name": "transfer",
      "outputs": [
        {
          "internalType": "bool",
          "name": "",
          "type": "bool"
        }
      ],
      "stateMutability": "nonpayable",
      "type": "function"
    },
    {
      "inputs": [
        {
          "internalType": "address",
          "name": "from",
          "type": "address"
        },
        {
          "internalType": "address",
          "name": "to",
          "type": "address"
        },
        {
          "internalType": "uint256",
          "name": "amount",
          "type": "uint256"
        }
      ],
      "name": "transferFrom",
      "outputs": [
        {
          "internalType": "bool",
          "name": "",
          "type": "bool"
        }
      ],
      "stateMutability": "nonpayable",
      "type": "function"
    },
    {
      "inputs": [],
      "name": "unpause",
      "outputs": [],
      "stateMutability": "nonpayable",
      "type": "function"
    }
  ],
  "bytecode": "0x6101606040527f6e71edae12b1b97f4d1f60370fef10105fa2faae0126114a169c64845d6126c9610140523480156200003757600080fd5b506040518060400160405280600f81526020016e283934bd32902220a7902a37b5b2b760891b81525080604051806040016040528060018152602001603160f81b8152506040518060400160405280600f81526020016e283934bd32902220a7902a37b5b2b760891b815250604051806040016040528060048152602001635044414f60e01b8152508160039080519060200190620000d892919062000977565b508051620000ee90600490602084019062000977565b50506005805460ff1916905550815160208084019190912082519183019190912060e08290526101008190524660a0527f8b73c3c69bb8fe3d512ecc4cf759cc79239f7b179b0ffacaa9a75d522b39400f6200014c818484620001f5565b6080523060601b60c05261012052506200016f935060009250339150506200023f565b6200019b7f65d7a28e3265b37a6474929f336521b332c1681b933f6cb9f3376673440d862a336200023f565b620001c333620001ae6012600a62000a7b565b620001bd90620f424062000b66565b620002e4565b620001ef7f9f2df0fed2c77648de5860a4cc508cd0818c85b8b8a1ab4ceeef8d981c8956a6336200023f565b62000bf5565b6040805160208101859052908101839052606081018290524660808201523060a082015260009060c0016040516020818303038152906040528051906020012090505b9392505050565b60008281526006602090815260408083206001600160a01b038516845290915290205460ff16620002e05760008281526006602090815260408083206001600160a01b03851684529091529020805460ff191660011790556200029f3390565b6001600160a01b0316816001600160a01b0316837f2f8788117e7eff1d82e926ec794901d17c78024a50270940304540a733656f0d60405160405180910390a45b5050565b620002e08282620002fb60201b62000fc61760201c565b620003128282620003b260201b620010561760201c565b6001600160e01b0362000326620004af8216565b1115620003935760405162461bcd60e51b815260206004820152603060248201527f4552433230566f7465733a20746f74616c20737570706c79207269736b73206f60448201526f766572666c6f77696e6720766f74657360801b60648201526084015b60405180910390fd5b620003ac600a62001149620004b560201b1783620004c3565b50505050565b6001600160a01b0382166200040a5760405162461bcd60e51b815260206004820152601f60248201527f45524332303a206d696e7420746f20746865207a65726f20616464726573730060448201526064016200038a565b6200041860008383620006a7565b80600260008282546200042c919062000a13565b90915550506001600160a01b038216600090815260208190526040812080548392906200045b90849062000a13565b90915550506040518181526001600160a01b038316906000907fddf252ad1be2c89b69c2b068fc378daa952ba7f163c4a11628f55a4df523b3ef9060200160405180910390a3620002e0600083836200070c565b60025490565b600062000238828462000a13565b825460009081908015620005215785620004df60018362000b88565b81548110620004fe57634e487b7160e01b600052603260045260246000fd5b60009182526020909120015464010000000090046001600160e01b031662000524565b60005b6001600160e01b031692506200053b83858760201c565b91506000811180156200058b575043866200055860018462000b88565b815481106200057757634e487b7160e01b600052603260045260246000fd5b60009182526020909120015463ffffffff16145b156200060b57620005a7826200072460201b620011551760201c565b86620005b560018462000b88565b81548110620005d457634e487b7160e01b600052603260045260246000fd5b9060005260206000200160000160046101000a8154816001600160e01b0302191690836001600160e01b031602179055506200069e565b8560405180604001604052806200062d436200079360201b620011c21760201c565b63ffffffff1681526020016200064e856200072460201b620011551760201c565b6001600160e01b039081169091528254600181018455600093845260209384902083519101805493909401519091166401000000000263ffffffff91821663ffffffff1990931692909217161790555b50935093915050565b60055460ff1615620006ef5760405162461bcd60e51b815260206004820152601060248201526f14185d5cd8589b194e881c185d5cd95960821b60448201526064016200038a565b620007078383836200070760201b6200074f1760201c565b505050565b62000707838383620007fa60201b620012271760201c565b60006001600160e01b038211156200078f5760405162461bcd60e51b815260206004820152602760248201527f53616665436173743a2076616c756520646f65736e27742066697420696e20326044820152663234206269747360c81b60648201526084016200038a565b5090565b600063ffffffff8211156200078f5760405162461bcd60e51b815260206004820152602660248201527f53616665436173743a2076616c756520646f65736e27742066697420696e203360448201526532206269747360d01b60648201526084016200038a565b620008128383836200070760201b6200074f1760201c565b6001600160a01b038381166000908152600860205260408082205485841683529120546200070792918216911683818314801590620008515750600081115b1562000707576001600160a01b03831615620008de576001600160a01b0383166000908152600960209081526040822082916200089b919062000969901b620012591785620004c3565b91509150846001600160a01b03166000805160206200384c8339815191528383604051620008d3929190918252602082015260400190565b60405180910390a250505b6001600160a01b0382161562000707576001600160a01b038216600090815260096020908152604082208291620009229190620004b5901b620011491785620004c3565b91509150836001600160a01b03166000805160206200384c83398151915283836040516200095a929190918252602082015260400190565b60405180910390a25050505050565b600062000238828462000b88565b828054620009859062000ba2565b90600052602060002090601f016020900481019282620009a95760008555620009f4565b82601f10620009c457805160ff1916838001178555620009f4565b82800160010185558215620009f4579182015b82811115620009f4578251825591602001919060010190620009d7565b506200078f9291505b808211156200078f5760008155600101620009fd565b6000821982111562000a295762000a2962000bdf565b500190565b80825b600180861162000a42575062000a72565b81870482111562000a575762000a5762000bdf565b8086161562000a6557918102915b9490941c93800262000a31565b94509492505050565b60006200023860001960ff85168460008262000a9a5750600162000238565b8162000aa95750600062000238565b816001811462000ac2576002811462000acd5762000b01565b600191505062000238565b60ff84111562000ae15762000ae162000bdf565b6001841b91508482111562000afa5762000afa62000bdf565b5062000238565b5060208310610133831016604e8410600b841016171562000b39575081810a8381111562000b335762000b3362000bdf565b62000238565b62000b48848484600162000a2e565b80860482111562000b5d5762000b5d62000bdf565b02949350505050565b600081600019048311821515161562000b835762000b8362000bdf565b500290565b60008282101562000b9d5762000b9d62000bdf565b500390565b60028104600182168062000bb757607f821691505b6020821081141562000bd957634e487b7160e01b600052602260045260246000fd5b50919050565b634e487b7160e01b600052601160045260246000fd5b60805160a05160c05160601c60e051610100516101205161014051612bf962000c536000396000610dfe0152600061176a015260006117b901526000611794015260006116eb015260006117150152600061173f0152612bf96000f3fe608060405234801561001057600080fd5b50600436106102535760003560e01c806370a0823111610146578063a217fddf116100c3578063d505accf11610087578063d505accf14610532578063d539139314610545578063d547741f1461055a578063dd62ed3e1461056d578063e63ab1e9146105a6578063f1127ed8146105bb57610253565b8063a217fddf146104de578063a457c2d7146104e6578063a526be72146104f9578063a9059cbb1461050c578063c3cda5201461051f57610253565b806391d148541161010a57806391d148541461048a578063945d12291461049d57806394911356146104b057806395d89b41146104c35780639ab24eb0146104cb57610253565b806370a082311461042057806379cc6790146104495780637ecebe001461045c5780638456cb591461046f5780638e539e8c1461047757610253565b806336568abe116101d457806342966c681161019857806342966c6814610383578063587cde1e146103965780635c19a95c146103da5780635c975abb146103ed5780636fcfff45146103f857610253565b806336568abe1461032f57806339509351146103425780633a46b1a8146103555780633f4ba83a1461036857806340c10f191461037057610253565b806323b872dd1161021b57806323b872dd146102cf578063248a9ca3146102e25780632f2ff15d14610305578063313ce567146103185780633644e5151461032757610253565b806301ffc9a71461025857806306fdde0314610280578063095ea7b31461029557806318160ddd146102a85780631bc28a69146102ba575b600080fd5b61026b6102663660046128ba565b6105f8565b60405190151581526020015b60405180910390f35b610288610631565b6040516102779190612983565b61026b6102a33660046127c2565b6106c4565b6002545b604051908152602001610277565b6102cd6102c83660046126d2565b6106dc565b005b61026b6102dd36600461271e565b610705565b6102ac6102f0366004612880565b60009081526006602052604090206001015490565b6102cd610313366004612898565b610729565b60405160128152602001610277565b6102ac610754565b6102cd61033d366004612898565b610763565b61026b6103503660046127c2565b6107e2565b6102ac6103633660046127c2565b610821565b6102cd6108d9565b6102cd61037e3660046127c2565b6108fd565b6102cd610391366004612880565b610971565b6103c26103a43660046126d2565b6001600160a01b039081166000908152600860205260409020541690565b6040516001600160a01b039091168152602001610277565b6102cd6103e83660046126d2565b61097b565b60055460ff1661026b565b61040b6104063660046126d2565b6109db565b60405163ffffffff9091168152602001610277565b6102ac61042e3660046126d2565b6001600160a01b031660009081526020819052604090205490565b6102cd6104573660046127c2565b6109fd565b6102ac61046a3660046126d2565b610a12565b6102cd610a30565b6102ac610485366004612880565b610a51565b61026b610498366004612898565b610aad565b6102cd6104ab3660046126d2565b610ad8565b61026b6104be3660046126d2565b610afc565b610288610b16565b6102ac6104d93660046126d2565b610b25565b6102ac600081565b61026b6104f43660046127c2565b610bba565b61026b6105073660046126d2565b610c4c565b61026b61051a3660046127c2565b610c66565b6102cd61052d3660046127eb565b610c74565b6102cd610540366004612759565b610daa565b6102ac600080516020612b7f83398151915281565b6102cd610568366004612898565b610f0e565b6102ac61057b3660046126ec565b6001600160a01b03918216600090815260016020908152604080832093909416825291909152205490565b6102ac600080516020612b5f83398151915281565b6105ce6105c9366004612842565b610f34565b60408051825163ffffffff1681526020928301516001600160e01b03169281019290925201610277565b60006001600160e01b03198216637965db0b60e01b148061062957506301ffc9a760e01b6001600160e01b03198316145b90505b919050565b60606003805461064090612b13565b80601f016020809104026020016040519081016040528092919081815260200182805461066c90612b13565b80156106b95780601f1061068e576101008083540402835291602001916106b9565b820191906000526020600020905b81548152906001019060200180831161069c57829003601f168201915b505050505090505b90565b6000336106d2818585611265565b5060019392505050565b60006106e981335b611389565b610701600080516020612b5f833981519152836113ed565b5050565b600033610713858285611473565b61071e8585856114ff565b506001949350505050565b60008281526006602052604090206001015461074581336106e4565b61074f83836113ed565b505050565b600061075e6116de565b905090565b6001600160a01b03811633146107d85760405162461bcd60e51b815260206004820152602f60248201527f416363657373436f6e74726f6c3a2063616e206f6e6c792072656e6f756e636560448201526e103937b632b9903337b91039b2b63360891b60648201526084015b60405180910390fd5b6107018282611809565b3360008181526001602090815260408083206001600160a01b03871684529091528120549091906106d2908290869061081c908790612a62565b611265565b60004382106108725760405162461bcd60e51b815260206004820152601f60248201527f4552433230566f7465733a20626c6f636b206e6f7420796574206d696e65640060448201526064016107cf565b6108b06040518060400160405280601881526020017f4552433230566f7465733a2067657450617374566f7465730000000000000000815250611870565b6001600160a01b03831660009081526009602052604090206108d290836118b3565b9392505050565b600080516020612b5f8339815191526108f281336106e4565b6108fa61198c565b50565b600080516020612b7f83398151915261091681336106e4565b6109676040518060400160405280600c81526020016b036b4b73a34b733903a379d160a51b815250846040518060400160405280600981526020016801030b6b7bab73a1d160bd1b81525085611a1f565b61074f8383611a68565b6108fa3382611a72565b6109d16040518060400160405280600b81526020016a64656c6567617465653d3d60a81b81525082604051806040016040528060098152602001686161636f756e743d3d60b81b8152506109cc3390565b611a7c565b6108fa3382611ac5565b6001600160a01b038116600090815260096020526040812054610629906111c2565b610a08823383611473565b6107018282611a72565b6001600160a01b038116600090815260076020526040812054610629565b600080516020612b5f833981519152610a4981336106e4565b6108fa611b7d565b6000438210610aa25760405162461bcd60e51b815260206004820152601f60248201527f4552433230566f7465733a20626c6f636b206e6f7420796574206d696e65640060448201526064016107cf565b610629600a836118b3565b60009182526006602090815260408084206001600160a01b0393909316845291905290205460ff1690565b6000610ae481336106e4565b610701600080516020612b7f833981519152836113ed565b6000610629600080516020612b5f83398151915283610aad565b60606004805461064090612b13565b6001600160a01b0381166000908152600960205260408120548015610ba7576001600160a01b0383166000908152600960205260409020610b67600183612ab9565b81548110610b8557634e487b7160e01b600052603260045260246000fd5b60009182526020909120015464010000000090046001600160e01b0316610baa565b60005b6001600160e01b03169392505050565b3360008181526001602090815260408083206001600160a01b038716845290915281205490919083811015610c3f5760405162461bcd60e51b815260206004820152602560248201527f45524332303a2064656372656173656420616c6c6f77616e63652062656c6f77604482015264207a65726f60d81b60648201526084016107cf565b61071e8286868403611265565b6000610629600080516020612b7f83398151915283610aad565b6000336106d28185856114ff565b83421115610cc45760405162461bcd60e51b815260206004820152601d60248201527f4552433230566f7465733a207369676e6174757265206578706972656400000060448201526064016107cf565b604080517fe48329057bfd03d55e49b547132e39cffd9c1820ad7b9d4c5307691425d15adf60208201526001600160a01b038816918101919091526060810186905260808101859052600090610d3e90610d369060a00160405160208183030381529060405280519060200120611bf8565b858585611c46565b9050610d4981611c6e565b8614610d975760405162461bcd60e51b815260206004820152601960248201527f4552433230566f7465733a20696e76616c6964206e6f6e63650000000000000060448201526064016107cf565b610da18188611ac5565b50505050505050565b83421115610dfa5760405162461bcd60e51b815260206004820152601d60248201527f45524332305065726d69743a206578706972656420646561646c696e6500000060448201526064016107cf565b60007f0000000000000000000000000000000000000000000000000000000000000000888888610e298c611c6e565b6040805160208101969096526001600160a01b0394851690860152929091166060840152608083015260a082015260c0810186905260e0016040516020818303038152906040528051906020012090506000610e8482611bf8565b90506000610e9482878787611c46565b9050896001600160a01b0316816001600160a01b031614610ef75760405162461bcd60e51b815260206004820152601e60248201527f45524332305065726d69743a20696e76616c6964207369676e6174757265000060448201526064016107cf565b610f028a8a8a611265565b50505050505050505050565b600082815260066020526040902060010154610f2a81336106e4565b61074f8383611809565b60408051808201909152600080825260208201526001600160a01b0383166000908152600960205260409020805463ffffffff8416908110610f8657634e487b7160e01b600052603260045260246000fd5b60009182526020918290206040805180820190915291015463ffffffff8116825264010000000090046001600160e01b0316918101919091529392505050565b610fd08282611056565b6002546001600160e01b0310156110425760405162461bcd60e51b815260206004820152603060248201527f4552433230566f7465733a20746f74616c20737570706c79207269736b73206f60448201526f766572666c6f77696e6720766f74657360801b60648201526084016107cf565b611050600a61114983611c96565b50505050565b6001600160a01b0382166110ac5760405162461bcd60e51b815260206004820152601f60248201527f45524332303a206d696e7420746f20746865207a65726f20616464726573730060448201526064016107cf565b6110b860008383611e47565b80600260008282546110ca9190612a62565b90915550506001600160a01b038216600090815260208190526040812080548392906110f7908490612a62565b90915550506040518181526001600160a01b038316906000907fddf252ad1be2c89b69c2b068fc378daa952ba7f163c4a11628f55a4df523b3ef9060200160405180910390a361070160008383611e92565b60006108d28284612a62565b60006001600160e01b038211156111be5760405162461bcd60e51b815260206004820152602760248201527f53616665436173743a2076616c756520646f65736e27742066697420696e20326044820152663234206269747360c81b60648201526084016107cf565b5090565b600063ffffffff8211156111be5760405162461bcd60e51b815260206004820152602660248201527f53616665436173743a2076616c756520646f65736e27742066697420696e203360448201526532206269747360d01b60648201526084016107cf565b6001600160a01b0383811660009081526008602052604080822054858416835291205461074f92918216911683611e9d565b60006108d28284612ab9565b6001600160a01b0383166112c75760405162461bcd60e51b8152602060048201526024808201527f45524332303a20617070726f76652066726f6d20746865207a65726f206164646044820152637265737360e01b60648201526084016107cf565b6001600160a01b0382166113285760405162461bcd60e51b815260206004820152602260248201527f45524332303a20617070726f766520746f20746865207a65726f206164647265604482015261737360f01b60648201526084016107cf565b6001600160a01b0383811660008181526001602090815260408083209487168084529482529182902085905590518481527f8c5be1e5ebec7d5bd14f71427d1e84f3dd0314c0f7b2291e5b200ac8c7c3b925910160405180910390a3505050565b6113938282610aad565b610701576113ab816001600160a01b03166014611fda565b6113b6836020611fda565b6040516020016113c792919061290e565b60408051601f198184030181529082905262461bcd60e51b82526107cf91600401612983565b6113f78282610aad565b6107015760008281526006602090815260408083206001600160a01b03851684529091529020805460ff1916600117905561142f3390565b6001600160a01b0316816001600160a01b0316837f2f8788117e7eff1d82e926ec794901d17c78024a50270940304540a733656f0d60405160405180910390a45050565b6001600160a01b03838116600090815260016020908152604080832093861683529290522054600019811461105057818110156114f25760405162461bcd60e51b815260206004820152601d60248201527f45524332303a20696e73756666696369656e7420616c6c6f77616e636500000060448201526064016107cf565b6110508484848403611265565b6001600160a01b0383166115635760405162461bcd60e51b815260206004820152602560248201527f45524332303a207472616e736665722066726f6d20746865207a65726f206164604482015264647265737360d81b60648201526084016107cf565b6001600160a01b0382166115c55760405162461bcd60e51b815260206004820152602360248201527f45524332303a207472616e7366657220746f20746865207a65726f206164647260448201526265737360e81b60648201526084016107cf565b6115d0838383611e47565b6001600160a01b038316600090815260208190526040902054818110156116485760405162461bcd60e51b815260206004820152602660248201527f45524332303a207472616e7366657220616d6f756e7420657863656564732062604482015265616c616e636560d01b60648201526084016107cf565b6001600160a01b0380851660009081526020819052604080822085850390559185168152908120805484929061167f908490612a62565b92505081905550826001600160a01b0316846001600160a01b03167fddf252ad1be2c89b69c2b068fc378daa952ba7f163c4a11628f55a4df523b3ef846040516116cb91815260200190565b60405180910390a3611050848484611e92565b6000306001600160a01b037f00000000000000000000000000000000000000000000000000000000000000001614801561173757507f000000000000000000000000000000000000000000000000000000000000000046145b1561176357507f00000000000000000000000000000000000000000000000000000000000000006106c1565b50604080517f00000000000000000000000000000000000000000000000000000000000000006020808301919091527f0000000000000000000000000000000000000000000000000000000000000000828401527f000000000000000000000000000000000000000000000000000000000000000060608301524660808301523060a0808401919091528351808403909101815260c090920190925280519101206106c1565b6118138282610aad565b156107015760008281526006602090815260408083206001600160a01b0385168085529252808320805460ff1916905551339285917ff6391f5c32d9c69d2a47ea670b442974b53935d1edc7fd64eb21e047a839171b9190a45050565b6108fa816040516024016118849190612983565b60408051601f198184030181529190526020810180516001600160e01b031663104c13eb60e21b1790526121bc565b8154600090815b818110156119255760006118ce82846121dd565b9050848682815481106118f157634e487b7160e01b600052603260045260246000fd5b60009182526020909120015463ffffffff1611156119115780925061191f565b61191c816001612a62565b91505b506118ba565b81156119775784611937600184612ab9565b8154811061195557634e487b7160e01b600052603260045260246000fd5b60009182526020909120015464010000000090046001600160e01b031661197a565b60005b6001600160e01b031695945050505050565b60055460ff166119d55760405162461bcd60e51b815260206004820152601460248201527314185d5cd8589b194e881b9bdd081c185d5cd95960621b60448201526064016107cf565b6005805460ff191690557f5db9ee0a495bf2e6ff9c91a7834c1ba4fdd244a5e8aa4e537bd38aeae4b073aa335b6040516001600160a01b03909116815260200160405180910390a1565b61105084848484604051602401611a399493929190612a1c565b60408051601f198184030181529190526020810180516001600160e01b0316638f624be960e01b1790526121bc565b6107018282610fc6565b61070182826121f8565b61105084848484604051602401611a9694939291906129d2565b60408051601f198184030181529190526020810180516001600160e01b031663aabc9a3160e01b1790526121bc565b6001600160a01b038281166000908152600860208181526040808420805485845294829020549383528686166001600160a01b03198616179055805160608101909152602580825293909416939192611b289291612b9f90830139858486612210565b826001600160a01b0316826001600160a01b0316856001600160a01b03167f3134e8a2e6d97e929a7e54011ea5485d7d196dd5f0ba4d4ef95803e8e3fc257f60405160405180910390a4611050828483611e9d565b60055460ff1615611bc35760405162461bcd60e51b815260206004820152601060248201526f14185d5cd8589b194e881c185d5cd95960821b60448201526064016107cf565b6005805460ff191660011790557f62e78cea01bee320cd4e420270b5ea74000d11b0c9f74754ebdbfc544b05a258611a023390565b6000610629611c056116de565b8360405161190160f01b6020820152602281018390526042810182905260009060620160405160208183030381529060405280519060200120905092915050565b6000806000611c5787878787612259565b91509150611c6481612346565b5095945050505050565b6001600160a01b03811660009081526007602052604090208054600181018255905b50919050565b825460009081908015611cef5785611caf600183612ab9565b81548110611ccd57634e487b7160e01b600052603260045260246000fd5b60009182526020909120015464010000000090046001600160e01b0316611cf2565b60005b6001600160e01b03169250611d0b83858763ffffffff16565b9150600081118015611d5757504386611d25600184612ab9565b81548110611d4357634e487b7160e01b600052603260045260246000fd5b60009182526020909120015463ffffffff16145b15611dc557611d6582611155565b86611d71600184612ab9565b81548110611d8f57634e487b7160e01b600052603260045260246000fd5b9060005260206000200160000160046101000a8154816001600160e01b0302191690836001600160e01b03160217905550611e3e565b856040518060400160405280611dda436111c2565b63ffffffff168152602001611dee85611155565b6001600160e01b039081169091528254600181018455600093845260209384902083519101805493909401519091166401000000000263ffffffff91821663ffffffff1990931692909217161790555b50935093915050565b60055460ff1615611e8d5760405162461bcd60e51b815260206004820152601060248201526f14185d5cd8589b194e881c185d5cd95960821b60448201526064016107cf565b61074f565b61074f838383611227565b816001600160a01b0316836001600160a01b031614158015611ebf5750600081115b1561074f576001600160a01b03831615611f4d576001600160a01b03831660009081526009602052604081208190611efa9061125985611c96565b91509150846001600160a01b03167fdec2bacdd2f05b59de34da9b523dff8be42e5e38e818c82fdb0bae774387a7248383604051611f42929190918252602082015260400190565b60405180910390a250505b6001600160a01b0382161561074f576001600160a01b03821660009081526009602052604081208190611f839061114985611c96565b91509150836001600160a01b03167fdec2bacdd2f05b59de34da9b523dff8be42e5e38e818c82fdb0bae774387a7248383604051611fcb929190918252602082015260400190565b60405180910390a25050505050565b60606000611fe9836002612a9a565b611ff4906002612a62565b67ffffffffffffffff81111561201a57634e487b7160e01b600052604160045260246000fd5b6040519080825280601f01601f191660200182016040528015612044576020820181803683370190505b509050600360fc1b8160008151811061206d57634e487b7160e01b600052603260045260246000fd5b60200101906001600160f81b031916908160001a905350600f60fb1b816001815181106120aa57634e487b7160e01b600052603260045260246000fd5b60200101906001600160f81b031916908160001a90535060006120ce846002612a9a565b6120d9906001612a62565b90505b600181111561216d576f181899199a1a9b1b9c1cb0b131b232b360811b85600f166010811061211b57634e487b7160e01b600052603260045260246000fd5b1a60f81b82828151811061213f57634e487b7160e01b600052603260045260246000fd5b60200101906001600160f81b031916908160001a90535060049490941c9361216681612afc565b90506120dc565b5083156108d25760405162461bcd60e51b815260206004820181905260248201527f537472696e67733a20686578206c656e67746820696e73756666696369656e7460448201526064016107cf565b80516a636f6e736f6c652e6c6f67602083016000808483855afa5050505050565b60006121ec6002848418612a7a565b6108d290848416612a62565b6122028282612549565b611050600a61125983611c96565b6110508484848460405160240161222a9493929190612996565b60408051601f198184030181529190526020810180516001600160e01b03166376c7947b60e11b1790526121bc565b6000807f7fffffffffffffffffffffffffffffff5d576e7357a4501ddfe92f46681b20a0831115612290575060009050600361233d565b8460ff16601b141580156122a857508460ff16601c14155b156122b9575060009050600461233d565b6040805160008082526020820180845289905260ff881692820192909252606081018690526080810185905260019060a0016020604051602081039080840390855afa15801561230d573d6000803e3d6000fd5b5050604051601f1901519150506001600160a01b0381166123365760006001925092505061233d565b9150600090505b94509492505050565b600081600481111561236857634e487b7160e01b600052602160045260246000fd5b1415612373576108fa565b600181600481111561239557634e487b7160e01b600052602160045260246000fd5b14156123e35760405162461bcd60e51b815260206004820152601860248201527f45434453413a20696e76616c6964207369676e6174757265000000000000000060448201526064016107cf565b600281600481111561240557634e487b7160e01b600052602160045260246000fd5b14156124535760405162461bcd60e51b815260206004820152601f60248201527f45434453413a20696e76616c6964207369676e6174757265206c656e6774680060448201526064016107cf565b600381600481111561247557634e487b7160e01b600052602160045260246000fd5b14156124ce5760405162461bcd60e51b815260206004820152602260248201527f45434453413a20696e76616c6964207369676e6174757265202773272076616c604482015261756560f01b60648201526084016107cf565b60048160048111156124f057634e487b7160e01b600052602160045260246000fd5b14156108fa5760405162461bcd60e51b815260206004820152602260248201527f45434453413a20696e76616c6964207369676e6174757265202776272076616c604482015261756560f01b60648201526084016107cf565b6001600160a01b0382166125a95760405162461bcd60e51b815260206004820152602160248201527f45524332303a206275726e2066726f6d20746865207a65726f206164647265736044820152607360f81b60648201526084016107cf565b6125b582600083611e47565b6001600160a01b038216600090815260208190526040902054818110156126295760405162461bcd60e51b815260206004820152602260248201527f45524332303a206275726e20616d6f756e7420657863656564732062616c616e604482015261636560f01b60648201526084016107cf565b6001600160a01b0383166000908152602081905260408120838303905560028054849290612658908490612ab9565b90915550506040518281526000906001600160a01b038516907fddf252ad1be2c89b69c2b068fc378daa952ba7f163c4a11628f55a4df523b3ef9060200160405180910390a361074f83600084611e92565b80356001600160a01b038116811461062c57600080fd5b803560ff8116811461062c57600080fd5b6000602082840312156126e3578081fd5b6108d2826126aa565b600080604083850312156126fe578081fd5b612707836126aa565b9150612715602084016126aa565b90509250929050565b600080600060608486031215612732578081fd5b61273b846126aa565b9250612749602085016126aa565b9150604084013590509250925092565b600080600080600080600060e0888a031215612773578283fd5b61277c886126aa565b965061278a602089016126aa565b955060408801359450606088013593506127a6608089016126c1565b925060a0880135915060c0880135905092959891949750929550565b600080604083850312156127d4578182fd5b6127dd836126aa565b946020939093013593505050565b60008060008060008060c08789031215612803578182fd5b61280c876126aa565b95506020870135945060408701359350612828606088016126c1565b92506080870135915060a087013590509295509295509295565b60008060408385031215612854578182fd5b61285d836126aa565b9150602083013563ffffffff81168114612875578182fd5b809150509250929050565b600060208284031215612891578081fd5b5035919050565b600080604083850312156128aa578182fd5b82359150612715602084016126aa565b6000602082840312156128cb578081fd5b81356001600160e01b0319811681146108d2578182fd5b600081518084526128fa816020860160208601612ad0565b601f01601f19169290920160200192915050565b60007f416363657373436f6e74726f6c3a206163636f756e742000000000000000000082528351612946816017850160208801612ad0565b7001034b99036b4b9b9b4b733903937b6329607d1b6017918401918201528351612977816028840160208801612ad0565b01602801949350505050565b6000602082526108d260208301846128e2565b6000608082526129a960808301876128e2565b6001600160a01b0395861660208401529385166040830152509216606090920191909152919050565b6000608082526129e560808301876128e2565b6001600160a01b0386811660208501528382036040850152612a0782876128e2565b92508085166060850152505095945050505050565b600060808252612a2f60808301876128e2565b6001600160a01b03861660208401528281036040840152612a5081866128e2565b91505082606083015295945050505050565b60008219821115612a7557612a75612b48565b500190565b600082612a9557634e487b7160e01b81526012600452602481fd5b500490565b6000816000190483118215151615612ab457612ab4612b48565b500290565b600082821015612acb57612acb612b48565b500390565b60005b83811015612aeb578181015183820152602001612ad3565b838111156110505750506000910152565b600081612b0b57612b0b612b48565b506000190190565b600281046001821680612b2757607f821691505b60208210811415611c9057634e487b7160e01b600052602260045260246000fd5b634e487b7160e01b600052601160045260246000fdfe65d7a28e3265b37a6474929f336521b332c1681b933f6cb9f3376673440d862a9f2df0fed2c77648de5860a4cc508cd0818c85b8b8a1ab4ceeef8d981c8956a664656c656761746f722c2063757272656e7444656c65676174652c2064656c656761746565a2646970667358221220ac2ab8408fd5a45fac9f4f7d31beef783fac2898d9b503cba5108f1eb76cc0dd64736f6c63430008020033dec2bacdd2f05b59de34da9b523dff8be42e5e38e818c82fdb0bae774387a724",
  "linkReferences": {},
  "deployedLinkReferences": {}
}